{"contracts/UnicrowArbitrator.sol":{"UnicrowArbitrator":{"abi":[{"inputs":[{"internalType":"address","name":"unicrow_","type":"address"},{"internalType":"address","name":"unicrowClaim_","type":"address"}],"stateMutability":"nonpayable","type":"constructor"},{"anonymous":false,"inputs":[{"indexed":true,"internalType":"uint256","name":"escrowId","type":"uint256"},{"components":[{"internalType":"address","name":"buyer","type":"address"},{"internalType":"address","name":"seller","type":"address"},{"internalType":"uint64","name":"challengePeriodStart","type":"uint64"},{"internalType":"uint64","name":"challengePeriodEnd","type":"uint64"},{"internalType":"uint64","name":"challengeExtension","type":"uint64"},{"internalType":"address","name":"marketplace","type":"address"},{"internalType":"uint256","name":"marketplaceFee","type":"uint256"},{"internalType":"address","name":"currency","type":"address"},{"internalType":"uint16","name":"claimed","type":"uint16"},{"internalType":"int16[2]","name":"consensus","type":"int16[2]"},{"internalType":"uint16[4]","name":"split","type":"uint16[4]"},{"internalType":"uint256","name":"amount","type":"uint256"}],"indexed":false,"internalType":"struct Escrow","name":"escrow","type":"tuple"},{"indexed":false,"internalType":"uint256","name":"blockTime","type":"uint256"},{"indexed":false,"internalType":"uint256[5]","name":"amounts","type":"uint256[5]"}],"name":"Arbitrated","type":"event"},{"anonymous":false,"inputs":[{"indexed":true,"internalType":"uint256","name":"escrowId","type":"uint256"},{"indexed":false,"internalType":"address","name":"arbitrator","type":"address"},{"indexed":false,"internalType":"uint256","name":"arbitratorFee","type":"uint256"}],"name":"ArbitratorApproved","type":"event"},{"anonymous":false,"inputs":[{"indexed":true,"internalType":"uint256","name":"escrowId","type":"uint256"},{"indexed":false,"internalType":"address","name":"arbitrator","type":"address"},{"indexed":false,"internalType":"uint16","name":"arbitratorFee","type":"uint16"},{"indexed":false,"internalType":"address","name":"proposer","type":"address"}],"name":"ArbitratorProposed","type":"event"},{"inputs":[{"internalType":"uint256","name":"escrowId","type":"uint256"},{"internalType":"address","name":"validationAddress","type":"address"},{"internalType":"uint16","name":"validation","type":"uint16"}],"name":"approveArbitrator","outputs":[],"stateMutability":"nonpayable","type":"function"},{"inputs":[{"internalType":"uint256","name":"escrowId","type":"uint256"},{"internalType":"uint16[2]","name":"newSplit","type":"uint16[2]"}],"name":"arbitrate","outputs":[],"stateMutability":"nonpayable","type":"function"},{"inputs":[{"internalType":"uint16[5]","name":"currentSplit","type":"uint16[5]"}],"name":"arbitrationCalculation","outputs":[{"internalType":"uint16[4]","name":"","type":"uint16[4]"}],"stateMutability":"pure","type":"function"},{"inputs":[{"internalType":"uint256","name":"","type":"uint256"}],"name":"escrowArbitrator","outputs":[{"internalType":"address","name":"arbitrator","type":"address"},{"internalType":"uint16","name":"arbitratorFee","type":"uint16"},{"internalType":"bool","name":"sellerConsensus","type":"bool"},{"internalType":"bool","name":"buyerConsensus","type":"bool"},{"internalType":"bool","name":"arbitrated","type":"bool"}],"stateMutability":"view","type":"function"},{"inputs":[{"internalType":"uint256","name":"escrowId","type":"uint256"}],"name":"getArbitratorData","outputs":[{"components":[{"internalType":"address","name":"arbitrator","type":"address"},{"internalType":"uint16","name":"arbitratorFee","type":"uint16"},{"internalType":"bool","name":"sellerConsensus","type":"bool"},{"internalType":"bool","name":"buyerConsensus","type":"bool"},{"internalType":"bool","name":"arbitrated","type":"bool"}],"internalType":"struct Arbitrator","name":"","type":"tuple"}],"stateMutability":"view","type":"function"},{"inputs":[{"internalType":"uint256","name":"escrowId","type":"uint256"},{"internalType":"address","name":"arbitrator","type":"address"},{"internalType":"uint16","name":"arbitratorFee","type":"uint16"}],"name":"proposeArbitrator","outputs":[],"stateMutability":"nonpayable","type":"function"},{"inputs":[{"internalType":"uint256","name":"escrowId","type":"uint256"},{"internalType":"address","name":"arbitrator","type":"address"},{"internalType":"uint16","name":"arbitratorFee","type":"uint16"}],"name":"setArbitrator","outputs":[],"stateMutability":"nonpayable","type":"function"},{"inputs":[],"name":"unicrow","outputs":[{"internalType":"contract Unicrow","name":"","type":"address"}],"stateMutability":"view","type":"function"},{"inputs":[],"name":"unicrowClaim","outputs":[{"internalType":"contract IUnicrowClaim","name":"","type":"address"}],"stateMutability":"view","type":"function"}],"evm":{"bytecode":{"linkReferences":{},"object":"60c06040523480156200001157600080fd5b5060405162002e1e38038062002e1e8339818101604052810190620000379190620000cc565b60016000819055508173ffffffffffffffffffffffffffffffffffffffff1660808173ffffffffffffffffffffffffffffffffffffffff1660601b815250508073ffffffffffffffffffffffffffffffffffffffff1660a08173ffffffffffffffffffffffffffffffffffffffff1660601b81525050505062000166565b600081519050620000c6816200014c565b92915050565b60008060408385031215620000e657620000e562000147565b5b6000620000f685828601620000b5565b92505060206200010985828601620000b5565b9150509250929050565b6000620001208262000127565b9050919050565b600073ffffffffffffffffffffffffffffffffffffffff82169050919050565b600080fd5b620001578162000113565b81146200016357600080fd5b50565b60805160601c60a05160601c612c54620001ca60003960008181610a76015261158d0152600081816102ce015281816103670152818161044b01528181610628015281816109ad0152818161100a0152818161162201526117080152612c546000f3fe608060405234801561001057600080fd5b50600436106100935760003560e01c80636e4e2934116100665780636e4e29341461013057806379414b3c1461014e5780638e032c5a1461016a578063e2bc475c14610186578063e9db7d79146101ba57610093565b806316e0551b146100985780632ea8eddd146100c8578063496f928b146100e45780634c403c5314610100575b600080fd5b6100b260048036038101906100ad9190611cd4565b6101d8565b6040516100bf91906124cc565b60405180910390f35b6100e260048036038101906100dd9190611d01565b6102cc565b005b6100fe60048036038101906100f99190611d54565b610617565b005b61011a60048036038101906101159190611c1f565b610b64565b604051610127919061237b565b60405180910390f35b610138611008565b60405161014591906123b1565b60405180910390f35b61016860048036038101906101639190611d01565b61102c565b005b610184600480360381019061017f9190611d01565b611266565b005b6101a0600480360381019061019b9190611cd4565b611500565b6040516101b1959493929190612328565b60405180910390f35b6101c261158b565b6040516101cf9190612396565b60405180910390f35b6101e06117ea565b600160008381526020019081526020016000206040518060a00160405290816000820160009054906101000a900473ffffffffffffffffffffffffffffffffffffffff1673ffffffffffffffffffffffffffffffffffffffff1673ffffffffffffffffffffffffffffffffffffffff1681526020016000820160149054906101000a900461ffff1661ffff1661ffff1681526020016000820160169054906101000a900460ff161515151581526020016000820160179054906101000a900460ff161515151581526020016000820160189054906101000a900460ff1615151515815250509050919050565b7f000000000000000000000000000000000000000000000000000000000000000073ffffffffffffffffffffffffffffffffffffffff1661030b6115af565b73ffffffffffffffffffffffffffffffffffffffff161461032b57600080fd5b600073ffffffffffffffffffffffffffffffffffffffff168273ffffffffffffffffffffffffffffffffffffffff16141561036557600080fd5b7f000000000000000000000000000000000000000000000000000000000000000073ffffffffffffffffffffffffffffffffffffffff16637d19e596846040518263ffffffff1660e01b81526004016103be9190612521565b6102006040518083038186803b1580156103d757600080fd5b505afa1580156103eb573d6000803e3d6000fd5b505050506040513d601f19601f8201168201806040525081019061040f9190611c79565b6020015173ffffffffffffffffffffffffffffffffffffffff168273ffffffffffffffffffffffffffffffffffffffff161415801561052757507f000000000000000000000000000000000000000000000000000000000000000073ffffffffffffffffffffffffffffffffffffffff16637d19e596846040518263ffffffff1660e01b81526004016104a29190612521565b6102006040518083038186803b1580156104bb57600080fd5b505afa1580156104cf573d6000803e3d6000fd5b505050506040513d601f19601f820116820180604052508101906104f39190611c79565b6000015173ffffffffffffffffffffffffffffffffffffffff168273ffffffffffffffffffffffffffffffffffffffff1614155b61053057600080fd5b816001600085815260200190815260200160002060000160006101000a81548173ffffffffffffffffffffffffffffffffffffffff021916908373ffffffffffffffffffffffffffffffffffffffff160217905550806001600085815260200190815260200160002060000160146101000a81548161ffff021916908361ffff160217905550600180600085815260200190815260200160002060000160176101000a81548160ff021916908315150217905550600180600085815260200190815260200160002060000160166101000a81548160ff021916908315150217905550505050565b6000610622836101d8565b905060007f000000000000000000000000000000000000000000000000000000000000000073ffffffffffffffffffffffffffffffffffffffff16637d19e596856040518263ffffffff1660e01b815260040161067f9190612521565b6102006040518083038186803b15801561069857600080fd5b505afa1580156106ac573d6000803e3d6000fd5b505050506040513d601f19601f820116820180604052508101906106d09190611c79565b9050816000015173ffffffffffffffffffffffffffffffffffffffff166106f56115af565b73ffffffffffffffffffffffffffffffffffffffff161461074b576040517f08c379a00000000000000000000000000000000000000000000000000000000081526004016107429061242c565b60405180910390fd5b8160600151801561075d575081604001515b61079c576040517f08c379a0000000000000000000000000000000000000000000000000000000008152600401610793906124ac565b60405180910390fd5b61271083600160ff16600281106107b6576107b56129e0565b5b6020020160208101906107c99190611ca7565b84600060ff16600281106107e0576107df6129e0565b5b6020020160208101906107f39190611ca7565b6107fd919061272e565b61ffff1614610841576040517f08c379a0000000000000000000000000000000000000000000000000000000008152600401610838906123cc565b60405180910390fd5b600161086c826101200151600060ff1660028110610862576108616129e0565b5b60200201516115b7565b61087691906126b8565b816101200151600060ff1660028110610892576108916129e0565b5b602002019060010b908160010b815250506108cc816101200151600160ff16600281106108c2576108c16129e0565b5b60200201516115b7565b816101200151600160ff16600281106108e8576108e76129e0565b5b602002019060010b908160010b8152505082600060ff16600281106109105761090f6129e0565b5b6020020160208101906109239190611ca7565b816101400151600060ff166004811061093f5761093e6129e0565b5b602002019061ffff16908161ffff168152505082600160ff1660028110610969576109686129e0565b5b60200201602081019061097c9190611ca7565b816101400151600160ff1660048110610998576109976129e0565b5b602002019061ffff16908161ffff16815250507f000000000000000000000000000000000000000000000000000000000000000073ffffffffffffffffffffffffffffffffffffffff166364166e63858361014001518461012001516040518463ffffffff1660e01b8152600401610a129392919061253c565b600060405180830381600087803b158015610a2c57600080fd5b505af1158015610a40573d6000803e3d6000fd5b50505050600180600086815260200190815260200160002060000160186101000a81548160ff02191690831515021790555060007f000000000000000000000000000000000000000000000000000000000000000073ffffffffffffffffffffffffffffffffffffffff1663b34291a6866040518263ffffffff1660e01b8152600401610acd9190612521565b60a060405180830381600087803b158015610ae757600080fd5b505af1158015610afb573d6000803e3d6000fd5b505050506040513d601f19601f82011682018060405250810190610b1f9190611c4c565b9050847ff1861ae9c599e289fb150935395b66fbe4513f9657e6e38009c29fd4ffd309d1834284604051610b55939291906124e7565b60405180910390a25050505050565b610b6c611839565b610b74611839565b600080610bfc61271061ffff16610bee87600060ff1660058110610b9b57610b9a6129e0565b5b602002016020810190610bae9190611ca7565b61ffff1688600460ff1660058110610bc957610bc86129e0565b5b602002016020810190610bdc9190611ca7565b61ffff166115dc90919063ffffffff16565b6115f290919063ffffffff16565b9050610c8361271061ffff16610c7587600160ff1660058110610c2257610c216129e0565b5b602002016020810190610c359190611ca7565b61ffff1688600460ff1660058110610c5057610c4f6129e0565b5b602002016020810190610c639190611ca7565b61ffff166115dc90919063ffffffff16565b6115f290919063ffffffff16565b9150600085600360ff1660058110610c9e57610c9d6129e0565b5b602002016020810190610cb19190611ca7565b61ffff161115610d6b57610d4061271061ffff16610d3287600160ff1660058110610cdf57610cde6129e0565b5b602002016020810190610cf29190611ca7565b61ffff1688600360ff1660058110610d0d57610d0c6129e0565b5b602002016020810190610d209190611ca7565b61ffff166115dc90919063ffffffff16565b6115f290919063ffffffff16565b83600360ff1660048110610d5757610d566129e0565b5b602002019061ffff16908161ffff16815250505b600085600260ff1660058110610d8457610d836129e0565b5b602002016020810190610d979190611ca7565b61ffff161115610e5157610e2661271061ffff16610e1887600160ff1660058110610dc557610dc46129e0565b5b602002016020810190610dd89190611ca7565b61ffff1688600260ff1660058110610df357610df26129e0565b5b602002016020810190610e069190611ca7565b61ffff166115dc90919063ffffffff16565b6115f290919063ffffffff16565b83600260ff1660048110610e3d57610e3c6129e0565b5b602002019061ffff16908161ffff16815250505b600085600060ff1660058110610e6a57610e696129e0565b5b602002016020810190610e7d9190611ca7565b61ffff161115610ef657610ecb8161ffff1686600060ff1660058110610ea657610ea56129e0565b5b602002016020810190610eb99190611ca7565b61ffff1661160890919063ffffffff16565b83600060ff1660048110610ee257610ee16129e0565b5b602002019061ffff16908161ffff16815250505b600085600160ff1660058110610f0f57610f0e6129e0565b5b602002016020810190610f229190611ca7565b61ffff161115610ffd57610fd28261ffff16610fc485600260ff1660048110610f4e57610f4d6129e0565b5b602002015161ffff16610fb687600360ff1660048110610f7157610f706129e0565b5b602002015161ffff168a600160ff1660058110610f9157610f906129e0565b5b602002016020810190610fa49190611ca7565b61ffff1661160890919063ffffffff16565b61160890919063ffffffff16565b61160890919063ffffffff16565b83600160ff1660048110610fe957610fe86129e0565b5b602002019061ffff16908161ffff16815250505b829350505050919050565b7f000000000000000000000000000000000000000000000000000000000000000081565b826110356115af565b61103f828261161e565b80611050575061104f8282611704565b5b61108f576040517f08c379a0000000000000000000000000000000000000000000000000000000008152600401611086906123ec565b60405180910390fd5b60006001600087815260200190815260200160002090508060000160179054906101000a900460ff1615806110d357508060000160169054906101000a900460ff16155b611112576040517f08c379a00000000000000000000000000000000000000000000000000000000081526004016111099061240c565b60405180910390fd5b848160000160006101000a81548173ffffffffffffffffffffffffffffffffffffffff021916908373ffffffffffffffffffffffffffffffffffffffff160217905550838160000160146101000a81548161ffff021916908361ffff160217905550611185866111806115af565b61161e565b156111c95760018160000160176101000a81548160ff02191690831515021790555060008160000160166101000a81548160ff02191690831515021790555061121b565b6111da866111d56115af565b611704565b1561121a5760018160000160166101000a81548160ff02191690831515021790555060008160000160176101000a81548160ff0219169083151502179055505b5b857fbf42827f17777ed92b098fa9e5f6823ecb5c116e3b23909cc242530b1784dbbc86866112476115af565b604051611256939291906122f1565b60405180910390a2505050505050565b8261126f6115af565b611279828261161e565b8061128a57506112898282611704565b5b6112c9576040517f08c379a00000000000000000000000000000000000000000000000000000000081526004016112c0906123ec565b60405180910390fd5b60006112d4866101d8565b9050806000015173ffffffffffffffffffffffffffffffffffffffff168573ffffffffffffffffffffffffffffffffffffffff1614611348576040517f08c379a000000000000000000000000000000000000000000000000000000000815260040161133f9061244c565b60405180910390fd5b806020015161ffff168461ffff1614611396576040517f08c379a000000000000000000000000000000000000000000000000000000000815260040161138d9061246c565b60405180910390fd5b6113a7866113a26115af565b61161e565b15611426576000151581606001511515146113f7576040517f08c379a00000000000000000000000000000000000000000000000000000000081526004016113ee9061248c565b60405180910390fd5b600180600088815260200190815260200160002060000160176101000a81548160ff0219169083151502179055505b611437866114326115af565b611704565b156114b657600015158160400151151514611487576040517f08c379a000000000000000000000000000000000000000000000000000000000815260040161147e9061248c565b60405180910390fd5b600180600088815260200190815260200160002060000160166101000a81548160ff0219169083151502179055505b857fd514ca74d69a194b5d9455914d0d20ef96d29b6177b241c9d5f608264055199c826000015183602001516040516114f09291906122c8565b60405180910390a2505050505050565b60016020528060005260406000206000915090508060000160009054906101000a900473ffffffffffffffffffffffffffffffffffffffff16908060000160149054906101000a900461ffff16908060000160169054906101000a900460ff16908060000160179054906101000a900460ff16908060000160189054906101000a900460ff16905085565b7f000000000000000000000000000000000000000000000000000000000000000081565b600033905090565b6000808260010b12156115d357816115ce90612939565b6115d5565b815b9050919050565b600081836115ea9190612797565b905092915050565b600081836116009190612766565b905092915050565b6000818361161691906127f1565b905092915050565b60007f000000000000000000000000000000000000000000000000000000000000000073ffffffffffffffffffffffffffffffffffffffff16637d19e596846040518263ffffffff1660e01b81526004016116799190612521565b6102006040518083038186803b15801561169257600080fd5b505afa1580156116a6573d6000803e3d6000fd5b505050506040513d601f19601f820116820180604052508101906116ca9190611c79565b6000015173ffffffffffffffffffffffffffffffffffffffff168273ffffffffffffffffffffffffffffffffffffffff1614905092915050565b60007f000000000000000000000000000000000000000000000000000000000000000073ffffffffffffffffffffffffffffffffffffffff16637d19e596846040518263ffffffff1660e01b815260040161175f9190612521565b6102006040518083038186803b15801561177857600080fd5b505afa15801561178c573d6000803e3d6000fd5b505050506040513d601f19601f820116820180604052508101906117b09190611c79565b6020015173ffffffffffffffffffffffffffffffffffffffff168273ffffffffffffffffffffffffffffffffffffffff1614905092915050565b6040518060a00160405280600073ffffffffffffffffffffffffffffffffffffffff168152602001600061ffff1681526020016000151581526020016000151581526020016000151581525090565b6040518060800160405280600490602082028036833780820191505090505090565b600061186e61186984612598565b612573565b9050808285602086028201111561188857611887612a48565b5b60005b858110156118b8578161189e8882611a7f565b84526020840193506020830192505060018101905061188b565b5050509392505050565b60006118d56118d0846125be565b612573565b905080828560208602820111156118ef576118ee612a48565b5b60005b8581101561191f57816119058882611bcb565b8452602084019350602083019250506001810190506118f2565b5050509392505050565b600061193c611937846125e4565b612573565b9050808285602086028201111561195657611955612a48565b5b60005b85811015611986578161196c8882611bf5565b845260208401935060208301925050600181019050611959565b5050509392505050565b60008135905061199f81612bab565b92915050565b6000815190506119b481612bab565b92915050565b600082601f8301126119cf576119ce612a3e565b5b60026119dc84828561185b565b91505092915050565b600081905082602060020282011115611a0157611a00612a48565b5b92915050565b600082601f830112611a1c57611a1b612a3e565b5b6004611a298482856118c2565b91505092915050565b600081905082602060050282011115611a4e57611a4d612a48565b5b92915050565b600082601f830112611a6957611a68612a3e565b5b6005611a76848285611929565b91505092915050565b600081519050611a8e81612bc2565b92915050565b60006102008284031215611aab57611aaa612a43565b5b611ab6610180612573565b90506000611ac6848285016119a5565b6000830152506020611ada848285016119a5565b6020830152506040611aee84828501611c0a565b6040830152506060611b0284828501611c0a565b6060830152506080611b1684828501611c0a565b60808301525060a0611b2a848285016119a5565b60a08301525060c0611b3e84828501611bf5565b60c08301525060e0611b52848285016119a5565b60e083015250610100611b6784828501611bcb565b61010083015250610120611b7d848285016119ba565b61012083015250610160611b9384828501611a07565b610140830152506101e0611ba984828501611bf5565b6101608301525092915050565b600081359050611bc581612bd9565b92915050565b600081519050611bda81612bd9565b92915050565b600081359050611bef81612bf0565b92915050565b600081519050611c0481612bf0565b92915050565b600081519050611c1981612c07565b92915050565b600060a08284031215611c3557611c34612a4d565b5b6000611c4384828501611a32565b91505092915050565b600060a08284031215611c6257611c61612a4d565b5b6000611c7084828501611a54565b91505092915050565b60006102008284031215611c9057611c8f612a4d565b5b6000611c9e84828501611a94565b91505092915050565b600060208284031215611cbd57611cbc612a4d565b5b6000611ccb84828501611bb6565b91505092915050565b600060208284031215611cea57611ce9612a4d565b5b6000611cf884828501611be0565b91505092915050565b600080600060608486031215611d1a57611d19612a4d565b5b6000611d2886828701611be0565b9350506020611d3986828701611990565b9250506040611d4a86828701611bb6565b9150509250925092565b60008060608385031215611d6b57611d6a612a4d565b5b6000611d7985828601611be0565b9250506020611d8a858286016119e5565b9150509250929050565b6000611da08383611fe9565b60208301905092915050565b6000611db8838361226e565b60208301905092915050565b6000611dd0838361229b565b60208301905092915050565b611de581612825565b82525050565b611df481612825565b82525050565b611e0381612628565b611e0d8184612670565b9250611e188261260a565b8060005b83811015611e49578151611e308782611d94565b9650611e3b83612649565b925050600181019050611e1c565b505050505050565b611e5a81612628565b611e64818461267b565b9250611e6f8261260a565b8060005b83811015611ea0578151611e878782611d94565b9650611e9283612649565b925050600181019050611e73565b505050505050565b611eb181612633565b611ebb8184612686565b9250611ec682612614565b8060005b83811015611ef7578151611ede8782611dac565b9650611ee983612656565b925050600181019050611eca565b505050505050565b611f0881612633565b611f128184612691565b9250611f1d82612614565b8060005b83811015611f4e578151611f358782611dac565b9650611f4083612656565b925050600181019050611f21565b505050505050565b611f5f8161263e565b611f69818461269c565b9250611f748261261e565b8060005b83811015611fa5578151611f8c8782611dc4565b9650611f9783612663565b925050600181019050611f78565b505050505050565b611fb681612837565b82525050565b611fc581612837565b82525050565b611fd48161289c565b82525050565b611fe3816128ae565b82525050565b611ff281612843565b82525050565b60006120056005836126a7565b915061201082612a63565b602082019050919050565b60006120286005836126a7565b915061203382612a8c565b602082019050919050565b600061204b6005836126a7565b915061205682612ab5565b602082019050919050565b600061206e6005836126a7565b915061207982612ade565b602082019050919050565b60006120916005836126a7565b915061209c82612b07565b602082019050919050565b60006120b46005836126a7565b91506120bf82612b30565b602082019050919050565b60006120d76005836126a7565b91506120e282612b59565b602082019050919050565b60006120fa6005836126a7565b915061210582612b82565b602082019050919050565b60a0820160008201516121266000850182611ddc565b506020820151612139602085018261226e565b50604082015161214c6040850182611fad565b50606082015161215f6060850182611fad565b5060808201516121726080850182611fad565b50505050565b6102008201600082015161218f6000850182611ddc565b5060208201516121a26020850182611ddc565b5060408201516121b560408501826122b9565b5060608201516121c860608501826122b9565b5060808201516121db60808501826122b9565b5060a08201516121ee60a0850182611ddc565b5060c082015161220160c085018261229b565b5060e082015161221460e0850182611ddc565b5061010082015161222961010085018261226e565b5061012082015161223e610120850182611dfa565b50610140820151612253610160850182611ea8565b506101608201516122686101e085018261229b565b50505050565b61227781612850565b82525050565b61228681612850565b82525050565b612295816128f6565b82525050565b6122a48161287e565b82525050565b6122b38161287e565b82525050565b6122c281612888565b82525050565b60006040820190506122dd6000830185611deb565b6122ea602083018461228c565b9392505050565b60006060820190506123066000830186611deb565b612313602083018561227d565b6123206040830184611deb565b949350505050565b600060a08201905061233d6000830188611deb565b61234a602083018761227d565b6123576040830186611fbc565b6123646060830185611fbc565b6123716080830184611fbc565b9695505050505050565b60006080820190506123906000830184611eff565b92915050565b60006020820190506123ab6000830184611fcb565b92915050565b60006020820190506123c66000830184611fda565b92915050565b600060208201905081810360008301526123e581611ff8565b9050919050565b600060208201905081810360008301526124058161201b565b9050919050565b600060208201905081810360008301526124258161203e565b9050919050565b6000602082019050818103600083015261244581612061565b9050919050565b6000602082019050818103600083015261246581612084565b9050919050565b60006020820190508181036000830152612485816120a7565b9050919050565b600060208201905081810360008301526124a5816120ca565b9050919050565b600060208201905081810360008301526124c5816120ed565b9050919050565b600060a0820190506124e16000830184612110565b92915050565b60006102c0820190506124fd6000830186612178565b61250b6102008301856122aa565b612519610220830184611f56565b949350505050565b600060208201905061253660008301846122aa565b92915050565b600060e08201905061255160008301866122aa565b61255e6020830185611eff565b61256b60a0830184611e51565b949350505050565b600061257d61258e565b90506125898282612908565b919050565b6000604051905090565b600067ffffffffffffffff8211156125b3576125b2612a0f565b5b602082029050919050565b600067ffffffffffffffff8211156125d9576125d8612a0f565b5b602082029050919050565b600067ffffffffffffffff8211156125ff576125fe612a0f565b5b602082029050919050565b6000819050919050565b6000819050919050565b6000819050919050565b600060029050919050565b600060049050919050565b600060059050919050565b6000602082019050919050565b6000602082019050919050565b6000602082019050919050565b600081905092915050565b600081905092915050565b600081905092915050565b600081905092915050565b600081905092915050565b600082825260208201905092915050565b60006126c382612843565b91506126ce83612843565b925081617fff038313600083121516156126eb576126ea612982565b5b817fffffffffffffffffffffffffffffffffffffffffffffffffffffffffffff800003831260008312161561272357612722612982565b5b828201905092915050565b600061273982612850565b915061274483612850565b92508261ffff0382111561275b5761275a612982565b5b828201905092915050565b60006127718261287e565b915061277c8361287e565b92508261278c5761278b6129b1565b5b828204905092915050565b60006127a28261287e565b91506127ad8361287e565b9250817fffffffffffffffffffffffffffffffffffffffffffffffffffffffffffffffff04831182151516156127e6576127e5612982565b5b828202905092915050565b60006127fc8261287e565b91506128078361287e565b92508282101561281a57612819612982565b5b828203905092915050565b60006128308261285e565b9050919050565b60008115159050919050565b60008160010b9050919050565b600061ffff82169050919050565b600073ffffffffffffffffffffffffffffffffffffffff82169050919050565b6000819050919050565b600067ffffffffffffffff82169050919050565b60006128a7826128c0565b9050919050565b60006128b9826128d2565b9050919050565b60006128cb826128e4565b9050919050565b60006128dd826128e4565b9050919050565b60006128ef8261285e565b9050919050565b600061290182612850565b9050919050565b61291182612a52565b810181811067ffffffffffffffff821117156129305761292f612a0f565b5b80604052505050565b600061294482612843565b91507fffffffffffffffffffffffffffffffffffffffffffffffffffffffffffff800082141561297757612976612982565b5b816000039050919050565b7f4e487b7100000000000000000000000000000000000000000000000000000000600052601160045260246000fd5b7f4e487b7100000000000000000000000000000000000000000000000000000000600052601260045260246000fd5b7f4e487b7100000000000000000000000000000000000000000000000000000000600052603260045260246000fd5b7f4e487b7100000000000000000000000000000000000000000000000000000000600052604160045260246000fd5b600080fd5b600080fd5b600080fd5b600080fd5b6000601f19601f8301169050919050565b7f312d303037000000000000000000000000000000000000000000000000000000600082015250565b7f322d303034000000000000000000000000000000000000000000000000000000600082015250565b7f322d303036000000000000000000000000000000000000000000000000000000600082015250565b7f322d303035000000000000000000000000000000000000000000000000000000600082015250565b7f322d303038000000000000000000000000000000000000000000000000000000600082015250565b7f322d303037000000000000000000000000000000000000000000000000000000600082015250565b7f322d303033000000000000000000000000000000000000000000000000000000600082015250565b7f322d303031000000000000000000000000000000000000000000000000000000600082015250565b612bb481612825565b8114612bbf57600080fd5b50565b612bcb81612843565b8114612bd657600080fd5b50565b612be281612850565b8114612bed57600080fd5b50565b612bf98161287e565b8114612c0457600080fd5b50565b612c1081612888565b8114612c1b57600080fd5b5056fea2646970667358221220cf61eb973015d694c33b583629b226c1e450a6a71f377c159429fe0460d2885864736f6c63430008070033","opcodes":"PUSH1 0xC0 PUSH1 0x40 MSTORE CALLVALUE DUP1 ISZERO PUSH3 0x11 JUMPI PUSH1 0x0 DUP1 REVERT JUMPDEST POP PUSH1 0x40 MLOAD PUSH3 0x2E1E CODESIZE SUB DUP1 PUSH3 0x2E1E DUP4 CODECOPY DUP2 DUP2 ADD PUSH1 0x40 MSTORE DUP2 ADD SWAP1 PUSH3 0x37 SWAP2 SWAP1 PUSH3 0xCC JUMP JUMPDEST PUSH1 0x1 PUSH1 0x0 DUP2 SWAP1 SSTORE POP DUP2 PUSH20 0xFFFFFFFFFFFFFFFFFFFFFFFFFFFFFFFFFFFFFFFF AND PUSH1 0x80 DUP2 PUSH20 0xFFFFFFFFFFFFFFFFFFFFFFFFFFFFFFFFFFFFFFFF AND PUSH1 0x60 SHL DUP2 MSTORE POP POP DUP1 PUSH20 0xFFFFFFFFFFFFFFFFFFFFFFFFFFFFFFFFFFFFFFFF AND PUSH1 0xA0 DUP2 PUSH20 0xFFFFFFFFFFFFFFFFFFFFFFFFFFFFFFFFFFFFFFFF AND PUSH1 0x60 SHL DUP2 MSTORE POP POP POP POP PUSH3 0x166 JUMP JUMPDEST PUSH1 0x0 DUP2 MLOAD SWAP1 POP PUSH3 0xC6 DUP2 PUSH3 0x14C JUMP JUMPDEST SWAP3 SWAP2 POP POP JUMP JUMPDEST PUSH1 0x0 DUP1 PUSH1 0x40 DUP4 DUP6 SUB SLT ISZERO PUSH3 0xE6 JUMPI PUSH3 0xE5 PUSH3 0x147 JUMP JUMPDEST JUMPDEST PUSH1 0x0 PUSH3 0xF6 DUP6 DUP3 DUP7 ADD PUSH3 0xB5 JUMP JUMPDEST SWAP3 POP POP PUSH1 0x20 PUSH3 0x109 DUP6 DUP3 DUP7 ADD PUSH3 0xB5 JUMP JUMPDEST SWAP2 POP POP SWAP3 POP SWAP3 SWAP1 POP JUMP JUMPDEST PUSH1 0x0 PUSH3 0x120 DUP3 PUSH3 0x127 JUMP JUMPDEST SWAP1 POP SWAP2 SWAP1 POP JUMP JUMPDEST PUSH1 0x0 PUSH20 0xFFFFFFFFFFFFFFFFFFFFFFFFFFFFFFFFFFFFFFFF DUP3 AND SWAP1 POP SWAP2 SWAP1 POP JUMP JUMPDEST PUSH1 0x0 DUP1 REVERT JUMPDEST PUSH3 0x157 DUP2 PUSH3 0x113 JUMP JUMPDEST DUP2 EQ PUSH3 0x163 JUMPI PUSH1 0x0 DUP1 REVERT JUMPDEST POP JUMP JUMPDEST PUSH1 0x80 MLOAD PUSH1 0x60 SHR PUSH1 0xA0 MLOAD PUSH1 0x60 SHR PUSH2 0x2C54 PUSH3 0x1CA PUSH1 0x0 CODECOPY PUSH1 0x0 DUP2 DUP2 PUSH2 0xA76 ADD MSTORE PUSH2 0x158D ADD MSTORE PUSH1 0x0 DUP2 DUP2 PUSH2 0x2CE ADD MSTORE DUP2 DUP2 PUSH2 0x367 ADD MSTORE DUP2 DUP2 PUSH2 0x44B ADD MSTORE DUP2 DUP2 PUSH2 0x628 ADD MSTORE DUP2 DUP2 PUSH2 0x9AD ADD MSTORE DUP2 DUP2 PUSH2 0x100A ADD MSTORE DUP2 DUP2 PUSH2 0x1622 ADD MSTORE PUSH2 0x1708 ADD MSTORE PUSH2 0x2C54 PUSH1 0x0 RETURN INVALID PUSH1 0x80 PUSH1 0x40 MSTORE CALLVALUE DUP1 ISZERO PUSH2 0x10 JUMPI PUSH1 0x0 DUP1 REVERT JUMPDEST POP PUSH1 0x4 CALLDATASIZE LT PUSH2 0x93 JUMPI PUSH1 0x0 CALLDATALOAD PUSH1 0xE0 SHR DUP1 PUSH4 0x6E4E2934 GT PUSH2 0x66 JUMPI DUP1 PUSH4 0x6E4E2934 EQ PUSH2 0x130 JUMPI DUP1 PUSH4 0x79414B3C EQ PUSH2 0x14E JUMPI DUP1 PUSH4 0x8E032C5A EQ PUSH2 0x16A JUMPI DUP1 PUSH4 0xE2BC475C EQ PUSH2 0x186 JUMPI DUP1 PUSH4 0xE9DB7D79 EQ PUSH2 0x1BA JUMPI PUSH2 0x93 JUMP JUMPDEST DUP1 PUSH4 0x16E0551B EQ PUSH2 0x98 JUMPI DUP1 PUSH4 0x2EA8EDDD EQ PUSH2 0xC8 JUMPI DUP1 PUSH4 0x496F928B EQ PUSH2 0xE4 JUMPI DUP1 PUSH4 0x4C403C53 EQ PUSH2 0x100 JUMPI JUMPDEST PUSH1 0x0 DUP1 REVERT JUMPDEST PUSH2 0xB2 PUSH1 0x4 DUP1 CALLDATASIZE SUB DUP2 ADD SWAP1 PUSH2 0xAD SWAP2 SWAP1 PUSH2 0x1CD4 JUMP JUMPDEST PUSH2 0x1D8 JUMP JUMPDEST PUSH1 0x40 MLOAD PUSH2 0xBF SWAP2 SWAP1 PUSH2 0x24CC JUMP JUMPDEST PUSH1 0x40 MLOAD DUP1 SWAP2 SUB SWAP1 RETURN JUMPDEST PUSH2 0xE2 PUSH1 0x4 DUP1 CALLDATASIZE SUB DUP2 ADD SWAP1 PUSH2 0xDD SWAP2 SWAP1 PUSH2 0x1D01 JUMP JUMPDEST PUSH2 0x2CC JUMP JUMPDEST STOP JUMPDEST PUSH2 0xFE PUSH1 0x4 DUP1 CALLDATASIZE SUB DUP2 ADD SWAP1 PUSH2 0xF9 SWAP2 SWAP1 PUSH2 0x1D54 JUMP JUMPDEST PUSH2 0x617 JUMP JUMPDEST STOP JUMPDEST PUSH2 0x11A PUSH1 0x4 DUP1 CALLDATASIZE SUB DUP2 ADD SWAP1 PUSH2 0x115 SWAP2 SWAP1 PUSH2 0x1C1F JUMP JUMPDEST PUSH2 0xB64 JUMP JUMPDEST PUSH1 0x40 MLOAD PUSH2 0x127 SWAP2 SWAP1 PUSH2 0x237B JUMP JUMPDEST PUSH1 0x40 MLOAD DUP1 SWAP2 SUB SWAP1 RETURN JUMPDEST PUSH2 0x138 PUSH2 0x1008 JUMP JUMPDEST PUSH1 0x40 MLOAD PUSH2 0x145 SWAP2 SWAP1 PUSH2 0x23B1 JUMP JUMPDEST PUSH1 0x40 MLOAD DUP1 SWAP2 SUB SWAP1 RETURN JUMPDEST PUSH2 0x168 PUSH1 0x4 DUP1 CALLDATASIZE SUB DUP2 ADD SWAP1 PUSH2 0x163 SWAP2 SWAP1 PUSH2 0x1D01 JUMP JUMPDEST PUSH2 0x102C JUMP JUMPDEST STOP JUMPDEST PUSH2 0x184 PUSH1 0x4 DUP1 CALLDATASIZE SUB DUP2 ADD SWAP1 PUSH2 0x17F SWAP2 SWAP1 PUSH2 0x1D01 JUMP JUMPDEST PUSH2 0x1266 JUMP JUMPDEST STOP JUMPDEST PUSH2 0x1A0 PUSH1 0x4 DUP1 CALLDATASIZE SUB DUP2 ADD SWAP1 PUSH2 0x19B SWAP2 SWAP1 PUSH2 0x1CD4 JUMP JUMPDEST PUSH2 0x1500 JUMP JUMPDEST PUSH1 0x40 MLOAD PUSH2 0x1B1 SWAP6 SWAP5 SWAP4 SWAP3 SWAP2 SWAP1 PUSH2 0x2328 JUMP JUMPDEST PUSH1 0x40 MLOAD DUP1 SWAP2 SUB SWAP1 RETURN JUMPDEST PUSH2 0x1C2 PUSH2 0x158B JUMP JUMPDEST PUSH1 0x40 MLOAD PUSH2 0x1CF SWAP2 SWAP1 PUSH2 0x2396 JUMP JUMPDEST PUSH1 0x40 MLOAD DUP1 SWAP2 SUB SWAP1 RETURN JUMPDEST PUSH2 0x1E0 PUSH2 0x17EA JUMP JUMPDEST PUSH1 0x1 PUSH1 0x0 DUP4 DUP2 MSTORE PUSH1 0x20 ADD SWAP1 DUP2 MSTORE PUSH1 0x20 ADD PUSH1 0x0 KECCAK256 PUSH1 0x40 MLOAD DUP1 PUSH1 0xA0 ADD PUSH1 0x40 MSTORE SWAP1 DUP2 PUSH1 0x0 DUP3 ADD PUSH1 0x0 SWAP1 SLOAD SWAP1 PUSH2 0x100 EXP SWAP1 DIV PUSH20 0xFFFFFFFFFFFFFFFFFFFFFFFFFFFFFFFFFFFFFFFF AND PUSH20 0xFFFFFFFFFFFFFFFFFFFFFFFFFFFFFFFFFFFFFFFF AND PUSH20 0xFFFFFFFFFFFFFFFFFFFFFFFFFFFFFFFFFFFFFFFF AND DUP2 MSTORE PUSH1 0x20 ADD PUSH1 0x0 DUP3 ADD PUSH1 0x14 SWAP1 SLOAD SWAP1 PUSH2 0x100 EXP SWAP1 DIV PUSH2 0xFFFF AND PUSH2 0xFFFF AND PUSH2 0xFFFF AND DUP2 MSTORE PUSH1 0x20 ADD PUSH1 0x0 DUP3 ADD PUSH1 0x16 SWAP1 SLOAD SWAP1 PUSH2 0x100 EXP SWAP1 DIV PUSH1 0xFF AND ISZERO ISZERO ISZERO ISZERO DUP2 MSTORE PUSH1 0x20 ADD PUSH1 0x0 DUP3 ADD PUSH1 0x17 SWAP1 SLOAD SWAP1 PUSH2 0x100 EXP SWAP1 DIV PUSH1 0xFF AND ISZERO ISZERO ISZERO ISZERO DUP2 MSTORE PUSH1 0x20 ADD PUSH1 0x0 DUP3 ADD PUSH1 0x18 SWAP1 SLOAD SWAP1 PUSH2 0x100 EXP SWAP1 DIV PUSH1 0xFF AND ISZERO ISZERO ISZERO ISZERO DUP2 MSTORE POP POP SWAP1 POP SWAP2 SWAP1 POP JUMP JUMPDEST PUSH32 0x0 PUSH20 0xFFFFFFFFFFFFFFFFFFFFFFFFFFFFFFFFFFFFFFFF AND PUSH2 0x30B PUSH2 0x15AF JUMP JUMPDEST PUSH20 0xFFFFFFFFFFFFFFFFFFFFFFFFFFFFFFFFFFFFFFFF AND EQ PUSH2 0x32B JUMPI PUSH1 0x0 DUP1 REVERT JUMPDEST PUSH1 0x0 PUSH20 0xFFFFFFFFFFFFFFFFFFFFFFFFFFFFFFFFFFFFFFFF AND DUP3 PUSH20 0xFFFFFFFFFFFFFFFFFFFFFFFFFFFFFFFFFFFFFFFF AND EQ ISZERO PUSH2 0x365 JUMPI PUSH1 0x0 DUP1 REVERT JUMPDEST PUSH32 0x0 PUSH20 0xFFFFFFFFFFFFFFFFFFFFFFFFFFFFFFFFFFFFFFFF AND PUSH4 0x7D19E596 DUP5 PUSH1 0x40 MLOAD DUP3 PUSH4 0xFFFFFFFF AND PUSH1 0xE0 SHL DUP2 MSTORE PUSH1 0x4 ADD PUSH2 0x3BE SWAP2 SWAP1 PUSH2 0x2521 JUMP JUMPDEST PUSH2 0x200 PUSH1 0x40 MLOAD DUP1 DUP4 SUB DUP2 DUP7 DUP1 EXTCODESIZE ISZERO DUP1 ISZERO PUSH2 0x3D7 JUMPI PUSH1 0x0 DUP1 REVERT JUMPDEST POP GAS STATICCALL ISZERO DUP1 ISZERO PUSH2 0x3EB JUMPI RETURNDATASIZE PUSH1 0x0 DUP1 RETURNDATACOPY RETURNDATASIZE PUSH1 0x0 REVERT JUMPDEST POP POP POP POP PUSH1 0x40 MLOAD RETURNDATASIZE PUSH1 0x1F NOT PUSH1 0x1F DUP3 ADD AND DUP3 ADD DUP1 PUSH1 0x40 MSTORE POP DUP2 ADD SWAP1 PUSH2 0x40F SWAP2 SWAP1 PUSH2 0x1C79 JUMP JUMPDEST PUSH1 0x20 ADD MLOAD PUSH20 0xFFFFFFFFFFFFFFFFFFFFFFFFFFFFFFFFFFFFFFFF AND DUP3 PUSH20 0xFFFFFFFFFFFFFFFFFFFFFFFFFFFFFFFFFFFFFFFF AND EQ ISZERO DUP1 ISZERO PUSH2 0x527 JUMPI POP PUSH32 0x0 PUSH20 0xFFFFFFFFFFFFFFFFFFFFFFFFFFFFFFFFFFFFFFFF AND PUSH4 0x7D19E596 DUP5 PUSH1 0x40 MLOAD DUP3 PUSH4 0xFFFFFFFF AND PUSH1 0xE0 SHL DUP2 MSTORE PUSH1 0x4 ADD PUSH2 0x4A2 SWAP2 SWAP1 PUSH2 0x2521 JUMP JUMPDEST PUSH2 0x200 PUSH1 0x40 MLOAD DUP1 DUP4 SUB DUP2 DUP7 DUP1 EXTCODESIZE ISZERO DUP1 ISZERO PUSH2 0x4BB JUMPI PUSH1 0x0 DUP1 REVERT JUMPDEST POP GAS STATICCALL ISZERO DUP1 ISZERO PUSH2 0x4CF JUMPI RETURNDATASIZE PUSH1 0x0 DUP1 RETURNDATACOPY RETURNDATASIZE PUSH1 0x0 REVERT JUMPDEST POP POP POP POP PUSH1 0x40 MLOAD RETURNDATASIZE PUSH1 0x1F NOT PUSH1 0x1F DUP3 ADD AND DUP3 ADD DUP1 PUSH1 0x40 MSTORE POP DUP2 ADD SWAP1 PUSH2 0x4F3 SWAP2 SWAP1 PUSH2 0x1C79 JUMP JUMPDEST PUSH1 0x0 ADD MLOAD PUSH20 0xFFFFFFFFFFFFFFFFFFFFFFFFFFFFFFFFFFFFFFFF AND DUP3 PUSH20 0xFFFFFFFFFFFFFFFFFFFFFFFFFFFFFFFFFFFFFFFF AND EQ ISZERO JUMPDEST PUSH2 0x530 JUMPI PUSH1 0x0 DUP1 REVERT JUMPDEST DUP2 PUSH1 0x1 PUSH1 0x0 DUP6 DUP2 MSTORE PUSH1 0x20 ADD SWAP1 DUP2 MSTORE PUSH1 0x20 ADD PUSH1 0x0 KECCAK256 PUSH1 0x0 ADD PUSH1 0x0 PUSH2 0x100 EXP DUP2 SLOAD DUP2 PUSH20 0xFFFFFFFFFFFFFFFFFFFFFFFFFFFFFFFFFFFFFFFF MUL NOT AND SWAP1 DUP4 PUSH20 0xFFFFFFFFFFFFFFFFFFFFFFFFFFFFFFFFFFFFFFFF AND MUL OR SWAP1 SSTORE POP DUP1 PUSH1 0x1 PUSH1 0x0 DUP6 DUP2 MSTORE PUSH1 0x20 ADD SWAP1 DUP2 MSTORE PUSH1 0x20 ADD PUSH1 0x0 KECCAK256 PUSH1 0x0 ADD PUSH1 0x14 PUSH2 0x100 EXP DUP2 SLOAD DUP2 PUSH2 0xFFFF MUL NOT AND SWAP1 DUP4 PUSH2 0xFFFF AND MUL OR SWAP1 SSTORE POP PUSH1 0x1 DUP1 PUSH1 0x0 DUP6 DUP2 MSTORE PUSH1 0x20 ADD SWAP1 DUP2 MSTORE PUSH1 0x20 ADD PUSH1 0x0 KECCAK256 PUSH1 0x0 ADD PUSH1 0x17 PUSH2 0x100 EXP DUP2 SLOAD DUP2 PUSH1 0xFF MUL NOT AND SWAP1 DUP4 ISZERO ISZERO MUL OR SWAP1 SSTORE POP PUSH1 0x1 DUP1 PUSH1 0x0 DUP6 DUP2 MSTORE PUSH1 0x20 ADD SWAP1 DUP2 MSTORE PUSH1 0x20 ADD PUSH1 0x0 KECCAK256 PUSH1 0x0 ADD PUSH1 0x16 PUSH2 0x100 EXP DUP2 SLOAD DUP2 PUSH1 0xFF MUL NOT AND SWAP1 DUP4 ISZERO ISZERO MUL OR SWAP1 SSTORE POP POP POP POP JUMP JUMPDEST PUSH1 0x0 PUSH2 0x622 DUP4 PUSH2 0x1D8 JUMP JUMPDEST SWAP1 POP PUSH1 0x0 PUSH32 0x0 PUSH20 0xFFFFFFFFFFFFFFFFFFFFFFFFFFFFFFFFFFFFFFFF AND PUSH4 0x7D19E596 DUP6 PUSH1 0x40 MLOAD DUP3 PUSH4 0xFFFFFFFF AND PUSH1 0xE0 SHL DUP2 MSTORE PUSH1 0x4 ADD PUSH2 0x67F SWAP2 SWAP1 PUSH2 0x2521 JUMP JUMPDEST PUSH2 0x200 PUSH1 0x40 MLOAD DUP1 DUP4 SUB DUP2 DUP7 DUP1 EXTCODESIZE ISZERO DUP1 ISZERO PUSH2 0x698 JUMPI PUSH1 0x0 DUP1 REVERT JUMPDEST POP GAS STATICCALL ISZERO DUP1 ISZERO PUSH2 0x6AC JUMPI RETURNDATASIZE PUSH1 0x0 DUP1 RETURNDATACOPY RETURNDATASIZE PUSH1 0x0 REVERT JUMPDEST POP POP POP POP PUSH1 0x40 MLOAD RETURNDATASIZE PUSH1 0x1F NOT PUSH1 0x1F DUP3 ADD AND DUP3 ADD DUP1 PUSH1 0x40 MSTORE POP DUP2 ADD SWAP1 PUSH2 0x6D0 SWAP2 SWAP1 PUSH2 0x1C79 JUMP JUMPDEST SWAP1 POP DUP2 PUSH1 0x0 ADD MLOAD PUSH20 0xFFFFFFFFFFFFFFFFFFFFFFFFFFFFFFFFFFFFFFFF AND PUSH2 0x6F5 PUSH2 0x15AF JUMP JUMPDEST PUSH20 0xFFFFFFFFFFFFFFFFFFFFFFFFFFFFFFFFFFFFFFFF AND EQ PUSH2 0x74B JUMPI PUSH1 0x40 MLOAD PUSH32 0x8C379A000000000000000000000000000000000000000000000000000000000 DUP2 MSTORE PUSH1 0x4 ADD PUSH2 0x742 SWAP1 PUSH2 0x242C JUMP JUMPDEST PUSH1 0x40 MLOAD DUP1 SWAP2 SUB SWAP1 REVERT JUMPDEST DUP2 PUSH1 0x60 ADD MLOAD DUP1 ISZERO PUSH2 0x75D JUMPI POP DUP2 PUSH1 0x40 ADD MLOAD JUMPDEST PUSH2 0x79C JUMPI PUSH1 0x40 MLOAD PUSH32 0x8C379A000000000000000000000000000000000000000000000000000000000 DUP2 MSTORE PUSH1 0x4 ADD PUSH2 0x793 SWAP1 PUSH2 0x24AC JUMP JUMPDEST PUSH1 0x40 MLOAD DUP1 SWAP2 SUB SWAP1 REVERT JUMPDEST PUSH2 0x2710 DUP4 PUSH1 0x1 PUSH1 0xFF AND PUSH1 0x2 DUP2 LT PUSH2 0x7B6 JUMPI PUSH2 0x7B5 PUSH2 0x29E0 JUMP JUMPDEST JUMPDEST PUSH1 0x20 MUL ADD PUSH1 0x20 DUP2 ADD SWAP1 PUSH2 0x7C9 SWAP2 SWAP1 PUSH2 0x1CA7 JUMP JUMPDEST DUP5 PUSH1 0x0 PUSH1 0xFF AND PUSH1 0x2 DUP2 LT PUSH2 0x7E0 JUMPI PUSH2 0x7DF PUSH2 0x29E0 JUMP JUMPDEST JUMPDEST PUSH1 0x20 MUL ADD PUSH1 0x20 DUP2 ADD SWAP1 PUSH2 0x7F3 SWAP2 SWAP1 PUSH2 0x1CA7 JUMP JUMPDEST PUSH2 0x7FD SWAP2 SWAP1 PUSH2 0x272E JUMP JUMPDEST PUSH2 0xFFFF AND EQ PUSH2 0x841 JUMPI PUSH1 0x40 MLOAD PUSH32 0x8C379A000000000000000000000000000000000000000000000000000000000 DUP2 MSTORE PUSH1 0x4 ADD PUSH2 0x838 SWAP1 PUSH2 0x23CC JUMP JUMPDEST PUSH1 0x40 MLOAD DUP1 SWAP2 SUB SWAP1 REVERT JUMPDEST PUSH1 0x1 PUSH2 0x86C DUP3 PUSH2 0x120 ADD MLOAD PUSH1 0x0 PUSH1 0xFF AND PUSH1 0x2 DUP2 LT PUSH2 0x862 JUMPI PUSH2 0x861 PUSH2 0x29E0 JUMP JUMPDEST JUMPDEST PUSH1 0x20 MUL ADD MLOAD PUSH2 0x15B7 JUMP JUMPDEST PUSH2 0x876 SWAP2 SWAP1 PUSH2 0x26B8 JUMP JUMPDEST DUP2 PUSH2 0x120 ADD MLOAD PUSH1 0x0 PUSH1 0xFF AND PUSH1 0x2 DUP2 LT PUSH2 0x892 JUMPI PUSH2 0x891 PUSH2 0x29E0 JUMP JUMPDEST JUMPDEST PUSH1 0x20 MUL ADD SWAP1 PUSH1 0x1 SIGNEXTEND SWAP1 DUP2 PUSH1 0x1 SIGNEXTEND DUP2 MSTORE POP POP PUSH2 0x8CC DUP2 PUSH2 0x120 ADD MLOAD PUSH1 0x1 PUSH1 0xFF AND PUSH1 0x2 DUP2 LT PUSH2 0x8C2 JUMPI PUSH2 0x8C1 PUSH2 0x29E0 JUMP JUMPDEST JUMPDEST PUSH1 0x20 MUL ADD MLOAD PUSH2 0x15B7 JUMP JUMPDEST DUP2 PUSH2 0x120 ADD MLOAD PUSH1 0x1 PUSH1 0xFF AND PUSH1 0x2 DUP2 LT PUSH2 0x8E8 JUMPI PUSH2 0x8E7 PUSH2 0x29E0 JUMP JUMPDEST JUMPDEST PUSH1 0x20 MUL ADD SWAP1 PUSH1 0x1 SIGNEXTEND SWAP1 DUP2 PUSH1 0x1 SIGNEXTEND DUP2 MSTORE POP POP DUP3 PUSH1 0x0 PUSH1 0xFF AND PUSH1 0x2 DUP2 LT PUSH2 0x910 JUMPI PUSH2 0x90F PUSH2 0x29E0 JUMP JUMPDEST JUMPDEST PUSH1 0x20 MUL ADD PUSH1 0x20 DUP2 ADD SWAP1 PUSH2 0x923 SWAP2 SWAP1 PUSH2 0x1CA7 JUMP JUMPDEST DUP2 PUSH2 0x140 ADD MLOAD PUSH1 0x0 PUSH1 0xFF AND PUSH1 0x4 DUP2 LT PUSH2 0x93F JUMPI PUSH2 0x93E PUSH2 0x29E0 JUMP JUMPDEST JUMPDEST PUSH1 0x20 MUL ADD SWAP1 PUSH2 0xFFFF AND SWAP1 DUP2 PUSH2 0xFFFF AND DUP2 MSTORE POP POP DUP3 PUSH1 0x1 PUSH1 0xFF AND PUSH1 0x2 DUP2 LT PUSH2 0x969 JUMPI PUSH2 0x968 PUSH2 0x29E0 JUMP JUMPDEST JUMPDEST PUSH1 0x20 MUL ADD PUSH1 0x20 DUP2 ADD SWAP1 PUSH2 0x97C SWAP2 SWAP1 PUSH2 0x1CA7 JUMP JUMPDEST DUP2 PUSH2 0x140 ADD MLOAD PUSH1 0x1 PUSH1 0xFF AND PUSH1 0x4 DUP2 LT PUSH2 0x998 JUMPI PUSH2 0x997 PUSH2 0x29E0 JUMP JUMPDEST JUMPDEST PUSH1 0x20 MUL ADD SWAP1 PUSH2 0xFFFF AND SWAP1 DUP2 PUSH2 0xFFFF AND DUP2 MSTORE POP POP PUSH32 0x0 PUSH20 0xFFFFFFFFFFFFFFFFFFFFFFFFFFFFFFFFFFFFFFFF AND PUSH4 0x64166E63 DUP6 DUP4 PUSH2 0x140 ADD MLOAD DUP5 PUSH2 0x120 ADD MLOAD PUSH1 0x40 MLOAD DUP5 PUSH4 0xFFFFFFFF AND PUSH1 0xE0 SHL DUP2 MSTORE PUSH1 0x4 ADD PUSH2 0xA12 SWAP4 SWAP3 SWAP2 SWAP1 PUSH2 0x253C JUMP JUMPDEST PUSH1 0x0 PUSH1 0x40 MLOAD DUP1 DUP4 SUB DUP2 PUSH1 0x0 DUP8 DUP1 EXTCODESIZE ISZERO DUP1 ISZERO PUSH2 0xA2C JUMPI PUSH1 0x0 DUP1 REVERT JUMPDEST POP GAS CALL ISZERO DUP1 ISZERO PUSH2 0xA40 JUMPI RETURNDATASIZE PUSH1 0x0 DUP1 RETURNDATACOPY RETURNDATASIZE PUSH1 0x0 REVERT JUMPDEST POP POP POP POP PUSH1 0x1 DUP1 PUSH1 0x0 DUP7 DUP2 MSTORE PUSH1 0x20 ADD SWAP1 DUP2 MSTORE PUSH1 0x20 ADD PUSH1 0x0 KECCAK256 PUSH1 0x0 ADD PUSH1 0x18 PUSH2 0x100 EXP DUP2 SLOAD DUP2 PUSH1 0xFF MUL NOT AND SWAP1 DUP4 ISZERO ISZERO MUL OR SWAP1 SSTORE POP PUSH1 0x0 PUSH32 0x0 PUSH20 0xFFFFFFFFFFFFFFFFFFFFFFFFFFFFFFFFFFFFFFFF AND PUSH4 0xB34291A6 DUP7 PUSH1 0x40 MLOAD DUP3 PUSH4 0xFFFFFFFF AND PUSH1 0xE0 SHL DUP2 MSTORE PUSH1 0x4 ADD PUSH2 0xACD SWAP2 SWAP1 PUSH2 0x2521 JUMP JUMPDEST PUSH1 0xA0 PUSH1 0x40 MLOAD DUP1 DUP4 SUB DUP2 PUSH1 0x0 DUP8 DUP1 EXTCODESIZE ISZERO DUP1 ISZERO PUSH2 0xAE7 JUMPI PUSH1 0x0 DUP1 REVERT JUMPDEST POP GAS CALL ISZERO DUP1 ISZERO PUSH2 0xAFB JUMPI RETURNDATASIZE PUSH1 0x0 DUP1 RETURNDATACOPY RETURNDATASIZE PUSH1 0x0 REVERT JUMPDEST POP POP POP POP PUSH1 0x40 MLOAD RETURNDATASIZE PUSH1 0x1F NOT PUSH1 0x1F DUP3 ADD AND DUP3 ADD DUP1 PUSH1 0x40 MSTORE POP DUP2 ADD SWAP1 PUSH2 0xB1F SWAP2 SWAP1 PUSH2 0x1C4C JUMP JUMPDEST SWAP1 POP DUP5 PUSH32 0xF1861AE9C599E289FB150935395B66FBE4513F9657E6E38009C29FD4FFD309D1 DUP4 TIMESTAMP DUP5 PUSH1 0x40 MLOAD PUSH2 0xB55 SWAP4 SWAP3 SWAP2 SWAP1 PUSH2 0x24E7 JUMP JUMPDEST PUSH1 0x40 MLOAD DUP1 SWAP2 SUB SWAP1 LOG2 POP POP POP POP POP JUMP JUMPDEST PUSH2 0xB6C PUSH2 0x1839 JUMP JUMPDEST PUSH2 0xB74 PUSH2 0x1839 JUMP JUMPDEST PUSH1 0x0 DUP1 PUSH2 0xBFC PUSH2 0x2710 PUSH2 0xFFFF AND PUSH2 0xBEE DUP8 PUSH1 0x0 PUSH1 0xFF AND PUSH1 0x5 DUP2 LT PUSH2 0xB9B JUMPI PUSH2 0xB9A PUSH2 0x29E0 JUMP JUMPDEST JUMPDEST PUSH1 0x20 MUL ADD PUSH1 0x20 DUP2 ADD SWAP1 PUSH2 0xBAE SWAP2 SWAP1 PUSH2 0x1CA7 JUMP JUMPDEST PUSH2 0xFFFF AND DUP9 PUSH1 0x4 PUSH1 0xFF AND PUSH1 0x5 DUP2 LT PUSH2 0xBC9 JUMPI PUSH2 0xBC8 PUSH2 0x29E0 JUMP JUMPDEST JUMPDEST PUSH1 0x20 MUL ADD PUSH1 0x20 DUP2 ADD SWAP1 PUSH2 0xBDC SWAP2 SWAP1 PUSH2 0x1CA7 JUMP JUMPDEST PUSH2 0xFFFF AND PUSH2 0x15DC SWAP1 SWAP2 SWAP1 PUSH4 0xFFFFFFFF AND JUMP JUMPDEST PUSH2 0x15F2 SWAP1 SWAP2 SWAP1 PUSH4 0xFFFFFFFF AND JUMP JUMPDEST SWAP1 POP PUSH2 0xC83 PUSH2 0x2710 PUSH2 0xFFFF AND PUSH2 0xC75 DUP8 PUSH1 0x1 PUSH1 0xFF AND PUSH1 0x5 DUP2 LT PUSH2 0xC22 JUMPI PUSH2 0xC21 PUSH2 0x29E0 JUMP JUMPDEST JUMPDEST PUSH1 0x20 MUL ADD PUSH1 0x20 DUP2 ADD SWAP1 PUSH2 0xC35 SWAP2 SWAP1 PUSH2 0x1CA7 JUMP JUMPDEST PUSH2 0xFFFF AND DUP9 PUSH1 0x4 PUSH1 0xFF AND PUSH1 0x5 DUP2 LT PUSH2 0xC50 JUMPI PUSH2 0xC4F PUSH2 0x29E0 JUMP JUMPDEST JUMPDEST PUSH1 0x20 MUL ADD PUSH1 0x20 DUP2 ADD SWAP1 PUSH2 0xC63 SWAP2 SWAP1 PUSH2 0x1CA7 JUMP JUMPDEST PUSH2 0xFFFF AND PUSH2 0x15DC SWAP1 SWAP2 SWAP1 PUSH4 0xFFFFFFFF AND JUMP JUMPDEST PUSH2 0x15F2 SWAP1 SWAP2 SWAP1 PUSH4 0xFFFFFFFF AND JUMP JUMPDEST SWAP2 POP PUSH1 0x0 DUP6 PUSH1 0x3 PUSH1 0xFF AND PUSH1 0x5 DUP2 LT PUSH2 0xC9E JUMPI PUSH2 0xC9D PUSH2 0x29E0 JUMP JUMPDEST JUMPDEST PUSH1 0x20 MUL ADD PUSH1 0x20 DUP2 ADD SWAP1 PUSH2 0xCB1 SWAP2 SWAP1 PUSH2 0x1CA7 JUMP JUMPDEST PUSH2 0xFFFF AND GT ISZERO PUSH2 0xD6B JUMPI PUSH2 0xD40 PUSH2 0x2710 PUSH2 0xFFFF AND PUSH2 0xD32 DUP8 PUSH1 0x1 PUSH1 0xFF AND PUSH1 0x5 DUP2 LT PUSH2 0xCDF JUMPI PUSH2 0xCDE PUSH2 0x29E0 JUMP JUMPDEST JUMPDEST PUSH1 0x20 MUL ADD PUSH1 0x20 DUP2 ADD SWAP1 PUSH2 0xCF2 SWAP2 SWAP1 PUSH2 0x1CA7 JUMP JUMPDEST PUSH2 0xFFFF AND DUP9 PUSH1 0x3 PUSH1 0xFF AND PUSH1 0x5 DUP2 LT PUSH2 0xD0D JUMPI PUSH2 0xD0C PUSH2 0x29E0 JUMP JUMPDEST JUMPDEST PUSH1 0x20 MUL ADD PUSH1 0x20 DUP2 ADD SWAP1 PUSH2 0xD20 SWAP2 SWAP1 PUSH2 0x1CA7 JUMP JUMPDEST PUSH2 0xFFFF AND PUSH2 0x15DC SWAP1 SWAP2 SWAP1 PUSH4 0xFFFFFFFF AND JUMP JUMPDEST PUSH2 0x15F2 SWAP1 SWAP2 SWAP1 PUSH4 0xFFFFFFFF AND JUMP JUMPDEST DUP4 PUSH1 0x3 PUSH1 0xFF AND PUSH1 0x4 DUP2 LT PUSH2 0xD57 JUMPI PUSH2 0xD56 PUSH2 0x29E0 JUMP JUMPDEST JUMPDEST PUSH1 0x20 MUL ADD SWAP1 PUSH2 0xFFFF AND SWAP1 DUP2 PUSH2 0xFFFF AND DUP2 MSTORE POP POP JUMPDEST PUSH1 0x0 DUP6 PUSH1 0x2 PUSH1 0xFF AND PUSH1 0x5 DUP2 LT PUSH2 0xD84 JUMPI PUSH2 0xD83 PUSH2 0x29E0 JUMP JUMPDEST JUMPDEST PUSH1 0x20 MUL ADD PUSH1 0x20 DUP2 ADD SWAP1 PUSH2 0xD97 SWAP2 SWAP1 PUSH2 0x1CA7 JUMP JUMPDEST PUSH2 0xFFFF AND GT ISZERO PUSH2 0xE51 JUMPI PUSH2 0xE26 PUSH2 0x2710 PUSH2 0xFFFF AND PUSH2 0xE18 DUP8 PUSH1 0x1 PUSH1 0xFF AND PUSH1 0x5 DUP2 LT PUSH2 0xDC5 JUMPI PUSH2 0xDC4 PUSH2 0x29E0 JUMP JUMPDEST JUMPDEST PUSH1 0x20 MUL ADD PUSH1 0x20 DUP2 ADD SWAP1 PUSH2 0xDD8 SWAP2 SWAP1 PUSH2 0x1CA7 JUMP JUMPDEST PUSH2 0xFFFF AND DUP9 PUSH1 0x2 PUSH1 0xFF AND PUSH1 0x5 DUP2 LT PUSH2 0xDF3 JUMPI PUSH2 0xDF2 PUSH2 0x29E0 JUMP JUMPDEST JUMPDEST PUSH1 0x20 MUL ADD PUSH1 0x20 DUP2 ADD SWAP1 PUSH2 0xE06 SWAP2 SWAP1 PUSH2 0x1CA7 JUMP JUMPDEST PUSH2 0xFFFF AND PUSH2 0x15DC SWAP1 SWAP2 SWAP1 PUSH4 0xFFFFFFFF AND JUMP JUMPDEST PUSH2 0x15F2 SWAP1 SWAP2 SWAP1 PUSH4 0xFFFFFFFF AND JUMP JUMPDEST DUP4 PUSH1 0x2 PUSH1 0xFF AND PUSH1 0x4 DUP2 LT PUSH2 0xE3D JUMPI PUSH2 0xE3C PUSH2 0x29E0 JUMP JUMPDEST JUMPDEST PUSH1 0x20 MUL ADD SWAP1 PUSH2 0xFFFF AND SWAP1 DUP2 PUSH2 0xFFFF AND DUP2 MSTORE POP POP JUMPDEST PUSH1 0x0 DUP6 PUSH1 0x0 PUSH1 0xFF AND PUSH1 0x5 DUP2 LT PUSH2 0xE6A JUMPI PUSH2 0xE69 PUSH2 0x29E0 JUMP JUMPDEST JUMPDEST PUSH1 0x20 MUL ADD PUSH1 0x20 DUP2 ADD SWAP1 PUSH2 0xE7D SWAP2 SWAP1 PUSH2 0x1CA7 JUMP JUMPDEST PUSH2 0xFFFF AND GT ISZERO PUSH2 0xEF6 JUMPI PUSH2 0xECB DUP2 PUSH2 0xFFFF AND DUP7 PUSH1 0x0 PUSH1 0xFF AND PUSH1 0x5 DUP2 LT PUSH2 0xEA6 JUMPI PUSH2 0xEA5 PUSH2 0x29E0 JUMP JUMPDEST JUMPDEST PUSH1 0x20 MUL ADD PUSH1 0x20 DUP2 ADD SWAP1 PUSH2 0xEB9 SWAP2 SWAP1 PUSH2 0x1CA7 JUMP JUMPDEST PUSH2 0xFFFF AND PUSH2 0x1608 SWAP1 SWAP2 SWAP1 PUSH4 0xFFFFFFFF AND JUMP JUMPDEST DUP4 PUSH1 0x0 PUSH1 0xFF AND PUSH1 0x4 DUP2 LT PUSH2 0xEE2 JUMPI PUSH2 0xEE1 PUSH2 0x29E0 JUMP JUMPDEST JUMPDEST PUSH1 0x20 MUL ADD SWAP1 PUSH2 0xFFFF AND SWAP1 DUP2 PUSH2 0xFFFF AND DUP2 MSTORE POP POP JUMPDEST PUSH1 0x0 DUP6 PUSH1 0x1 PUSH1 0xFF AND PUSH1 0x5 DUP2 LT PUSH2 0xF0F JUMPI PUSH2 0xF0E PUSH2 0x29E0 JUMP JUMPDEST JUMPDEST PUSH1 0x20 MUL ADD PUSH1 0x20 DUP2 ADD SWAP1 PUSH2 0xF22 SWAP2 SWAP1 PUSH2 0x1CA7 JUMP JUMPDEST PUSH2 0xFFFF AND GT ISZERO PUSH2 0xFFD JUMPI PUSH2 0xFD2 DUP3 PUSH2 0xFFFF AND PUSH2 0xFC4 DUP6 PUSH1 0x2 PUSH1 0xFF AND PUSH1 0x4 DUP2 LT PUSH2 0xF4E JUMPI PUSH2 0xF4D PUSH2 0x29E0 JUMP JUMPDEST JUMPDEST PUSH1 0x20 MUL ADD MLOAD PUSH2 0xFFFF AND PUSH2 0xFB6 DUP8 PUSH1 0x3 PUSH1 0xFF AND PUSH1 0x4 DUP2 LT PUSH2 0xF71 JUMPI PUSH2 0xF70 PUSH2 0x29E0 JUMP JUMPDEST JUMPDEST PUSH1 0x20 MUL ADD MLOAD PUSH2 0xFFFF AND DUP11 PUSH1 0x1 PUSH1 0xFF AND PUSH1 0x5 DUP2 LT PUSH2 0xF91 JUMPI PUSH2 0xF90 PUSH2 0x29E0 JUMP JUMPDEST JUMPDEST PUSH1 0x20 MUL ADD PUSH1 0x20 DUP2 ADD SWAP1 PUSH2 0xFA4 SWAP2 SWAP1 PUSH2 0x1CA7 JUMP JUMPDEST PUSH2 0xFFFF AND PUSH2 0x1608 SWAP1 SWAP2 SWAP1 PUSH4 0xFFFFFFFF AND JUMP JUMPDEST PUSH2 0x1608 SWAP1 SWAP2 SWAP1 PUSH4 0xFFFFFFFF AND JUMP JUMPDEST PUSH2 0x1608 SWAP1 SWAP2 SWAP1 PUSH4 0xFFFFFFFF AND JUMP JUMPDEST DUP4 PUSH1 0x1 PUSH1 0xFF AND PUSH1 0x4 DUP2 LT PUSH2 0xFE9 JUMPI PUSH2 0xFE8 PUSH2 0x29E0 JUMP JUMPDEST JUMPDEST PUSH1 0x20 MUL ADD SWAP1 PUSH2 0xFFFF AND SWAP1 DUP2 PUSH2 0xFFFF AND DUP2 MSTORE POP POP JUMPDEST DUP3 SWAP4 POP POP POP POP SWAP2 SWAP1 POP JUMP JUMPDEST PUSH32 0x0 DUP2 JUMP JUMPDEST DUP3 PUSH2 0x1035 PUSH2 0x15AF JUMP JUMPDEST PUSH2 0x103F DUP3 DUP3 PUSH2 0x161E JUMP JUMPDEST DUP1 PUSH2 0x1050 JUMPI POP PUSH2 0x104F DUP3 DUP3 PUSH2 0x1704 JUMP JUMPDEST JUMPDEST PUSH2 0x108F JUMPI PUSH1 0x40 MLOAD PUSH32 0x8C379A000000000000000000000000000000000000000000000000000000000 DUP2 MSTORE PUSH1 0x4 ADD PUSH2 0x1086 SWAP1 PUSH2 0x23EC JUMP JUMPDEST PUSH1 0x40 MLOAD DUP1 SWAP2 SUB SWAP1 REVERT JUMPDEST PUSH1 0x0 PUSH1 0x1 PUSH1 0x0 DUP8 DUP2 MSTORE PUSH1 0x20 ADD SWAP1 DUP2 MSTORE PUSH1 0x20 ADD PUSH1 0x0 KECCAK256 SWAP1 POP DUP1 PUSH1 0x0 ADD PUSH1 0x17 SWAP1 SLOAD SWAP1 PUSH2 0x100 EXP SWAP1 DIV PUSH1 0xFF AND ISZERO DUP1 PUSH2 0x10D3 JUMPI POP DUP1 PUSH1 0x0 ADD PUSH1 0x16 SWAP1 SLOAD SWAP1 PUSH2 0x100 EXP SWAP1 DIV PUSH1 0xFF AND ISZERO JUMPDEST PUSH2 0x1112 JUMPI PUSH1 0x40 MLOAD PUSH32 0x8C379A000000000000000000000000000000000000000000000000000000000 DUP2 MSTORE PUSH1 0x4 ADD PUSH2 0x1109 SWAP1 PUSH2 0x240C JUMP JUMPDEST PUSH1 0x40 MLOAD DUP1 SWAP2 SUB SWAP1 REVERT JUMPDEST DUP5 DUP2 PUSH1 0x0 ADD PUSH1 0x0 PUSH2 0x100 EXP DUP2 SLOAD DUP2 PUSH20 0xFFFFFFFFFFFFFFFFFFFFFFFFFFFFFFFFFFFFFFFF MUL NOT AND SWAP1 DUP4 PUSH20 0xFFFFFFFFFFFFFFFFFFFFFFFFFFFFFFFFFFFFFFFF AND MUL OR SWAP1 SSTORE POP DUP4 DUP2 PUSH1 0x0 ADD PUSH1 0x14 PUSH2 0x100 EXP DUP2 SLOAD DUP2 PUSH2 0xFFFF MUL NOT AND SWAP1 DUP4 PUSH2 0xFFFF AND MUL OR SWAP1 SSTORE POP PUSH2 0x1185 DUP7 PUSH2 0x1180 PUSH2 0x15AF JUMP JUMPDEST PUSH2 0x161E JUMP JUMPDEST ISZERO PUSH2 0x11C9 JUMPI PUSH1 0x1 DUP2 PUSH1 0x0 ADD PUSH1 0x17 PUSH2 0x100 EXP DUP2 SLOAD DUP2 PUSH1 0xFF MUL NOT AND SWAP1 DUP4 ISZERO ISZERO MUL OR SWAP1 SSTORE POP PUSH1 0x0 DUP2 PUSH1 0x0 ADD PUSH1 0x16 PUSH2 0x100 EXP DUP2 SLOAD DUP2 PUSH1 0xFF MUL NOT AND SWAP1 DUP4 ISZERO ISZERO MUL OR SWAP1 SSTORE POP PUSH2 0x121B JUMP JUMPDEST PUSH2 0x11DA DUP7 PUSH2 0x11D5 PUSH2 0x15AF JUMP JUMPDEST PUSH2 0x1704 JUMP JUMPDEST ISZERO PUSH2 0x121A JUMPI PUSH1 0x1 DUP2 PUSH1 0x0 ADD PUSH1 0x16 PUSH2 0x100 EXP DUP2 SLOAD DUP2 PUSH1 0xFF MUL NOT AND SWAP1 DUP4 ISZERO ISZERO MUL OR SWAP1 SSTORE POP PUSH1 0x0 DUP2 PUSH1 0x0 ADD PUSH1 0x17 PUSH2 0x100 EXP DUP2 SLOAD DUP2 PUSH1 0xFF MUL NOT AND SWAP1 DUP4 ISZERO ISZERO MUL OR SWAP1 SSTORE POP JUMPDEST JUMPDEST DUP6 PUSH32 0xBF42827F17777ED92B098FA9E5F6823ECB5C116E3B23909CC242530B1784DBBC DUP7 DUP7 PUSH2 0x1247 PUSH2 0x15AF JUMP JUMPDEST PUSH1 0x40 MLOAD PUSH2 0x1256 SWAP4 SWAP3 SWAP2 SWAP1 PUSH2 0x22F1 JUMP JUMPDEST PUSH1 0x40 MLOAD DUP1 SWAP2 SUB SWAP1 LOG2 POP POP POP POP POP POP JUMP JUMPDEST DUP3 PUSH2 0x126F PUSH2 0x15AF JUMP JUMPDEST PUSH2 0x1279 DUP3 DUP3 PUSH2 0x161E JUMP JUMPDEST DUP1 PUSH2 0x128A JUMPI POP PUSH2 0x1289 DUP3 DUP3 PUSH2 0x1704 JUMP JUMPDEST JUMPDEST PUSH2 0x12C9 JUMPI PUSH1 0x40 MLOAD PUSH32 0x8C379A000000000000000000000000000000000000000000000000000000000 DUP2 MSTORE PUSH1 0x4 ADD PUSH2 0x12C0 SWAP1 PUSH2 0x23EC JUMP JUMPDEST PUSH1 0x40 MLOAD DUP1 SWAP2 SUB SWAP1 REVERT JUMPDEST PUSH1 0x0 PUSH2 0x12D4 DUP7 PUSH2 0x1D8 JUMP JUMPDEST SWAP1 POP DUP1 PUSH1 0x0 ADD MLOAD PUSH20 0xFFFFFFFFFFFFFFFFFFFFFFFFFFFFFFFFFFFFFFFF AND DUP6 PUSH20 0xFFFFFFFFFFFFFFFFFFFFFFFFFFFFFFFFFFFFFFFF AND EQ PUSH2 0x1348 JUMPI PUSH1 0x40 MLOAD PUSH32 0x8C379A000000000000000000000000000000000000000000000000000000000 DUP2 MSTORE PUSH1 0x4 ADD PUSH2 0x133F SWAP1 PUSH2 0x244C JUMP JUMPDEST PUSH1 0x40 MLOAD DUP1 SWAP2 SUB SWAP1 REVERT JUMPDEST DUP1 PUSH1 0x20 ADD MLOAD PUSH2 0xFFFF AND DUP5 PUSH2 0xFFFF AND EQ PUSH2 0x1396 JUMPI PUSH1 0x40 MLOAD PUSH32 0x8C379A000000000000000000000000000000000000000000000000000000000 DUP2 MSTORE PUSH1 0x4 ADD PUSH2 0x138D SWAP1 PUSH2 0x246C JUMP JUMPDEST PUSH1 0x40 MLOAD DUP1 SWAP2 SUB SWAP1 REVERT JUMPDEST PUSH2 0x13A7 DUP7 PUSH2 0x13A2 PUSH2 0x15AF JUMP JUMPDEST PUSH2 0x161E JUMP JUMPDEST ISZERO PUSH2 0x1426 JUMPI PUSH1 0x0 ISZERO ISZERO DUP2 PUSH1 0x60 ADD MLOAD ISZERO ISZERO EQ PUSH2 0x13F7 JUMPI PUSH1 0x40 MLOAD PUSH32 0x8C379A000000000000000000000000000000000000000000000000000000000 DUP2 MSTORE PUSH1 0x4 ADD PUSH2 0x13EE SWAP1 PUSH2 0x248C JUMP JUMPDEST PUSH1 0x40 MLOAD DUP1 SWAP2 SUB SWAP1 REVERT JUMPDEST PUSH1 0x1 DUP1 PUSH1 0x0 DUP9 DUP2 MSTORE PUSH1 0x20 ADD SWAP1 DUP2 MSTORE PUSH1 0x20 ADD PUSH1 0x0 KECCAK256 PUSH1 0x0 ADD PUSH1 0x17 PUSH2 0x100 EXP DUP2 SLOAD DUP2 PUSH1 0xFF MUL NOT AND SWAP1 DUP4 ISZERO ISZERO MUL OR SWAP1 SSTORE POP JUMPDEST PUSH2 0x1437 DUP7 PUSH2 0x1432 PUSH2 0x15AF JUMP JUMPDEST PUSH2 0x1704 JUMP JUMPDEST ISZERO PUSH2 0x14B6 JUMPI PUSH1 0x0 ISZERO ISZERO DUP2 PUSH1 0x40 ADD MLOAD ISZERO ISZERO EQ PUSH2 0x1487 JUMPI PUSH1 0x40 MLOAD PUSH32 0x8C379A000000000000000000000000000000000000000000000000000000000 DUP2 MSTORE PUSH1 0x4 ADD PUSH2 0x147E SWAP1 PUSH2 0x248C JUMP JUMPDEST PUSH1 0x40 MLOAD DUP1 SWAP2 SUB SWAP1 REVERT JUMPDEST PUSH1 0x1 DUP1 PUSH1 0x0 DUP9 DUP2 MSTORE PUSH1 0x20 ADD SWAP1 DUP2 MSTORE PUSH1 0x20 ADD PUSH1 0x0 KECCAK256 PUSH1 0x0 ADD PUSH1 0x16 PUSH2 0x100 EXP DUP2 SLOAD DUP2 PUSH1 0xFF MUL NOT AND SWAP1 DUP4 ISZERO ISZERO MUL OR SWAP1 SSTORE POP JUMPDEST DUP6 PUSH32 0xD514CA74D69A194B5D9455914D0D20EF96D29B6177B241C9D5F608264055199C DUP3 PUSH1 0x0 ADD MLOAD DUP4 PUSH1 0x20 ADD MLOAD PUSH1 0x40 MLOAD PUSH2 0x14F0 SWAP3 SWAP2 SWAP1 PUSH2 0x22C8 JUMP JUMPDEST PUSH1 0x40 MLOAD DUP1 SWAP2 SUB SWAP1 LOG2 POP POP POP POP POP POP JUMP JUMPDEST PUSH1 0x1 PUSH1 0x20 MSTORE DUP1 PUSH1 0x0 MSTORE PUSH1 0x40 PUSH1 0x0 KECCAK256 PUSH1 0x0 SWAP2 POP SWAP1 POP DUP1 PUSH1 0x0 ADD PUSH1 0x0 SWAP1 SLOAD SWAP1 PUSH2 0x100 EXP SWAP1 DIV PUSH20 0xFFFFFFFFFFFFFFFFFFFFFFFFFFFFFFFFFFFFFFFF AND SWAP1 DUP1 PUSH1 0x0 ADD PUSH1 0x14 SWAP1 SLOAD SWAP1 PUSH2 0x100 EXP SWAP1 DIV PUSH2 0xFFFF AND SWAP1 DUP1 PUSH1 0x0 ADD PUSH1 0x16 SWAP1 SLOAD SWAP1 PUSH2 0x100 EXP SWAP1 DIV PUSH1 0xFF AND SWAP1 DUP1 PUSH1 0x0 ADD PUSH1 0x17 SWAP1 SLOAD SWAP1 PUSH2 0x100 EXP SWAP1 DIV PUSH1 0xFF AND SWAP1 DUP1 PUSH1 0x0 ADD PUSH1 0x18 SWAP1 SLOAD SWAP1 PUSH2 0x100 EXP SWAP1 DIV PUSH1 0xFF AND SWAP1 POP DUP6 JUMP JUMPDEST PUSH32 0x0 DUP2 JUMP JUMPDEST PUSH1 0x0 CALLER SWAP1 POP SWAP1 JUMP JUMPDEST PUSH1 0x0 DUP1 DUP3 PUSH1 0x1 SIGNEXTEND SLT ISZERO PUSH2 0x15D3 JUMPI DUP2 PUSH2 0x15CE SWAP1 PUSH2 0x2939 JUMP JUMPDEST PUSH2 0x15D5 JUMP JUMPDEST DUP2 JUMPDEST SWAP1 POP SWAP2 SWAP1 POP JUMP JUMPDEST PUSH1 0x0 DUP2 DUP4 PUSH2 0x15EA SWAP2 SWAP1 PUSH2 0x2797 JUMP JUMPDEST SWAP1 POP SWAP3 SWAP2 POP POP JUMP JUMPDEST PUSH1 0x0 DUP2 DUP4 PUSH2 0x1600 SWAP2 SWAP1 PUSH2 0x2766 JUMP JUMPDEST SWAP1 POP SWAP3 SWAP2 POP POP JUMP JUMPDEST PUSH1 0x0 DUP2 DUP4 PUSH2 0x1616 SWAP2 SWAP1 PUSH2 0x27F1 JUMP JUMPDEST SWAP1 POP SWAP3 SWAP2 POP POP JUMP JUMPDEST PUSH1 0x0 PUSH32 0x0 PUSH20 0xFFFFFFFFFFFFFFFFFFFFFFFFFFFFFFFFFFFFFFFF AND PUSH4 0x7D19E596 DUP5 PUSH1 0x40 MLOAD DUP3 PUSH4 0xFFFFFFFF AND PUSH1 0xE0 SHL DUP2 MSTORE PUSH1 0x4 ADD PUSH2 0x1679 SWAP2 SWAP1 PUSH2 0x2521 JUMP JUMPDEST PUSH2 0x200 PUSH1 0x40 MLOAD DUP1 DUP4 SUB DUP2 DUP7 DUP1 EXTCODESIZE ISZERO DUP1 ISZERO PUSH2 0x1692 JUMPI PUSH1 0x0 DUP1 REVERT JUMPDEST POP GAS STATICCALL ISZERO DUP1 ISZERO PUSH2 0x16A6 JUMPI RETURNDATASIZE PUSH1 0x0 DUP1 RETURNDATACOPY RETURNDATASIZE PUSH1 0x0 REVERT JUMPDEST POP POP POP POP PUSH1 0x40 MLOAD RETURNDATASIZE PUSH1 0x1F NOT PUSH1 0x1F DUP3 ADD AND DUP3 ADD DUP1 PUSH1 0x40 MSTORE POP DUP2 ADD SWAP1 PUSH2 0x16CA SWAP2 SWAP1 PUSH2 0x1C79 JUMP JUMPDEST PUSH1 0x0 ADD MLOAD PUSH20 0xFFFFFFFFFFFFFFFFFFFFFFFFFFFFFFFFFFFFFFFF AND DUP3 PUSH20 0xFFFFFFFFFFFFFFFFFFFFFFFFFFFFFFFFFFFFFFFF AND EQ SWAP1 POP SWAP3 SWAP2 POP POP JUMP JUMPDEST PUSH1 0x0 PUSH32 0x0 PUSH20 0xFFFFFFFFFFFFFFFFFFFFFFFFFFFFFFFFFFFFFFFF AND PUSH4 0x7D19E596 DUP5 PUSH1 0x40 MLOAD DUP3 PUSH4 0xFFFFFFFF AND PUSH1 0xE0 SHL DUP2 MSTORE PUSH1 0x4 ADD PUSH2 0x175F SWAP2 SWAP1 PUSH2 0x2521 JUMP JUMPDEST PUSH2 0x200 PUSH1 0x40 MLOAD DUP1 DUP4 SUB DUP2 DUP7 DUP1 EXTCODESIZE ISZERO DUP1 ISZERO PUSH2 0x1778 JUMPI PUSH1 0x0 DUP1 REVERT JUMPDEST POP GAS STATICCALL ISZERO DUP1 ISZERO PUSH2 0x178C JUMPI RETURNDATASIZE PUSH1 0x0 DUP1 RETURNDATACOPY RETURNDATASIZE PUSH1 0x0 REVERT JUMPDEST POP POP POP POP PUSH1 0x40 MLOAD RETURNDATASIZE PUSH1 0x1F NOT PUSH1 0x1F DUP3 ADD AND DUP3 ADD DUP1 PUSH1 0x40 MSTORE POP DUP2 ADD SWAP1 PUSH2 0x17B0 SWAP2 SWAP1 PUSH2 0x1C79 JUMP JUMPDEST PUSH1 0x20 ADD MLOAD PUSH20 0xFFFFFFFFFFFFFFFFFFFFFFFFFFFFFFFFFFFFFFFF AND DUP3 PUSH20 0xFFFFFFFFFFFFFFFFFFFFFFFFFFFFFFFFFFFFFFFF AND EQ SWAP1 POP SWAP3 SWAP2 POP POP JUMP JUMPDEST PUSH1 0x40 MLOAD DUP1 PUSH1 0xA0 ADD PUSH1 0x40 MSTORE DUP1 PUSH1 0x0 PUSH20 0xFFFFFFFFFFFFFFFFFFFFFFFFFFFFFFFFFFFFFFFF AND DUP2 MSTORE PUSH1 0x20 ADD PUSH1 0x0 PUSH2 0xFFFF AND DUP2 MSTORE PUSH1 0x20 ADD PUSH1 0x0 ISZERO ISZERO DUP2 MSTORE PUSH1 0x20 ADD PUSH1 0x0 ISZERO ISZERO DUP2 MSTORE PUSH1 0x20 ADD PUSH1 0x0 ISZERO ISZERO DUP2 MSTORE POP SWAP1 JUMP JUMPDEST PUSH1 0x40 MLOAD DUP1 PUSH1 0x80 ADD PUSH1 0x40 MSTORE DUP1 PUSH1 0x4 SWAP1 PUSH1 0x20 DUP3 MUL DUP1 CALLDATASIZE DUP4 CALLDATACOPY DUP1 DUP3 ADD SWAP2 POP POP SWAP1 POP POP SWAP1 JUMP JUMPDEST PUSH1 0x0 PUSH2 0x186E PUSH2 0x1869 DUP5 PUSH2 0x2598 JUMP JUMPDEST PUSH2 0x2573 JUMP JUMPDEST SWAP1 POP DUP1 DUP3 DUP6 PUSH1 0x20 DUP7 MUL DUP3 ADD GT ISZERO PUSH2 0x1888 JUMPI PUSH2 0x1887 PUSH2 0x2A48 JUMP JUMPDEST JUMPDEST PUSH1 0x0 JUMPDEST DUP6 DUP2 LT ISZERO PUSH2 0x18B8 JUMPI DUP2 PUSH2 0x189E DUP9 DUP3 PUSH2 0x1A7F JUMP JUMPDEST DUP5 MSTORE PUSH1 0x20 DUP5 ADD SWAP4 POP PUSH1 0x20 DUP4 ADD SWAP3 POP POP PUSH1 0x1 DUP2 ADD SWAP1 POP PUSH2 0x188B JUMP JUMPDEST POP POP POP SWAP4 SWAP3 POP POP POP JUMP JUMPDEST PUSH1 0x0 PUSH2 0x18D5 PUSH2 0x18D0 DUP5 PUSH2 0x25BE JUMP JUMPDEST PUSH2 0x2573 JUMP JUMPDEST SWAP1 POP DUP1 DUP3 DUP6 PUSH1 0x20 DUP7 MUL DUP3 ADD GT ISZERO PUSH2 0x18EF JUMPI PUSH2 0x18EE PUSH2 0x2A48 JUMP JUMPDEST JUMPDEST PUSH1 0x0 JUMPDEST DUP6 DUP2 LT ISZERO PUSH2 0x191F JUMPI DUP2 PUSH2 0x1905 DUP9 DUP3 PUSH2 0x1BCB JUMP JUMPDEST DUP5 MSTORE PUSH1 0x20 DUP5 ADD SWAP4 POP PUSH1 0x20 DUP4 ADD SWAP3 POP POP PUSH1 0x1 DUP2 ADD SWAP1 POP PUSH2 0x18F2 JUMP JUMPDEST POP POP POP SWAP4 SWAP3 POP POP POP JUMP JUMPDEST PUSH1 0x0 PUSH2 0x193C PUSH2 0x1937 DUP5 PUSH2 0x25E4 JUMP JUMPDEST PUSH2 0x2573 JUMP JUMPDEST SWAP1 POP DUP1 DUP3 DUP6 PUSH1 0x20 DUP7 MUL DUP3 ADD GT ISZERO PUSH2 0x1956 JUMPI PUSH2 0x1955 PUSH2 0x2A48 JUMP JUMPDEST JUMPDEST PUSH1 0x0 JUMPDEST DUP6 DUP2 LT ISZERO PUSH2 0x1986 JUMPI DUP2 PUSH2 0x196C DUP9 DUP3 PUSH2 0x1BF5 JUMP JUMPDEST DUP5 MSTORE PUSH1 0x20 DUP5 ADD SWAP4 POP PUSH1 0x20 DUP4 ADD SWAP3 POP POP PUSH1 0x1 DUP2 ADD SWAP1 POP PUSH2 0x1959 JUMP JUMPDEST POP POP POP SWAP4 SWAP3 POP POP POP JUMP JUMPDEST PUSH1 0x0 DUP2 CALLDATALOAD SWAP1 POP PUSH2 0x199F DUP2 PUSH2 0x2BAB JUMP JUMPDEST SWAP3 SWAP2 POP POP JUMP JUMPDEST PUSH1 0x0 DUP2 MLOAD SWAP1 POP PUSH2 0x19B4 DUP2 PUSH2 0x2BAB JUMP JUMPDEST SWAP3 SWAP2 POP POP JUMP JUMPDEST PUSH1 0x0 DUP3 PUSH1 0x1F DUP4 ADD SLT PUSH2 0x19CF JUMPI PUSH2 0x19CE PUSH2 0x2A3E JUMP JUMPDEST JUMPDEST PUSH1 0x2 PUSH2 0x19DC DUP5 DUP3 DUP6 PUSH2 0x185B JUMP JUMPDEST SWAP2 POP POP SWAP3 SWAP2 POP POP JUMP JUMPDEST PUSH1 0x0 DUP2 SWAP1 POP DUP3 PUSH1 0x20 PUSH1 0x2 MUL DUP3 ADD GT ISZERO PUSH2 0x1A01 JUMPI PUSH2 0x1A00 PUSH2 0x2A48 JUMP JUMPDEST JUMPDEST SWAP3 SWAP2 POP POP JUMP JUMPDEST PUSH1 0x0 DUP3 PUSH1 0x1F DUP4 ADD SLT PUSH2 0x1A1C JUMPI PUSH2 0x1A1B PUSH2 0x2A3E JUMP JUMPDEST JUMPDEST PUSH1 0x4 PUSH2 0x1A29 DUP5 DUP3 DUP6 PUSH2 0x18C2 JUMP JUMPDEST SWAP2 POP POP SWAP3 SWAP2 POP POP JUMP JUMPDEST PUSH1 0x0 DUP2 SWAP1 POP DUP3 PUSH1 0x20 PUSH1 0x5 MUL DUP3 ADD GT ISZERO PUSH2 0x1A4E JUMPI PUSH2 0x1A4D PUSH2 0x2A48 JUMP JUMPDEST JUMPDEST SWAP3 SWAP2 POP POP JUMP JUMPDEST PUSH1 0x0 DUP3 PUSH1 0x1F DUP4 ADD SLT PUSH2 0x1A69 JUMPI PUSH2 0x1A68 PUSH2 0x2A3E JUMP JUMPDEST JUMPDEST PUSH1 0x5 PUSH2 0x1A76 DUP5 DUP3 DUP6 PUSH2 0x1929 JUMP JUMPDEST SWAP2 POP POP SWAP3 SWAP2 POP POP JUMP JUMPDEST PUSH1 0x0 DUP2 MLOAD SWAP1 POP PUSH2 0x1A8E DUP2 PUSH2 0x2BC2 JUMP JUMPDEST SWAP3 SWAP2 POP POP JUMP JUMPDEST PUSH1 0x0 PUSH2 0x200 DUP3 DUP5 SUB SLT ISZERO PUSH2 0x1AAB JUMPI PUSH2 0x1AAA PUSH2 0x2A43 JUMP JUMPDEST JUMPDEST PUSH2 0x1AB6 PUSH2 0x180 PUSH2 0x2573 JUMP JUMPDEST SWAP1 POP PUSH1 0x0 PUSH2 0x1AC6 DUP5 DUP3 DUP6 ADD PUSH2 0x19A5 JUMP JUMPDEST PUSH1 0x0 DUP4 ADD MSTORE POP PUSH1 0x20 PUSH2 0x1ADA DUP5 DUP3 DUP6 ADD PUSH2 0x19A5 JUMP JUMPDEST PUSH1 0x20 DUP4 ADD MSTORE POP PUSH1 0x40 PUSH2 0x1AEE DUP5 DUP3 DUP6 ADD PUSH2 0x1C0A JUMP JUMPDEST PUSH1 0x40 DUP4 ADD MSTORE POP PUSH1 0x60 PUSH2 0x1B02 DUP5 DUP3 DUP6 ADD PUSH2 0x1C0A JUMP JUMPDEST PUSH1 0x60 DUP4 ADD MSTORE POP PUSH1 0x80 PUSH2 0x1B16 DUP5 DUP3 DUP6 ADD PUSH2 0x1C0A JUMP JUMPDEST PUSH1 0x80 DUP4 ADD MSTORE POP PUSH1 0xA0 PUSH2 0x1B2A DUP5 DUP3 DUP6 ADD PUSH2 0x19A5 JUMP JUMPDEST PUSH1 0xA0 DUP4 ADD MSTORE POP PUSH1 0xC0 PUSH2 0x1B3E DUP5 DUP3 DUP6 ADD PUSH2 0x1BF5 JUMP JUMPDEST PUSH1 0xC0 DUP4 ADD MSTORE POP PUSH1 0xE0 PUSH2 0x1B52 DUP5 DUP3 DUP6 ADD PUSH2 0x19A5 JUMP JUMPDEST PUSH1 0xE0 DUP4 ADD MSTORE POP PUSH2 0x100 PUSH2 0x1B67 DUP5 DUP3 DUP6 ADD PUSH2 0x1BCB JUMP JUMPDEST PUSH2 0x100 DUP4 ADD MSTORE POP PUSH2 0x120 PUSH2 0x1B7D DUP5 DUP3 DUP6 ADD PUSH2 0x19BA JUMP JUMPDEST PUSH2 0x120 DUP4 ADD MSTORE POP PUSH2 0x160 PUSH2 0x1B93 DUP5 DUP3 DUP6 ADD PUSH2 0x1A07 JUMP JUMPDEST PUSH2 0x140 DUP4 ADD MSTORE POP PUSH2 0x1E0 PUSH2 0x1BA9 DUP5 DUP3 DUP6 ADD PUSH2 0x1BF5 JUMP JUMPDEST PUSH2 0x160 DUP4 ADD MSTORE POP SWAP3 SWAP2 POP POP JUMP JUMPDEST PUSH1 0x0 DUP2 CALLDATALOAD SWAP1 POP PUSH2 0x1BC5 DUP2 PUSH2 0x2BD9 JUMP JUMPDEST SWAP3 SWAP2 POP POP JUMP JUMPDEST PUSH1 0x0 DUP2 MLOAD SWAP1 POP PUSH2 0x1BDA DUP2 PUSH2 0x2BD9 JUMP JUMPDEST SWAP3 SWAP2 POP POP JUMP JUMPDEST PUSH1 0x0 DUP2 CALLDATALOAD SWAP1 POP PUSH2 0x1BEF DUP2 PUSH2 0x2BF0 JUMP JUMPDEST SWAP3 SWAP2 POP POP JUMP JUMPDEST PUSH1 0x0 DUP2 MLOAD SWAP1 POP PUSH2 0x1C04 DUP2 PUSH2 0x2BF0 JUMP JUMPDEST SWAP3 SWAP2 POP POP JUMP JUMPDEST PUSH1 0x0 DUP2 MLOAD SWAP1 POP PUSH2 0x1C19 DUP2 PUSH2 0x2C07 JUMP JUMPDEST SWAP3 SWAP2 POP POP JUMP JUMPDEST PUSH1 0x0 PUSH1 0xA0 DUP3 DUP5 SUB SLT ISZERO PUSH2 0x1C35 JUMPI PUSH2 0x1C34 PUSH2 0x2A4D JUMP JUMPDEST JUMPDEST PUSH1 0x0 PUSH2 0x1C43 DUP5 DUP3 DUP6 ADD PUSH2 0x1A32 JUMP JUMPDEST SWAP2 POP POP SWAP3 SWAP2 POP POP JUMP JUMPDEST PUSH1 0x0 PUSH1 0xA0 DUP3 DUP5 SUB SLT ISZERO PUSH2 0x1C62 JUMPI PUSH2 0x1C61 PUSH2 0x2A4D JUMP JUMPDEST JUMPDEST PUSH1 0x0 PUSH2 0x1C70 DUP5 DUP3 DUP6 ADD PUSH2 0x1A54 JUMP JUMPDEST SWAP2 POP POP SWAP3 SWAP2 POP POP JUMP JUMPDEST PUSH1 0x0 PUSH2 0x200 DUP3 DUP5 SUB SLT ISZERO PUSH2 0x1C90 JUMPI PUSH2 0x1C8F PUSH2 0x2A4D JUMP JUMPDEST JUMPDEST PUSH1 0x0 PUSH2 0x1C9E DUP5 DUP3 DUP6 ADD PUSH2 0x1A94 JUMP JUMPDEST SWAP2 POP POP SWAP3 SWAP2 POP POP JUMP JUMPDEST PUSH1 0x0 PUSH1 0x20 DUP3 DUP5 SUB SLT ISZERO PUSH2 0x1CBD JUMPI PUSH2 0x1CBC PUSH2 0x2A4D JUMP JUMPDEST JUMPDEST PUSH1 0x0 PUSH2 0x1CCB DUP5 DUP3 DUP6 ADD PUSH2 0x1BB6 JUMP JUMPDEST SWAP2 POP POP SWAP3 SWAP2 POP POP JUMP JUMPDEST PUSH1 0x0 PUSH1 0x20 DUP3 DUP5 SUB SLT ISZERO PUSH2 0x1CEA JUMPI PUSH2 0x1CE9 PUSH2 0x2A4D JUMP JUMPDEST JUMPDEST PUSH1 0x0 PUSH2 0x1CF8 DUP5 DUP3 DUP6 ADD PUSH2 0x1BE0 JUMP JUMPDEST SWAP2 POP POP SWAP3 SWAP2 POP POP JUMP JUMPDEST PUSH1 0x0 DUP1 PUSH1 0x0 PUSH1 0x60 DUP5 DUP7 SUB SLT ISZERO PUSH2 0x1D1A JUMPI PUSH2 0x1D19 PUSH2 0x2A4D JUMP JUMPDEST JUMPDEST PUSH1 0x0 PUSH2 0x1D28 DUP7 DUP3 DUP8 ADD PUSH2 0x1BE0 JUMP JUMPDEST SWAP4 POP POP PUSH1 0x20 PUSH2 0x1D39 DUP7 DUP3 DUP8 ADD PUSH2 0x1990 JUMP JUMPDEST SWAP3 POP POP PUSH1 0x40 PUSH2 0x1D4A DUP7 DUP3 DUP8 ADD PUSH2 0x1BB6 JUMP JUMPDEST SWAP2 POP POP SWAP3 POP SWAP3 POP SWAP3 JUMP JUMPDEST PUSH1 0x0 DUP1 PUSH1 0x60 DUP4 DUP6 SUB SLT ISZERO PUSH2 0x1D6B JUMPI PUSH2 0x1D6A PUSH2 0x2A4D JUMP JUMPDEST JUMPDEST PUSH1 0x0 PUSH2 0x1D79 DUP6 DUP3 DUP7 ADD PUSH2 0x1BE0 JUMP JUMPDEST SWAP3 POP POP PUSH1 0x20 PUSH2 0x1D8A DUP6 DUP3 DUP7 ADD PUSH2 0x19E5 JUMP JUMPDEST SWAP2 POP POP SWAP3 POP SWAP3 SWAP1 POP JUMP JUMPDEST PUSH1 0x0 PUSH2 0x1DA0 DUP4 DUP4 PUSH2 0x1FE9 JUMP JUMPDEST PUSH1 0x20 DUP4 ADD SWAP1 POP SWAP3 SWAP2 POP POP JUMP JUMPDEST PUSH1 0x0 PUSH2 0x1DB8 DUP4 DUP4 PUSH2 0x226E JUMP JUMPDEST PUSH1 0x20 DUP4 ADD SWAP1 POP SWAP3 SWAP2 POP POP JUMP JUMPDEST PUSH1 0x0 PUSH2 0x1DD0 DUP4 DUP4 PUSH2 0x229B JUMP JUMPDEST PUSH1 0x20 DUP4 ADD SWAP1 POP SWAP3 SWAP2 POP POP JUMP JUMPDEST PUSH2 0x1DE5 DUP2 PUSH2 0x2825 JUMP JUMPDEST DUP3 MSTORE POP POP JUMP JUMPDEST PUSH2 0x1DF4 DUP2 PUSH2 0x2825 JUMP JUMPDEST DUP3 MSTORE POP POP JUMP JUMPDEST PUSH2 0x1E03 DUP2 PUSH2 0x2628 JUMP JUMPDEST PUSH2 0x1E0D DUP2 DUP5 PUSH2 0x2670 JUMP JUMPDEST SWAP3 POP PUSH2 0x1E18 DUP3 PUSH2 0x260A JUMP JUMPDEST DUP1 PUSH1 0x0 JUMPDEST DUP4 DUP2 LT ISZERO PUSH2 0x1E49 JUMPI DUP2 MLOAD PUSH2 0x1E30 DUP8 DUP3 PUSH2 0x1D94 JUMP JUMPDEST SWAP7 POP PUSH2 0x1E3B DUP4 PUSH2 0x2649 JUMP JUMPDEST SWAP3 POP POP PUSH1 0x1 DUP2 ADD SWAP1 POP PUSH2 0x1E1C JUMP JUMPDEST POP POP POP POP POP POP JUMP JUMPDEST PUSH2 0x1E5A DUP2 PUSH2 0x2628 JUMP JUMPDEST PUSH2 0x1E64 DUP2 DUP5 PUSH2 0x267B JUMP JUMPDEST SWAP3 POP PUSH2 0x1E6F DUP3 PUSH2 0x260A JUMP JUMPDEST DUP1 PUSH1 0x0 JUMPDEST DUP4 DUP2 LT ISZERO PUSH2 0x1EA0 JUMPI DUP2 MLOAD PUSH2 0x1E87 DUP8 DUP3 PUSH2 0x1D94 JUMP JUMPDEST SWAP7 POP PUSH2 0x1E92 DUP4 PUSH2 0x2649 JUMP JUMPDEST SWAP3 POP POP PUSH1 0x1 DUP2 ADD SWAP1 POP PUSH2 0x1E73 JUMP JUMPDEST POP POP POP POP POP POP JUMP JUMPDEST PUSH2 0x1EB1 DUP2 PUSH2 0x2633 JUMP JUMPDEST PUSH2 0x1EBB DUP2 DUP5 PUSH2 0x2686 JUMP JUMPDEST SWAP3 POP PUSH2 0x1EC6 DUP3 PUSH2 0x2614 JUMP JUMPDEST DUP1 PUSH1 0x0 JUMPDEST DUP4 DUP2 LT ISZERO PUSH2 0x1EF7 JUMPI DUP2 MLOAD PUSH2 0x1EDE DUP8 DUP3 PUSH2 0x1DAC JUMP JUMPDEST SWAP7 POP PUSH2 0x1EE9 DUP4 PUSH2 0x2656 JUMP JUMPDEST SWAP3 POP POP PUSH1 0x1 DUP2 ADD SWAP1 POP PUSH2 0x1ECA JUMP JUMPDEST POP POP POP POP POP POP JUMP JUMPDEST PUSH2 0x1F08 DUP2 PUSH2 0x2633 JUMP JUMPDEST PUSH2 0x1F12 DUP2 DUP5 PUSH2 0x2691 JUMP JUMPDEST SWAP3 POP PUSH2 0x1F1D DUP3 PUSH2 0x2614 JUMP JUMPDEST DUP1 PUSH1 0x0 JUMPDEST DUP4 DUP2 LT ISZERO PUSH2 0x1F4E JUMPI DUP2 MLOAD PUSH2 0x1F35 DUP8 DUP3 PUSH2 0x1DAC JUMP JUMPDEST SWAP7 POP PUSH2 0x1F40 DUP4 PUSH2 0x2656 JUMP JUMPDEST SWAP3 POP POP PUSH1 0x1 DUP2 ADD SWAP1 POP PUSH2 0x1F21 JUMP JUMPDEST POP POP POP POP POP POP JUMP JUMPDEST PUSH2 0x1F5F DUP2 PUSH2 0x263E JUMP JUMPDEST PUSH2 0x1F69 DUP2 DUP5 PUSH2 0x269C JUMP JUMPDEST SWAP3 POP PUSH2 0x1F74 DUP3 PUSH2 0x261E JUMP JUMPDEST DUP1 PUSH1 0x0 JUMPDEST DUP4 DUP2 LT ISZERO PUSH2 0x1FA5 JUMPI DUP2 MLOAD PUSH2 0x1F8C DUP8 DUP3 PUSH2 0x1DC4 JUMP JUMPDEST SWAP7 POP PUSH2 0x1F97 DUP4 PUSH2 0x2663 JUMP JUMPDEST SWAP3 POP POP PUSH1 0x1 DUP2 ADD SWAP1 POP PUSH2 0x1F78 JUMP JUMPDEST POP POP POP POP POP POP JUMP JUMPDEST PUSH2 0x1FB6 DUP2 PUSH2 0x2837 JUMP JUMPDEST DUP3 MSTORE POP POP JUMP JUMPDEST PUSH2 0x1FC5 DUP2 PUSH2 0x2837 JUMP JUMPDEST DUP3 MSTORE POP POP JUMP JUMPDEST PUSH2 0x1FD4 DUP2 PUSH2 0x289C JUMP JUMPDEST DUP3 MSTORE POP POP JUMP JUMPDEST PUSH2 0x1FE3 DUP2 PUSH2 0x28AE JUMP JUMPDEST DUP3 MSTORE POP POP JUMP JUMPDEST PUSH2 0x1FF2 DUP2 PUSH2 0x2843 JUMP JUMPDEST DUP3 MSTORE POP POP JUMP JUMPDEST PUSH1 0x0 PUSH2 0x2005 PUSH1 0x5 DUP4 PUSH2 0x26A7 JUMP JUMPDEST SWAP2 POP PUSH2 0x2010 DUP3 PUSH2 0x2A63 JUMP JUMPDEST PUSH1 0x20 DUP3 ADD SWAP1 POP SWAP2 SWAP1 POP JUMP JUMPDEST PUSH1 0x0 PUSH2 0x2028 PUSH1 0x5 DUP4 PUSH2 0x26A7 JUMP JUMPDEST SWAP2 POP PUSH2 0x2033 DUP3 PUSH2 0x2A8C JUMP JUMPDEST PUSH1 0x20 DUP3 ADD SWAP1 POP SWAP2 SWAP1 POP JUMP JUMPDEST PUSH1 0x0 PUSH2 0x204B PUSH1 0x5 DUP4 PUSH2 0x26A7 JUMP JUMPDEST SWAP2 POP PUSH2 0x2056 DUP3 PUSH2 0x2AB5 JUMP JUMPDEST PUSH1 0x20 DUP3 ADD SWAP1 POP SWAP2 SWAP1 POP JUMP JUMPDEST PUSH1 0x0 PUSH2 0x206E PUSH1 0x5 DUP4 PUSH2 0x26A7 JUMP JUMPDEST SWAP2 POP PUSH2 0x2079 DUP3 PUSH2 0x2ADE JUMP JUMPDEST PUSH1 0x20 DUP3 ADD SWAP1 POP SWAP2 SWAP1 POP JUMP JUMPDEST PUSH1 0x0 PUSH2 0x2091 PUSH1 0x5 DUP4 PUSH2 0x26A7 JUMP JUMPDEST SWAP2 POP PUSH2 0x209C DUP3 PUSH2 0x2B07 JUMP JUMPDEST PUSH1 0x20 DUP3 ADD SWAP1 POP SWAP2 SWAP1 POP JUMP JUMPDEST PUSH1 0x0 PUSH2 0x20B4 PUSH1 0x5 DUP4 PUSH2 0x26A7 JUMP JUMPDEST SWAP2 POP PUSH2 0x20BF DUP3 PUSH2 0x2B30 JUMP JUMPDEST PUSH1 0x20 DUP3 ADD SWAP1 POP SWAP2 SWAP1 POP JUMP JUMPDEST PUSH1 0x0 PUSH2 0x20D7 PUSH1 0x5 DUP4 PUSH2 0x26A7 JUMP JUMPDEST SWAP2 POP PUSH2 0x20E2 DUP3 PUSH2 0x2B59 JUMP JUMPDEST PUSH1 0x20 DUP3 ADD SWAP1 POP SWAP2 SWAP1 POP JUMP JUMPDEST PUSH1 0x0 PUSH2 0x20FA PUSH1 0x5 DUP4 PUSH2 0x26A7 JUMP JUMPDEST SWAP2 POP PUSH2 0x2105 DUP3 PUSH2 0x2B82 JUMP JUMPDEST PUSH1 0x20 DUP3 ADD SWAP1 POP SWAP2 SWAP1 POP JUMP JUMPDEST PUSH1 0xA0 DUP3 ADD PUSH1 0x0 DUP3 ADD MLOAD PUSH2 0x2126 PUSH1 0x0 DUP6 ADD DUP3 PUSH2 0x1DDC JUMP JUMPDEST POP PUSH1 0x20 DUP3 ADD MLOAD PUSH2 0x2139 PUSH1 0x20 DUP6 ADD DUP3 PUSH2 0x226E JUMP JUMPDEST POP PUSH1 0x40 DUP3 ADD MLOAD PUSH2 0x214C PUSH1 0x40 DUP6 ADD DUP3 PUSH2 0x1FAD JUMP JUMPDEST POP PUSH1 0x60 DUP3 ADD MLOAD PUSH2 0x215F PUSH1 0x60 DUP6 ADD DUP3 PUSH2 0x1FAD JUMP JUMPDEST POP PUSH1 0x80 DUP3 ADD MLOAD PUSH2 0x2172 PUSH1 0x80 DUP6 ADD DUP3 PUSH2 0x1FAD JUMP JUMPDEST POP POP POP POP JUMP JUMPDEST PUSH2 0x200 DUP3 ADD PUSH1 0x0 DUP3 ADD MLOAD PUSH2 0x218F PUSH1 0x0 DUP6 ADD DUP3 PUSH2 0x1DDC JUMP JUMPDEST POP PUSH1 0x20 DUP3 ADD MLOAD PUSH2 0x21A2 PUSH1 0x20 DUP6 ADD DUP3 PUSH2 0x1DDC JUMP JUMPDEST POP PUSH1 0x40 DUP3 ADD MLOAD PUSH2 0x21B5 PUSH1 0x40 DUP6 ADD DUP3 PUSH2 0x22B9 JUMP JUMPDEST POP PUSH1 0x60 DUP3 ADD MLOAD PUSH2 0x21C8 PUSH1 0x60 DUP6 ADD DUP3 PUSH2 0x22B9 JUMP JUMPDEST POP PUSH1 0x80 DUP3 ADD MLOAD PUSH2 0x21DB PUSH1 0x80 DUP6 ADD DUP3 PUSH2 0x22B9 JUMP JUMPDEST POP PUSH1 0xA0 DUP3 ADD MLOAD PUSH2 0x21EE PUSH1 0xA0 DUP6 ADD DUP3 PUSH2 0x1DDC JUMP JUMPDEST POP PUSH1 0xC0 DUP3 ADD MLOAD PUSH2 0x2201 PUSH1 0xC0 DUP6 ADD DUP3 PUSH2 0x229B JUMP JUMPDEST POP PUSH1 0xE0 DUP3 ADD MLOAD PUSH2 0x2214 PUSH1 0xE0 DUP6 ADD DUP3 PUSH2 0x1DDC JUMP JUMPDEST POP PUSH2 0x100 DUP3 ADD MLOAD PUSH2 0x2229 PUSH2 0x100 DUP6 ADD DUP3 PUSH2 0x226E JUMP JUMPDEST POP PUSH2 0x120 DUP3 ADD MLOAD PUSH2 0x223E PUSH2 0x120 DUP6 ADD DUP3 PUSH2 0x1DFA JUMP JUMPDEST POP PUSH2 0x140 DUP3 ADD MLOAD PUSH2 0x2253 PUSH2 0x160 DUP6 ADD DUP3 PUSH2 0x1EA8 JUMP JUMPDEST POP PUSH2 0x160 DUP3 ADD MLOAD PUSH2 0x2268 PUSH2 0x1E0 DUP6 ADD DUP3 PUSH2 0x229B JUMP JUMPDEST POP POP POP POP JUMP JUMPDEST PUSH2 0x2277 DUP2 PUSH2 0x2850 JUMP JUMPDEST DUP3 MSTORE POP POP JUMP JUMPDEST PUSH2 0x2286 DUP2 PUSH2 0x2850 JUMP JUMPDEST DUP3 MSTORE POP POP JUMP JUMPDEST PUSH2 0x2295 DUP2 PUSH2 0x28F6 JUMP JUMPDEST DUP3 MSTORE POP POP JUMP JUMPDEST PUSH2 0x22A4 DUP2 PUSH2 0x287E JUMP JUMPDEST DUP3 MSTORE POP POP JUMP JUMPDEST PUSH2 0x22B3 DUP2 PUSH2 0x287E JUMP JUMPDEST DUP3 MSTORE POP POP JUMP JUMPDEST PUSH2 0x22C2 DUP2 PUSH2 0x2888 JUMP JUMPDEST DUP3 MSTORE POP POP JUMP JUMPDEST PUSH1 0x0 PUSH1 0x40 DUP3 ADD SWAP1 POP PUSH2 0x22DD PUSH1 0x0 DUP4 ADD DUP6 PUSH2 0x1DEB JUMP JUMPDEST PUSH2 0x22EA PUSH1 0x20 DUP4 ADD DUP5 PUSH2 0x228C JUMP JUMPDEST SWAP4 SWAP3 POP POP POP JUMP JUMPDEST PUSH1 0x0 PUSH1 0x60 DUP3 ADD SWAP1 POP PUSH2 0x2306 PUSH1 0x0 DUP4 ADD DUP7 PUSH2 0x1DEB JUMP JUMPDEST PUSH2 0x2313 PUSH1 0x20 DUP4 ADD DUP6 PUSH2 0x227D JUMP JUMPDEST PUSH2 0x2320 PUSH1 0x40 DUP4 ADD DUP5 PUSH2 0x1DEB JUMP JUMPDEST SWAP5 SWAP4 POP POP POP POP JUMP JUMPDEST PUSH1 0x0 PUSH1 0xA0 DUP3 ADD SWAP1 POP PUSH2 0x233D PUSH1 0x0 DUP4 ADD DUP9 PUSH2 0x1DEB JUMP JUMPDEST PUSH2 0x234A PUSH1 0x20 DUP4 ADD DUP8 PUSH2 0x227D JUMP JUMPDEST PUSH2 0x2357 PUSH1 0x40 DUP4 ADD DUP7 PUSH2 0x1FBC JUMP JUMPDEST PUSH2 0x2364 PUSH1 0x60 DUP4 ADD DUP6 PUSH2 0x1FBC JUMP JUMPDEST PUSH2 0x2371 PUSH1 0x80 DUP4 ADD DUP5 PUSH2 0x1FBC JUMP JUMPDEST SWAP7 SWAP6 POP POP POP POP POP POP JUMP JUMPDEST PUSH1 0x0 PUSH1 0x80 DUP3 ADD SWAP1 POP PUSH2 0x2390 PUSH1 0x0 DUP4 ADD DUP5 PUSH2 0x1EFF JUMP JUMPDEST SWAP3 SWAP2 POP POP JUMP JUMPDEST PUSH1 0x0 PUSH1 0x20 DUP3 ADD SWAP1 POP PUSH2 0x23AB PUSH1 0x0 DUP4 ADD DUP5 PUSH2 0x1FCB JUMP JUMPDEST SWAP3 SWAP2 POP POP JUMP JUMPDEST PUSH1 0x0 PUSH1 0x20 DUP3 ADD SWAP1 POP PUSH2 0x23C6 PUSH1 0x0 DUP4 ADD DUP5 PUSH2 0x1FDA JUMP JUMPDEST SWAP3 SWAP2 POP POP JUMP JUMPDEST PUSH1 0x0 PUSH1 0x20 DUP3 ADD SWAP1 POP DUP2 DUP2 SUB PUSH1 0x0 DUP4 ADD MSTORE PUSH2 0x23E5 DUP2 PUSH2 0x1FF8 JUMP JUMPDEST SWAP1 POP SWAP2 SWAP1 POP JUMP JUMPDEST PUSH1 0x0 PUSH1 0x20 DUP3 ADD SWAP1 POP DUP2 DUP2 SUB PUSH1 0x0 DUP4 ADD MSTORE PUSH2 0x2405 DUP2 PUSH2 0x201B JUMP JUMPDEST SWAP1 POP SWAP2 SWAP1 POP JUMP JUMPDEST PUSH1 0x0 PUSH1 0x20 DUP3 ADD SWAP1 POP DUP2 DUP2 SUB PUSH1 0x0 DUP4 ADD MSTORE PUSH2 0x2425 DUP2 PUSH2 0x203E JUMP JUMPDEST SWAP1 POP SWAP2 SWAP1 POP JUMP JUMPDEST PUSH1 0x0 PUSH1 0x20 DUP3 ADD SWAP1 POP DUP2 DUP2 SUB PUSH1 0x0 DUP4 ADD MSTORE PUSH2 0x2445 DUP2 PUSH2 0x2061 JUMP JUMPDEST SWAP1 POP SWAP2 SWAP1 POP JUMP JUMPDEST PUSH1 0x0 PUSH1 0x20 DUP3 ADD SWAP1 POP DUP2 DUP2 SUB PUSH1 0x0 DUP4 ADD MSTORE PUSH2 0x2465 DUP2 PUSH2 0x2084 JUMP JUMPDEST SWAP1 POP SWAP2 SWAP1 POP JUMP JUMPDEST PUSH1 0x0 PUSH1 0x20 DUP3 ADD SWAP1 POP DUP2 DUP2 SUB PUSH1 0x0 DUP4 ADD MSTORE PUSH2 0x2485 DUP2 PUSH2 0x20A7 JUMP JUMPDEST SWAP1 POP SWAP2 SWAP1 POP JUMP JUMPDEST PUSH1 0x0 PUSH1 0x20 DUP3 ADD SWAP1 POP DUP2 DUP2 SUB PUSH1 0x0 DUP4 ADD MSTORE PUSH2 0x24A5 DUP2 PUSH2 0x20CA JUMP JUMPDEST SWAP1 POP SWAP2 SWAP1 POP JUMP JUMPDEST PUSH1 0x0 PUSH1 0x20 DUP3 ADD SWAP1 POP DUP2 DUP2 SUB PUSH1 0x0 DUP4 ADD MSTORE PUSH2 0x24C5 DUP2 PUSH2 0x20ED JUMP JUMPDEST SWAP1 POP SWAP2 SWAP1 POP JUMP JUMPDEST PUSH1 0x0 PUSH1 0xA0 DUP3 ADD SWAP1 POP PUSH2 0x24E1 PUSH1 0x0 DUP4 ADD DUP5 PUSH2 0x2110 JUMP JUMPDEST SWAP3 SWAP2 POP POP JUMP JUMPDEST PUSH1 0x0 PUSH2 0x2C0 DUP3 ADD SWAP1 POP PUSH2 0x24FD PUSH1 0x0 DUP4 ADD DUP7 PUSH2 0x2178 JUMP JUMPDEST PUSH2 0x250B PUSH2 0x200 DUP4 ADD DUP6 PUSH2 0x22AA JUMP JUMPDEST PUSH2 0x2519 PUSH2 0x220 DUP4 ADD DUP5 PUSH2 0x1F56 JUMP JUMPDEST SWAP5 SWAP4 POP POP POP POP JUMP JUMPDEST PUSH1 0x0 PUSH1 0x20 DUP3 ADD SWAP1 POP PUSH2 0x2536 PUSH1 0x0 DUP4 ADD DUP5 PUSH2 0x22AA JUMP JUMPDEST SWAP3 SWAP2 POP POP JUMP JUMPDEST PUSH1 0x0 PUSH1 0xE0 DUP3 ADD SWAP1 POP PUSH2 0x2551 PUSH1 0x0 DUP4 ADD DUP7 PUSH2 0x22AA JUMP JUMPDEST PUSH2 0x255E PUSH1 0x20 DUP4 ADD DUP6 PUSH2 0x1EFF JUMP JUMPDEST PUSH2 0x256B PUSH1 0xA0 DUP4 ADD DUP5 PUSH2 0x1E51 JUMP JUMPDEST SWAP5 SWAP4 POP POP POP POP JUMP JUMPDEST PUSH1 0x0 PUSH2 0x257D PUSH2 0x258E JUMP JUMPDEST SWAP1 POP PUSH2 0x2589 DUP3 DUP3 PUSH2 0x2908 JUMP JUMPDEST SWAP2 SWAP1 POP JUMP JUMPDEST PUSH1 0x0 PUSH1 0x40 MLOAD SWAP1 POP SWAP1 JUMP JUMPDEST PUSH1 0x0 PUSH8 0xFFFFFFFFFFFFFFFF DUP3 GT ISZERO PUSH2 0x25B3 JUMPI PUSH2 0x25B2 PUSH2 0x2A0F JUMP JUMPDEST JUMPDEST PUSH1 0x20 DUP3 MUL SWAP1 POP SWAP2 SWAP1 POP JUMP JUMPDEST PUSH1 0x0 PUSH8 0xFFFFFFFFFFFFFFFF DUP3 GT ISZERO PUSH2 0x25D9 JUMPI PUSH2 0x25D8 PUSH2 0x2A0F JUMP JUMPDEST JUMPDEST PUSH1 0x20 DUP3 MUL SWAP1 POP SWAP2 SWAP1 POP JUMP JUMPDEST PUSH1 0x0 PUSH8 0xFFFFFFFFFFFFFFFF DUP3 GT ISZERO PUSH2 0x25FF JUMPI PUSH2 0x25FE PUSH2 0x2A0F JUMP JUMPDEST JUMPDEST PUSH1 0x20 DUP3 MUL SWAP1 POP SWAP2 SWAP1 POP JUMP JUMPDEST PUSH1 0x0 DUP2 SWAP1 POP SWAP2 SWAP1 POP JUMP JUMPDEST PUSH1 0x0 DUP2 SWAP1 POP SWAP2 SWAP1 POP JUMP JUMPDEST PUSH1 0x0 DUP2 SWAP1 POP SWAP2 SWAP1 POP JUMP JUMPDEST PUSH1 0x0 PUSH1 0x2 SWAP1 POP SWAP2 SWAP1 POP JUMP JUMPDEST PUSH1 0x0 PUSH1 0x4 SWAP1 POP SWAP2 SWAP1 POP JUMP JUMPDEST PUSH1 0x0 PUSH1 0x5 SWAP1 POP SWAP2 SWAP1 POP JUMP JUMPDEST PUSH1 0x0 PUSH1 0x20 DUP3 ADD SWAP1 POP SWAP2 SWAP1 POP JUMP JUMPDEST PUSH1 0x0 PUSH1 0x20 DUP3 ADD SWAP1 POP SWAP2 SWAP1 POP JUMP JUMPDEST PUSH1 0x0 PUSH1 0x20 DUP3 ADD SWAP1 POP SWAP2 SWAP1 POP JUMP JUMPDEST PUSH1 0x0 DUP2 SWAP1 POP SWAP3 SWAP2 POP POP JUMP JUMPDEST PUSH1 0x0 DUP2 SWAP1 POP SWAP3 SWAP2 POP POP JUMP JUMPDEST PUSH1 0x0 DUP2 SWAP1 POP SWAP3 SWAP2 POP POP JUMP JUMPDEST PUSH1 0x0 DUP2 SWAP1 POP SWAP3 SWAP2 POP POP JUMP JUMPDEST PUSH1 0x0 DUP2 SWAP1 POP SWAP3 SWAP2 POP POP JUMP JUMPDEST PUSH1 0x0 DUP3 DUP3 MSTORE PUSH1 0x20 DUP3 ADD SWAP1 POP SWAP3 SWAP2 POP POP JUMP JUMPDEST PUSH1 0x0 PUSH2 0x26C3 DUP3 PUSH2 0x2843 JUMP JUMPDEST SWAP2 POP PUSH2 0x26CE DUP4 PUSH2 0x2843 JUMP JUMPDEST SWAP3 POP DUP2 PUSH2 0x7FFF SUB DUP4 SGT PUSH1 0x0 DUP4 SLT ISZERO AND ISZERO PUSH2 0x26EB JUMPI PUSH2 0x26EA PUSH2 0x2982 JUMP JUMPDEST JUMPDEST DUP2 PUSH32 0xFFFFFFFFFFFFFFFFFFFFFFFFFFFFFFFFFFFFFFFFFFFFFFFFFFFFFFFFFFFF8000 SUB DUP4 SLT PUSH1 0x0 DUP4 SLT AND ISZERO PUSH2 0x2723 JUMPI PUSH2 0x2722 PUSH2 0x2982 JUMP JUMPDEST JUMPDEST DUP3 DUP3 ADD SWAP1 POP SWAP3 SWAP2 POP POP JUMP JUMPDEST PUSH1 0x0 PUSH2 0x2739 DUP3 PUSH2 0x2850 JUMP JUMPDEST SWAP2 POP PUSH2 0x2744 DUP4 PUSH2 0x2850 JUMP JUMPDEST SWAP3 POP DUP3 PUSH2 0xFFFF SUB DUP3 GT ISZERO PUSH2 0x275B JUMPI PUSH2 0x275A PUSH2 0x2982 JUMP JUMPDEST JUMPDEST DUP3 DUP3 ADD SWAP1 POP SWAP3 SWAP2 POP POP JUMP JUMPDEST PUSH1 0x0 PUSH2 0x2771 DUP3 PUSH2 0x287E JUMP JUMPDEST SWAP2 POP PUSH2 0x277C DUP4 PUSH2 0x287E JUMP JUMPDEST SWAP3 POP DUP3 PUSH2 0x278C JUMPI PUSH2 0x278B PUSH2 0x29B1 JUMP JUMPDEST JUMPDEST DUP3 DUP3 DIV SWAP1 POP SWAP3 SWAP2 POP POP JUMP JUMPDEST PUSH1 0x0 PUSH2 0x27A2 DUP3 PUSH2 0x287E JUMP JUMPDEST SWAP2 POP PUSH2 0x27AD DUP4 PUSH2 0x287E JUMP JUMPDEST SWAP3 POP DUP2 PUSH32 0xFFFFFFFFFFFFFFFFFFFFFFFFFFFFFFFFFFFFFFFFFFFFFFFFFFFFFFFFFFFFFFFF DIV DUP4 GT DUP3 ISZERO ISZERO AND ISZERO PUSH2 0x27E6 JUMPI PUSH2 0x27E5 PUSH2 0x2982 JUMP JUMPDEST JUMPDEST DUP3 DUP3 MUL SWAP1 POP SWAP3 SWAP2 POP POP JUMP JUMPDEST PUSH1 0x0 PUSH2 0x27FC DUP3 PUSH2 0x287E JUMP JUMPDEST SWAP2 POP PUSH2 0x2807 DUP4 PUSH2 0x287E JUMP JUMPDEST SWAP3 POP DUP3 DUP3 LT ISZERO PUSH2 0x281A JUMPI PUSH2 0x2819 PUSH2 0x2982 JUMP JUMPDEST JUMPDEST DUP3 DUP3 SUB SWAP1 POP SWAP3 SWAP2 POP POP JUMP JUMPDEST PUSH1 0x0 PUSH2 0x2830 DUP3 PUSH2 0x285E JUMP JUMPDEST SWAP1 POP SWAP2 SWAP1 POP JUMP JUMPDEST PUSH1 0x0 DUP2 ISZERO ISZERO SWAP1 POP SWAP2 SWAP1 POP JUMP JUMPDEST PUSH1 0x0 DUP2 PUSH1 0x1 SIGNEXTEND SWAP1 POP SWAP2 SWAP1 POP JUMP JUMPDEST PUSH1 0x0 PUSH2 0xFFFF DUP3 AND SWAP1 POP SWAP2 SWAP1 POP JUMP JUMPDEST PUSH1 0x0 PUSH20 0xFFFFFFFFFFFFFFFFFFFFFFFFFFFFFFFFFFFFFFFF DUP3 AND SWAP1 POP SWAP2 SWAP1 POP JUMP JUMPDEST PUSH1 0x0 DUP2 SWAP1 POP SWAP2 SWAP1 POP JUMP JUMPDEST PUSH1 0x0 PUSH8 0xFFFFFFFFFFFFFFFF DUP3 AND SWAP1 POP SWAP2 SWAP1 POP JUMP JUMPDEST PUSH1 0x0 PUSH2 0x28A7 DUP3 PUSH2 0x28C0 JUMP JUMPDEST SWAP1 POP SWAP2 SWAP1 POP JUMP JUMPDEST PUSH1 0x0 PUSH2 0x28B9 DUP3 PUSH2 0x28D2 JUMP JUMPDEST SWAP1 POP SWAP2 SWAP1 POP JUMP JUMPDEST PUSH1 0x0 PUSH2 0x28CB DUP3 PUSH2 0x28E4 JUMP JUMPDEST SWAP1 POP SWAP2 SWAP1 POP JUMP JUMPDEST PUSH1 0x0 PUSH2 0x28DD DUP3 PUSH2 0x28E4 JUMP JUMPDEST SWAP1 POP SWAP2 SWAP1 POP JUMP JUMPDEST PUSH1 0x0 PUSH2 0x28EF DUP3 PUSH2 0x285E JUMP JUMPDEST SWAP1 POP SWAP2 SWAP1 POP JUMP JUMPDEST PUSH1 0x0 PUSH2 0x2901 DUP3 PUSH2 0x2850 JUMP JUMPDEST SWAP1 POP SWAP2 SWAP1 POP JUMP JUMPDEST PUSH2 0x2911 DUP3 PUSH2 0x2A52 JUMP JUMPDEST DUP2 ADD DUP2 DUP2 LT PUSH8 0xFFFFFFFFFFFFFFFF DUP3 GT OR ISZERO PUSH2 0x2930 JUMPI PUSH2 0x292F PUSH2 0x2A0F JUMP JUMPDEST JUMPDEST DUP1 PUSH1 0x40 MSTORE POP POP POP JUMP JUMPDEST PUSH1 0x0 PUSH2 0x2944 DUP3 PUSH2 0x2843 JUMP JUMPDEST SWAP2 POP PUSH32 0xFFFFFFFFFFFFFFFFFFFFFFFFFFFFFFFFFFFFFFFFFFFFFFFFFFFFFFFFFFFF8000 DUP3 EQ ISZERO PUSH2 0x2977 JUMPI PUSH2 0x2976 PUSH2 0x2982 JUMP JUMPDEST JUMPDEST DUP2 PUSH1 0x0 SUB SWAP1 POP SWAP2 SWAP1 POP JUMP JUMPDEST PUSH32 0x4E487B7100000000000000000000000000000000000000000000000000000000 PUSH1 0x0 MSTORE PUSH1 0x11 PUSH1 0x4 MSTORE PUSH1 0x24 PUSH1 0x0 REVERT JUMPDEST PUSH32 0x4E487B7100000000000000000000000000000000000000000000000000000000 PUSH1 0x0 MSTORE PUSH1 0x12 PUSH1 0x4 MSTORE PUSH1 0x24 PUSH1 0x0 REVERT JUMPDEST PUSH32 0x4E487B7100000000000000000000000000000000000000000000000000000000 PUSH1 0x0 MSTORE PUSH1 0x32 PUSH1 0x4 MSTORE PUSH1 0x24 PUSH1 0x0 REVERT JUMPDEST PUSH32 0x4E487B7100000000000000000000000000000000000000000000000000000000 PUSH1 0x0 MSTORE PUSH1 0x41 PUSH1 0x4 MSTORE PUSH1 0x24 PUSH1 0x0 REVERT JUMPDEST PUSH1 0x0 DUP1 REVERT JUMPDEST PUSH1 0x0 DUP1 REVERT JUMPDEST PUSH1 0x0 DUP1 REVERT JUMPDEST PUSH1 0x0 DUP1 REVERT JUMPDEST PUSH1 0x0 PUSH1 0x1F NOT PUSH1 0x1F DUP4 ADD AND SWAP1 POP SWAP2 SWAP1 POP JUMP JUMPDEST PUSH32 0x312D303037000000000000000000000000000000000000000000000000000000 PUSH1 0x0 DUP3 ADD MSTORE POP JUMP JUMPDEST PUSH32 0x322D303034000000000000000000000000000000000000000000000000000000 PUSH1 0x0 DUP3 ADD MSTORE POP JUMP JUMPDEST PUSH32 0x322D303036000000000000000000000000000000000000000000000000000000 PUSH1 0x0 DUP3 ADD MSTORE POP JUMP JUMPDEST PUSH32 0x322D303035000000000000000000000000000000000000000000000000000000 PUSH1 0x0 DUP3 ADD MSTORE POP JUMP JUMPDEST PUSH32 0x322D303038000000000000000000000000000000000000000000000000000000 PUSH1 0x0 DUP3 ADD MSTORE POP JUMP JUMPDEST PUSH32 0x322D303037000000000000000000000000000000000000000000000000000000 PUSH1 0x0 DUP3 ADD MSTORE POP JUMP JUMPDEST PUSH32 0x322D303033000000000000000000000000000000000000000000000000000000 PUSH1 0x0 DUP3 ADD MSTORE POP JUMP JUMPDEST PUSH32 0x322D303031000000000000000000000000000000000000000000000000000000 PUSH1 0x0 DUP3 ADD MSTORE POP JUMP JUMPDEST PUSH2 0x2BB4 DUP2 PUSH2 0x2825 JUMP JUMPDEST DUP2 EQ PUSH2 0x2BBF JUMPI PUSH1 0x0 DUP1 REVERT JUMPDEST POP JUMP JUMPDEST PUSH2 0x2BCB DUP2 PUSH2 0x2843 JUMP JUMPDEST DUP2 EQ PUSH2 0x2BD6 JUMPI PUSH1 0x0 DUP1 REVERT JUMPDEST POP JUMP JUMPDEST PUSH2 0x2BE2 DUP2 PUSH2 0x2850 JUMP JUMPDEST DUP2 EQ PUSH2 0x2BED JUMPI PUSH1 0x0 DUP1 REVERT JUMPDEST POP JUMP JUMPDEST PUSH2 0x2BF9 DUP2 PUSH2 0x287E JUMP JUMPDEST DUP2 EQ PUSH2 0x2C04 JUMPI PUSH1 0x0 DUP1 REVERT JUMPDEST POP JUMP JUMPDEST PUSH2 0x2C10 DUP2 PUSH2 0x2888 JUMP JUMPDEST DUP2 EQ PUSH2 0x2C1B JUMPI PUSH1 0x0 DUP1 REVERT JUMPDEST POP JUMP INVALID LOG2 PUSH5 0x6970667358 0x22 SLT KECCAK256 0xCF PUSH2 0xEB97 ADDRESS ISZERO 0xD6 SWAP5 0xC3 EXTCODESIZE PC CALLDATASIZE 0x29 0xB2 0x26 0xC1 0xE4 POP 0xA6 0xA7 0x1F CALLDATACOPY PUSH29 0x159429FE0460D2885864736F6C63430008070033000000000000000000 "},"methodIdentifiers":{"approveArbitrator(uint256,address,uint16)":"8e032c5a","arbitrate(uint256,uint16[2])":"496f928b","arbitrationCalculation(uint16[5])":"4c403c53","escrowArbitrator(uint256)":"e2bc475c","getArbitratorData(uint256)":"16e0551b","proposeArbitrator(uint256,address,uint16)":"79414b3c","setArbitrator(uint256,address,uint16)":"2ea8eddd","unicrow()":"6e4e2934","unicrowClaim()":"e9db7d79"}}}}}