{"contracts/UnicrowDispute.sol":{"UnicrowDispute":{"abi":[{"inputs":[{"internalType":"address","name":"unicrow_","type":"address"},{"internalType":"address","name":"unicrowClaim_","type":"address"},{"internalType":"address","name":"unicrowArbitrator_","type":"address"}],"stateMutability":"nonpayable","type":"constructor"},{"anonymous":false,"inputs":[{"indexed":true,"internalType":"uint256","name":"escrowId","type":"uint256"},{"components":[{"internalType":"address","name":"buyer","type":"address"},{"internalType":"address","name":"seller","type":"address"},{"internalType":"uint64","name":"challengePeriodStart","type":"uint64"},{"internalType":"uint64","name":"challengePeriodEnd","type":"uint64"},{"internalType":"uint64","name":"challengeExtension","type":"uint64"},{"internalType":"address","name":"marketplace","type":"address"},{"internalType":"uint256","name":"marketplaceFee","type":"uint256"},{"internalType":"address","name":"currency","type":"address"},{"internalType":"uint16","name":"claimed","type":"uint16"},{"internalType":"int16[2]","name":"consensus","type":"int16[2]"},{"internalType":"uint16[4]","name":"split","type":"uint16[4]"},{"internalType":"uint256","name":"amount","type":"uint256"}],"indexed":false,"internalType":"struct Escrow","name":"escrow","type":"tuple"},{"indexed":false,"internalType":"uint16[2]","name":"latestSettlementOffer","type":"uint16[2]"},{"indexed":false,"internalType":"uint256","name":"blockTime","type":"uint256"},{"indexed":false,"internalType":"uint256[5]","name":"amounts","type":"uint256[5]"}],"name":"ApproveOffer","type":"event"},{"anonymous":false,"inputs":[{"indexed":true,"internalType":"uint256","name":"escrowId","type":"uint256"},{"indexed":false,"internalType":"uint256","name":"blockTime","type":"uint256"},{"components":[{"internalType":"address","name":"buyer","type":"address"},{"internalType":"address","name":"seller","type":"address"},{"internalType":"uint64","name":"challengePeriodStart","type":"uint64"},{"internalType":"uint64","name":"challengePeriodEnd","type":"uint64"},{"internalType":"uint64","name":"challengeExtension","type":"uint64"},{"internalType":"address","name":"marketplace","type":"address"},{"internalType":"uint256","name":"marketplaceFee","type":"uint256"},{"internalType":"address","name":"currency","type":"address"},{"internalType":"uint16","name":"claimed","type":"uint16"},{"internalType":"int16[2]","name":"consensus","type":"int16[2]"},{"internalType":"uint16[4]","name":"split","type":"uint16[4]"},{"internalType":"uint256","name":"amount","type":"uint256"}],"indexed":false,"internalType":"struct Escrow","name":"escrow","type":"tuple"}],"name":"Challenge","type":"event"},{"anonymous":false,"inputs":[{"indexed":true,"internalType":"uint256","name":"escrowId","type":"uint256"},{"indexed":false,"internalType":"uint256","name":"blockTime","type":"uint256"},{"indexed":false,"internalType":"uint16[2]","name":"latestSettlementOffer","type":"uint16[2]"},{"indexed":false,"internalType":"address","name":"latestSettlementOfferBy","type":"address"}],"name":"SettlementOffer","type":"event"},{"inputs":[{"internalType":"uint256","name":"escrowId","type":"uint256"},{"internalType":"uint16[2]","name":"validation","type":"uint16[2]"}],"name":"approveSettlement","outputs":[],"stateMutability":"nonpayable","type":"function"},{"inputs":[{"internalType":"uint256","name":"escrowId","type":"uint256"}],"name":"challenge","outputs":[],"stateMutability":"nonpayable","type":"function"},{"inputs":[{"internalType":"uint256","name":"escrowId","type":"uint256"}],"name":"getSettlementDetails","outputs":[{"components":[{"internalType":"address","name":"latestSettlementOfferBy","type":"address"},{"internalType":"uint16[2]","name":"latestSettlementOffer","type":"uint16[2]"}],"internalType":"struct Settlement","name":"","type":"tuple"}],"stateMutability":"view","type":"function"},{"inputs":[{"internalType":"uint256","name":"","type":"uint256"},{"internalType":"uint256","name":"","type":"uint256"}],"name":"latestSettlementOffer","outputs":[{"internalType":"uint16","name":"","type":"uint16"}],"stateMutability":"view","type":"function"},{"inputs":[{"internalType":"uint256","name":"","type":"uint256"}],"name":"latestSettlementOfferBy","outputs":[{"internalType":"address","name":"","type":"address"}],"stateMutability":"view","type":"function"},{"inputs":[{"internalType":"uint256","name":"escrowId","type":"uint256"},{"internalType":"uint16[2]","name":"newSplit","type":"uint16[2]"}],"name":"offerSettlement","outputs":[],"stateMutability":"nonpayable","type":"function"}],"evm":{"bytecode":{"linkReferences":{},"object":"60806040523480156200001157600080fd5b5060405162002d0c38038062002d0c833981810160405281019062000037919062000122565b600160008190555082600160006101000a81548173ffffffffffffffffffffffffffffffffffffffff021916908373ffffffffffffffffffffffffffffffffffffffff16021790555081600260006101000a81548173ffffffffffffffffffffffffffffffffffffffff021916908373ffffffffffffffffffffffffffffffffffffffff16021790555080600360006101000a81548173ffffffffffffffffffffffffffffffffffffffff021916908373ffffffffffffffffffffffffffffffffffffffff160217905550505050620001d1565b6000815190506200011c81620001b7565b92915050565b6000806000606084860312156200013e576200013d620001b2565b5b60006200014e868287016200010b565b935050602062000161868287016200010b565b925050604062000174868287016200010b565b9150509250925092565b60006200018b8262000192565b9050919050565b600073ffffffffffffffffffffffffffffffffffffffff82169050919050565b600080fd5b620001c2816200017e565b8114620001ce57600080fd5b50565b612b2b80620001e16000396000f3fe608060405234801561001057600080fd5b50600436106100625760003560e01c8063325369f6146100675780637e684d05146100975780639f8621b8146100c7578063ab82d9a0146100e3578063c5708645146100ff578063fe5e29691461011b575b600080fd5b610081600480360381019061007c9190611b81565b61014b565b60405161008e9190612376565b60405180910390f35b6100b160048036038101906100ac9190611b14565b610188565b6040516100be9190612197565b60405180910390f35b6100e160048036038101906100dc9190611b41565b6101bb565b005b6100fd60048036038101906100f89190611b14565b6108c8565b005b61011960048036038101906101149190611b41565b611100565b005b61013560048036038101906101309190611b14565b611494565b604051610142919061235b565b60405180910390f35b6005602052816000526040600020816002811061016757600080fd5b60109182820401919006600202915091509054906101000a900461ffff1681565b60046020528060005260406000206000915054906101000a900473ffffffffffffffffffffffffffffffffffffffff1681565b60006101c561157d565b90506000600160009054906101000a900473ffffffffffffffffffffffffffffffffffffffff1673ffffffffffffffffffffffffffffffffffffffff16637d19e596856040518263ffffffff1660e01b81526004016102249190612391565b6102006040518083038186803b15801561023d57600080fd5b505afa158015610251573d6000803e3d6000fd5b505050506040513d601f19601f820116820180604052508101906102759190611ae6565b9050806000015173ffffffffffffffffffffffffffffffffffffffff168273ffffffffffffffffffffffffffffffffffffffff1614806102e45750806020015173ffffffffffffffffffffffffffffffffffffffff168273ffffffffffffffffffffffffffffffffffffffff16145b610323576040517f08c379a000000000000000000000000000000000000000000000000000000000815260040161031a906121f2565b60405180910390fd5b6004600085815260200190815260200160002060009054906101000a900473ffffffffffffffffffffffffffffffffffffffff1673ffffffffffffffffffffffffffffffffffffffff168273ffffffffffffffffffffffffffffffffffffffff1614156103c5576040517f08c379a00000000000000000000000000000000000000000000000000000000081526004016103bc90612232565b60405180910390fd5b600073ffffffffffffffffffffffffffffffffffffffff166004600086815260200190815260200160002060009054906101000a900473ffffffffffffffffffffffffffffffffffffffff1673ffffffffffffffffffffffffffffffffffffffff161415610468576040517f08c379a000000000000000000000000000000000000000000000000000000000815260040161045f90612272565b60405180910390fd5b6000600560008681526020019081526020016000206002806020026040519081016040528092919082600280156104dc576020028201916000905b82829054906101000a900461ffff1661ffff16815260200190600201906020826001010492830192600103820291508084116104a35790505b5050505050905080600060ff16600281106104fa576104f961283c565b5b602002015161ffff1684600060ff166002811061051a5761051961283c565b5b602002015161ffff1614801561056d575080600160ff16600281106105425761054161283c565b5b602002015161ffff1684600160ff16600281106105625761056161283c565b5b602002015161ffff16145b6105ac576040517f08c379a00000000000000000000000000000000000000000000000000000000081526004016105a390612292565b60405180910390fd5b600082610140015190506000806105e2856101200151600060ff16600281106105d8576105d761283c565b5b6020020151611585565b60010b14610624576001610615856101200151600060ff166002811061060b5761060a61283c565b5b6020020151611585565b61061f919061263c565b610627565b60015b905082600060ff16600281106106405761063f61283c565b5b602002015182600060ff166004811061065c5761065b61283c565b5b602002019061ffff16908161ffff168152505082600160ff16600281106106865761068561283c565b5b602002015182600160ff16600481106106a2576106a161283c565b5b602002019061ffff16908161ffff168152505080846101200151600060ff16600281106106d2576106d161283c565b5b602002019060010b908160010b8152505061070c846101200151600160ff16600281106107025761070161283c565b5b6020020151611585565b846101200151600160ff16600281106107285761072761283c565b5b602002019060010b908160010b81525050600160009054906101000a900473ffffffffffffffffffffffffffffffffffffffff1673ffffffffffffffffffffffffffffffffffffffff166364166e6388848761012001516040518463ffffffff1660e01b815260040161079d939291906123e3565b600060405180830381600087803b1580156107b757600080fd5b505af11580156107cb573d6000803e3d6000fd5b505050506000600260009054906101000a900473ffffffffffffffffffffffffffffffffffffffff1673ffffffffffffffffffffffffffffffffffffffff1663b34291a6896040518263ffffffff1660e01b815260040161082c9190612391565b60a060405180830381600087803b15801561084657600080fd5b505af115801561085a573d6000803e3d6000fd5b505050506040513d601f19601f8201168201806040525081019061087e9190611ab9565b9050877f4ddd0d366374522f804ecaa3ad96835645d0b72cff36124aef9df54c9cb3baa0868642856040516108b69493929190612312565b60405180910390a25050505050505050565b6002600054141561090e576040517f08c379a0000000000000000000000000000000000000000000000000000000008152600401610905906122b2565b60405180910390fd5b6002600081905550600061092061157d565b90506000600160009054906101000a900473ffffffffffffffffffffffffffffffffffffffff1673ffffffffffffffffffffffffffffffffffffffff16637d19e596846040518263ffffffff1660e01b815260040161097f9190612391565b6102006040518083038186803b15801561099857600080fd5b505afa1580156109ac573d6000803e3d6000fd5b505050506040513d601f19601f820116820180604052508101906109d09190611ae6565b9050806020015173ffffffffffffffffffffffffffffffffffffffff168273ffffffffffffffffffffffffffffffffffffffff161480610a3f5750806000015173ffffffffffffffffffffffffffffffffffffffff168273ffffffffffffffffffffffffffffffffffffffff16145b610a7e576040517f08c379a0000000000000000000000000000000000000000000000000000000008152600401610a75906121f2565b60405180910390fd5b6000816101200151600160ff1660028110610a9c57610a9b61283c565b5b602002015160010b131580610ad557506000816101200151600060ff1660028110610aca57610ac961283c565b5b602002015160010b13155b610b14576040517f08c379a0000000000000000000000000000000000000000000000000000000008152600401610b0b90612212565b60405180910390fd5b806060015167ffffffffffffffff164210610b64576040517f08c379a0000000000000000000000000000000000000000000000000000000008152600401610b5b90612252565b60405180910390fd5b806000015173ffffffffffffffffffffffffffffffffffffffff168273ffffffffffffffffffffffffffffffffffffffff16141580610bc757506000816101200151600060ff1660028110610bbc57610bbb61283c565b5b602002015160010b13155b610c06576040517f08c379a0000000000000000000000000000000000000000000000000000000008152600401610bfd906122d2565b60405180910390fd5b806020015173ffffffffffffffffffffffffffffffffffffffff168273ffffffffffffffffffffffffffffffffffffffff16141580610c6957506000816101200151600160ff1660028110610c5e57610c5d61283c565b5b602002015160010b13155b610ca8576040517f08c379a0000000000000000000000000000000000000000000000000000000008152600401610c9f906122f2565b60405180910390fd5b806040015167ffffffffffffffff164211610cf8576040517f08c379a0000000000000000000000000000000000000000000000000000000008152600401610cef906121d2565b60405180910390fd5b806000015173ffffffffffffffffffffffffffffffffffffffff168273ffffffffffffffffffffffffffffffffffffffff161415610e5957612710816101400151600060ff1660048110610d4f57610d4e61283c565b5b602002019061ffff16908161ffff16815250506000816101400151600160ff1660048110610d8057610d7f61283c565b5b602002019061ffff16908161ffff16815250506001610dbe826101200151600060ff1660028110610db457610db361283c565b5b6020020151611585565b610dc8919061263c565b816101200151600060ff1660028110610de457610de361283c565b5b602002019060010b908160010b81525050610e1e816101200151600160ff1660028110610e1457610e1361283c565b5b6020020151611585565b610e27906127c4565b816101200151600160ff1660028110610e4357610e4261283c565b5b602002019060010b908160010b81525050610fb7565b806020015173ffffffffffffffffffffffffffffffffffffffff168273ffffffffffffffffffffffffffffffffffffffff161415610fb657612710816101400151600160ff1660048110610eb057610eaf61283c565b5b602002019061ffff16908161ffff16815250506000816101400151600060ff1660048110610ee157610ee061283c565b5b602002019061ffff16908161ffff1681525050610f1d816101200151600060ff1660028110610f1357610f1261283c565b5b6020020151611585565b610f26906127c4565b816101200151600060ff1660028110610f4257610f4161283c565b5b602002019060010b908160010b815250506001610f7e826101200151600160ff1660028110610f7457610f7361283c565b5b6020020151611585565b610f88919061263c565b816101200151600160ff1660028110610fa457610fa361283c565b5b602002019060010b908160010b815250505b5b600081606001519050600082608001518360600151610fd691906126ea565b9050600160009054906101000a900473ffffffffffffffffffffffffffffffffffffffff1673ffffffffffffffffffffffffffffffffffffffff16630a6b25f28685610140015186610120015186866040518663ffffffff1660e01b815260040161104595949392919061241a565b600060405180830381600087803b15801561105f57600080fd5b505af1158015611073573d6000803e3d6000fd5b5050505081836040019067ffffffffffffffff16908167ffffffffffffffff168152505080836060019067ffffffffffffffff16908167ffffffffffffffff1681525050847f77b7286d957f26f537d326e5e4827ce9e7301d2c888d53fc985a93da2f0a195042856040516110e992919061246f565b60405180910390a250505050600160008190555050565b60026000541415611146576040517f08c379a000000000000000000000000000000000000000000000000000000000815260040161113d906122b2565b60405180910390fd5b6002600081905550600061115861157d565b90506000600160009054906101000a900473ffffffffffffffffffffffffffffffffffffffff1673ffffffffffffffffffffffffffffffffffffffff16637d19e596856040518263ffffffff1660e01b81526004016111b79190612391565b6102006040518083038186803b1580156111d057600080fd5b505afa1580156111e4573d6000803e3d6000fd5b505050506040513d601f19601f820116820180604052508101906112089190611ae6565b9050806000015173ffffffffffffffffffffffffffffffffffffffff168273ffffffffffffffffffffffffffffffffffffffff1614806112775750806020015173ffffffffffffffffffffffffffffffffffffffff168273ffffffffffffffffffffffffffffffffffffffff16145b6112b6576040517f08c379a00000000000000000000000000000000000000000000000000000000081526004016112ad906121f2565b60405180910390fd5b6000816101200151600160ff16600281106112d4576112d361283c565b5b602002015160010b13158061130d57506000816101200151600060ff16600281106113025761130161283c565b5b602002015160010b13155b61134c576040517f08c379a000000000000000000000000000000000000000000000000000000000815260040161134390612212565b60405180910390fd5b61271083600160ff16600281106113665761136561283c565b5b602002015184600060ff16600281106113825761138161283c565b5b602002015161139191906126b2565b61ffff16146113d5576040517f08c379a00000000000000000000000000000000000000000000000000000000081526004016113cc906121b2565b60405180910390fd5b816004600086815260200190815260200160002060006101000a81548173ffffffffffffffffffffffffffffffffffffffff021916908373ffffffffffffffffffffffffffffffffffffffff16021790555082600560008681526020019081526020016000209060026114499291906115aa565b50837fad77a7f72aee179b5a343e49e8b5cdf52d31d42bb43df14f33d26ccb08d0a66e42853360405161147e939291906123ac565b60405180910390a2505060016000819055505050565b61149c611647565b600060405180604001604052806004600086815260200190815260200160002060009054906101000a900473ffffffffffffffffffffffffffffffffffffffff1673ffffffffffffffffffffffffffffffffffffffff1681526020016005600086815260200190815260200160002060028060200260405190810160405280929190826002801561156a576020028201916000905b82829054906101000a900461ffff1661ffff16815260200190600201906020826001010492830192600103820291508084116115315790505b5050505050815250905080915050919050565b600033905090565b6000808260010b12156115a1578161159c906127c4565b6115a3565b815b9050919050565b826002600f016010900481019282156116365791602002820160005b8382111561160657835183826101000a81548161ffff021916908361ffff16021790555092602001926002016020816001010492830192600103026115c6565b80156116345782816101000a81549061ffff0219169055600201602081600101049283019260010302611606565b505b509050611643919061167d565b5090565b6040518060400160405280600073ffffffffffffffffffffffffffffffffffffffff16815260200161167761169a565b81525090565b5b8082111561169657600081600090555060010161167e565b5090565b6040518060400160405280600290602082028036833780820191505090505090565b60006116cf6116ca846124be565b612499565b905080828560208602820111156116e9576116e86128a4565b5b60005b8581101561171957816116ff8882611919565b8452602084019350602083019250506001810190506116ec565b5050509392505050565b6000611736611731846124e4565b612499565b905080828560208602820111156117505761174f6128a4565b5b60005b8581101561178057816117668882611a50565b845260208401935060208301925050600181019050611753565b5050509392505050565b600061179d6117988461250a565b612499565b905080828560208602820111156117b7576117b66128a4565b5b60005b858110156117e757816117cd8882611a65565b8452602084019350602083019250506001810190506117ba565b5050509392505050565b60006118046117ff84612530565b612499565b9050808285602086028201111561181e5761181d6128a4565b5b60005b8581101561184e57816118348882611a8f565b845260208401935060208301925050600181019050611821565b5050509392505050565b60008151905061186781612a82565b92915050565b600082601f8301126118825761188161289a565b5b600261188f8482856116bc565b91505092915050565b600082601f8301126118ad576118ac61289a565b5b60026118ba848285611723565b91505092915050565b600082601f8301126118d8576118d761289a565b5b60046118e584828561178a565b91505092915050565b600082601f8301126119035761190261289a565b5b60056119108482856117f1565b91505092915050565b60008151905061192881612a99565b92915050565b600061020082840312156119455761194461289f565b5b611950610180612499565b9050600061196084828501611858565b600083015250602061197484828501611858565b602083015250604061198884828501611aa4565b604083015250606061199c84828501611aa4565b60608301525060806119b084828501611aa4565b60808301525060a06119c484828501611858565b60a08301525060c06119d884828501611a8f565b60c08301525060e06119ec84828501611858565b60e083015250610100611a0184828501611a65565b61010083015250610120611a178482850161186d565b61012083015250610160611a2d848285016118c3565b610140830152506101e0611a4384828501611a8f565b6101608301525092915050565b600081359050611a5f81612ab0565b92915050565b600081519050611a7481612ab0565b92915050565b600081359050611a8981612ac7565b92915050565b600081519050611a9e81612ac7565b92915050565b600081519050611ab381612ade565b92915050565b600060a08284031215611acf57611ace6128a9565b5b6000611add848285016118ee565b91505092915050565b60006102008284031215611afd57611afc6128a9565b5b6000611b0b8482850161192e565b91505092915050565b600060208284031215611b2a57611b296128a9565b5b6000611b3884828501611a7a565b91505092915050565b60008060608385031215611b5857611b576128a9565b5b6000611b6685828601611a7a565b9250506020611b7785828601611898565b9150509250929050565b60008060408385031215611b9857611b976128a9565b5b6000611ba685828601611a7a565b9250506020611bb785828601611a7a565b9150509250929050565b6000611bcd8383611e88565b60208301905092915050565b6000611be5838361213d565b60208301905092915050565b6000611bfd838361215b565b60208301905092915050565b611c1281612728565b82525050565b611c2181612728565b82525050565b611c308161257e565b611c3a81846125de565b9250611c4582612556565b8060005b83811015611c76578151611c5d8782611bc1565b9650611c68836125aa565b925050600181019050611c49565b505050505050565b611c878161257e565b611c9181846125e9565b9250611c9c82612556565b8060005b83811015611ccd578151611cb48782611bc1565b9650611cbf836125aa565b925050600181019050611ca0565b505050505050565b611cde81612589565b611ce881846125f4565b9250611cf382612560565b8060005b83811015611d24578151611d0b8782611bd9565b9650611d16836125b7565b925050600181019050611cf7565b505050505050565b611d3581612589565b611d3f81846125ff565b9250611d4a82612560565b8060005b83811015611d7b578151611d628782611bd9565b9650611d6d836125b7565b925050600181019050611d4e565b505050505050565b611d8c81612594565b611d96818461260a565b9250611da18261256a565b8060005b83811015611dd2578151611db98782611bd9565b9650611dc4836125c4565b925050600181019050611da5565b505050505050565b611de381612594565b611ded8184612615565b9250611df88261256a565b8060005b83811015611e29578151611e108782611bd9565b9650611e1b836125c4565b925050600181019050611dfc565b505050505050565b611e3a8161259f565b611e448184612620565b9250611e4f82612574565b8060005b83811015611e80578151611e678782611bf1565b9650611e72836125d1565b925050600181019050611e53565b505050505050565b611e918161273a565b82525050565b6000611ea460058361262b565b9150611eaf826128bf565b602082019050919050565b6000611ec760058361262b565b9150611ed2826128e8565b602082019050919050565b6000611eea60058361262b565b9150611ef582612911565b602082019050919050565b6000611f0d60058361262b565b9150611f188261293a565b602082019050919050565b6000611f3060058361262b565b9150611f3b82612963565b602082019050919050565b6000611f5360058361262b565b9150611f5e8261298c565b602082019050919050565b6000611f7660058361262b565b9150611f81826129b5565b602082019050919050565b6000611f9960058361262b565b9150611fa4826129de565b602082019050919050565b6000611fbc601f8361262b565b9150611fc782612a07565b602082019050919050565b6000611fdf60058361262b565b9150611fea82612a30565b602082019050919050565b600061200260058361262b565b915061200d82612a59565b602082019050919050565b6102008201600082015161202f6000850182611c09565b5060208201516120426020850182611c09565b5060408201516120556040850182612179565b5060608201516120686060850182612179565b50608082015161207b6080850182612179565b5060a082015161208e60a0850182611c09565b5060c08201516120a160c085018261215b565b5060e08201516120b460e0850182611c09565b506101008201516120c961010085018261213d565b506101208201516120de610120850182611c27565b506101408201516120f3610160850182611d83565b506101608201516121086101e085018261215b565b50505050565b6060820160008201516121246000850182611c09565b5060208201516121376020850182611cd5565b50505050565b61214681612747565b82525050565b61215581612747565b82525050565b61216481612775565b82525050565b61217381612775565b82525050565b6121828161277f565b82525050565b6121918161277f565b82525050565b60006020820190506121ac6000830184611c18565b92915050565b600060208201905081810360008301526121cb81611e97565b9050919050565b600060208201905081810360008301526121eb81611eba565b9050919050565b6000602082019050818103600083015261220b81611edd565b9050919050565b6000602082019050818103600083015261222b81611f00565b9050919050565b6000602082019050818103600083015261224b81611f23565b9050919050565b6000602082019050818103600083015261226b81611f46565b9050919050565b6000602082019050818103600083015261228b81611f69565b9050919050565b600060208201905081810360008301526122ab81611f8c565b9050919050565b600060208201905081810360008301526122cb81611faf565b9050919050565b600060208201905081810360008301526122eb81611fd2565b9050919050565b6000602082019050818103600083015261230b81611ff5565b9050919050565b6000610300820190506123286000830187612018565b612336610200830186611d2c565b61234461024083018561216a565b612352610260830184611e31565b95945050505050565b6000606082019050612370600083018461210e565b92915050565b600060208201905061238b600083018461214c565b92915050565b60006020820190506123a6600083018461216a565b92915050565b60006080820190506123c1600083018661216a565b6123ce6020830185611d2c565b6123db6060830184611c18565b949350505050565b600060e0820190506123f8600083018661216a565b6124056020830185611dda565b61241260a0830184611c7e565b949350505050565b600061012082019050612430600083018861216a565b61243d6020830187611dda565b61244a60a0830186611c7e565b61245760e0830185612188565b612465610100830184612188565b9695505050505050565b600061022082019050612485600083018561216a565b6124926020830184612018565b9392505050565b60006124a36124b4565b90506124af8282612793565b919050565b6000604051905090565b600067ffffffffffffffff8211156124d9576124d861286b565b5b602082029050919050565b600067ffffffffffffffff8211156124ff576124fe61286b565b5b602082029050919050565b600067ffffffffffffffff8211156125255761252461286b565b5b602082029050919050565b600067ffffffffffffffff82111561254b5761254a61286b565b5b602082029050919050565b6000819050919050565b6000819050919050565b6000819050919050565b6000819050919050565b600060029050919050565b600060029050919050565b600060049050919050565b600060059050919050565b6000602082019050919050565b6000602082019050919050565b6000602082019050919050565b6000602082019050919050565b600081905092915050565b600081905092915050565b600081905092915050565b600081905092915050565b600081905092915050565b600081905092915050565b600081905092915050565b600082825260208201905092915050565b60006126478261273a565b91506126528361273a565b925081617fff0383136000831215161561266f5761266e61280d565b5b817fffffffffffffffffffffffffffffffffffffffffffffffffffffffffffff80000383126000831216156126a7576126a661280d565b5b828201905092915050565b60006126bd82612747565b91506126c883612747565b92508261ffff038211156126df576126de61280d565b5b828201905092915050565b60006126f58261277f565b91506127008361277f565b92508267ffffffffffffffff0382111561271d5761271c61280d565b5b828201905092915050565b600061273382612755565b9050919050565b60008160010b9050919050565b600061ffff82169050919050565b600073ffffffffffffffffffffffffffffffffffffffff82169050919050565b6000819050919050565b600067ffffffffffffffff82169050919050565b61279c826128ae565b810181811067ffffffffffffffff821117156127bb576127ba61286b565b5b80604052505050565b60006127cf8261273a565b91507fffffffffffffffffffffffffffffffffffffffffffffffffffffffffffff80008214156128025761280161280d565b5b816000039050919050565b7f4e487b7100000000000000000000000000000000000000000000000000000000600052601160045260246000fd5b7f4e487b7100000000000000000000000000000000000000000000000000000000600052603260045260246000fd5b7f4e487b7100000000000000000000000000000000000000000000000000000000600052604160045260246000fd5b600080fd5b600080fd5b600080fd5b600080fd5b6000601f19601f8301169050919050565b7f312d303037000000000000000000000000000000000000000000000000000000600082015250565b7f312d303139000000000000000000000000000000000000000000000000000000600082015250565b7f312d303039000000000000000000000000000000000000000000000000000000600082015250565b7f312d303035000000000000000000000000000000000000000000000000000000600082015250565b7f312d303230000000000000000000000000000000000000000000000000000000600082015250565b7f312d303136000000000000000000000000000000000000000000000000000000600082015250565b7f312d303137000000000000000000000000000000000000000000000000000000600082015250565b7f312d303138000000000000000000000000000000000000000000000000000000600082015250565b7f5265656e7472616e637947756172643a207265656e7472616e742063616c6c00600082015250565b7f312d303134000000000000000000000000000000000000000000000000000000600082015250565b7f312d303135000000000000000000000000000000000000000000000000000000600082015250565b612a8b81612728565b8114612a9657600080fd5b50565b612aa28161273a565b8114612aad57600080fd5b50565b612ab981612747565b8114612ac457600080fd5b50565b612ad081612775565b8114612adb57600080fd5b50565b612ae78161277f565b8114612af257600080fd5b5056fea2646970667358221220c70ae53ef2e07d14a282433f864171f50073c804760b665184635b7f28d453e164736f6c63430008070033","opcodes":"PUSH1 0x80 PUSH1 0x40 MSTORE CALLVALUE DUP1 ISZERO PUSH3 0x11 JUMPI PUSH1 0x0 DUP1 REVERT JUMPDEST POP PUSH1 0x40 MLOAD PUSH3 0x2D0C CODESIZE SUB DUP1 PUSH3 0x2D0C DUP4 CODECOPY DUP2 DUP2 ADD PUSH1 0x40 MSTORE DUP2 ADD SWAP1 PUSH3 0x37 SWAP2 SWAP1 PUSH3 0x122 JUMP JUMPDEST PUSH1 0x1 PUSH1 0x0 DUP2 SWAP1 SSTORE POP DUP3 PUSH1 0x1 PUSH1 0x0 PUSH2 0x100 EXP DUP2 SLOAD DUP2 PUSH20 0xFFFFFFFFFFFFFFFFFFFFFFFFFFFFFFFFFFFFFFFF MUL NOT AND SWAP1 DUP4 PUSH20 0xFFFFFFFFFFFFFFFFFFFFFFFFFFFFFFFFFFFFFFFF AND MUL OR SWAP1 SSTORE POP DUP2 PUSH1 0x2 PUSH1 0x0 PUSH2 0x100 EXP DUP2 SLOAD DUP2 PUSH20 0xFFFFFFFFFFFFFFFFFFFFFFFFFFFFFFFFFFFFFFFF MUL NOT AND SWAP1 DUP4 PUSH20 0xFFFFFFFFFFFFFFFFFFFFFFFFFFFFFFFFFFFFFFFF AND MUL OR SWAP1 SSTORE POP DUP1 PUSH1 0x3 PUSH1 0x0 PUSH2 0x100 EXP DUP2 SLOAD DUP2 PUSH20 0xFFFFFFFFFFFFFFFFFFFFFFFFFFFFFFFFFFFFFFFF MUL NOT AND SWAP1 DUP4 PUSH20 0xFFFFFFFFFFFFFFFFFFFFFFFFFFFFFFFFFFFFFFFF AND MUL OR SWAP1 SSTORE POP POP POP POP PUSH3 0x1D1 JUMP JUMPDEST PUSH1 0x0 DUP2 MLOAD SWAP1 POP PUSH3 0x11C DUP2 PUSH3 0x1B7 JUMP JUMPDEST SWAP3 SWAP2 POP POP JUMP JUMPDEST PUSH1 0x0 DUP1 PUSH1 0x0 PUSH1 0x60 DUP5 DUP7 SUB SLT ISZERO PUSH3 0x13E JUMPI PUSH3 0x13D PUSH3 0x1B2 JUMP JUMPDEST JUMPDEST PUSH1 0x0 PUSH3 0x14E DUP7 DUP3 DUP8 ADD PUSH3 0x10B JUMP JUMPDEST SWAP4 POP POP PUSH1 0x20 PUSH3 0x161 DUP7 DUP3 DUP8 ADD PUSH3 0x10B JUMP JUMPDEST SWAP3 POP POP PUSH1 0x40 PUSH3 0x174 DUP7 DUP3 DUP8 ADD PUSH3 0x10B JUMP JUMPDEST SWAP2 POP POP SWAP3 POP SWAP3 POP SWAP3 JUMP JUMPDEST PUSH1 0x0 PUSH3 0x18B DUP3 PUSH3 0x192 JUMP JUMPDEST SWAP1 POP SWAP2 SWAP1 POP JUMP JUMPDEST PUSH1 0x0 PUSH20 0xFFFFFFFFFFFFFFFFFFFFFFFFFFFFFFFFFFFFFFFF DUP3 AND SWAP1 POP SWAP2 SWAP1 POP JUMP JUMPDEST PUSH1 0x0 DUP1 REVERT JUMPDEST PUSH3 0x1C2 DUP2 PUSH3 0x17E JUMP JUMPDEST DUP2 EQ PUSH3 0x1CE JUMPI PUSH1 0x0 DUP1 REVERT JUMPDEST POP JUMP JUMPDEST PUSH2 0x2B2B DUP1 PUSH3 0x1E1 PUSH1 0x0 CODECOPY PUSH1 0x0 RETURN INVALID PUSH1 0x80 PUSH1 0x40 MSTORE CALLVALUE DUP1 ISZERO PUSH2 0x10 JUMPI PUSH1 0x0 DUP1 REVERT JUMPDEST POP PUSH1 0x4 CALLDATASIZE LT PUSH2 0x62 JUMPI PUSH1 0x0 CALLDATALOAD PUSH1 0xE0 SHR DUP1 PUSH4 0x325369F6 EQ PUSH2 0x67 JUMPI DUP1 PUSH4 0x7E684D05 EQ PUSH2 0x97 JUMPI DUP1 PUSH4 0x9F8621B8 EQ PUSH2 0xC7 JUMPI DUP1 PUSH4 0xAB82D9A0 EQ PUSH2 0xE3 JUMPI DUP1 PUSH4 0xC5708645 EQ PUSH2 0xFF JUMPI DUP1 PUSH4 0xFE5E2969 EQ PUSH2 0x11B JUMPI JUMPDEST PUSH1 0x0 DUP1 REVERT JUMPDEST PUSH2 0x81 PUSH1 0x4 DUP1 CALLDATASIZE SUB DUP2 ADD SWAP1 PUSH2 0x7C SWAP2 SWAP1 PUSH2 0x1B81 JUMP JUMPDEST PUSH2 0x14B JUMP JUMPDEST PUSH1 0x40 MLOAD PUSH2 0x8E SWAP2 SWAP1 PUSH2 0x2376 JUMP JUMPDEST PUSH1 0x40 MLOAD DUP1 SWAP2 SUB SWAP1 RETURN JUMPDEST PUSH2 0xB1 PUSH1 0x4 DUP1 CALLDATASIZE SUB DUP2 ADD SWAP1 PUSH2 0xAC SWAP2 SWAP1 PUSH2 0x1B14 JUMP JUMPDEST PUSH2 0x188 JUMP JUMPDEST PUSH1 0x40 MLOAD PUSH2 0xBE SWAP2 SWAP1 PUSH2 0x2197 JUMP JUMPDEST PUSH1 0x40 MLOAD DUP1 SWAP2 SUB SWAP1 RETURN JUMPDEST PUSH2 0xE1 PUSH1 0x4 DUP1 CALLDATASIZE SUB DUP2 ADD SWAP1 PUSH2 0xDC SWAP2 SWAP1 PUSH2 0x1B41 JUMP JUMPDEST PUSH2 0x1BB JUMP JUMPDEST STOP JUMPDEST PUSH2 0xFD PUSH1 0x4 DUP1 CALLDATASIZE SUB DUP2 ADD SWAP1 PUSH2 0xF8 SWAP2 SWAP1 PUSH2 0x1B14 JUMP JUMPDEST PUSH2 0x8C8 JUMP JUMPDEST STOP JUMPDEST PUSH2 0x119 PUSH1 0x4 DUP1 CALLDATASIZE SUB DUP2 ADD SWAP1 PUSH2 0x114 SWAP2 SWAP1 PUSH2 0x1B41 JUMP JUMPDEST PUSH2 0x1100 JUMP JUMPDEST STOP JUMPDEST PUSH2 0x135 PUSH1 0x4 DUP1 CALLDATASIZE SUB DUP2 ADD SWAP1 PUSH2 0x130 SWAP2 SWAP1 PUSH2 0x1B14 JUMP JUMPDEST PUSH2 0x1494 JUMP JUMPDEST PUSH1 0x40 MLOAD PUSH2 0x142 SWAP2 SWAP1 PUSH2 0x235B JUMP JUMPDEST PUSH1 0x40 MLOAD DUP1 SWAP2 SUB SWAP1 RETURN JUMPDEST PUSH1 0x5 PUSH1 0x20 MSTORE DUP2 PUSH1 0x0 MSTORE PUSH1 0x40 PUSH1 0x0 KECCAK256 DUP2 PUSH1 0x2 DUP2 LT PUSH2 0x167 JUMPI PUSH1 0x0 DUP1 REVERT JUMPDEST PUSH1 0x10 SWAP2 DUP3 DUP3 DIV ADD SWAP2 SWAP1 MOD PUSH1 0x2 MUL SWAP2 POP SWAP2 POP SWAP1 SLOAD SWAP1 PUSH2 0x100 EXP SWAP1 DIV PUSH2 0xFFFF AND DUP2 JUMP JUMPDEST PUSH1 0x4 PUSH1 0x20 MSTORE DUP1 PUSH1 0x0 MSTORE PUSH1 0x40 PUSH1 0x0 KECCAK256 PUSH1 0x0 SWAP2 POP SLOAD SWAP1 PUSH2 0x100 EXP SWAP1 DIV PUSH20 0xFFFFFFFFFFFFFFFFFFFFFFFFFFFFFFFFFFFFFFFF AND DUP2 JUMP JUMPDEST PUSH1 0x0 PUSH2 0x1C5 PUSH2 0x157D JUMP JUMPDEST SWAP1 POP PUSH1 0x0 PUSH1 0x1 PUSH1 0x0 SWAP1 SLOAD SWAP1 PUSH2 0x100 EXP SWAP1 DIV PUSH20 0xFFFFFFFFFFFFFFFFFFFFFFFFFFFFFFFFFFFFFFFF AND PUSH20 0xFFFFFFFFFFFFFFFFFFFFFFFFFFFFFFFFFFFFFFFF AND PUSH4 0x7D19E596 DUP6 PUSH1 0x40 MLOAD DUP3 PUSH4 0xFFFFFFFF AND PUSH1 0xE0 SHL DUP2 MSTORE PUSH1 0x4 ADD PUSH2 0x224 SWAP2 SWAP1 PUSH2 0x2391 JUMP JUMPDEST PUSH2 0x200 PUSH1 0x40 MLOAD DUP1 DUP4 SUB DUP2 DUP7 DUP1 EXTCODESIZE ISZERO DUP1 ISZERO PUSH2 0x23D JUMPI PUSH1 0x0 DUP1 REVERT JUMPDEST POP GAS STATICCALL ISZERO DUP1 ISZERO PUSH2 0x251 JUMPI RETURNDATASIZE PUSH1 0x0 DUP1 RETURNDATACOPY RETURNDATASIZE PUSH1 0x0 REVERT JUMPDEST POP POP POP POP PUSH1 0x40 MLOAD RETURNDATASIZE PUSH1 0x1F NOT PUSH1 0x1F DUP3 ADD AND DUP3 ADD DUP1 PUSH1 0x40 MSTORE POP DUP2 ADD SWAP1 PUSH2 0x275 SWAP2 SWAP1 PUSH2 0x1AE6 JUMP JUMPDEST SWAP1 POP DUP1 PUSH1 0x0 ADD MLOAD PUSH20 0xFFFFFFFFFFFFFFFFFFFFFFFFFFFFFFFFFFFFFFFF AND DUP3 PUSH20 0xFFFFFFFFFFFFFFFFFFFFFFFFFFFFFFFFFFFFFFFF AND EQ DUP1 PUSH2 0x2E4 JUMPI POP DUP1 PUSH1 0x20 ADD MLOAD PUSH20 0xFFFFFFFFFFFFFFFFFFFFFFFFFFFFFFFFFFFFFFFF AND DUP3 PUSH20 0xFFFFFFFFFFFFFFFFFFFFFFFFFFFFFFFFFFFFFFFF AND EQ JUMPDEST PUSH2 0x323 JUMPI PUSH1 0x40 MLOAD PUSH32 0x8C379A000000000000000000000000000000000000000000000000000000000 DUP2 MSTORE PUSH1 0x4 ADD PUSH2 0x31A SWAP1 PUSH2 0x21F2 JUMP JUMPDEST PUSH1 0x40 MLOAD DUP1 SWAP2 SUB SWAP1 REVERT JUMPDEST PUSH1 0x4 PUSH1 0x0 DUP6 DUP2 MSTORE PUSH1 0x20 ADD SWAP1 DUP2 MSTORE PUSH1 0x20 ADD PUSH1 0x0 KECCAK256 PUSH1 0x0 SWAP1 SLOAD SWAP1 PUSH2 0x100 EXP SWAP1 DIV PUSH20 0xFFFFFFFFFFFFFFFFFFFFFFFFFFFFFFFFFFFFFFFF AND PUSH20 0xFFFFFFFFFFFFFFFFFFFFFFFFFFFFFFFFFFFFFFFF AND DUP3 PUSH20 0xFFFFFFFFFFFFFFFFFFFFFFFFFFFFFFFFFFFFFFFF AND EQ ISZERO PUSH2 0x3C5 JUMPI PUSH1 0x40 MLOAD PUSH32 0x8C379A000000000000000000000000000000000000000000000000000000000 DUP2 MSTORE PUSH1 0x4 ADD PUSH2 0x3BC SWAP1 PUSH2 0x2232 JUMP JUMPDEST PUSH1 0x40 MLOAD DUP1 SWAP2 SUB SWAP1 REVERT JUMPDEST PUSH1 0x0 PUSH20 0xFFFFFFFFFFFFFFFFFFFFFFFFFFFFFFFFFFFFFFFF AND PUSH1 0x4 PUSH1 0x0 DUP7 DUP2 MSTORE PUSH1 0x20 ADD SWAP1 DUP2 MSTORE PUSH1 0x20 ADD PUSH1 0x0 KECCAK256 PUSH1 0x0 SWAP1 SLOAD SWAP1 PUSH2 0x100 EXP SWAP1 DIV PUSH20 0xFFFFFFFFFFFFFFFFFFFFFFFFFFFFFFFFFFFFFFFF AND PUSH20 0xFFFFFFFFFFFFFFFFFFFFFFFFFFFFFFFFFFFFFFFF AND EQ ISZERO PUSH2 0x468 JUMPI PUSH1 0x40 MLOAD PUSH32 0x8C379A000000000000000000000000000000000000000000000000000000000 DUP2 MSTORE PUSH1 0x4 ADD PUSH2 0x45F SWAP1 PUSH2 0x2272 JUMP JUMPDEST PUSH1 0x40 MLOAD DUP1 SWAP2 SUB SWAP1 REVERT JUMPDEST PUSH1 0x0 PUSH1 0x5 PUSH1 0x0 DUP7 DUP2 MSTORE PUSH1 0x20 ADD SWAP1 DUP2 MSTORE PUSH1 0x20 ADD PUSH1 0x0 KECCAK256 PUSH1 0x2 DUP1 PUSH1 0x20 MUL PUSH1 0x40 MLOAD SWAP1 DUP2 ADD PUSH1 0x40 MSTORE DUP1 SWAP3 SWAP2 SWAP1 DUP3 PUSH1 0x2 DUP1 ISZERO PUSH2 0x4DC JUMPI PUSH1 0x20 MUL DUP3 ADD SWAP2 PUSH1 0x0 SWAP1 JUMPDEST DUP3 DUP3 SWAP1 SLOAD SWAP1 PUSH2 0x100 EXP SWAP1 DIV PUSH2 0xFFFF AND PUSH2 0xFFFF AND DUP2 MSTORE PUSH1 0x20 ADD SWAP1 PUSH1 0x2 ADD SWAP1 PUSH1 0x20 DUP3 PUSH1 0x1 ADD DIV SWAP3 DUP4 ADD SWAP3 PUSH1 0x1 SUB DUP3 MUL SWAP2 POP DUP1 DUP5 GT PUSH2 0x4A3 JUMPI SWAP1 POP JUMPDEST POP POP POP POP POP SWAP1 POP DUP1 PUSH1 0x0 PUSH1 0xFF AND PUSH1 0x2 DUP2 LT PUSH2 0x4FA JUMPI PUSH2 0x4F9 PUSH2 0x283C JUMP JUMPDEST JUMPDEST PUSH1 0x20 MUL ADD MLOAD PUSH2 0xFFFF AND DUP5 PUSH1 0x0 PUSH1 0xFF AND PUSH1 0x2 DUP2 LT PUSH2 0x51A JUMPI PUSH2 0x519 PUSH2 0x283C JUMP JUMPDEST JUMPDEST PUSH1 0x20 MUL ADD MLOAD PUSH2 0xFFFF AND EQ DUP1 ISZERO PUSH2 0x56D JUMPI POP DUP1 PUSH1 0x1 PUSH1 0xFF AND PUSH1 0x2 DUP2 LT PUSH2 0x542 JUMPI PUSH2 0x541 PUSH2 0x283C JUMP JUMPDEST JUMPDEST PUSH1 0x20 MUL ADD MLOAD PUSH2 0xFFFF AND DUP5 PUSH1 0x1 PUSH1 0xFF AND PUSH1 0x2 DUP2 LT PUSH2 0x562 JUMPI PUSH2 0x561 PUSH2 0x283C JUMP JUMPDEST JUMPDEST PUSH1 0x20 MUL ADD MLOAD PUSH2 0xFFFF AND EQ JUMPDEST PUSH2 0x5AC JUMPI PUSH1 0x40 MLOAD PUSH32 0x8C379A000000000000000000000000000000000000000000000000000000000 DUP2 MSTORE PUSH1 0x4 ADD PUSH2 0x5A3 SWAP1 PUSH2 0x2292 JUMP JUMPDEST PUSH1 0x40 MLOAD DUP1 SWAP2 SUB SWAP1 REVERT JUMPDEST PUSH1 0x0 DUP3 PUSH2 0x140 ADD MLOAD SWAP1 POP PUSH1 0x0 DUP1 PUSH2 0x5E2 DUP6 PUSH2 0x120 ADD MLOAD PUSH1 0x0 PUSH1 0xFF AND PUSH1 0x2 DUP2 LT PUSH2 0x5D8 JUMPI PUSH2 0x5D7 PUSH2 0x283C JUMP JUMPDEST JUMPDEST PUSH1 0x20 MUL ADD MLOAD PUSH2 0x1585 JUMP JUMPDEST PUSH1 0x1 SIGNEXTEND EQ PUSH2 0x624 JUMPI PUSH1 0x1 PUSH2 0x615 DUP6 PUSH2 0x120 ADD MLOAD PUSH1 0x0 PUSH1 0xFF AND PUSH1 0x2 DUP2 LT PUSH2 0x60B JUMPI PUSH2 0x60A PUSH2 0x283C JUMP JUMPDEST JUMPDEST PUSH1 0x20 MUL ADD MLOAD PUSH2 0x1585 JUMP JUMPDEST PUSH2 0x61F SWAP2 SWAP1 PUSH2 0x263C JUMP JUMPDEST PUSH2 0x627 JUMP JUMPDEST PUSH1 0x1 JUMPDEST SWAP1 POP DUP3 PUSH1 0x0 PUSH1 0xFF AND PUSH1 0x2 DUP2 LT PUSH2 0x640 JUMPI PUSH2 0x63F PUSH2 0x283C JUMP JUMPDEST JUMPDEST PUSH1 0x20 MUL ADD MLOAD DUP3 PUSH1 0x0 PUSH1 0xFF AND PUSH1 0x4 DUP2 LT PUSH2 0x65C JUMPI PUSH2 0x65B PUSH2 0x283C JUMP JUMPDEST JUMPDEST PUSH1 0x20 MUL ADD SWAP1 PUSH2 0xFFFF AND SWAP1 DUP2 PUSH2 0xFFFF AND DUP2 MSTORE POP POP DUP3 PUSH1 0x1 PUSH1 0xFF AND PUSH1 0x2 DUP2 LT PUSH2 0x686 JUMPI PUSH2 0x685 PUSH2 0x283C JUMP JUMPDEST JUMPDEST PUSH1 0x20 MUL ADD MLOAD DUP3 PUSH1 0x1 PUSH1 0xFF AND PUSH1 0x4 DUP2 LT PUSH2 0x6A2 JUMPI PUSH2 0x6A1 PUSH2 0x283C JUMP JUMPDEST JUMPDEST PUSH1 0x20 MUL ADD SWAP1 PUSH2 0xFFFF AND SWAP1 DUP2 PUSH2 0xFFFF AND DUP2 MSTORE POP POP DUP1 DUP5 PUSH2 0x120 ADD MLOAD PUSH1 0x0 PUSH1 0xFF AND PUSH1 0x2 DUP2 LT PUSH2 0x6D2 JUMPI PUSH2 0x6D1 PUSH2 0x283C JUMP JUMPDEST JUMPDEST PUSH1 0x20 MUL ADD SWAP1 PUSH1 0x1 SIGNEXTEND SWAP1 DUP2 PUSH1 0x1 SIGNEXTEND DUP2 MSTORE POP POP PUSH2 0x70C DUP5 PUSH2 0x120 ADD MLOAD PUSH1 0x1 PUSH1 0xFF AND PUSH1 0x2 DUP2 LT PUSH2 0x702 JUMPI PUSH2 0x701 PUSH2 0x283C JUMP JUMPDEST JUMPDEST PUSH1 0x20 MUL ADD MLOAD PUSH2 0x1585 JUMP JUMPDEST DUP5 PUSH2 0x120 ADD MLOAD PUSH1 0x1 PUSH1 0xFF AND PUSH1 0x2 DUP2 LT PUSH2 0x728 JUMPI PUSH2 0x727 PUSH2 0x283C JUMP JUMPDEST JUMPDEST PUSH1 0x20 MUL ADD SWAP1 PUSH1 0x1 SIGNEXTEND SWAP1 DUP2 PUSH1 0x1 SIGNEXTEND DUP2 MSTORE POP POP PUSH1 0x1 PUSH1 0x0 SWAP1 SLOAD SWAP1 PUSH2 0x100 EXP SWAP1 DIV PUSH20 0xFFFFFFFFFFFFFFFFFFFFFFFFFFFFFFFFFFFFFFFF AND PUSH20 0xFFFFFFFFFFFFFFFFFFFFFFFFFFFFFFFFFFFFFFFF AND PUSH4 0x64166E63 DUP9 DUP5 DUP8 PUSH2 0x120 ADD MLOAD PUSH1 0x40 MLOAD DUP5 PUSH4 0xFFFFFFFF AND PUSH1 0xE0 SHL DUP2 MSTORE PUSH1 0x4 ADD PUSH2 0x79D SWAP4 SWAP3 SWAP2 SWAP1 PUSH2 0x23E3 JUMP JUMPDEST PUSH1 0x0 PUSH1 0x40 MLOAD DUP1 DUP4 SUB DUP2 PUSH1 0x0 DUP8 DUP1 EXTCODESIZE ISZERO DUP1 ISZERO PUSH2 0x7B7 JUMPI PUSH1 0x0 DUP1 REVERT JUMPDEST POP GAS CALL ISZERO DUP1 ISZERO PUSH2 0x7CB JUMPI RETURNDATASIZE PUSH1 0x0 DUP1 RETURNDATACOPY RETURNDATASIZE PUSH1 0x0 REVERT JUMPDEST POP POP POP POP PUSH1 0x0 PUSH1 0x2 PUSH1 0x0 SWAP1 SLOAD SWAP1 PUSH2 0x100 EXP SWAP1 DIV PUSH20 0xFFFFFFFFFFFFFFFFFFFFFFFFFFFFFFFFFFFFFFFF AND PUSH20 0xFFFFFFFFFFFFFFFFFFFFFFFFFFFFFFFFFFFFFFFF AND PUSH4 0xB34291A6 DUP10 PUSH1 0x40 MLOAD DUP3 PUSH4 0xFFFFFFFF AND PUSH1 0xE0 SHL DUP2 MSTORE PUSH1 0x4 ADD PUSH2 0x82C SWAP2 SWAP1 PUSH2 0x2391 JUMP JUMPDEST PUSH1 0xA0 PUSH1 0x40 MLOAD DUP1 DUP4 SUB DUP2 PUSH1 0x0 DUP8 DUP1 EXTCODESIZE ISZERO DUP1 ISZERO PUSH2 0x846 JUMPI PUSH1 0x0 DUP1 REVERT JUMPDEST POP GAS CALL ISZERO DUP1 ISZERO PUSH2 0x85A JUMPI RETURNDATASIZE PUSH1 0x0 DUP1 RETURNDATACOPY RETURNDATASIZE PUSH1 0x0 REVERT JUMPDEST POP POP POP POP PUSH1 0x40 MLOAD RETURNDATASIZE PUSH1 0x1F NOT PUSH1 0x1F DUP3 ADD AND DUP3 ADD DUP1 PUSH1 0x40 MSTORE POP DUP2 ADD SWAP1 PUSH2 0x87E SWAP2 SWAP1 PUSH2 0x1AB9 JUMP JUMPDEST SWAP1 POP DUP8 PUSH32 0x4DDD0D366374522F804ECAA3AD96835645D0B72CFF36124AEF9DF54C9CB3BAA0 DUP7 DUP7 TIMESTAMP DUP6 PUSH1 0x40 MLOAD PUSH2 0x8B6 SWAP5 SWAP4 SWAP3 SWAP2 SWAP1 PUSH2 0x2312 JUMP JUMPDEST PUSH1 0x40 MLOAD DUP1 SWAP2 SUB SWAP1 LOG2 POP POP POP POP POP POP POP POP JUMP JUMPDEST PUSH1 0x2 PUSH1 0x0 SLOAD EQ ISZERO PUSH2 0x90E JUMPI PUSH1 0x40 MLOAD PUSH32 0x8C379A000000000000000000000000000000000000000000000000000000000 DUP2 MSTORE PUSH1 0x4 ADD PUSH2 0x905 SWAP1 PUSH2 0x22B2 JUMP JUMPDEST PUSH1 0x40 MLOAD DUP1 SWAP2 SUB SWAP1 REVERT JUMPDEST PUSH1 0x2 PUSH1 0x0 DUP2 SWAP1 SSTORE POP PUSH1 0x0 PUSH2 0x920 PUSH2 0x157D JUMP JUMPDEST SWAP1 POP PUSH1 0x0 PUSH1 0x1 PUSH1 0x0 SWAP1 SLOAD SWAP1 PUSH2 0x100 EXP SWAP1 DIV PUSH20 0xFFFFFFFFFFFFFFFFFFFFFFFFFFFFFFFFFFFFFFFF AND PUSH20 0xFFFFFFFFFFFFFFFFFFFFFFFFFFFFFFFFFFFFFFFF AND PUSH4 0x7D19E596 DUP5 PUSH1 0x40 MLOAD DUP3 PUSH4 0xFFFFFFFF AND PUSH1 0xE0 SHL DUP2 MSTORE PUSH1 0x4 ADD PUSH2 0x97F SWAP2 SWAP1 PUSH2 0x2391 JUMP JUMPDEST PUSH2 0x200 PUSH1 0x40 MLOAD DUP1 DUP4 SUB DUP2 DUP7 DUP1 EXTCODESIZE ISZERO DUP1 ISZERO PUSH2 0x998 JUMPI PUSH1 0x0 DUP1 REVERT JUMPDEST POP GAS STATICCALL ISZERO DUP1 ISZERO PUSH2 0x9AC JUMPI RETURNDATASIZE PUSH1 0x0 DUP1 RETURNDATACOPY RETURNDATASIZE PUSH1 0x0 REVERT JUMPDEST POP POP POP POP PUSH1 0x40 MLOAD RETURNDATASIZE PUSH1 0x1F NOT PUSH1 0x1F DUP3 ADD AND DUP3 ADD DUP1 PUSH1 0x40 MSTORE POP DUP2 ADD SWAP1 PUSH2 0x9D0 SWAP2 SWAP1 PUSH2 0x1AE6 JUMP JUMPDEST SWAP1 POP DUP1 PUSH1 0x20 ADD MLOAD PUSH20 0xFFFFFFFFFFFFFFFFFFFFFFFFFFFFFFFFFFFFFFFF AND DUP3 PUSH20 0xFFFFFFFFFFFFFFFFFFFFFFFFFFFFFFFFFFFFFFFF AND EQ DUP1 PUSH2 0xA3F JUMPI POP DUP1 PUSH1 0x0 ADD MLOAD PUSH20 0xFFFFFFFFFFFFFFFFFFFFFFFFFFFFFFFFFFFFFFFF AND DUP3 PUSH20 0xFFFFFFFFFFFFFFFFFFFFFFFFFFFFFFFFFFFFFFFF AND EQ JUMPDEST PUSH2 0xA7E JUMPI PUSH1 0x40 MLOAD PUSH32 0x8C379A000000000000000000000000000000000000000000000000000000000 DUP2 MSTORE PUSH1 0x4 ADD PUSH2 0xA75 SWAP1 PUSH2 0x21F2 JUMP JUMPDEST PUSH1 0x40 MLOAD DUP1 SWAP2 SUB SWAP1 REVERT JUMPDEST PUSH1 0x0 DUP2 PUSH2 0x120 ADD MLOAD PUSH1 0x1 PUSH1 0xFF AND PUSH1 0x2 DUP2 LT PUSH2 0xA9C JUMPI PUSH2 0xA9B PUSH2 0x283C JUMP JUMPDEST JUMPDEST PUSH1 0x20 MUL ADD MLOAD PUSH1 0x1 SIGNEXTEND SGT ISZERO DUP1 PUSH2 0xAD5 JUMPI POP PUSH1 0x0 DUP2 PUSH2 0x120 ADD MLOAD PUSH1 0x0 PUSH1 0xFF AND PUSH1 0x2 DUP2 LT PUSH2 0xACA JUMPI PUSH2 0xAC9 PUSH2 0x283C JUMP JUMPDEST JUMPDEST PUSH1 0x20 MUL ADD MLOAD PUSH1 0x1 SIGNEXTEND SGT ISZERO JUMPDEST PUSH2 0xB14 JUMPI PUSH1 0x40 MLOAD PUSH32 0x8C379A000000000000000000000000000000000000000000000000000000000 DUP2 MSTORE PUSH1 0x4 ADD PUSH2 0xB0B SWAP1 PUSH2 0x2212 JUMP JUMPDEST PUSH1 0x40 MLOAD DUP1 SWAP2 SUB SWAP1 REVERT JUMPDEST DUP1 PUSH1 0x60 ADD MLOAD PUSH8 0xFFFFFFFFFFFFFFFF AND TIMESTAMP LT PUSH2 0xB64 JUMPI PUSH1 0x40 MLOAD PUSH32 0x8C379A000000000000000000000000000000000000000000000000000000000 DUP2 MSTORE PUSH1 0x4 ADD PUSH2 0xB5B SWAP1 PUSH2 0x2252 JUMP JUMPDEST PUSH1 0x40 MLOAD DUP1 SWAP2 SUB SWAP1 REVERT JUMPDEST DUP1 PUSH1 0x0 ADD MLOAD PUSH20 0xFFFFFFFFFFFFFFFFFFFFFFFFFFFFFFFFFFFFFFFF AND DUP3 PUSH20 0xFFFFFFFFFFFFFFFFFFFFFFFFFFFFFFFFFFFFFFFF AND EQ ISZERO DUP1 PUSH2 0xBC7 JUMPI POP PUSH1 0x0 DUP2 PUSH2 0x120 ADD MLOAD PUSH1 0x0 PUSH1 0xFF AND PUSH1 0x2 DUP2 LT PUSH2 0xBBC JUMPI PUSH2 0xBBB PUSH2 0x283C JUMP JUMPDEST JUMPDEST PUSH1 0x20 MUL ADD MLOAD PUSH1 0x1 SIGNEXTEND SGT ISZERO JUMPDEST PUSH2 0xC06 JUMPI PUSH1 0x40 MLOAD PUSH32 0x8C379A000000000000000000000000000000000000000000000000000000000 DUP2 MSTORE PUSH1 0x4 ADD PUSH2 0xBFD SWAP1 PUSH2 0x22D2 JUMP JUMPDEST PUSH1 0x40 MLOAD DUP1 SWAP2 SUB SWAP1 REVERT JUMPDEST DUP1 PUSH1 0x20 ADD MLOAD PUSH20 0xFFFFFFFFFFFFFFFFFFFFFFFFFFFFFFFFFFFFFFFF AND DUP3 PUSH20 0xFFFFFFFFFFFFFFFFFFFFFFFFFFFFFFFFFFFFFFFF AND EQ ISZERO DUP1 PUSH2 0xC69 JUMPI POP PUSH1 0x0 DUP2 PUSH2 0x120 ADD MLOAD PUSH1 0x1 PUSH1 0xFF AND PUSH1 0x2 DUP2 LT PUSH2 0xC5E JUMPI PUSH2 0xC5D PUSH2 0x283C JUMP JUMPDEST JUMPDEST PUSH1 0x20 MUL ADD MLOAD PUSH1 0x1 SIGNEXTEND SGT ISZERO JUMPDEST PUSH2 0xCA8 JUMPI PUSH1 0x40 MLOAD PUSH32 0x8C379A000000000000000000000000000000000000000000000000000000000 DUP2 MSTORE PUSH1 0x4 ADD PUSH2 0xC9F SWAP1 PUSH2 0x22F2 JUMP JUMPDEST PUSH1 0x40 MLOAD DUP1 SWAP2 SUB SWAP1 REVERT JUMPDEST DUP1 PUSH1 0x40 ADD MLOAD PUSH8 0xFFFFFFFFFFFFFFFF AND TIMESTAMP GT PUSH2 0xCF8 JUMPI PUSH1 0x40 MLOAD PUSH32 0x8C379A000000000000000000000000000000000000000000000000000000000 DUP2 MSTORE PUSH1 0x4 ADD PUSH2 0xCEF SWAP1 PUSH2 0x21D2 JUMP JUMPDEST PUSH1 0x40 MLOAD DUP1 SWAP2 SUB SWAP1 REVERT JUMPDEST DUP1 PUSH1 0x0 ADD MLOAD PUSH20 0xFFFFFFFFFFFFFFFFFFFFFFFFFFFFFFFFFFFFFFFF AND DUP3 PUSH20 0xFFFFFFFFFFFFFFFFFFFFFFFFFFFFFFFFFFFFFFFF AND EQ ISZERO PUSH2 0xE59 JUMPI PUSH2 0x2710 DUP2 PUSH2 0x140 ADD MLOAD PUSH1 0x0 PUSH1 0xFF AND PUSH1 0x4 DUP2 LT PUSH2 0xD4F JUMPI PUSH2 0xD4E PUSH2 0x283C JUMP JUMPDEST JUMPDEST PUSH1 0x20 MUL ADD SWAP1 PUSH2 0xFFFF AND SWAP1 DUP2 PUSH2 0xFFFF AND DUP2 MSTORE POP POP PUSH1 0x0 DUP2 PUSH2 0x140 ADD MLOAD PUSH1 0x1 PUSH1 0xFF AND PUSH1 0x4 DUP2 LT PUSH2 0xD80 JUMPI PUSH2 0xD7F PUSH2 0x283C JUMP JUMPDEST JUMPDEST PUSH1 0x20 MUL ADD SWAP1 PUSH2 0xFFFF AND SWAP1 DUP2 PUSH2 0xFFFF AND DUP2 MSTORE POP POP PUSH1 0x1 PUSH2 0xDBE DUP3 PUSH2 0x120 ADD MLOAD PUSH1 0x0 PUSH1 0xFF AND PUSH1 0x2 DUP2 LT PUSH2 0xDB4 JUMPI PUSH2 0xDB3 PUSH2 0x283C JUMP JUMPDEST JUMPDEST PUSH1 0x20 MUL ADD MLOAD PUSH2 0x1585 JUMP JUMPDEST PUSH2 0xDC8 SWAP2 SWAP1 PUSH2 0x263C JUMP JUMPDEST DUP2 PUSH2 0x120 ADD MLOAD PUSH1 0x0 PUSH1 0xFF AND PUSH1 0x2 DUP2 LT PUSH2 0xDE4 JUMPI PUSH2 0xDE3 PUSH2 0x283C JUMP JUMPDEST JUMPDEST PUSH1 0x20 MUL ADD SWAP1 PUSH1 0x1 SIGNEXTEND SWAP1 DUP2 PUSH1 0x1 SIGNEXTEND DUP2 MSTORE POP POP PUSH2 0xE1E DUP2 PUSH2 0x120 ADD MLOAD PUSH1 0x1 PUSH1 0xFF AND PUSH1 0x2 DUP2 LT PUSH2 0xE14 JUMPI PUSH2 0xE13 PUSH2 0x283C JUMP JUMPDEST JUMPDEST PUSH1 0x20 MUL ADD MLOAD PUSH2 0x1585 JUMP JUMPDEST PUSH2 0xE27 SWAP1 PUSH2 0x27C4 JUMP JUMPDEST DUP2 PUSH2 0x120 ADD MLOAD PUSH1 0x1 PUSH1 0xFF AND PUSH1 0x2 DUP2 LT PUSH2 0xE43 JUMPI PUSH2 0xE42 PUSH2 0x283C JUMP JUMPDEST JUMPDEST PUSH1 0x20 MUL ADD SWAP1 PUSH1 0x1 SIGNEXTEND SWAP1 DUP2 PUSH1 0x1 SIGNEXTEND DUP2 MSTORE POP POP PUSH2 0xFB7 JUMP JUMPDEST DUP1 PUSH1 0x20 ADD MLOAD PUSH20 0xFFFFFFFFFFFFFFFFFFFFFFFFFFFFFFFFFFFFFFFF AND DUP3 PUSH20 0xFFFFFFFFFFFFFFFFFFFFFFFFFFFFFFFFFFFFFFFF AND EQ ISZERO PUSH2 0xFB6 JUMPI PUSH2 0x2710 DUP2 PUSH2 0x140 ADD MLOAD PUSH1 0x1 PUSH1 0xFF AND PUSH1 0x4 DUP2 LT PUSH2 0xEB0 JUMPI PUSH2 0xEAF PUSH2 0x283C JUMP JUMPDEST JUMPDEST PUSH1 0x20 MUL ADD SWAP1 PUSH2 0xFFFF AND SWAP1 DUP2 PUSH2 0xFFFF AND DUP2 MSTORE POP POP PUSH1 0x0 DUP2 PUSH2 0x140 ADD MLOAD PUSH1 0x0 PUSH1 0xFF AND PUSH1 0x4 DUP2 LT PUSH2 0xEE1 JUMPI PUSH2 0xEE0 PUSH2 0x283C JUMP JUMPDEST JUMPDEST PUSH1 0x20 MUL ADD SWAP1 PUSH2 0xFFFF AND SWAP1 DUP2 PUSH2 0xFFFF AND DUP2 MSTORE POP POP PUSH2 0xF1D DUP2 PUSH2 0x120 ADD MLOAD PUSH1 0x0 PUSH1 0xFF AND PUSH1 0x2 DUP2 LT PUSH2 0xF13 JUMPI PUSH2 0xF12 PUSH2 0x283C JUMP JUMPDEST JUMPDEST PUSH1 0x20 MUL ADD MLOAD PUSH2 0x1585 JUMP JUMPDEST PUSH2 0xF26 SWAP1 PUSH2 0x27C4 JUMP JUMPDEST DUP2 PUSH2 0x120 ADD MLOAD PUSH1 0x0 PUSH1 0xFF AND PUSH1 0x2 DUP2 LT PUSH2 0xF42 JUMPI PUSH2 0xF41 PUSH2 0x283C JUMP JUMPDEST JUMPDEST PUSH1 0x20 MUL ADD SWAP1 PUSH1 0x1 SIGNEXTEND SWAP1 DUP2 PUSH1 0x1 SIGNEXTEND DUP2 MSTORE POP POP PUSH1 0x1 PUSH2 0xF7E DUP3 PUSH2 0x120 ADD MLOAD PUSH1 0x1 PUSH1 0xFF AND PUSH1 0x2 DUP2 LT PUSH2 0xF74 JUMPI PUSH2 0xF73 PUSH2 0x283C JUMP JUMPDEST JUMPDEST PUSH1 0x20 MUL ADD MLOAD PUSH2 0x1585 JUMP JUMPDEST PUSH2 0xF88 SWAP2 SWAP1 PUSH2 0x263C JUMP JUMPDEST DUP2 PUSH2 0x120 ADD MLOAD PUSH1 0x1 PUSH1 0xFF AND PUSH1 0x2 DUP2 LT PUSH2 0xFA4 JUMPI PUSH2 0xFA3 PUSH2 0x283C JUMP JUMPDEST JUMPDEST PUSH1 0x20 MUL ADD SWAP1 PUSH1 0x1 SIGNEXTEND SWAP1 DUP2 PUSH1 0x1 SIGNEXTEND DUP2 MSTORE POP POP JUMPDEST JUMPDEST PUSH1 0x0 DUP2 PUSH1 0x60 ADD MLOAD SWAP1 POP PUSH1 0x0 DUP3 PUSH1 0x80 ADD MLOAD DUP4 PUSH1 0x60 ADD MLOAD PUSH2 0xFD6 SWAP2 SWAP1 PUSH2 0x26EA JUMP JUMPDEST SWAP1 POP PUSH1 0x1 PUSH1 0x0 SWAP1 SLOAD SWAP1 PUSH2 0x100 EXP SWAP1 DIV PUSH20 0xFFFFFFFFFFFFFFFFFFFFFFFFFFFFFFFFFFFFFFFF AND PUSH20 0xFFFFFFFFFFFFFFFFFFFFFFFFFFFFFFFFFFFFFFFF AND PUSH4 0xA6B25F2 DUP7 DUP6 PUSH2 0x140 ADD MLOAD DUP7 PUSH2 0x120 ADD MLOAD DUP7 DUP7 PUSH1 0x40 MLOAD DUP7 PUSH4 0xFFFFFFFF AND PUSH1 0xE0 SHL DUP2 MSTORE PUSH1 0x4 ADD PUSH2 0x1045 SWAP6 SWAP5 SWAP4 SWAP3 SWAP2 SWAP1 PUSH2 0x241A JUMP JUMPDEST PUSH1 0x0 PUSH1 0x40 MLOAD DUP1 DUP4 SUB DUP2 PUSH1 0x0 DUP8 DUP1 EXTCODESIZE ISZERO DUP1 ISZERO PUSH2 0x105F JUMPI PUSH1 0x0 DUP1 REVERT JUMPDEST POP GAS CALL ISZERO DUP1 ISZERO PUSH2 0x1073 JUMPI RETURNDATASIZE PUSH1 0x0 DUP1 RETURNDATACOPY RETURNDATASIZE PUSH1 0x0 REVERT JUMPDEST POP POP POP POP DUP2 DUP4 PUSH1 0x40 ADD SWAP1 PUSH8 0xFFFFFFFFFFFFFFFF AND SWAP1 DUP2 PUSH8 0xFFFFFFFFFFFFFFFF AND DUP2 MSTORE POP POP DUP1 DUP4 PUSH1 0x60 ADD SWAP1 PUSH8 0xFFFFFFFFFFFFFFFF AND SWAP1 DUP2 PUSH8 0xFFFFFFFFFFFFFFFF AND DUP2 MSTORE POP POP DUP5 PUSH32 0x77B7286D957F26F537D326E5E4827CE9E7301D2C888D53FC985A93DA2F0A1950 TIMESTAMP DUP6 PUSH1 0x40 MLOAD PUSH2 0x10E9 SWAP3 SWAP2 SWAP1 PUSH2 0x246F JUMP JUMPDEST PUSH1 0x40 MLOAD DUP1 SWAP2 SUB SWAP1 LOG2 POP POP POP POP PUSH1 0x1 PUSH1 0x0 DUP2 SWAP1 SSTORE POP POP JUMP JUMPDEST PUSH1 0x2 PUSH1 0x0 SLOAD EQ ISZERO PUSH2 0x1146 JUMPI PUSH1 0x40 MLOAD PUSH32 0x8C379A000000000000000000000000000000000000000000000000000000000 DUP2 MSTORE PUSH1 0x4 ADD PUSH2 0x113D SWAP1 PUSH2 0x22B2 JUMP JUMPDEST PUSH1 0x40 MLOAD DUP1 SWAP2 SUB SWAP1 REVERT JUMPDEST PUSH1 0x2 PUSH1 0x0 DUP2 SWAP1 SSTORE POP PUSH1 0x0 PUSH2 0x1158 PUSH2 0x157D JUMP JUMPDEST SWAP1 POP PUSH1 0x0 PUSH1 0x1 PUSH1 0x0 SWAP1 SLOAD SWAP1 PUSH2 0x100 EXP SWAP1 DIV PUSH20 0xFFFFFFFFFFFFFFFFFFFFFFFFFFFFFFFFFFFFFFFF AND PUSH20 0xFFFFFFFFFFFFFFFFFFFFFFFFFFFFFFFFFFFFFFFF AND PUSH4 0x7D19E596 DUP6 PUSH1 0x40 MLOAD DUP3 PUSH4 0xFFFFFFFF AND PUSH1 0xE0 SHL DUP2 MSTORE PUSH1 0x4 ADD PUSH2 0x11B7 SWAP2 SWAP1 PUSH2 0x2391 JUMP JUMPDEST PUSH2 0x200 PUSH1 0x40 MLOAD DUP1 DUP4 SUB DUP2 DUP7 DUP1 EXTCODESIZE ISZERO DUP1 ISZERO PUSH2 0x11D0 JUMPI PUSH1 0x0 DUP1 REVERT JUMPDEST POP GAS STATICCALL ISZERO DUP1 ISZERO PUSH2 0x11E4 JUMPI RETURNDATASIZE PUSH1 0x0 DUP1 RETURNDATACOPY RETURNDATASIZE PUSH1 0x0 REVERT JUMPDEST POP POP POP POP PUSH1 0x40 MLOAD RETURNDATASIZE PUSH1 0x1F NOT PUSH1 0x1F DUP3 ADD AND DUP3 ADD DUP1 PUSH1 0x40 MSTORE POP DUP2 ADD SWAP1 PUSH2 0x1208 SWAP2 SWAP1 PUSH2 0x1AE6 JUMP JUMPDEST SWAP1 POP DUP1 PUSH1 0x0 ADD MLOAD PUSH20 0xFFFFFFFFFFFFFFFFFFFFFFFFFFFFFFFFFFFFFFFF AND DUP3 PUSH20 0xFFFFFFFFFFFFFFFFFFFFFFFFFFFFFFFFFFFFFFFF AND EQ DUP1 PUSH2 0x1277 JUMPI POP DUP1 PUSH1 0x20 ADD MLOAD PUSH20 0xFFFFFFFFFFFFFFFFFFFFFFFFFFFFFFFFFFFFFFFF AND DUP3 PUSH20 0xFFFFFFFFFFFFFFFFFFFFFFFFFFFFFFFFFFFFFFFF AND EQ JUMPDEST PUSH2 0x12B6 JUMPI PUSH1 0x40 MLOAD PUSH32 0x8C379A000000000000000000000000000000000000000000000000000000000 DUP2 MSTORE PUSH1 0x4 ADD PUSH2 0x12AD SWAP1 PUSH2 0x21F2 JUMP JUMPDEST PUSH1 0x40 MLOAD DUP1 SWAP2 SUB SWAP1 REVERT JUMPDEST PUSH1 0x0 DUP2 PUSH2 0x120 ADD MLOAD PUSH1 0x1 PUSH1 0xFF AND PUSH1 0x2 DUP2 LT PUSH2 0x12D4 JUMPI PUSH2 0x12D3 PUSH2 0x283C JUMP JUMPDEST JUMPDEST PUSH1 0x20 MUL ADD MLOAD PUSH1 0x1 SIGNEXTEND SGT ISZERO DUP1 PUSH2 0x130D JUMPI POP PUSH1 0x0 DUP2 PUSH2 0x120 ADD MLOAD PUSH1 0x0 PUSH1 0xFF AND PUSH1 0x2 DUP2 LT PUSH2 0x1302 JUMPI PUSH2 0x1301 PUSH2 0x283C JUMP JUMPDEST JUMPDEST PUSH1 0x20 MUL ADD MLOAD PUSH1 0x1 SIGNEXTEND SGT ISZERO JUMPDEST PUSH2 0x134C JUMPI PUSH1 0x40 MLOAD PUSH32 0x8C379A000000000000000000000000000000000000000000000000000000000 DUP2 MSTORE PUSH1 0x4 ADD PUSH2 0x1343 SWAP1 PUSH2 0x2212 JUMP JUMPDEST PUSH1 0x40 MLOAD DUP1 SWAP2 SUB SWAP1 REVERT JUMPDEST PUSH2 0x2710 DUP4 PUSH1 0x1 PUSH1 0xFF AND PUSH1 0x2 DUP2 LT PUSH2 0x1366 JUMPI PUSH2 0x1365 PUSH2 0x283C JUMP JUMPDEST JUMPDEST PUSH1 0x20 MUL ADD MLOAD DUP5 PUSH1 0x0 PUSH1 0xFF AND PUSH1 0x2 DUP2 LT PUSH2 0x1382 JUMPI PUSH2 0x1381 PUSH2 0x283C JUMP JUMPDEST JUMPDEST PUSH1 0x20 MUL ADD MLOAD PUSH2 0x1391 SWAP2 SWAP1 PUSH2 0x26B2 JUMP JUMPDEST PUSH2 0xFFFF AND EQ PUSH2 0x13D5 JUMPI PUSH1 0x40 MLOAD PUSH32 0x8C379A000000000000000000000000000000000000000000000000000000000 DUP2 MSTORE PUSH1 0x4 ADD PUSH2 0x13CC SWAP1 PUSH2 0x21B2 JUMP JUMPDEST PUSH1 0x40 MLOAD DUP1 SWAP2 SUB SWAP1 REVERT JUMPDEST DUP2 PUSH1 0x4 PUSH1 0x0 DUP7 DUP2 MSTORE PUSH1 0x20 ADD SWAP1 DUP2 MSTORE PUSH1 0x20 ADD PUSH1 0x0 KECCAK256 PUSH1 0x0 PUSH2 0x100 EXP DUP2 SLOAD DUP2 PUSH20 0xFFFFFFFFFFFFFFFFFFFFFFFFFFFFFFFFFFFFFFFF MUL NOT AND SWAP1 DUP4 PUSH20 0xFFFFFFFFFFFFFFFFFFFFFFFFFFFFFFFFFFFFFFFF AND MUL OR SWAP1 SSTORE POP DUP3 PUSH1 0x5 PUSH1 0x0 DUP7 DUP2 MSTORE PUSH1 0x20 ADD SWAP1 DUP2 MSTORE PUSH1 0x20 ADD PUSH1 0x0 KECCAK256 SWAP1 PUSH1 0x2 PUSH2 0x1449 SWAP3 SWAP2 SWAP1 PUSH2 0x15AA JUMP JUMPDEST POP DUP4 PUSH32 0xAD77A7F72AEE179B5A343E49E8B5CDF52D31D42BB43DF14F33D26CCB08D0A66E TIMESTAMP DUP6 CALLER PUSH1 0x40 MLOAD PUSH2 0x147E SWAP4 SWAP3 SWAP2 SWAP1 PUSH2 0x23AC JUMP JUMPDEST PUSH1 0x40 MLOAD DUP1 SWAP2 SUB SWAP1 LOG2 POP POP PUSH1 0x1 PUSH1 0x0 DUP2 SWAP1 SSTORE POP POP POP JUMP JUMPDEST PUSH2 0x149C PUSH2 0x1647 JUMP JUMPDEST PUSH1 0x0 PUSH1 0x40 MLOAD DUP1 PUSH1 0x40 ADD PUSH1 0x40 MSTORE DUP1 PUSH1 0x4 PUSH1 0x0 DUP7 DUP2 MSTORE PUSH1 0x20 ADD SWAP1 DUP2 MSTORE PUSH1 0x20 ADD PUSH1 0x0 KECCAK256 PUSH1 0x0 SWAP1 SLOAD SWAP1 PUSH2 0x100 EXP SWAP1 DIV PUSH20 0xFFFFFFFFFFFFFFFFFFFFFFFFFFFFFFFFFFFFFFFF AND PUSH20 0xFFFFFFFFFFFFFFFFFFFFFFFFFFFFFFFFFFFFFFFF AND DUP2 MSTORE PUSH1 0x20 ADD PUSH1 0x5 PUSH1 0x0 DUP7 DUP2 MSTORE PUSH1 0x20 ADD SWAP1 DUP2 MSTORE PUSH1 0x20 ADD PUSH1 0x0 KECCAK256 PUSH1 0x2 DUP1 PUSH1 0x20 MUL PUSH1 0x40 MLOAD SWAP1 DUP2 ADD PUSH1 0x40 MSTORE DUP1 SWAP3 SWAP2 SWAP1 DUP3 PUSH1 0x2 DUP1 ISZERO PUSH2 0x156A JUMPI PUSH1 0x20 MUL DUP3 ADD SWAP2 PUSH1 0x0 SWAP1 JUMPDEST DUP3 DUP3 SWAP1 SLOAD SWAP1 PUSH2 0x100 EXP SWAP1 DIV PUSH2 0xFFFF AND PUSH2 0xFFFF AND DUP2 MSTORE PUSH1 0x20 ADD SWAP1 PUSH1 0x2 ADD SWAP1 PUSH1 0x20 DUP3 PUSH1 0x1 ADD DIV SWAP3 DUP4 ADD SWAP3 PUSH1 0x1 SUB DUP3 MUL SWAP2 POP DUP1 DUP5 GT PUSH2 0x1531 JUMPI SWAP1 POP JUMPDEST POP POP POP POP POP DUP2 MSTORE POP SWAP1 POP DUP1 SWAP2 POP POP SWAP2 SWAP1 POP JUMP JUMPDEST PUSH1 0x0 CALLER SWAP1 POP SWAP1 JUMP JUMPDEST PUSH1 0x0 DUP1 DUP3 PUSH1 0x1 SIGNEXTEND SLT ISZERO PUSH2 0x15A1 JUMPI DUP2 PUSH2 0x159C SWAP1 PUSH2 0x27C4 JUMP JUMPDEST PUSH2 0x15A3 JUMP JUMPDEST DUP2 JUMPDEST SWAP1 POP SWAP2 SWAP1 POP JUMP JUMPDEST DUP3 PUSH1 0x2 PUSH1 0xF ADD PUSH1 0x10 SWAP1 DIV DUP2 ADD SWAP3 DUP3 ISZERO PUSH2 0x1636 JUMPI SWAP2 PUSH1 0x20 MUL DUP3 ADD PUSH1 0x0 JUMPDEST DUP4 DUP3 GT ISZERO PUSH2 0x1606 JUMPI DUP4 MLOAD DUP4 DUP3 PUSH2 0x100 EXP DUP2 SLOAD DUP2 PUSH2 0xFFFF MUL NOT AND SWAP1 DUP4 PUSH2 0xFFFF AND MUL OR SWAP1 SSTORE POP SWAP3 PUSH1 0x20 ADD SWAP3 PUSH1 0x2 ADD PUSH1 0x20 DUP2 PUSH1 0x1 ADD DIV SWAP3 DUP4 ADD SWAP3 PUSH1 0x1 SUB MUL PUSH2 0x15C6 JUMP JUMPDEST DUP1 ISZERO PUSH2 0x1634 JUMPI DUP3 DUP2 PUSH2 0x100 EXP DUP2 SLOAD SWAP1 PUSH2 0xFFFF MUL NOT AND SWAP1 SSTORE PUSH1 0x2 ADD PUSH1 0x20 DUP2 PUSH1 0x1 ADD DIV SWAP3 DUP4 ADD SWAP3 PUSH1 0x1 SUB MUL PUSH2 0x1606 JUMP JUMPDEST POP JUMPDEST POP SWAP1 POP PUSH2 0x1643 SWAP2 SWAP1 PUSH2 0x167D JUMP JUMPDEST POP SWAP1 JUMP JUMPDEST PUSH1 0x40 MLOAD DUP1 PUSH1 0x40 ADD PUSH1 0x40 MSTORE DUP1 PUSH1 0x0 PUSH20 0xFFFFFFFFFFFFFFFFFFFFFFFFFFFFFFFFFFFFFFFF AND DUP2 MSTORE PUSH1 0x20 ADD PUSH2 0x1677 PUSH2 0x169A JUMP JUMPDEST DUP2 MSTORE POP SWAP1 JUMP JUMPDEST JUMPDEST DUP1 DUP3 GT ISZERO PUSH2 0x1696 JUMPI PUSH1 0x0 DUP2 PUSH1 0x0 SWAP1 SSTORE POP PUSH1 0x1 ADD PUSH2 0x167E JUMP JUMPDEST POP SWAP1 JUMP JUMPDEST PUSH1 0x40 MLOAD DUP1 PUSH1 0x40 ADD PUSH1 0x40 MSTORE DUP1 PUSH1 0x2 SWAP1 PUSH1 0x20 DUP3 MUL DUP1 CALLDATASIZE DUP4 CALLDATACOPY DUP1 DUP3 ADD SWAP2 POP POP SWAP1 POP POP SWAP1 JUMP JUMPDEST PUSH1 0x0 PUSH2 0x16CF PUSH2 0x16CA DUP5 PUSH2 0x24BE JUMP JUMPDEST PUSH2 0x2499 JUMP JUMPDEST SWAP1 POP DUP1 DUP3 DUP6 PUSH1 0x20 DUP7 MUL DUP3 ADD GT ISZERO PUSH2 0x16E9 JUMPI PUSH2 0x16E8 PUSH2 0x28A4 JUMP JUMPDEST JUMPDEST PUSH1 0x0 JUMPDEST DUP6 DUP2 LT ISZERO PUSH2 0x1719 JUMPI DUP2 PUSH2 0x16FF DUP9 DUP3 PUSH2 0x1919 JUMP JUMPDEST DUP5 MSTORE PUSH1 0x20 DUP5 ADD SWAP4 POP PUSH1 0x20 DUP4 ADD SWAP3 POP POP PUSH1 0x1 DUP2 ADD SWAP1 POP PUSH2 0x16EC JUMP JUMPDEST POP POP POP SWAP4 SWAP3 POP POP POP JUMP JUMPDEST PUSH1 0x0 PUSH2 0x1736 PUSH2 0x1731 DUP5 PUSH2 0x24E4 JUMP JUMPDEST PUSH2 0x2499 JUMP JUMPDEST SWAP1 POP DUP1 DUP3 DUP6 PUSH1 0x20 DUP7 MUL DUP3 ADD GT ISZERO PUSH2 0x1750 JUMPI PUSH2 0x174F PUSH2 0x28A4 JUMP JUMPDEST JUMPDEST PUSH1 0x0 JUMPDEST DUP6 DUP2 LT ISZERO PUSH2 0x1780 JUMPI DUP2 PUSH2 0x1766 DUP9 DUP3 PUSH2 0x1A50 JUMP JUMPDEST DUP5 MSTORE PUSH1 0x20 DUP5 ADD SWAP4 POP PUSH1 0x20 DUP4 ADD SWAP3 POP POP PUSH1 0x1 DUP2 ADD SWAP1 POP PUSH2 0x1753 JUMP JUMPDEST POP POP POP SWAP4 SWAP3 POP POP POP JUMP JUMPDEST PUSH1 0x0 PUSH2 0x179D PUSH2 0x1798 DUP5 PUSH2 0x250A JUMP JUMPDEST PUSH2 0x2499 JUMP JUMPDEST SWAP1 POP DUP1 DUP3 DUP6 PUSH1 0x20 DUP7 MUL DUP3 ADD GT ISZERO PUSH2 0x17B7 JUMPI PUSH2 0x17B6 PUSH2 0x28A4 JUMP JUMPDEST JUMPDEST PUSH1 0x0 JUMPDEST DUP6 DUP2 LT ISZERO PUSH2 0x17E7 JUMPI DUP2 PUSH2 0x17CD DUP9 DUP3 PUSH2 0x1A65 JUMP JUMPDEST DUP5 MSTORE PUSH1 0x20 DUP5 ADD SWAP4 POP PUSH1 0x20 DUP4 ADD SWAP3 POP POP PUSH1 0x1 DUP2 ADD SWAP1 POP PUSH2 0x17BA JUMP JUMPDEST POP POP POP SWAP4 SWAP3 POP POP POP JUMP JUMPDEST PUSH1 0x0 PUSH2 0x1804 PUSH2 0x17FF DUP5 PUSH2 0x2530 JUMP JUMPDEST PUSH2 0x2499 JUMP JUMPDEST SWAP1 POP DUP1 DUP3 DUP6 PUSH1 0x20 DUP7 MUL DUP3 ADD GT ISZERO PUSH2 0x181E JUMPI PUSH2 0x181D PUSH2 0x28A4 JUMP JUMPDEST JUMPDEST PUSH1 0x0 JUMPDEST DUP6 DUP2 LT ISZERO PUSH2 0x184E JUMPI DUP2 PUSH2 0x1834 DUP9 DUP3 PUSH2 0x1A8F JUMP JUMPDEST DUP5 MSTORE PUSH1 0x20 DUP5 ADD SWAP4 POP PUSH1 0x20 DUP4 ADD SWAP3 POP POP PUSH1 0x1 DUP2 ADD SWAP1 POP PUSH2 0x1821 JUMP JUMPDEST POP POP POP SWAP4 SWAP3 POP POP POP JUMP JUMPDEST PUSH1 0x0 DUP2 MLOAD SWAP1 POP PUSH2 0x1867 DUP2 PUSH2 0x2A82 JUMP JUMPDEST SWAP3 SWAP2 POP POP JUMP JUMPDEST PUSH1 0x0 DUP3 PUSH1 0x1F DUP4 ADD SLT PUSH2 0x1882 JUMPI PUSH2 0x1881 PUSH2 0x289A JUMP JUMPDEST JUMPDEST PUSH1 0x2 PUSH2 0x188F DUP5 DUP3 DUP6 PUSH2 0x16BC JUMP JUMPDEST SWAP2 POP POP SWAP3 SWAP2 POP POP JUMP JUMPDEST PUSH1 0x0 DUP3 PUSH1 0x1F DUP4 ADD SLT PUSH2 0x18AD JUMPI PUSH2 0x18AC PUSH2 0x289A JUMP JUMPDEST JUMPDEST PUSH1 0x2 PUSH2 0x18BA DUP5 DUP3 DUP6 PUSH2 0x1723 JUMP JUMPDEST SWAP2 POP POP SWAP3 SWAP2 POP POP JUMP JUMPDEST PUSH1 0x0 DUP3 PUSH1 0x1F DUP4 ADD SLT PUSH2 0x18D8 JUMPI PUSH2 0x18D7 PUSH2 0x289A JUMP JUMPDEST JUMPDEST PUSH1 0x4 PUSH2 0x18E5 DUP5 DUP3 DUP6 PUSH2 0x178A JUMP JUMPDEST SWAP2 POP POP SWAP3 SWAP2 POP POP JUMP JUMPDEST PUSH1 0x0 DUP3 PUSH1 0x1F DUP4 ADD SLT PUSH2 0x1903 JUMPI PUSH2 0x1902 PUSH2 0x289A JUMP JUMPDEST JUMPDEST PUSH1 0x5 PUSH2 0x1910 DUP5 DUP3 DUP6 PUSH2 0x17F1 JUMP JUMPDEST SWAP2 POP POP SWAP3 SWAP2 POP POP JUMP JUMPDEST PUSH1 0x0 DUP2 MLOAD SWAP1 POP PUSH2 0x1928 DUP2 PUSH2 0x2A99 JUMP JUMPDEST SWAP3 SWAP2 POP POP JUMP JUMPDEST PUSH1 0x0 PUSH2 0x200 DUP3 DUP5 SUB SLT ISZERO PUSH2 0x1945 JUMPI PUSH2 0x1944 PUSH2 0x289F JUMP JUMPDEST JUMPDEST PUSH2 0x1950 PUSH2 0x180 PUSH2 0x2499 JUMP JUMPDEST SWAP1 POP PUSH1 0x0 PUSH2 0x1960 DUP5 DUP3 DUP6 ADD PUSH2 0x1858 JUMP JUMPDEST PUSH1 0x0 DUP4 ADD MSTORE POP PUSH1 0x20 PUSH2 0x1974 DUP5 DUP3 DUP6 ADD PUSH2 0x1858 JUMP JUMPDEST PUSH1 0x20 DUP4 ADD MSTORE POP PUSH1 0x40 PUSH2 0x1988 DUP5 DUP3 DUP6 ADD PUSH2 0x1AA4 JUMP JUMPDEST PUSH1 0x40 DUP4 ADD MSTORE POP PUSH1 0x60 PUSH2 0x199C DUP5 DUP3 DUP6 ADD PUSH2 0x1AA4 JUMP JUMPDEST PUSH1 0x60 DUP4 ADD MSTORE POP PUSH1 0x80 PUSH2 0x19B0 DUP5 DUP3 DUP6 ADD PUSH2 0x1AA4 JUMP JUMPDEST PUSH1 0x80 DUP4 ADD MSTORE POP PUSH1 0xA0 PUSH2 0x19C4 DUP5 DUP3 DUP6 ADD PUSH2 0x1858 JUMP JUMPDEST PUSH1 0xA0 DUP4 ADD MSTORE POP PUSH1 0xC0 PUSH2 0x19D8 DUP5 DUP3 DUP6 ADD PUSH2 0x1A8F JUMP JUMPDEST PUSH1 0xC0 DUP4 ADD MSTORE POP PUSH1 0xE0 PUSH2 0x19EC DUP5 DUP3 DUP6 ADD PUSH2 0x1858 JUMP JUMPDEST PUSH1 0xE0 DUP4 ADD MSTORE POP PUSH2 0x100 PUSH2 0x1A01 DUP5 DUP3 DUP6 ADD PUSH2 0x1A65 JUMP JUMPDEST PUSH2 0x100 DUP4 ADD MSTORE POP PUSH2 0x120 PUSH2 0x1A17 DUP5 DUP3 DUP6 ADD PUSH2 0x186D JUMP JUMPDEST PUSH2 0x120 DUP4 ADD MSTORE POP PUSH2 0x160 PUSH2 0x1A2D DUP5 DUP3 DUP6 ADD PUSH2 0x18C3 JUMP JUMPDEST PUSH2 0x140 DUP4 ADD MSTORE POP PUSH2 0x1E0 PUSH2 0x1A43 DUP5 DUP3 DUP6 ADD PUSH2 0x1A8F JUMP JUMPDEST PUSH2 0x160 DUP4 ADD MSTORE POP SWAP3 SWAP2 POP POP JUMP JUMPDEST PUSH1 0x0 DUP2 CALLDATALOAD SWAP1 POP PUSH2 0x1A5F DUP2 PUSH2 0x2AB0 JUMP JUMPDEST SWAP3 SWAP2 POP POP JUMP JUMPDEST PUSH1 0x0 DUP2 MLOAD SWAP1 POP PUSH2 0x1A74 DUP2 PUSH2 0x2AB0 JUMP JUMPDEST SWAP3 SWAP2 POP POP JUMP JUMPDEST PUSH1 0x0 DUP2 CALLDATALOAD SWAP1 POP PUSH2 0x1A89 DUP2 PUSH2 0x2AC7 JUMP JUMPDEST SWAP3 SWAP2 POP POP JUMP JUMPDEST PUSH1 0x0 DUP2 MLOAD SWAP1 POP PUSH2 0x1A9E DUP2 PUSH2 0x2AC7 JUMP JUMPDEST SWAP3 SWAP2 POP POP JUMP JUMPDEST PUSH1 0x0 DUP2 MLOAD SWAP1 POP PUSH2 0x1AB3 DUP2 PUSH2 0x2ADE JUMP JUMPDEST SWAP3 SWAP2 POP POP JUMP JUMPDEST PUSH1 0x0 PUSH1 0xA0 DUP3 DUP5 SUB SLT ISZERO PUSH2 0x1ACF JUMPI PUSH2 0x1ACE PUSH2 0x28A9 JUMP JUMPDEST JUMPDEST PUSH1 0x0 PUSH2 0x1ADD DUP5 DUP3 DUP6 ADD PUSH2 0x18EE JUMP JUMPDEST SWAP2 POP POP SWAP3 SWAP2 POP POP JUMP JUMPDEST PUSH1 0x0 PUSH2 0x200 DUP3 DUP5 SUB SLT ISZERO PUSH2 0x1AFD JUMPI PUSH2 0x1AFC PUSH2 0x28A9 JUMP JUMPDEST JUMPDEST PUSH1 0x0 PUSH2 0x1B0B DUP5 DUP3 DUP6 ADD PUSH2 0x192E JUMP JUMPDEST SWAP2 POP POP SWAP3 SWAP2 POP POP JUMP JUMPDEST PUSH1 0x0 PUSH1 0x20 DUP3 DUP5 SUB SLT ISZERO PUSH2 0x1B2A JUMPI PUSH2 0x1B29 PUSH2 0x28A9 JUMP JUMPDEST JUMPDEST PUSH1 0x0 PUSH2 0x1B38 DUP5 DUP3 DUP6 ADD PUSH2 0x1A7A JUMP JUMPDEST SWAP2 POP POP SWAP3 SWAP2 POP POP JUMP JUMPDEST PUSH1 0x0 DUP1 PUSH1 0x60 DUP4 DUP6 SUB SLT ISZERO PUSH2 0x1B58 JUMPI PUSH2 0x1B57 PUSH2 0x28A9 JUMP JUMPDEST JUMPDEST PUSH1 0x0 PUSH2 0x1B66 DUP6 DUP3 DUP7 ADD PUSH2 0x1A7A JUMP JUMPDEST SWAP3 POP POP PUSH1 0x20 PUSH2 0x1B77 DUP6 DUP3 DUP7 ADD PUSH2 0x1898 JUMP JUMPDEST SWAP2 POP POP SWAP3 POP SWAP3 SWAP1 POP JUMP JUMPDEST PUSH1 0x0 DUP1 PUSH1 0x40 DUP4 DUP6 SUB SLT ISZERO PUSH2 0x1B98 JUMPI PUSH2 0x1B97 PUSH2 0x28A9 JUMP JUMPDEST JUMPDEST PUSH1 0x0 PUSH2 0x1BA6 DUP6 DUP3 DUP7 ADD PUSH2 0x1A7A JUMP JUMPDEST SWAP3 POP POP PUSH1 0x20 PUSH2 0x1BB7 DUP6 DUP3 DUP7 ADD PUSH2 0x1A7A JUMP JUMPDEST SWAP2 POP POP SWAP3 POP SWAP3 SWAP1 POP JUMP JUMPDEST PUSH1 0x0 PUSH2 0x1BCD DUP4 DUP4 PUSH2 0x1E88 JUMP JUMPDEST PUSH1 0x20 DUP4 ADD SWAP1 POP SWAP3 SWAP2 POP POP JUMP JUMPDEST PUSH1 0x0 PUSH2 0x1BE5 DUP4 DUP4 PUSH2 0x213D JUMP JUMPDEST PUSH1 0x20 DUP4 ADD SWAP1 POP SWAP3 SWAP2 POP POP JUMP JUMPDEST PUSH1 0x0 PUSH2 0x1BFD DUP4 DUP4 PUSH2 0x215B JUMP JUMPDEST PUSH1 0x20 DUP4 ADD SWAP1 POP SWAP3 SWAP2 POP POP JUMP JUMPDEST PUSH2 0x1C12 DUP2 PUSH2 0x2728 JUMP JUMPDEST DUP3 MSTORE POP POP JUMP JUMPDEST PUSH2 0x1C21 DUP2 PUSH2 0x2728 JUMP JUMPDEST DUP3 MSTORE POP POP JUMP JUMPDEST PUSH2 0x1C30 DUP2 PUSH2 0x257E JUMP JUMPDEST PUSH2 0x1C3A DUP2 DUP5 PUSH2 0x25DE JUMP JUMPDEST SWAP3 POP PUSH2 0x1C45 DUP3 PUSH2 0x2556 JUMP JUMPDEST DUP1 PUSH1 0x0 JUMPDEST DUP4 DUP2 LT ISZERO PUSH2 0x1C76 JUMPI DUP2 MLOAD PUSH2 0x1C5D DUP8 DUP3 PUSH2 0x1BC1 JUMP JUMPDEST SWAP7 POP PUSH2 0x1C68 DUP4 PUSH2 0x25AA JUMP JUMPDEST SWAP3 POP POP PUSH1 0x1 DUP2 ADD SWAP1 POP PUSH2 0x1C49 JUMP JUMPDEST POP POP POP POP POP POP JUMP JUMPDEST PUSH2 0x1C87 DUP2 PUSH2 0x257E JUMP JUMPDEST PUSH2 0x1C91 DUP2 DUP5 PUSH2 0x25E9 JUMP JUMPDEST SWAP3 POP PUSH2 0x1C9C DUP3 PUSH2 0x2556 JUMP JUMPDEST DUP1 PUSH1 0x0 JUMPDEST DUP4 DUP2 LT ISZERO PUSH2 0x1CCD JUMPI DUP2 MLOAD PUSH2 0x1CB4 DUP8 DUP3 PUSH2 0x1BC1 JUMP JUMPDEST SWAP7 POP PUSH2 0x1CBF DUP4 PUSH2 0x25AA JUMP JUMPDEST SWAP3 POP POP PUSH1 0x1 DUP2 ADD SWAP1 POP PUSH2 0x1CA0 JUMP JUMPDEST POP POP POP POP POP POP JUMP JUMPDEST PUSH2 0x1CDE DUP2 PUSH2 0x2589 JUMP JUMPDEST PUSH2 0x1CE8 DUP2 DUP5 PUSH2 0x25F4 JUMP JUMPDEST SWAP3 POP PUSH2 0x1CF3 DUP3 PUSH2 0x2560 JUMP JUMPDEST DUP1 PUSH1 0x0 JUMPDEST DUP4 DUP2 LT ISZERO PUSH2 0x1D24 JUMPI DUP2 MLOAD PUSH2 0x1D0B DUP8 DUP3 PUSH2 0x1BD9 JUMP JUMPDEST SWAP7 POP PUSH2 0x1D16 DUP4 PUSH2 0x25B7 JUMP JUMPDEST SWAP3 POP POP PUSH1 0x1 DUP2 ADD SWAP1 POP PUSH2 0x1CF7 JUMP JUMPDEST POP POP POP POP POP POP JUMP JUMPDEST PUSH2 0x1D35 DUP2 PUSH2 0x2589 JUMP JUMPDEST PUSH2 0x1D3F DUP2 DUP5 PUSH2 0x25FF JUMP JUMPDEST SWAP3 POP PUSH2 0x1D4A DUP3 PUSH2 0x2560 JUMP JUMPDEST DUP1 PUSH1 0x0 JUMPDEST DUP4 DUP2 LT ISZERO PUSH2 0x1D7B JUMPI DUP2 MLOAD PUSH2 0x1D62 DUP8 DUP3 PUSH2 0x1BD9 JUMP JUMPDEST SWAP7 POP PUSH2 0x1D6D DUP4 PUSH2 0x25B7 JUMP JUMPDEST SWAP3 POP POP PUSH1 0x1 DUP2 ADD SWAP1 POP PUSH2 0x1D4E JUMP JUMPDEST POP POP POP POP POP POP JUMP JUMPDEST PUSH2 0x1D8C DUP2 PUSH2 0x2594 JUMP JUMPDEST PUSH2 0x1D96 DUP2 DUP5 PUSH2 0x260A JUMP JUMPDEST SWAP3 POP PUSH2 0x1DA1 DUP3 PUSH2 0x256A JUMP JUMPDEST DUP1 PUSH1 0x0 JUMPDEST DUP4 DUP2 LT ISZERO PUSH2 0x1DD2 JUMPI DUP2 MLOAD PUSH2 0x1DB9 DUP8 DUP3 PUSH2 0x1BD9 JUMP JUMPDEST SWAP7 POP PUSH2 0x1DC4 DUP4 PUSH2 0x25C4 JUMP JUMPDEST SWAP3 POP POP PUSH1 0x1 DUP2 ADD SWAP1 POP PUSH2 0x1DA5 JUMP JUMPDEST POP POP POP POP POP POP JUMP JUMPDEST PUSH2 0x1DE3 DUP2 PUSH2 0x2594 JUMP JUMPDEST PUSH2 0x1DED DUP2 DUP5 PUSH2 0x2615 JUMP JUMPDEST SWAP3 POP PUSH2 0x1DF8 DUP3 PUSH2 0x256A JUMP JUMPDEST DUP1 PUSH1 0x0 JUMPDEST DUP4 DUP2 LT ISZERO PUSH2 0x1E29 JUMPI DUP2 MLOAD PUSH2 0x1E10 DUP8 DUP3 PUSH2 0x1BD9 JUMP JUMPDEST SWAP7 POP PUSH2 0x1E1B DUP4 PUSH2 0x25C4 JUMP JUMPDEST SWAP3 POP POP PUSH1 0x1 DUP2 ADD SWAP1 POP PUSH2 0x1DFC JUMP JUMPDEST POP POP POP POP POP POP JUMP JUMPDEST PUSH2 0x1E3A DUP2 PUSH2 0x259F JUMP JUMPDEST PUSH2 0x1E44 DUP2 DUP5 PUSH2 0x2620 JUMP JUMPDEST SWAP3 POP PUSH2 0x1E4F DUP3 PUSH2 0x2574 JUMP JUMPDEST DUP1 PUSH1 0x0 JUMPDEST DUP4 DUP2 LT ISZERO PUSH2 0x1E80 JUMPI DUP2 MLOAD PUSH2 0x1E67 DUP8 DUP3 PUSH2 0x1BF1 JUMP JUMPDEST SWAP7 POP PUSH2 0x1E72 DUP4 PUSH2 0x25D1 JUMP JUMPDEST SWAP3 POP POP PUSH1 0x1 DUP2 ADD SWAP1 POP PUSH2 0x1E53 JUMP JUMPDEST POP POP POP POP POP POP JUMP JUMPDEST PUSH2 0x1E91 DUP2 PUSH2 0x273A JUMP JUMPDEST DUP3 MSTORE POP POP JUMP JUMPDEST PUSH1 0x0 PUSH2 0x1EA4 PUSH1 0x5 DUP4 PUSH2 0x262B JUMP JUMPDEST SWAP2 POP PUSH2 0x1EAF DUP3 PUSH2 0x28BF JUMP JUMPDEST PUSH1 0x20 DUP3 ADD SWAP1 POP SWAP2 SWAP1 POP JUMP JUMPDEST PUSH1 0x0 PUSH2 0x1EC7 PUSH1 0x5 DUP4 PUSH2 0x262B JUMP JUMPDEST SWAP2 POP PUSH2 0x1ED2 DUP3 PUSH2 0x28E8 JUMP JUMPDEST PUSH1 0x20 DUP3 ADD SWAP1 POP SWAP2 SWAP1 POP JUMP JUMPDEST PUSH1 0x0 PUSH2 0x1EEA PUSH1 0x5 DUP4 PUSH2 0x262B JUMP JUMPDEST SWAP2 POP PUSH2 0x1EF5 DUP3 PUSH2 0x2911 JUMP JUMPDEST PUSH1 0x20 DUP3 ADD SWAP1 POP SWAP2 SWAP1 POP JUMP JUMPDEST PUSH1 0x0 PUSH2 0x1F0D PUSH1 0x5 DUP4 PUSH2 0x262B JUMP JUMPDEST SWAP2 POP PUSH2 0x1F18 DUP3 PUSH2 0x293A JUMP JUMPDEST PUSH1 0x20 DUP3 ADD SWAP1 POP SWAP2 SWAP1 POP JUMP JUMPDEST PUSH1 0x0 PUSH2 0x1F30 PUSH1 0x5 DUP4 PUSH2 0x262B JUMP JUMPDEST SWAP2 POP PUSH2 0x1F3B DUP3 PUSH2 0x2963 JUMP JUMPDEST PUSH1 0x20 DUP3 ADD SWAP1 POP SWAP2 SWAP1 POP JUMP JUMPDEST PUSH1 0x0 PUSH2 0x1F53 PUSH1 0x5 DUP4 PUSH2 0x262B JUMP JUMPDEST SWAP2 POP PUSH2 0x1F5E DUP3 PUSH2 0x298C JUMP JUMPDEST PUSH1 0x20 DUP3 ADD SWAP1 POP SWAP2 SWAP1 POP JUMP JUMPDEST PUSH1 0x0 PUSH2 0x1F76 PUSH1 0x5 DUP4 PUSH2 0x262B JUMP JUMPDEST SWAP2 POP PUSH2 0x1F81 DUP3 PUSH2 0x29B5 JUMP JUMPDEST PUSH1 0x20 DUP3 ADD SWAP1 POP SWAP2 SWAP1 POP JUMP JUMPDEST PUSH1 0x0 PUSH2 0x1F99 PUSH1 0x5 DUP4 PUSH2 0x262B JUMP JUMPDEST SWAP2 POP PUSH2 0x1FA4 DUP3 PUSH2 0x29DE JUMP JUMPDEST PUSH1 0x20 DUP3 ADD SWAP1 POP SWAP2 SWAP1 POP JUMP JUMPDEST PUSH1 0x0 PUSH2 0x1FBC PUSH1 0x1F DUP4 PUSH2 0x262B JUMP JUMPDEST SWAP2 POP PUSH2 0x1FC7 DUP3 PUSH2 0x2A07 JUMP JUMPDEST PUSH1 0x20 DUP3 ADD SWAP1 POP SWAP2 SWAP1 POP JUMP JUMPDEST PUSH1 0x0 PUSH2 0x1FDF PUSH1 0x5 DUP4 PUSH2 0x262B JUMP JUMPDEST SWAP2 POP PUSH2 0x1FEA DUP3 PUSH2 0x2A30 JUMP JUMPDEST PUSH1 0x20 DUP3 ADD SWAP1 POP SWAP2 SWAP1 POP JUMP JUMPDEST PUSH1 0x0 PUSH2 0x2002 PUSH1 0x5 DUP4 PUSH2 0x262B JUMP JUMPDEST SWAP2 POP PUSH2 0x200D DUP3 PUSH2 0x2A59 JUMP JUMPDEST PUSH1 0x20 DUP3 ADD SWAP1 POP SWAP2 SWAP1 POP JUMP JUMPDEST PUSH2 0x200 DUP3 ADD PUSH1 0x0 DUP3 ADD MLOAD PUSH2 0x202F PUSH1 0x0 DUP6 ADD DUP3 PUSH2 0x1C09 JUMP JUMPDEST POP PUSH1 0x20 DUP3 ADD MLOAD PUSH2 0x2042 PUSH1 0x20 DUP6 ADD DUP3 PUSH2 0x1C09 JUMP JUMPDEST POP PUSH1 0x40 DUP3 ADD MLOAD PUSH2 0x2055 PUSH1 0x40 DUP6 ADD DUP3 PUSH2 0x2179 JUMP JUMPDEST POP PUSH1 0x60 DUP3 ADD MLOAD PUSH2 0x2068 PUSH1 0x60 DUP6 ADD DUP3 PUSH2 0x2179 JUMP JUMPDEST POP PUSH1 0x80 DUP3 ADD MLOAD PUSH2 0x207B PUSH1 0x80 DUP6 ADD DUP3 PUSH2 0x2179 JUMP JUMPDEST POP PUSH1 0xA0 DUP3 ADD MLOAD PUSH2 0x208E PUSH1 0xA0 DUP6 ADD DUP3 PUSH2 0x1C09 JUMP JUMPDEST POP PUSH1 0xC0 DUP3 ADD MLOAD PUSH2 0x20A1 PUSH1 0xC0 DUP6 ADD DUP3 PUSH2 0x215B JUMP JUMPDEST POP PUSH1 0xE0 DUP3 ADD MLOAD PUSH2 0x20B4 PUSH1 0xE0 DUP6 ADD DUP3 PUSH2 0x1C09 JUMP JUMPDEST POP PUSH2 0x100 DUP3 ADD MLOAD PUSH2 0x20C9 PUSH2 0x100 DUP6 ADD DUP3 PUSH2 0x213D JUMP JUMPDEST POP PUSH2 0x120 DUP3 ADD MLOAD PUSH2 0x20DE PUSH2 0x120 DUP6 ADD DUP3 PUSH2 0x1C27 JUMP JUMPDEST POP PUSH2 0x140 DUP3 ADD MLOAD PUSH2 0x20F3 PUSH2 0x160 DUP6 ADD DUP3 PUSH2 0x1D83 JUMP JUMPDEST POP PUSH2 0x160 DUP3 ADD MLOAD PUSH2 0x2108 PUSH2 0x1E0 DUP6 ADD DUP3 PUSH2 0x215B JUMP JUMPDEST POP POP POP POP JUMP JUMPDEST PUSH1 0x60 DUP3 ADD PUSH1 0x0 DUP3 ADD MLOAD PUSH2 0x2124 PUSH1 0x0 DUP6 ADD DUP3 PUSH2 0x1C09 JUMP JUMPDEST POP PUSH1 0x20 DUP3 ADD MLOAD PUSH2 0x2137 PUSH1 0x20 DUP6 ADD DUP3 PUSH2 0x1CD5 JUMP JUMPDEST POP POP POP POP JUMP JUMPDEST PUSH2 0x2146 DUP2 PUSH2 0x2747 JUMP JUMPDEST DUP3 MSTORE POP POP JUMP JUMPDEST PUSH2 0x2155 DUP2 PUSH2 0x2747 JUMP JUMPDEST DUP3 MSTORE POP POP JUMP JUMPDEST PUSH2 0x2164 DUP2 PUSH2 0x2775 JUMP JUMPDEST DUP3 MSTORE POP POP JUMP JUMPDEST PUSH2 0x2173 DUP2 PUSH2 0x2775 JUMP JUMPDEST DUP3 MSTORE POP POP JUMP JUMPDEST PUSH2 0x2182 DUP2 PUSH2 0x277F JUMP JUMPDEST DUP3 MSTORE POP POP JUMP JUMPDEST PUSH2 0x2191 DUP2 PUSH2 0x277F JUMP JUMPDEST DUP3 MSTORE POP POP JUMP JUMPDEST PUSH1 0x0 PUSH1 0x20 DUP3 ADD SWAP1 POP PUSH2 0x21AC PUSH1 0x0 DUP4 ADD DUP5 PUSH2 0x1C18 JUMP JUMPDEST SWAP3 SWAP2 POP POP JUMP JUMPDEST PUSH1 0x0 PUSH1 0x20 DUP3 ADD SWAP1 POP DUP2 DUP2 SUB PUSH1 0x0 DUP4 ADD MSTORE PUSH2 0x21CB DUP2 PUSH2 0x1E97 JUMP JUMPDEST SWAP1 POP SWAP2 SWAP1 POP JUMP JUMPDEST PUSH1 0x0 PUSH1 0x20 DUP3 ADD SWAP1 POP DUP2 DUP2 SUB PUSH1 0x0 DUP4 ADD MSTORE PUSH2 0x21EB DUP2 PUSH2 0x1EBA JUMP JUMPDEST SWAP1 POP SWAP2 SWAP1 POP JUMP JUMPDEST PUSH1 0x0 PUSH1 0x20 DUP3 ADD SWAP1 POP DUP2 DUP2 SUB PUSH1 0x0 DUP4 ADD MSTORE PUSH2 0x220B DUP2 PUSH2 0x1EDD JUMP JUMPDEST SWAP1 POP SWAP2 SWAP1 POP JUMP JUMPDEST PUSH1 0x0 PUSH1 0x20 DUP3 ADD SWAP1 POP DUP2 DUP2 SUB PUSH1 0x0 DUP4 ADD MSTORE PUSH2 0x222B DUP2 PUSH2 0x1F00 JUMP JUMPDEST SWAP1 POP SWAP2 SWAP1 POP JUMP JUMPDEST PUSH1 0x0 PUSH1 0x20 DUP3 ADD SWAP1 POP DUP2 DUP2 SUB PUSH1 0x0 DUP4 ADD MSTORE PUSH2 0x224B DUP2 PUSH2 0x1F23 JUMP JUMPDEST SWAP1 POP SWAP2 SWAP1 POP JUMP JUMPDEST PUSH1 0x0 PUSH1 0x20 DUP3 ADD SWAP1 POP DUP2 DUP2 SUB PUSH1 0x0 DUP4 ADD MSTORE PUSH2 0x226B DUP2 PUSH2 0x1F46 JUMP JUMPDEST SWAP1 POP SWAP2 SWAP1 POP JUMP JUMPDEST PUSH1 0x0 PUSH1 0x20 DUP3 ADD SWAP1 POP DUP2 DUP2 SUB PUSH1 0x0 DUP4 ADD MSTORE PUSH2 0x228B DUP2 PUSH2 0x1F69 JUMP JUMPDEST SWAP1 POP SWAP2 SWAP1 POP JUMP JUMPDEST PUSH1 0x0 PUSH1 0x20 DUP3 ADD SWAP1 POP DUP2 DUP2 SUB PUSH1 0x0 DUP4 ADD MSTORE PUSH2 0x22AB DUP2 PUSH2 0x1F8C JUMP JUMPDEST SWAP1 POP SWAP2 SWAP1 POP JUMP JUMPDEST PUSH1 0x0 PUSH1 0x20 DUP3 ADD SWAP1 POP DUP2 DUP2 SUB PUSH1 0x0 DUP4 ADD MSTORE PUSH2 0x22CB DUP2 PUSH2 0x1FAF JUMP JUMPDEST SWAP1 POP SWAP2 SWAP1 POP JUMP JUMPDEST PUSH1 0x0 PUSH1 0x20 DUP3 ADD SWAP1 POP DUP2 DUP2 SUB PUSH1 0x0 DUP4 ADD MSTORE PUSH2 0x22EB DUP2 PUSH2 0x1FD2 JUMP JUMPDEST SWAP1 POP SWAP2 SWAP1 POP JUMP JUMPDEST PUSH1 0x0 PUSH1 0x20 DUP3 ADD SWAP1 POP DUP2 DUP2 SUB PUSH1 0x0 DUP4 ADD MSTORE PUSH2 0x230B DUP2 PUSH2 0x1FF5 JUMP JUMPDEST SWAP1 POP SWAP2 SWAP1 POP JUMP JUMPDEST PUSH1 0x0 PUSH2 0x300 DUP3 ADD SWAP1 POP PUSH2 0x2328 PUSH1 0x0 DUP4 ADD DUP8 PUSH2 0x2018 JUMP JUMPDEST PUSH2 0x2336 PUSH2 0x200 DUP4 ADD DUP7 PUSH2 0x1D2C JUMP JUMPDEST PUSH2 0x2344 PUSH2 0x240 DUP4 ADD DUP6 PUSH2 0x216A JUMP JUMPDEST PUSH2 0x2352 PUSH2 0x260 DUP4 ADD DUP5 PUSH2 0x1E31 JUMP JUMPDEST SWAP6 SWAP5 POP POP POP POP POP JUMP JUMPDEST PUSH1 0x0 PUSH1 0x60 DUP3 ADD SWAP1 POP PUSH2 0x2370 PUSH1 0x0 DUP4 ADD DUP5 PUSH2 0x210E JUMP JUMPDEST SWAP3 SWAP2 POP POP JUMP JUMPDEST PUSH1 0x0 PUSH1 0x20 DUP3 ADD SWAP1 POP PUSH2 0x238B PUSH1 0x0 DUP4 ADD DUP5 PUSH2 0x214C JUMP JUMPDEST SWAP3 SWAP2 POP POP JUMP JUMPDEST PUSH1 0x0 PUSH1 0x20 DUP3 ADD SWAP1 POP PUSH2 0x23A6 PUSH1 0x0 DUP4 ADD DUP5 PUSH2 0x216A JUMP JUMPDEST SWAP3 SWAP2 POP POP JUMP JUMPDEST PUSH1 0x0 PUSH1 0x80 DUP3 ADD SWAP1 POP PUSH2 0x23C1 PUSH1 0x0 DUP4 ADD DUP7 PUSH2 0x216A JUMP JUMPDEST PUSH2 0x23CE PUSH1 0x20 DUP4 ADD DUP6 PUSH2 0x1D2C JUMP JUMPDEST PUSH2 0x23DB PUSH1 0x60 DUP4 ADD DUP5 PUSH2 0x1C18 JUMP JUMPDEST SWAP5 SWAP4 POP POP POP POP JUMP JUMPDEST PUSH1 0x0 PUSH1 0xE0 DUP3 ADD SWAP1 POP PUSH2 0x23F8 PUSH1 0x0 DUP4 ADD DUP7 PUSH2 0x216A JUMP JUMPDEST PUSH2 0x2405 PUSH1 0x20 DUP4 ADD DUP6 PUSH2 0x1DDA JUMP JUMPDEST PUSH2 0x2412 PUSH1 0xA0 DUP4 ADD DUP5 PUSH2 0x1C7E JUMP JUMPDEST SWAP5 SWAP4 POP POP POP POP JUMP JUMPDEST PUSH1 0x0 PUSH2 0x120 DUP3 ADD SWAP1 POP PUSH2 0x2430 PUSH1 0x0 DUP4 ADD DUP9 PUSH2 0x216A JUMP JUMPDEST PUSH2 0x243D PUSH1 0x20 DUP4 ADD DUP8 PUSH2 0x1DDA JUMP JUMPDEST PUSH2 0x244A PUSH1 0xA0 DUP4 ADD DUP7 PUSH2 0x1C7E JUMP JUMPDEST PUSH2 0x2457 PUSH1 0xE0 DUP4 ADD DUP6 PUSH2 0x2188 JUMP JUMPDEST PUSH2 0x2465 PUSH2 0x100 DUP4 ADD DUP5 PUSH2 0x2188 JUMP JUMPDEST SWAP7 SWAP6 POP POP POP POP POP POP JUMP JUMPDEST PUSH1 0x0 PUSH2 0x220 DUP3 ADD SWAP1 POP PUSH2 0x2485 PUSH1 0x0 DUP4 ADD DUP6 PUSH2 0x216A JUMP JUMPDEST PUSH2 0x2492 PUSH1 0x20 DUP4 ADD DUP5 PUSH2 0x2018 JUMP JUMPDEST SWAP4 SWAP3 POP POP POP JUMP JUMPDEST PUSH1 0x0 PUSH2 0x24A3 PUSH2 0x24B4 JUMP JUMPDEST SWAP1 POP PUSH2 0x24AF DUP3 DUP3 PUSH2 0x2793 JUMP JUMPDEST SWAP2 SWAP1 POP JUMP JUMPDEST PUSH1 0x0 PUSH1 0x40 MLOAD SWAP1 POP SWAP1 JUMP JUMPDEST PUSH1 0x0 PUSH8 0xFFFFFFFFFFFFFFFF DUP3 GT ISZERO PUSH2 0x24D9 JUMPI PUSH2 0x24D8 PUSH2 0x286B JUMP JUMPDEST JUMPDEST PUSH1 0x20 DUP3 MUL SWAP1 POP SWAP2 SWAP1 POP JUMP JUMPDEST PUSH1 0x0 PUSH8 0xFFFFFFFFFFFFFFFF DUP3 GT ISZERO PUSH2 0x24FF JUMPI PUSH2 0x24FE PUSH2 0x286B JUMP JUMPDEST JUMPDEST PUSH1 0x20 DUP3 MUL SWAP1 POP SWAP2 SWAP1 POP JUMP JUMPDEST PUSH1 0x0 PUSH8 0xFFFFFFFFFFFFFFFF DUP3 GT ISZERO PUSH2 0x2525 JUMPI PUSH2 0x2524 PUSH2 0x286B JUMP JUMPDEST JUMPDEST PUSH1 0x20 DUP3 MUL SWAP1 POP SWAP2 SWAP1 POP JUMP JUMPDEST PUSH1 0x0 PUSH8 0xFFFFFFFFFFFFFFFF DUP3 GT ISZERO PUSH2 0x254B JUMPI PUSH2 0x254A PUSH2 0x286B JUMP JUMPDEST JUMPDEST PUSH1 0x20 DUP3 MUL SWAP1 POP SWAP2 SWAP1 POP JUMP JUMPDEST PUSH1 0x0 DUP2 SWAP1 POP SWAP2 SWAP1 POP JUMP JUMPDEST PUSH1 0x0 DUP2 SWAP1 POP SWAP2 SWAP1 POP JUMP JUMPDEST PUSH1 0x0 DUP2 SWAP1 POP SWAP2 SWAP1 POP JUMP JUMPDEST PUSH1 0x0 DUP2 SWAP1 POP SWAP2 SWAP1 POP JUMP JUMPDEST PUSH1 0x0 PUSH1 0x2 SWAP1 POP SWAP2 SWAP1 POP JUMP JUMPDEST PUSH1 0x0 PUSH1 0x2 SWAP1 POP SWAP2 SWAP1 POP JUMP JUMPDEST PUSH1 0x0 PUSH1 0x4 SWAP1 POP SWAP2 SWAP1 POP JUMP JUMPDEST PUSH1 0x0 PUSH1 0x5 SWAP1 POP SWAP2 SWAP1 POP JUMP JUMPDEST PUSH1 0x0 PUSH1 0x20 DUP3 ADD SWAP1 POP SWAP2 SWAP1 POP JUMP JUMPDEST PUSH1 0x0 PUSH1 0x20 DUP3 ADD SWAP1 POP SWAP2 SWAP1 POP JUMP JUMPDEST PUSH1 0x0 PUSH1 0x20 DUP3 ADD SWAP1 POP SWAP2 SWAP1 POP JUMP JUMPDEST PUSH1 0x0 PUSH1 0x20 DUP3 ADD SWAP1 POP SWAP2 SWAP1 POP JUMP JUMPDEST PUSH1 0x0 DUP2 SWAP1 POP SWAP3 SWAP2 POP POP JUMP JUMPDEST PUSH1 0x0 DUP2 SWAP1 POP SWAP3 SWAP2 POP POP JUMP JUMPDEST PUSH1 0x0 DUP2 SWAP1 POP SWAP3 SWAP2 POP POP JUMP JUMPDEST PUSH1 0x0 DUP2 SWAP1 POP SWAP3 SWAP2 POP POP JUMP JUMPDEST PUSH1 0x0 DUP2 SWAP1 POP SWAP3 SWAP2 POP POP JUMP JUMPDEST PUSH1 0x0 DUP2 SWAP1 POP SWAP3 SWAP2 POP POP JUMP JUMPDEST PUSH1 0x0 DUP2 SWAP1 POP SWAP3 SWAP2 POP POP JUMP JUMPDEST PUSH1 0x0 DUP3 DUP3 MSTORE PUSH1 0x20 DUP3 ADD SWAP1 POP SWAP3 SWAP2 POP POP JUMP JUMPDEST PUSH1 0x0 PUSH2 0x2647 DUP3 PUSH2 0x273A JUMP JUMPDEST SWAP2 POP PUSH2 0x2652 DUP4 PUSH2 0x273A JUMP JUMPDEST SWAP3 POP DUP2 PUSH2 0x7FFF SUB DUP4 SGT PUSH1 0x0 DUP4 SLT ISZERO AND ISZERO PUSH2 0x266F JUMPI PUSH2 0x266E PUSH2 0x280D JUMP JUMPDEST JUMPDEST DUP2 PUSH32 0xFFFFFFFFFFFFFFFFFFFFFFFFFFFFFFFFFFFFFFFFFFFFFFFFFFFFFFFFFFFF8000 SUB DUP4 SLT PUSH1 0x0 DUP4 SLT AND ISZERO PUSH2 0x26A7 JUMPI PUSH2 0x26A6 PUSH2 0x280D JUMP JUMPDEST JUMPDEST DUP3 DUP3 ADD SWAP1 POP SWAP3 SWAP2 POP POP JUMP JUMPDEST PUSH1 0x0 PUSH2 0x26BD DUP3 PUSH2 0x2747 JUMP JUMPDEST SWAP2 POP PUSH2 0x26C8 DUP4 PUSH2 0x2747 JUMP JUMPDEST SWAP3 POP DUP3 PUSH2 0xFFFF SUB DUP3 GT ISZERO PUSH2 0x26DF JUMPI PUSH2 0x26DE PUSH2 0x280D JUMP JUMPDEST JUMPDEST DUP3 DUP3 ADD SWAP1 POP SWAP3 SWAP2 POP POP JUMP JUMPDEST PUSH1 0x0 PUSH2 0x26F5 DUP3 PUSH2 0x277F JUMP JUMPDEST SWAP2 POP PUSH2 0x2700 DUP4 PUSH2 0x277F JUMP JUMPDEST SWAP3 POP DUP3 PUSH8 0xFFFFFFFFFFFFFFFF SUB DUP3 GT ISZERO PUSH2 0x271D JUMPI PUSH2 0x271C PUSH2 0x280D JUMP JUMPDEST JUMPDEST DUP3 DUP3 ADD SWAP1 POP SWAP3 SWAP2 POP POP JUMP JUMPDEST PUSH1 0x0 PUSH2 0x2733 DUP3 PUSH2 0x2755 JUMP JUMPDEST SWAP1 POP SWAP2 SWAP1 POP JUMP JUMPDEST PUSH1 0x0 DUP2 PUSH1 0x1 SIGNEXTEND SWAP1 POP SWAP2 SWAP1 POP JUMP JUMPDEST PUSH1 0x0 PUSH2 0xFFFF DUP3 AND SWAP1 POP SWAP2 SWAP1 POP JUMP JUMPDEST PUSH1 0x0 PUSH20 0xFFFFFFFFFFFFFFFFFFFFFFFFFFFFFFFFFFFFFFFF DUP3 AND SWAP1 POP SWAP2 SWAP1 POP JUMP JUMPDEST PUSH1 0x0 DUP2 SWAP1 POP SWAP2 SWAP1 POP JUMP JUMPDEST PUSH1 0x0 PUSH8 0xFFFFFFFFFFFFFFFF DUP3 AND SWAP1 POP SWAP2 SWAP1 POP JUMP JUMPDEST PUSH2 0x279C DUP3 PUSH2 0x28AE JUMP JUMPDEST DUP2 ADD DUP2 DUP2 LT PUSH8 0xFFFFFFFFFFFFFFFF DUP3 GT OR ISZERO PUSH2 0x27BB JUMPI PUSH2 0x27BA PUSH2 0x286B JUMP JUMPDEST JUMPDEST DUP1 PUSH1 0x40 MSTORE POP POP POP JUMP JUMPDEST PUSH1 0x0 PUSH2 0x27CF DUP3 PUSH2 0x273A JUMP JUMPDEST SWAP2 POP PUSH32 0xFFFFFFFFFFFFFFFFFFFFFFFFFFFFFFFFFFFFFFFFFFFFFFFFFFFFFFFFFFFF8000 DUP3 EQ ISZERO PUSH2 0x2802 JUMPI PUSH2 0x2801 PUSH2 0x280D JUMP JUMPDEST JUMPDEST DUP2 PUSH1 0x0 SUB SWAP1 POP SWAP2 SWAP1 POP JUMP JUMPDEST PUSH32 0x4E487B7100000000000000000000000000000000000000000000000000000000 PUSH1 0x0 MSTORE PUSH1 0x11 PUSH1 0x4 MSTORE PUSH1 0x24 PUSH1 0x0 REVERT JUMPDEST PUSH32 0x4E487B7100000000000000000000000000000000000000000000000000000000 PUSH1 0x0 MSTORE PUSH1 0x32 PUSH1 0x4 MSTORE PUSH1 0x24 PUSH1 0x0 REVERT JUMPDEST PUSH32 0x4E487B7100000000000000000000000000000000000000000000000000000000 PUSH1 0x0 MSTORE PUSH1 0x41 PUSH1 0x4 MSTORE PUSH1 0x24 PUSH1 0x0 REVERT JUMPDEST PUSH1 0x0 DUP1 REVERT JUMPDEST PUSH1 0x0 DUP1 REVERT JUMPDEST PUSH1 0x0 DUP1 REVERT JUMPDEST PUSH1 0x0 DUP1 REVERT JUMPDEST PUSH1 0x0 PUSH1 0x1F NOT PUSH1 0x1F DUP4 ADD AND SWAP1 POP SWAP2 SWAP1 POP JUMP JUMPDEST PUSH32 0x312D303037000000000000000000000000000000000000000000000000000000 PUSH1 0x0 DUP3 ADD MSTORE POP JUMP JUMPDEST PUSH32 0x312D303139000000000000000000000000000000000000000000000000000000 PUSH1 0x0 DUP3 ADD MSTORE POP JUMP JUMPDEST PUSH32 0x312D303039000000000000000000000000000000000000000000000000000000 PUSH1 0x0 DUP3 ADD MSTORE POP JUMP JUMPDEST PUSH32 0x312D303035000000000000000000000000000000000000000000000000000000 PUSH1 0x0 DUP3 ADD MSTORE POP JUMP JUMPDEST PUSH32 0x312D303230000000000000000000000000000000000000000000000000000000 PUSH1 0x0 DUP3 ADD MSTORE POP JUMP JUMPDEST PUSH32 0x312D303136000000000000000000000000000000000000000000000000000000 PUSH1 0x0 DUP3 ADD MSTORE POP JUMP JUMPDEST PUSH32 0x312D303137000000000000000000000000000000000000000000000000000000 PUSH1 0x0 DUP3 ADD MSTORE POP JUMP JUMPDEST PUSH32 0x312D303138000000000000000000000000000000000000000000000000000000 PUSH1 0x0 DUP3 ADD MSTORE POP JUMP JUMPDEST PUSH32 0x5265656E7472616E637947756172643A207265656E7472616E742063616C6C00 PUSH1 0x0 DUP3 ADD MSTORE POP JUMP JUMPDEST PUSH32 0x312D303134000000000000000000000000000000000000000000000000000000 PUSH1 0x0 DUP3 ADD MSTORE POP JUMP JUMPDEST PUSH32 0x312D303135000000000000000000000000000000000000000000000000000000 PUSH1 0x0 DUP3 ADD MSTORE POP JUMP JUMPDEST PUSH2 0x2A8B DUP2 PUSH2 0x2728 JUMP JUMPDEST DUP2 EQ PUSH2 0x2A96 JUMPI PUSH1 0x0 DUP1 REVERT JUMPDEST POP JUMP JUMPDEST PUSH2 0x2AA2 DUP2 PUSH2 0x273A JUMP JUMPDEST DUP2 EQ PUSH2 0x2AAD JUMPI PUSH1 0x0 DUP1 REVERT JUMPDEST POP JUMP JUMPDEST PUSH2 0x2AB9 DUP2 PUSH2 0x2747 JUMP JUMPDEST DUP2 EQ PUSH2 0x2AC4 JUMPI PUSH1 0x0 DUP1 REVERT JUMPDEST POP JUMP JUMPDEST PUSH2 0x2AD0 DUP2 PUSH2 0x2775 JUMP JUMPDEST DUP2 EQ PUSH2 0x2ADB JUMPI PUSH1 0x0 DUP1 REVERT JUMPDEST POP JUMP JUMPDEST PUSH2 0x2AE7 DUP2 PUSH2 0x277F JUMP JUMPDEST DUP2 EQ PUSH2 0x2AF2 JUMPI PUSH1 0x0 DUP1 REVERT JUMPDEST POP JUMP INVALID LOG2 PUSH5 0x6970667358 0x22 SLT KECCAK256 0xC7 EXP 0xE5 RETURNDATACOPY CALLCODE 0xE0 PUSH30 0x14A282433F864171F50073C804760B665184635B7F28D453E164736F6C63 NUMBER STOP ADDMOD SMOD STOP CALLER "},"methodIdentifiers":{"approveSettlement(uint256,uint16[2])":"9f8621b8","challenge(uint256)":"ab82d9a0","getSettlementDetails(uint256)":"fe5e2969","latestSettlementOffer(uint256,uint256)":"325369f6","latestSettlementOfferBy(uint256)":"7e684d05","offerSettlement(uint256,uint16[2])":"c5708645"}}}}}