{"contracts/Unicrow.sol":{"Unicrow":{"abi":[{"inputs":[{"internalType":"address","name":"unicrowClaim_","type":"address"},{"internalType":"address","name":"unicrowArbitrator_","type":"address"},{"internalType":"address","name":"unicrowDispute_","type":"address"},{"internalType":"address","name":"governanceAddress_","type":"address"}],"stateMutability":"nonpayable","type":"constructor"},{"anonymous":false,"inputs":[{"indexed":true,"internalType":"uint256","name":"escrowId","type":"uint256"},{"indexed":false,"internalType":"uint256","name":"blockTime","type":"uint256"},{"components":[{"internalType":"address","name":"buyer","type":"address"},{"internalType":"address","name":"seller","type":"address"},{"internalType":"uint64","name":"challengePeriodStart","type":"uint64"},{"internalType":"uint64","name":"challengePeriodEnd","type":"uint64"},{"internalType":"uint64","name":"challengeExtension","type":"uint64"},{"internalType":"address","name":"marketplace","type":"address"},{"internalType":"uint256","name":"marketplaceFee","type":"uint256"},{"internalType":"address","name":"currency","type":"address"},{"internalType":"uint16","name":"claimed","type":"uint16"},{"internalType":"int16[2]","name":"consensus","type":"int16[2]"},{"internalType":"uint16[4]","name":"split","type":"uint16[4]"},{"internalType":"uint256","name":"amount","type":"uint256"}],"indexed":false,"internalType":"struct Escrow","name":"escrow","type":"tuple"},{"indexed":false,"internalType":"address","name":"arbitrator","type":"address"},{"indexed":false,"internalType":"uint256","name":"arbitratorFee","type":"uint256"},{"indexed":false,"internalType":"uint256","name":"challengePeriod","type":"uint256"}],"name":"Pay","type":"event"},{"anonymous":false,"inputs":[{"indexed":true,"internalType":"uint256","name":"escrowId","type":"uint256"},{"components":[{"internalType":"address","name":"buyer","type":"address"},{"internalType":"address","name":"seller","type":"address"},{"internalType":"uint64","name":"challengePeriodStart","type":"uint64"},{"internalType":"uint64","name":"challengePeriodEnd","type":"uint64"},{"internalType":"uint64","name":"challengeExtension","type":"uint64"},{"internalType":"address","name":"marketplace","type":"address"},{"internalType":"uint256","name":"marketplaceFee","type":"uint256"},{"internalType":"address","name":"currency","type":"address"},{"internalType":"uint16","name":"claimed","type":"uint16"},{"internalType":"int16[2]","name":"consensus","type":"int16[2]"},{"internalType":"uint16[4]","name":"split","type":"uint16[4]"},{"internalType":"uint256","name":"amount","type":"uint256"}],"indexed":false,"internalType":"struct Escrow","name":"escrow","type":"tuple"},{"indexed":false,"internalType":"uint256","name":"blockTime","type":"uint256"}],"name":"Refund","type":"event"},{"anonymous":false,"inputs":[{"indexed":true,"internalType":"uint256","name":"escrowId","type":"uint256"},{"indexed":false,"internalType":"uint256","name":"blockTime","type":"uint256"},{"components":[{"internalType":"address","name":"buyer","type":"address"},{"internalType":"address","name":"seller","type":"address"},{"internalType":"uint64","name":"challengePeriodStart","type":"uint64"},{"internalType":"uint64","name":"challengePeriodEnd","type":"uint64"},{"internalType":"uint64","name":"challengeExtension","type":"uint64"},{"internalType":"address","name":"marketplace","type":"address"},{"internalType":"uint256","name":"marketplaceFee","type":"uint256"},{"internalType":"address","name":"currency","type":"address"},{"internalType":"uint16","name":"claimed","type":"uint16"},{"internalType":"int16[2]","name":"consensus","type":"int16[2]"},{"internalType":"uint16[4]","name":"split","type":"uint16[4]"},{"internalType":"uint256","name":"amount","type":"uint256"}],"indexed":false,"internalType":"struct Escrow","name":"escrow","type":"tuple"},{"indexed":false,"internalType":"uint256[5]","name":"amounts","type":"uint256[5]"}],"name":"Release","type":"event"},{"inputs":[{"internalType":"uint256","name":"escrowId","type":"uint256"},{"internalType":"uint16[4]","name":"split","type":"uint16[4]"},{"internalType":"int16[2]","name":"consensus","type":"int16[2]"},{"internalType":"uint64","name":"challengeStart","type":"uint64"},{"internalType":"uint64","name":"challengeEnd","type":"uint64"}],"name":"challenge","outputs":[],"stateMutability":"nonpayable","type":"function"},{"inputs":[],"name":"escrowFee","outputs":[{"internalType":"uint16","name":"","type":"uint16"}],"stateMutability":"view","type":"function"},{"inputs":[],"name":"escrowIdCounter","outputs":[{"internalType":"uint256","name":"_value","type":"uint256"}],"stateMutability":"view","type":"function"},{"inputs":[{"internalType":"uint256","name":"escrowId","type":"uint256"}],"name":"getAllEscrowData","outputs":[{"components":[{"components":[{"internalType":"address","name":"buyer","type":"address"},{"internalType":"address","name":"seller","type":"address"},{"internalType":"uint64","name":"challengePeriodStart","type":"uint64"},{"internalType":"uint64","name":"challengePeriodEnd","type":"uint64"},{"internalType":"uint64","name":"challengeExtension","type":"uint64"},{"internalType":"address","name":"marketplace","type":"address"},{"internalType":"uint256","name":"marketplaceFee","type":"uint256"},{"internalType":"address","name":"currency","type":"address"},{"internalType":"uint16","name":"claimed","type":"uint16"},{"internalType":"int16[2]","name":"consensus","type":"int16[2]"},{"internalType":"uint16[4]","name":"split","type":"uint16[4]"},{"internalType":"uint256","name":"amount","type":"uint256"}],"internalType":"struct Escrow","name":"escrow","type":"tuple"},{"components":[{"internalType":"address","name":"arbitrator","type":"address"},{"internalType":"uint16","name":"arbitratorFee","type":"uint16"},{"internalType":"bool","name":"sellerConsensus","type":"bool"},{"internalType":"bool","name":"buyerConsensus","type":"bool"},{"internalType":"bool","name":"arbitrated","type":"bool"}],"internalType":"struct Arbitrator","name":"arbitrator","type":"tuple"},{"components":[{"internalType":"address","name":"latestSettlementOfferBy","type":"address"},{"internalType":"uint16[2]","name":"latestSettlementOffer","type":"uint16[2]"}],"internalType":"struct Settlement","name":"settlement","type":"tuple"},{"components":[{"internalType":"address","name":"address_","type":"address"},{"internalType":"uint256","name":"decimals","type":"uint256"},{"internalType":"string","name":"symbol","type":"string"}],"internalType":"struct Token","name":"token","type":"tuple"}],"internalType":"struct Data","name":"","type":"tuple"}],"stateMutability":"view","type":"function"},{"inputs":[{"internalType":"uint256","name":"escrowId","type":"uint256"}],"name":"getEscrow","outputs":[{"components":[{"internalType":"address","name":"buyer","type":"address"},{"internalType":"address","name":"seller","type":"address"},{"internalType":"uint64","name":"challengePeriodStart","type":"uint64"},{"internalType":"uint64","name":"challengePeriodEnd","type":"uint64"},{"internalType":"uint64","name":"challengeExtension","type":"uint64"},{"internalType":"address","name":"marketplace","type":"address"},{"internalType":"uint256","name":"marketplaceFee","type":"uint256"},{"internalType":"address","name":"currency","type":"address"},{"internalType":"uint16","name":"claimed","type":"uint16"},{"internalType":"int16[2]","name":"consensus","type":"int16[2]"},{"internalType":"uint16[4]","name":"split","type":"uint16[4]"},{"internalType":"uint256","name":"amount","type":"uint256"}],"internalType":"struct Escrow","name":"","type":"tuple"}],"stateMutability":"view","type":"function"},{"inputs":[],"name":"governanceAddress","outputs":[{"internalType":"address","name":"","type":"address"}],"stateMutability":"view","type":"function"},{"inputs":[{"components":[{"internalType":"address","name":"buyer","type":"address"},{"internalType":"address","name":"seller","type":"address"},{"internalType":"address","name":"marketplace","type":"address"},{"internalType":"address","name":"currency","type":"address"},{"internalType":"uint16","name":"marketplaceFee","type":"uint16"},{"internalType":"uint32","name":"challengePeriod","type":"uint32"},{"internalType":"uint32","name":"challengeExtension","type":"uint32"},{"internalType":"uint256","name":"amount","type":"uint256"}],"internalType":"struct DepositInput","name":"data","type":"tuple"},{"internalType":"address","name":"arbitrator","type":"address"},{"internalType":"uint16","name":"arbitratorFee","type":"uint16"}],"name":"pay","outputs":[],"stateMutability":"payable","type":"function"},{"inputs":[{"internalType":"uint256","name":"escrowId","type":"uint256"}],"name":"refund","outputs":[],"stateMutability":"nonpayable","type":"function"},{"inputs":[{"internalType":"uint256","name":"escrowId","type":"uint256"}],"name":"release","outputs":[],"stateMutability":"nonpayable","type":"function"},{"inputs":[{"internalType":"address","name":"to","type":"address"},{"internalType":"uint256","name":"amount","type":"uint256"},{"internalType":"address","name":"currency","type":"address"}],"name":"sendEscrowShare","outputs":[],"stateMutability":"nonpayable","type":"function"},{"inputs":[{"internalType":"uint256","name":"escrowId","type":"uint256"}],"name":"setClaimed","outputs":[],"stateMutability":"nonpayable","type":"function"},{"inputs":[{"internalType":"uint256","name":"escrowId","type":"uint256"},{"internalType":"uint16[4]","name":"split","type":"uint16[4]"},{"internalType":"int16[2]","name":"consensus","type":"int16[2]"}],"name":"settle","outputs":[],"stateMutability":"nonpayable","type":"function"},{"inputs":[{"internalType":"uint16[5]","name":"currentSplit","type":"uint16[5]"}],"name":"splitCalculation","outputs":[{"internalType":"uint16[4]","name":"","type":"uint16[4]"}],"stateMutability":"pure","type":"function"},{"inputs":[],"name":"unicrowArbitrator","outputs":[{"internalType":"contract IUnicrowArbitrator","name":"","type":"address"}],"stateMutability":"view","type":"function"},{"inputs":[],"name":"unicrowClaim","outputs":[{"internalType":"contract IUnicrowClaim","name":"","type":"address"}],"stateMutability":"view","type":"function"},{"inputs":[],"name":"unicrowDispute","outputs":[{"internalType":"contract UnicrowDispute","name":"","type":"address"}],"stateMutability":"view","type":"function"},{"inputs":[{"internalType":"uint16","name":"fee","type":"uint16"}],"name":"updateEscrowFee","outputs":[],"stateMutability":"nonpayable","type":"function"},{"inputs":[{"internalType":"address","name":"governance","type":"address"}],"name":"updateGovernance","outputs":[],"stateMutability":"nonpayable","type":"function"},{"stateMutability":"payable","type":"receive"}],"evm":{"bytecode":{"linkReferences":{},"object":"60e06040523480156200001157600080fd5b506040516200555038038062005550833981810160405281019062000037919062000163565b60016000819055508273ffffffffffffffffffffffffffffffffffffffff1660808173ffffffffffffffffffffffffffffffffffffffff1660601b815250508373ffffffffffffffffffffffffffffffffffffffff1660a08173ffffffffffffffffffffffffffffffffffffffff1660601b815250508173ffffffffffffffffffffffffffffffffffffffff1660c08173ffffffffffffffffffffffffffffffffffffffff1660601b81525050806002806101000a81548173ffffffffffffffffffffffffffffffffffffffff021916908373ffffffffffffffffffffffffffffffffffffffff1602179055506000600260006101000a81548161ffff021916908361ffff1602179055505050505062000228565b6000815190506200015d816200020e565b92915050565b6000806000806080858703121562000180576200017f62000209565b5b600062000190878288016200014c565b9450506020620001a3878288016200014c565b9350506040620001b6878288016200014c565b9250506060620001c9878288016200014c565b91505092959194509250565b6000620001e282620001e9565b9050919050565b600073ffffffffffffffffffffffffffffffffffffffff82169050919050565b600080fd5b6200021981620001d5565b81146200022557600080fd5b50565b60805160601c60a05160601c60c05160601c6152b0620002a0600039600081816104380152818161135901528181611f7c01526128870152600081816111e20152818161206701528181612c760152612d0a0152600081816112d9015281816112fd0152818161167b01526127da01526152b06000f3fe60806040526004361061010d5760003560e01c80637d19e59611610095578063b256126311610064578063b25612631461033f578063d02f411e14610368578063d25dd975146103a5578063e7aa0bd7146103e2578063e9db7d791461040b57610114565b80637d19e596146102855780637f5d4285146102c25780638b0473b4146102ed5780638ede1f051461031657610114565b806349c4920f116100dc57806349c4920f146101bf57806364166e63146101ea5780636a5b428b146102135780636a94e8fe1461023e578063795053d31461025a57610114565b80630a6b25f214610119578063278ecde11461014257806334d844d81461016b57806337bdc99b1461019657610114565b3661011457005b600080fd5b34801561012557600080fd5b50610140600480360381019061013b9190613c91565b610436565b005b34801561014e57600080fd5b5061016960048036038101906101649190613c11565b610562565b005b34801561017757600080fd5b50610180610d06565b60405161018d9190614912565b60405180910390f35b3480156101a257600080fd5b506101bd60048036038101906101b89190613c11565b610d12565b005b3480156101cb57600080fd5b506101d46112d7565b6040516101e1919061469b565b60405180910390f35b3480156101f657600080fd5b50610211600480360381019061020c9190613c3e565b6112fb565b005b34801561021f57600080fd5b50610228611408565b60405161023591906148f7565b60405180910390f35b61025860048036038101906102539190613b61565b61141c565b005b34801561026657600080fd5b5061026f611c2e565b60405161027c9190614605565b60405180910390f35b34801561029157600080fd5b506102ac60048036038101906102a79190613c11565b611c52565b6040516102b991906148b0565b60405180910390f35b3480156102ce57600080fd5b506102d7611f7a565b6040516102e491906146d1565b60405180910390f35b3480156102f957600080fd5b50610314600480360381019061030f9190613be4565b611f9e565b005b34801561032257600080fd5b5061033d60048036038101906103389190613a11565b612065565b005b34801561034b57600080fd5b50610366600480360381019061036191906139e4565b6121bc565b005b34801561037457600080fd5b5061038f600480360381019061038a9190613a64565b61225e565b60405161039c9190614680565b60405180910390f35b3480156103b157600080fd5b506103cc60048036038101906103c79190613c11565b6125b0565b6040516103d9919061488e565b60405180910390f35b3480156103ee57600080fd5b5061040960048036038101906104049190613c11565b612c74565b005b34801561041757600080fd5b50610420612d08565b60405161042d91906146b6565b60405180910390f35b7f000000000000000000000000000000000000000000000000000000000000000073ffffffffffffffffffffffffffffffffffffffff16610475612d2c565b73ffffffffffffffffffffffffffffffffffffffff161461049557600080fd5b83600360008781526020019081526020016000206007019060046104ba929190613135565b5082600360008781526020019081526020016000206006019060026104e09291906131d6565b50816003600087815260200190815260200160002060010160146101000a81548167ffffffffffffffff021916908367ffffffffffffffff160217905550806003600087815260200190815260200160002060020160006101000a81548167ffffffffffffffff021916908367ffffffffffffffff1602179055505050505050565b600260005414156105a8576040517f08c379a000000000000000000000000000000000000000000000000000000000815260040161059f9061486e565b60405180910390fd5b600260008190555060006105ba612d2c565b9050600060036000848152602001908152602001600020604051806101800160405290816000820160009054906101000a900473ffffffffffffffffffffffffffffffffffffffff1673ffffffffffffffffffffffffffffffffffffffff1673ffffffffffffffffffffffffffffffffffffffff1681526020016001820160009054906101000a900473ffffffffffffffffffffffffffffffffffffffff1673ffffffffffffffffffffffffffffffffffffffff1673ffffffffffffffffffffffffffffffffffffffff1681526020016001820160149054906101000a900467ffffffffffffffff1667ffffffffffffffff1667ffffffffffffffff1681526020016002820160009054906101000a900467ffffffffffffffff1667ffffffffffffffff1667ffffffffffffffff1681526020016002820160089054906101000a900467ffffffffffffffff1667ffffffffffffffff1667ffffffffffffffff1681526020016003820160009054906101000a900473ffffffffffffffffffffffffffffffffffffffff1673ffffffffffffffffffffffffffffffffffffffff1673ffffffffffffffffffffffffffffffffffffffff168152602001600482015481526020016005820160009054906101000a900473ffffffffffffffffffffffffffffffffffffffff1673ffffffffffffffffffffffffffffffffffffffff1673ffffffffffffffffffffffffffffffffffffffff1681526020016005820160149054906101000a900461ffff1661ffff1661ffff16815260200160068201600280602002604051908101604052809291908260028015610857576020028201916000905b82829054906101000a900460010b60010b815260200190600201906020826001010492830192600103820291508084116108205790505b50505050508152602001600782016004806020026040519081016040528092919082600480156108c4576020028201916000905b82829054906101000a900461ffff1661ffff168152602001906002019060208260010104928301926001038202915080841161088b5790505b505050505081526020016008820154815250509050806020015173ffffffffffffffffffffffffffffffffffffffff168273ffffffffffffffffffffffffffffffffffffffff161461094b576040517f08c379a00000000000000000000000000000000000000000000000000000000081526004016109429061470e565b60405180910390fd5b600081610100015161ffff1614610997576040517f08c379a000000000000000000000000000000000000000000000000000000000815260040161098e906147ce565b60405180910390fd5b612710816101400151600060ff16600481106109b6576109b5614f0c565b5b602002019061ffff16908161ffff16815250506000816101400151600160ff16600481106109e7576109e6614f0c565b5b602002019061ffff16908161ffff16815250506000816101400151600260ff1660048110610a1857610a17614f0c565b5b602002019061ffff16908161ffff16815250506000816101400151600360ff1660048110610a4957610a48614f0c565b5b602002019061ffff16908161ffff16815250506001610a87826101200151600060ff1660028110610a7d57610a7c614f0c565b5b6020020151612d34565b610a919190614b98565b816101200151600060ff1660028110610aad57610aac614f0c565b5b602002019060010b908160010b81525050610ae7816101200151600160ff1660028110610add57610adc614f0c565b5b6020020151612d34565b816101200151600160ff1660028110610b0357610b02614f0c565b5b602002019060010b908160010b8152505080610140015160036000858152602001908152602001600020600701906004610b3e929190613279565b5080610120015160036000858152602001908152602001600020600601906002610b69929190613316565b50600073ffffffffffffffffffffffffffffffffffffffff168160e0015173ffffffffffffffffffffffffffffffffffffffff161415610c5e576000816000015173ffffffffffffffffffffffffffffffffffffffff16826101600151604051610bd2906145f0565b60006040518083038185875af1925050503d8060008114610c0f576040519150601f19603f3d011682016040523d82523d6000602084013e610c14565b606091505b5050905080610c58576040517f08c379a0000000000000000000000000000000000000000000000000000000008152600401610c4f906147ee565b60405180910390fd5b50610c77565b610c768160e001518260000151836101600151612d59565b5b60016003600085815260200190815260200160002060050160146101000a81548161ffff021916908361ffff160217905550600181610100019061ffff16908161ffff1681525050827f3040cdfc2f24dfafd209ef0ccc47490fdae241f1a1785243988b61e296c5a9088242604051610cf19291906148cc565b60405180910390a25050600160008190555050565b60018060000154905081565b60026000541415610d58576040517f08c379a0000000000000000000000000000000000000000000000000000000008152600401610d4f9061486e565b60405180910390fd5b60026000819055506000610d6a612d2c565b9050600060036000848152602001908152602001600020604051806101800160405290816000820160009054906101000a900473ffffffffffffffffffffffffffffffffffffffff1673ffffffffffffffffffffffffffffffffffffffff1673ffffffffffffffffffffffffffffffffffffffff1681526020016001820160009054906101000a900473ffffffffffffffffffffffffffffffffffffffff1673ffffffffffffffffffffffffffffffffffffffff1673ffffffffffffffffffffffffffffffffffffffff1681526020016001820160149054906101000a900467ffffffffffffffff1667ffffffffffffffff1667ffffffffffffffff1681526020016002820160009054906101000a900467ffffffffffffffff1667ffffffffffffffff1667ffffffffffffffff1681526020016002820160089054906101000a900467ffffffffffffffff1667ffffffffffffffff1667ffffffffffffffff1681526020016003820160009054906101000a900473ffffffffffffffffffffffffffffffffffffffff1673ffffffffffffffffffffffffffffffffffffffff1673ffffffffffffffffffffffffffffffffffffffff168152602001600482015481526020016005820160009054906101000a900473ffffffffffffffffffffffffffffffffffffffff1673ffffffffffffffffffffffffffffffffffffffff1673ffffffffffffffffffffffffffffffffffffffff1681526020016005820160149054906101000a900461ffff1661ffff1661ffff16815260200160068201600280602002604051908101604052809291908260028015611007576020028201916000905b82829054906101000a900460010b60010b81526020019060020190602082600101049283019260010382029150808411610fd05790505b5050505050815260200160078201600480602002604051908101604052809291908260048015611074576020028201916000905b82829054906101000a900461ffff1661ffff168152602001906002019060208260010104928301926001038202915080841161103b5790505b505050505081526020016008820154815250509050806000015173ffffffffffffffffffffffffffffffffffffffff168273ffffffffffffffffffffffffffffffffffffffff16146110fb576040517f08c379a00000000000000000000000000000000000000000000000000000000081526004016110f29061474e565b60405180910390fd5b6001611126826101200151600060ff166002811061111c5761111b614f0c565b5b6020020151612d34565b6111309190614b98565b816101200151600060ff166002811061114c5761114b614f0c565b5b602002019060010b908160010b81525050611186816101200151600160ff166002811061117c5761117b614f0c565b5b6020020151612d34565b816101200151600160ff16600281106111a2576111a1614f0c565b5b602002019060010b908160010b81525050806101200151600360008581526020019081526020016000206006019060026111dd929190613316565b5060007f000000000000000000000000000000000000000000000000000000000000000073ffffffffffffffffffffffffffffffffffffffff1663b34291a6856040518263ffffffff1660e01b81526004016112399190614912565b60a060405180830381600087803b15801561125357600080fd5b505af1158015611267573d6000803e3d6000fd5b505050506040513d601f19601f8201168201806040525081019061128b9190613a91565b9050837fcee8f1bc520aab5c898f5422f832f8a47ae3030ce2b380afe2bb849a0fd10f3f4284846040516112c1939291906149bb565b60405180910390a2505050600160008190555050565b7f000000000000000000000000000000000000000000000000000000000000000081565b7f000000000000000000000000000000000000000000000000000000000000000073ffffffffffffffffffffffffffffffffffffffff1661133a612d2c565b73ffffffffffffffffffffffffffffffffffffffff1614806113ae57507f000000000000000000000000000000000000000000000000000000000000000073ffffffffffffffffffffffffffffffffffffffff16611396612d2c565b73ffffffffffffffffffffffffffffffffffffffff16145b6113b757600080fd5b81600360008581526020019081526020016000206007019060046113dc929190613135565b5080600360008581526020019081526020016000206006019060026114029291906131d6565b50505050565b600260009054906101000a900461ffff1681565b60026000541415611462576040517f08c379a00000000000000000000000000000000000000000000000000000000081526004016114599061486e565b60405180910390fd5b600260008190555060006114766001612ddf565b90506000611482612d2c565b9050600073ffffffffffffffffffffffffffffffffffffffff166003600084815260200190815260200160002060000160009054906101000a900473ffffffffffffffffffffffffffffffffffffffff1673ffffffffffffffffffffffffffffffffffffffff1614611529576040517f08c379a00000000000000000000000000000000000000000000000000000000081526004016115209061476e565b60405180910390fd5b600073ffffffffffffffffffffffffffffffffffffffff1685602001602081019061155491906139e4565b73ffffffffffffffffffffffffffffffffffffffff1614156115ab576040517f08c379a00000000000000000000000000000000000000000000000000000000081526004016115a29061484e565b60405180910390fd5b8460200160208101906115be91906139e4565b73ffffffffffffffffffffffffffffffffffffffff168173ffffffffffffffffffffffffffffffffffffffff16141561162c576040517f08c379a00000000000000000000000000000000000000000000000000000000081526004016116239061478e565b60405180910390fd5b6000341461164557348560e001351461164457600080fd5b5b600073ffffffffffffffffffffffffffffffffffffffff168473ffffffffffffffffffffffffffffffffffffffff1614611709577f000000000000000000000000000000000000000000000000000000000000000073ffffffffffffffffffffffffffffffffffffffff16632ea8eddd8386866040518463ffffffff1660e01b81526004016116d69392919061492d565b600060405180830381600087803b1580156116f057600080fd5b505af1158015611704573d6000803e3d6000fd5b505050505b6000600260009054906101000a900461ffff16905060006040518060800160405280600061ffff16815260200161271061ffff1681526020018860800160208101906117559190613be4565b61ffff1661ffff1681526020018361ffff1661ffff16815250905060006040518060400160405280600060010b60010b81526020016001800b60010b815250905060006040518061018001604052808673ffffffffffffffffffffffffffffffffffffffff1681526020018a60200160208101906117d391906139e4565b73ffffffffffffffffffffffffffffffffffffffff1681526020014267ffffffffffffffff1681526020018a60a00160208101906118119190613d0e565b63ffffffff16426118229190614c0e565b67ffffffffffffffff16815260200160008b60c00160208101906118469190613d0e565b63ffffffff1611611869578a60a00160208101906118649190613d0e565b61187d565b8a60c001602081019061187c9190613d0e565b5b63ffffffff1667ffffffffffffffff1681526020018a60400160208101906118a591906139e4565b73ffffffffffffffffffffffffffffffffffffffff1681526020018a60800160208101906118d39190613be4565b61ffff1681526020018a60600160208101906118ef91906139e4565b73ffffffffffffffffffffffffffffffffffffffff168152602001600061ffff1681526020018381526020018481526020018a60e001358152509050600073ffffffffffffffffffffffffffffffffffffffff1689606001602081019061195691906139e4565b73ffffffffffffffffffffffffffffffffffffffff16146119945761199389606001602081019061198791906139e4565b86308c60e00135612ded565b5b806003600088815260200190815260200160002060008201518160000160006101000a81548173ffffffffffffffffffffffffffffffffffffffff021916908373ffffffffffffffffffffffffffffffffffffffff16021790555060208201518160010160006101000a81548173ffffffffffffffffffffffffffffffffffffffff021916908373ffffffffffffffffffffffffffffffffffffffff16021790555060408201518160010160146101000a81548167ffffffffffffffff021916908367ffffffffffffffff16021790555060608201518160020160006101000a81548167ffffffffffffffff021916908367ffffffffffffffff16021790555060808201518160020160086101000a81548167ffffffffffffffff021916908367ffffffffffffffff16021790555060a08201518160030160006101000a81548173ffffffffffffffffffffffffffffffffffffffff021916908373ffffffffffffffffffffffffffffffffffffffff16021790555060c0820151816004015560e08201518160050160006101000a81548173ffffffffffffffffffffffffffffffffffffffff021916908373ffffffffffffffffffffffffffffffffffffffff1602179055506101008201518160050160146101000a81548161ffff021916908361ffff16021790555061012082015181600601906002611b97929190613316565b5061014082015181600701906004611bb0929190613279565b506101608201518160080155905050611bc96001612e76565b857f71d560f85948b6d530d753b205401bc1830f037c665c4ddab459556547fa554142838b8b8e60a0016020810190611c029190613d0e565b604051611c13959493929190614964565b60405180910390a25050505050506001600081905550505050565b60028054906101000a900473ffffffffffffffffffffffffffffffffffffffff1681565b611c5a6133b6565b60036000838152602001908152602001600020604051806101800160405290816000820160009054906101000a900473ffffffffffffffffffffffffffffffffffffffff1673ffffffffffffffffffffffffffffffffffffffff1673ffffffffffffffffffffffffffffffffffffffff1681526020016001820160009054906101000a900473ffffffffffffffffffffffffffffffffffffffff1673ffffffffffffffffffffffffffffffffffffffff1673ffffffffffffffffffffffffffffffffffffffff1681526020016001820160149054906101000a900467ffffffffffffffff1667ffffffffffffffff1667ffffffffffffffff1681526020016002820160009054906101000a900467ffffffffffffffff1667ffffffffffffffff1667ffffffffffffffff1681526020016002820160089054906101000a900467ffffffffffffffff1667ffffffffffffffff1667ffffffffffffffff1681526020016003820160009054906101000a900473ffffffffffffffffffffffffffffffffffffffff1673ffffffffffffffffffffffffffffffffffffffff1673ffffffffffffffffffffffffffffffffffffffff168152602001600482015481526020016005820160009054906101000a900473ffffffffffffffffffffffffffffffffffffffff1673ffffffffffffffffffffffffffffffffffffffff1673ffffffffffffffffffffffffffffffffffffffff1681526020016005820160149054906101000a900461ffff1661ffff1661ffff16815260200160068201600280602002604051908101604052809291908260028015611ef3576020028201916000905b82829054906101000a900460010b60010b81526020019060020190602082600101049283019260010382029150808411611ebc5790505b5050505050815260200160078201600480602002604051908101604052809291908260048015611f60576020028201916000905b82829054906101000a900461ffff1661ffff1681526020019060020190602082600101049283019260010382029150808411611f275790505b505050505081526020016008820154815250509050919050565b7f000000000000000000000000000000000000000000000000000000000000000081565b60028054906101000a900473ffffffffffffffffffffffffffffffffffffffff1673ffffffffffffffffffffffffffffffffffffffff16611fdd612d2c565b73ffffffffffffffffffffffffffffffffffffffff1614611ffd57600080fd5b60648161ffff161115612045576040517f08c379a000000000000000000000000000000000000000000000000000000000815260040161203c9061472e565b60405180910390fd5b80600260006101000a81548161ffff021916908361ffff16021790555050565b7f000000000000000000000000000000000000000000000000000000000000000073ffffffffffffffffffffffffffffffffffffffff166120a4612d2c565b73ffffffffffffffffffffffffffffffffffffffff16146120c457600080fd5b600073ffffffffffffffffffffffffffffffffffffffff168173ffffffffffffffffffffffffffffffffffffffff1614156121ab5760008373ffffffffffffffffffffffffffffffffffffffff168360405161211f906145f0565b60006040518083038185875af1925050503d806000811461215c576040519150601f19603f3d011682016040523d82523d6000602084013e612161565b606091505b50509050806121a5576040517f08c379a000000000000000000000000000000000000000000000000000000000815260040161219c906147ee565b60405180910390fd5b506121b7565b6121b6818484612d59565b5b505050565b60028054906101000a900473ffffffffffffffffffffffffffffffffffffffff1673ffffffffffffffffffffffffffffffffffffffff166121fb612d2c565b73ffffffffffffffffffffffffffffffffffffffff161461221b57600080fd5b806002806101000a81548173ffffffffffffffffffffffffffffffffffffffff021916908373ffffffffffffffffffffffffffffffffffffffff16021790555050565b61226661349d565b61226e61349d565b60008084600360ff166005811061228857612287614f0c565b5b60200201602081019061229b9190613be4565b61ffff1611156123555761232a61271061ffff1661231c86600160ff16600581106122c9576122c8614f0c565b5b6020020160208101906122dc9190613be4565b61ffff1687600360ff16600581106122f7576122f6614f0c565b5b60200201602081019061230a9190613be4565b61ffff16612e8c90919063ffffffff16565b612ea290919063ffffffff16565b82600360ff166004811061234157612340614f0c565b5b602002019061ffff16908161ffff16815250505b600084600260ff166005811061236e5761236d614f0c565b5b6020020160208101906123819190613be4565b61ffff16111561243b5761241061271061ffff1661240286600160ff16600581106123af576123ae614f0c565b5b6020020160208101906123c29190613be4565b61ffff1687600260ff16600581106123dd576123dc614f0c565b5b6020020160208101906123f09190613be4565b61ffff16612e8c90919063ffffffff16565b612ea290919063ffffffff16565b82600260ff166004811061242757612426614f0c565b5b602002019061ffff16908161ffff16815250505b6124c061271061ffff166124b286600160ff166005811061245f5761245e614f0c565b5b6020020160208101906124729190613be4565b61ffff1687600460ff166005811061248d5761248c614f0c565b5b6020020160208101906124a09190613be4565b61ffff16612e8c90919063ffffffff16565b612ea290919063ffffffff16565b90508082600260ff16600481106124da576124d9614f0c565b5b602002015183600360ff16600481106124f6576124f5614f0c565b5b602002015186600160ff166005811061251257612511614f0c565b5b6020020160208101906125259190613be4565b03030382600160ff166004811061253f5761253e614f0c565b5b602002019061ffff16908161ffff168152505083600060ff166005811061256957612568614f0c565b5b60200201602081019061257c9190613be4565b82600060ff166004811061259357612592614f0c565b5b602002019061ffff16908161ffff16815250508192505050919050565b6125b86134bf565b60006003600084815260200190815260200160002060050160009054906101000a900473ffffffffffffffffffffffffffffffffffffffff169050600060405180606001604052808373ffffffffffffffffffffffffffffffffffffffff168152602001600073ffffffffffffffffffffffffffffffffffffffff168473ffffffffffffffffffffffffffffffffffffffff16146126d3578373ffffffffffffffffffffffffffffffffffffffff1663313ce5676040518163ffffffff1660e01b815260040160206040518083038186803b15801561269657600080fd5b505afa1580156126aa573d6000803e3d6000fd5b505050506040513d601f19601f820116820180604052508101906126ce9190613d3b565b6126d6565b60125b60ff168152602001600073ffffffffffffffffffffffffffffffffffffffff168473ffffffffffffffffffffffffffffffffffffffff161461279a578373ffffffffffffffffffffffffffffffffffffffff166395d89b416040518163ffffffff1660e01b815260040160006040518083038186803b15801561275857600080fd5b505afa15801561276c573d6000803e3d6000fd5b505050506040513d6000823e3d601f19601f820116820180604052508101906127959190613aeb565b6127d1565b6040518060400160405280600381526020017f45544800000000000000000000000000000000000000000000000000000000008152505b815250905060007f000000000000000000000000000000000000000000000000000000000000000073ffffffffffffffffffffffffffffffffffffffff166316e0551b866040518263ffffffff1660e01b81526004016128319190614912565b60a06040518083038186803b15801561284957600080fd5b505afa15801561285d573d6000803e3d6000fd5b505050506040513d601f19601f820116820180604052508101906128819190613b34565b905060007f000000000000000000000000000000000000000000000000000000000000000073ffffffffffffffffffffffffffffffffffffffff1663fe5e2969876040518263ffffffff1660e01b81526004016128de9190614912565b60606040518083038186803b1580156128f657600080fd5b505afa15801561290a573d6000803e3d6000fd5b505050506040513d601f19601f8201168201806040525081019061292e9190613bb7565b9050604051806080016040528060036000898152602001908152602001600020604051806101800160405290816000820160009054906101000a900473ffffffffffffffffffffffffffffffffffffffff1673ffffffffffffffffffffffffffffffffffffffff1673ffffffffffffffffffffffffffffffffffffffff1681526020016001820160009054906101000a900473ffffffffffffffffffffffffffffffffffffffff1673ffffffffffffffffffffffffffffffffffffffff1673ffffffffffffffffffffffffffffffffffffffff1681526020016001820160149054906101000a900467ffffffffffffffff1667ffffffffffffffff1667ffffffffffffffff1681526020016002820160009054906101000a900467ffffffffffffffff1667ffffffffffffffff1667ffffffffffffffff1681526020016002820160089054906101000a900467ffffffffffffffff1667ffffffffffffffff1667ffffffffffffffff1681526020016003820160009054906101000a900473ffffffffffffffffffffffffffffffffffffffff1673ffffffffffffffffffffffffffffffffffffffff1673ffffffffffffffffffffffffffffffffffffffff168152602001600482015481526020016005820160009054906101000a900473ffffffffffffffffffffffffffffffffffffffff1673ffffffffffffffffffffffffffffffffffffffff1673ffffffffffffffffffffffffffffffffffffffff1681526020016005820160149054906101000a900461ffff1661ffff1661ffff16815260200160068201600280602002604051908101604052809291908260028015612bd4576020028201916000905b82829054906101000a900460010b60010b81526020019060020190602082600101049283019260010382029150808411612b9d5790505b5050505050815260200160078201600480602002604051908101604052809291908260048015612c41576020028201916000905b82829054906101000a900461ffff1661ffff1681526020019060020190602082600101049283019260010382029150808411612c085790505b50505050508152602001600882015481525050815260200183815260200182815260200184815250945050505050919050565b7f000000000000000000000000000000000000000000000000000000000000000073ffffffffffffffffffffffffffffffffffffffff16612cb3612d2c565b73ffffffffffffffffffffffffffffffffffffffff1614612cd357600080fd5b60016003600083815260200190815260200160002060050160146101000a81548161ffff021916908361ffff16021790555050565b7f000000000000000000000000000000000000000000000000000000000000000081565b600033905090565b6000808260010b1215612d505781612d4b90614e65565b612d52565b815b9050919050565b612dda8363a9059cbb60e01b8484604051602401612d78929190614657565b604051602081830303815290604052907bffffffffffffffffffffffffffffffffffffffffffffffffffffffff19166020820180517bffffffffffffffffffffffffffffffffffffffffffffffffffffffff8381831617835250505050612eb8565b505050565b600081600001549050919050565b612e70846323b872dd60e01b858585604051602401612e0e93929190614620565b604051602081830303815290604052907bffffffffffffffffffffffffffffffffffffffffffffffffffffffff19166020820180517bffffffffffffffffffffffffffffffffffffffffffffffffffffffff8381831617835250505050612eb8565b50505050565b6001816000016000828254019250508190555050565b60008183612e9a9190614c95565b905092915050565b60008183612eb09190614c64565b905092915050565b6000612f1a826040518060400160405280602081526020017f5361666545524332303a206c6f772d6c6576656c2063616c6c206661696c65648152508573ffffffffffffffffffffffffffffffffffffffff16612f7f9092919063ffffffff16565b9050600081511115612f7a5780806020019051810190612f3a9190613abe565b612f79576040517f08c379a0000000000000000000000000000000000000000000000000000000008152600401612f709061482e565b60405180910390fd5b5b505050565b6060612f8e8484600085612f97565b90509392505050565b606082471015612fdc576040517f08c379a0000000000000000000000000000000000000000000000000000000008152600401612fd3906147ae565b60405180910390fd5b612fe5856130ab565b613024576040517f08c379a000000000000000000000000000000000000000000000000000000000815260040161301b9061480e565b60405180910390fd5b6000808673ffffffffffffffffffffffffffffffffffffffff16858760405161304d91906145d9565b60006040518083038185875af1925050503d806000811461308a576040519150601f19603f3d011682016040523d82523d6000602084013e61308f565b606091505b509150915061309f8282866130ce565b92505050949350505050565b6000808273ffffffffffffffffffffffffffffffffffffffff163b119050919050565b606083156130de5782905061312e565b6000835111156130f15782518084602001fd5b816040517f08c379a000000000000000000000000000000000000000000000000000000000815260040161312591906146ec565b60405180910390fd5b9392505050565b826004600f016010900481019282156131c55791602002820160005b8382111561319557833561ffff1683826101000a81548161ffff021916908361ffff1602179055509260200192600201602081600101049283019260010302613151565b80156131c35782816101000a81549061ffff0219169055600201602081600101049283019260010302613195565b505b5090506131d291906134ff565b5090565b826002600f016010900481019282156132685791602002820160005b8382111561323857833560010b83826101000a81548161ffff021916908360010b61ffff16021790555092602001926002016020816001010492830192600103026131f2565b80156132665782816101000a81549061ffff0219169055600201602081600101049283019260010302613238565b505b50905061327591906134ff565b5090565b826004600f016010900481019282156133055791602002820160005b838211156132d557835183826101000a81548161ffff021916908361ffff1602179055509260200192600201602081600101049283019260010302613295565b80156133035782816101000a81549061ffff02191690556002016020816001010492830192600103026132d5565b505b50905061331291906134ff565b5090565b826002600f016010900481019282156133a55791602002820160005b8382111561337557835183826101000a81548161ffff021916908360010b61ffff1602179055509260200192600201602081600101049283019260010302613332565b80156133a35782816101000a81549061ffff0219169055600201602081600101049283019260010302613375565b505b5090506133b291906134ff565b5090565b604051806101800160405280600073ffffffffffffffffffffffffffffffffffffffff168152602001600073ffffffffffffffffffffffffffffffffffffffff168152602001600067ffffffffffffffff168152602001600067ffffffffffffffff168152602001600067ffffffffffffffff168152602001600073ffffffffffffffffffffffffffffffffffffffff16815260200160008152602001600073ffffffffffffffffffffffffffffffffffffffff168152602001600061ffff16815260200161348361351c565b815260200161349061349d565b8152602001600081525090565b6040518060800160405280600490602082028036833780820191505090505090565b60405180608001604052806134d26133b6565b81526020016134df61353e565b81526020016134ec61358d565b81526020016134f96135c3565b81525090565b5b80821115613518576000816000905550600101613500565b5090565b6040518060400160405280600290602082028036833780820191505090505090565b6040518060a00160405280600073ffffffffffffffffffffffffffffffffffffffff168152602001600061ffff1681526020016000151581526020016000151581526020016000151581525090565b6040518060400160405280600073ffffffffffffffffffffffffffffffffffffffff1681526020016135bd6135fa565b81525090565b6040518060600160405280600073ffffffffffffffffffffffffffffffffffffffff16815260200160008152602001606081525090565b6040518060400160405280600290602082028036833780820191505090505090565b600061362f61362a84614a19565b6149f4565b9050808285602086028201111561364957613648614f79565b5b60005b85811015613679578161365f8882613966565b84526020840193506020830192505060018101905061364c565b5050509392505050565b600061369661369184614a3f565b6149f4565b905080828560208602820111156136b0576136af614f79565b5b60005b858110156136e057816136c68882613990565b8452602084019350602083019250506001810190506136b3565b5050509392505050565b60006136fd6136f884614a65565b6149f4565b90508281526020810184848401111561371957613718614f7e565b5b613724848285614e01565b509392505050565b60008135905061373b816151d9565b92915050565b600081519050613750816151d9565b92915050565b60008190508260206002028201111561377257613771614f79565b5b92915050565b600082601f83011261378d5761378c614f6a565b5b600261379a84828561361c565b91505092915050565b6000819050826020600402820111156137bf576137be614f79565b5b92915050565b6000819050826020600502820111156137e1576137e0614f79565b5b92915050565b600082601f8301126137fc576137fb614f6a565b5b6005613809848285613683565b91505092915050565b600081519050613821816151f0565b92915050565b600082601f83011261383c5761383b614f6a565b5b815161384c8482602086016136ea565b91505092915050565b600060a0828403121561386b5761386a614f74565b5b61387560a06149f4565b9050600061388584828501613741565b600083015250602061389984828501613966565b60208301525060406138ad84828501613812565b60408301525060606138c184828501613812565b60608301525060806138d584828501613812565b60808301525092915050565b600061010082840312156138f8576138f7614f6f565b5b81905092915050565b60006060828403121561391757613916614f74565b5b61392160406149f4565b9050600061393184828501613741565b600083015250602061394584828501613778565b60208301525092915050565b60008135905061396081615207565b92915050565b60008151905061397581615207565b92915050565b60008135905061398a8161521e565b92915050565b60008151905061399f8161521e565b92915050565b6000813590506139b481615235565b92915050565b6000813590506139c98161524c565b92915050565b6000815190506139de81615263565b92915050565b6000602082840312156139fa576139f9614f88565b5b6000613a088482850161372c565b91505092915050565b600080600060608486031215613a2a57613a29614f88565b5b6000613a388682870161372c565b9350506020613a498682870161397b565b9250506040613a5a8682870161372c565b9150509250925092565b600060a08284031215613a7a57613a79614f88565b5b6000613a88848285016137c5565b91505092915050565b600060a08284031215613aa757613aa6614f88565b5b6000613ab5848285016137e7565b91505092915050565b600060208284031215613ad457613ad3614f88565b5b6000613ae284828501613812565b91505092915050565b600060208284031215613b0157613b00614f88565b5b600082015167ffffffffffffffff811115613b1f57613b1e614f83565b5b613b2b84828501613827565b91505092915050565b600060a08284031215613b4a57613b49614f88565b5b6000613b5884828501613855565b91505092915050565b60008060006101408486031215613b7b57613b7a614f88565b5b6000613b89868287016138e1565b935050610100613b9b8682870161372c565b925050610120613bad86828701613951565b9150509250925092565b600060608284031215613bcd57613bcc614f88565b5b6000613bdb84828501613901565b91505092915050565b600060208284031215613bfa57613bf9614f88565b5b6000613c0884828501613951565b91505092915050565b600060208284031215613c2757613c26614f88565b5b6000613c358482850161397b565b91505092915050565b600080600060e08486031215613c5757613c56614f88565b5b6000613c658682870161397b565b9350506020613c76868287016137a3565b92505060a0613c8786828701613756565b9150509250925092565b60008060008060006101208688031215613cae57613cad614f88565b5b6000613cbc8882890161397b565b9550506020613ccd888289016137a3565b94505060a0613cde88828901613756565b93505060e0613cef888289016139ba565b925050610100613d01888289016139ba565b9150509295509295909350565b600060208284031215613d2457613d23614f88565b5b6000613d32848285016139a5565b91505092915050565b600060208284031215613d5157613d50614f88565b5b6000613d5f848285016139cf565b91505092915050565b6000613d748383613fee565b60208301905092915050565b6000613d8c8383614570565b60208301905092915050565b6000613da4838361459d565b60208301905092915050565b613db981614cef565b82525050565b613dc881614cef565b82525050565b613dd781614abe565b613de18184614b34565b9250613dec82614a96565b8060005b83811015613e1d578151613e048782613d68565b9650613e0f83614b00565b925050600181019050613df0565b505050505050565b613e2e81614ac9565b613e388184614b3f565b9250613e4382614aa0565b8060005b83811015613e74578151613e5b8782613d80565b9650613e6683614b0d565b925050600181019050613e47565b505050505050565b613e8581614ad4565b613e8f8184614b4a565b9250613e9a82614aaa565b8060005b83811015613ecb578151613eb28782613d80565b9650613ebd83614b1a565b925050600181019050613e9e565b505050505050565b613edc81614ad4565b613ee68184614b55565b9250613ef182614aaa565b8060005b83811015613f22578151613f098782613d80565b9650613f1483614b1a565b925050600181019050613ef5565b505050505050565b613f3381614adf565b613f3d8184614b60565b9250613f4882614ab4565b8060005b83811015613f79578151613f608782613d98565b9650613f6b83614b27565b925050600181019050613f4c565b505050505050565b613f8a81614d01565b82525050565b6000613f9b82614aea565b613fa58185614b6b565b9350613fb5818560208601614e01565b80840191505092915050565b613fca81614d83565b82525050565b613fd981614d95565b82525050565b613fe881614da7565b82525050565b613ff781614d0d565b82525050565b600061400882614af5565b6140128185614b76565b9350614022818560208601614e01565b61402b81614f8d565b840191505092915050565b600061404182614af5565b61404b8185614b87565b935061405b818560208601614e01565b61406481614f8d565b840191505092915050565b600061407c600583614b87565b915061408782614f9e565b602082019050919050565b600061409f600583614b87565b91506140aa82614fc7565b602082019050919050565b60006140c2600583614b87565b91506140cd82614ff0565b602082019050919050565b60006140e5600583614b87565b91506140f082615019565b602082019050919050565b6000614108600583614b87565b915061411382615042565b602082019050919050565b600061412b602683614b87565b91506141368261506b565b604082019050919050565b600061414e600583614b87565b9150614159826150ba565b602082019050919050565b6000614171600083614b6b565b915061417c826150e3565b600082019050919050565b6000614194600583614b87565b915061419f826150e6565b602082019050919050565b60006141b7601d83614b87565b91506141c28261510f565b602082019050919050565b60006141da602a83614b87565b91506141e582615138565b604082019050919050565b60006141fd600583614b87565b915061420882615187565b602082019050919050565b6000614220601f83614b87565b915061422b826151b0565b602082019050919050565b60a08201600082015161424c6000850182613db0565b50602082015161425f6020850182614570565b5060408201516142726040850182613f81565b5060608201516142856060850182613f81565b5060808201516142986080850182613f81565b50505050565b6000610320830160008301516142b76000860182614305565b5060208301516142cb610200860182614236565b5060408301516142df6102a08601826144f1565b5060608301518482036103008601526142f88282614520565b9150508091505092915050565b6102008201600082015161431c6000850182613db0565b50602082015161432f6020850182613db0565b50604082015161434260408501826145ca565b50606082015161435560608501826145ca565b50608082015161436860808501826145ca565b5060a082015161437b60a0850182613db0565b5060c082015161438e60c085018261459d565b5060e08201516143a160e0850182613db0565b506101008201516143b6610100850182614570565b506101208201516143cb610120850182613dce565b506101408201516143e0610160850182613e7c565b506101608201516143f56101e085018261459d565b50505050565b610200820160008201516144126000850182613db0565b5060208201516144256020850182613db0565b50604082015161443860408501826145ca565b50606082015161444b60608501826145ca565b50608082015161445e60808501826145ca565b5060a082015161447160a0850182613db0565b5060c082015161448460c085018261459d565b5060e082015161449760e0850182613db0565b506101008201516144ac610100850182614570565b506101208201516144c1610120850182613dce565b506101408201516144d6610160850182613e7c565b506101608201516144eb6101e085018261459d565b50505050565b6060820160008201516145076000850182613db0565b50602082015161451a6020850182613e25565b50505050565b60006060830160008301516145386000860182613db0565b50602083015161454b602086018261459d565b50604083015184820360408601526145638282613ffd565b9150508091505092915050565b61457981614d1a565b82525050565b61458881614d1a565b82525050565b61459781614ddd565b82525050565b6145a681614d48565b82525050565b6145b581614d48565b82525050565b6145c481614def565b82525050565b6145d381614d62565b82525050565b60006145e58284613f90565b915081905092915050565b60006145fb82614164565b9150819050919050565b600060208201905061461a6000830184613dbf565b92915050565b60006060820190506146356000830186613dbf565b6146426020830185613dbf565b61464f60408301846145ac565b949350505050565b600060408201905061466c6000830185613dbf565b61467960208301846145ac565b9392505050565b60006080820190506146956000830184613ed3565b92915050565b60006020820190506146b06000830184613fc1565b92915050565b60006020820190506146cb6000830184613fd0565b92915050565b60006020820190506146e66000830184613fdf565b92915050565b600060208201905081810360008301526147068184614036565b905092915050565b600060208201905081810360008301526147278161406f565b9050919050565b6000602082019050818103600083015261474781614092565b9050919050565b60006020820190508181036000830152614767816140b5565b9050919050565b60006020820190508181036000830152614787816140d8565b9050919050565b600060208201905081810360008301526147a7816140fb565b9050919050565b600060208201905081810360008301526147c78161411e565b9050919050565b600060208201905081810360008301526147e781614141565b9050919050565b6000602082019050818103600083015261480781614187565b9050919050565b60006020820190508181036000830152614827816141aa565b9050919050565b60006020820190508181036000830152614847816141cd565b9050919050565b60006020820190508181036000830152614867816141f0565b9050919050565b6000602082019050818103600083015261488781614213565b9050919050565b600060208201905081810360008301526148a8818461429e565b905092915050565b6000610200820190506148c660008301846143fb565b92915050565b6000610220820190506148e260008301856143fb565b6148f06102008301846145ac565b9392505050565b600060208201905061490c600083018461457f565b92915050565b600060208201905061492760008301846145ac565b92915050565b600060608201905061494260008301866145ac565b61494f6020830185613dbf565b61495c604083018461457f565b949350505050565b60006102808201905061497a60008301886145ac565b61498760208301876143fb565b614995610220830186613dbf565b6149a361024083018561458e565b6149b16102608301846145bb565b9695505050505050565b60006102c0820190506149d160008301866145ac565b6149de60208301856143fb565b6149ec610220830184613f2a565b949350505050565b60006149fe614a0f565b9050614a0a8282614e34565b919050565b6000604051905090565b600067ffffffffffffffff821115614a3457614a33614f3b565b5b602082029050919050565b600067ffffffffffffffff821115614a5a57614a59614f3b565b5b602082029050919050565b600067ffffffffffffffff821115614a8057614a7f614f3b565b5b614a8982614f8d565b9050602081019050919050565b6000819050919050565b6000819050919050565b6000819050919050565b6000819050919050565b600060029050919050565b600060029050919050565b600060049050919050565b600060059050919050565b600081519050919050565b600081519050919050565b6000602082019050919050565b6000602082019050919050565b6000602082019050919050565b6000602082019050919050565b600081905092915050565b600081905092915050565b600081905092915050565b600081905092915050565b600081905092915050565b600081905092915050565b600082825260208201905092915050565b600082825260208201905092915050565b6000614ba382614d0d565b9150614bae83614d0d565b925081617fff03831360008312151615614bcb57614bca614eae565b5b817fffffffffffffffffffffffffffffffffffffffffffffffffffffffffffff8000038312600083121615614c0357614c02614eae565b5b828201905092915050565b6000614c1982614d48565b9150614c2483614d48565b9250827fffffffffffffffffffffffffffffffffffffffffffffffffffffffffffffffff03821115614c5957614c58614eae565b5b828201905092915050565b6000614c6f82614d48565b9150614c7a83614d48565b925082614c8a57614c89614edd565b5b828204905092915050565b6000614ca082614d48565b9150614cab83614d48565b9250817fffffffffffffffffffffffffffffffffffffffffffffffffffffffffffffffff0483118215151615614ce457614ce3614eae565b5b828202905092915050565b6000614cfa82614d28565b9050919050565b60008115159050919050565b60008160010b9050919050565b600061ffff82169050919050565b600073ffffffffffffffffffffffffffffffffffffffff82169050919050565b6000819050919050565b600063ffffffff82169050919050565b600067ffffffffffffffff82169050919050565b600060ff82169050919050565b6000614d8e82614db9565b9050919050565b6000614da082614db9565b9050919050565b6000614db282614db9565b9050919050565b6000614dc482614dcb565b9050919050565b6000614dd682614d28565b9050919050565b6000614de882614d1a565b9050919050565b6000614dfa82614d52565b9050919050565b60005b83811015614e1f578082015181840152602081019050614e04565b83811115614e2e576000848401525b50505050565b614e3d82614f8d565b810181811067ffffffffffffffff82111715614e5c57614e5b614f3b565b5b80604052505050565b6000614e7082614d0d565b91507fffffffffffffffffffffffffffffffffffffffffffffffffffffffffffff8000821415614ea357614ea2614eae565b5b816000039050919050565b7f4e487b7100000000000000000000000000000000000000000000000000000000600052601160045260246000fd5b7f4e487b7100000000000000000000000000000000000000000000000000000000600052601260045260246000fd5b7f4e487b7100000000000000000000000000000000000000000000000000000000600052603260045260246000fd5b7f4e487b7100000000000000000000000000000000000000000000000000000000600052604160045260246000fd5b600080fd5b600080fd5b600080fd5b600080fd5b600080fd5b600080fd5b600080fd5b6000601f19601f8301169050919050565b7f312d303131000000000000000000000000000000000000000000000000000000600082015250565b7f302d303038000000000000000000000000000000000000000000000000000000600082015250565b7f312d303235000000000000000000000000000000000000000000000000000000600082015250565b7f302d303031000000000000000000000000000000000000000000000000000000600082015250565b7f302d303033000000000000000000000000000000000000000000000000000000600082015250565b7f416464726573733a20696e73756666696369656e742062616c616e636520666f60008201527f722063616c6c0000000000000000000000000000000000000000000000000000602082015250565b7f302d303035000000000000000000000000000000000000000000000000000000600082015250565b50565b7f312d303132000000000000000000000000000000000000000000000000000000600082015250565b7f416464726573733a2063616c6c20746f206e6f6e2d636f6e7472616374000000600082015250565b7f5361666545524332303a204552433230206f7065726174696f6e20646964206e60008201527f6f74207375636365656400000000000000000000000000000000000000000000602082015250565b7f302d303032000000000000000000000000000000000000000000000000000000600082015250565b7f5265656e7472616e637947756172643a207265656e7472616e742063616c6c00600082015250565b6151e281614cef565b81146151ed57600080fd5b50565b6151f981614d01565b811461520457600080fd5b50565b61521081614d1a565b811461521b57600080fd5b50565b61522781614d48565b811461523257600080fd5b50565b61523e81614d52565b811461524957600080fd5b50565b61525581614d62565b811461526057600080fd5b50565b61526c81614d76565b811461527757600080fd5b5056fea26469706673582212204def154f5292da54f56dd908917b894fc7e10230088ba89e751edc03ac9e840064736f6c63430008070033","opcodes":"PUSH1 0xE0 PUSH1 0x40 MSTORE CALLVALUE DUP1 ISZERO PUSH3 0x11 JUMPI PUSH1 0x0 DUP1 REVERT JUMPDEST POP PUSH1 0x40 MLOAD PUSH3 0x5550 CODESIZE SUB DUP1 PUSH3 0x5550 DUP4 CODECOPY DUP2 DUP2 ADD PUSH1 0x40 MSTORE DUP2 ADD SWAP1 PUSH3 0x37 SWAP2 SWAP1 PUSH3 0x163 JUMP JUMPDEST PUSH1 0x1 PUSH1 0x0 DUP2 SWAP1 SSTORE POP DUP3 PUSH20 0xFFFFFFFFFFFFFFFFFFFFFFFFFFFFFFFFFFFFFFFF AND PUSH1 0x80 DUP2 PUSH20 0xFFFFFFFFFFFFFFFFFFFFFFFFFFFFFFFFFFFFFFFF AND PUSH1 0x60 SHL DUP2 MSTORE POP POP DUP4 PUSH20 0xFFFFFFFFFFFFFFFFFFFFFFFFFFFFFFFFFFFFFFFF AND PUSH1 0xA0 DUP2 PUSH20 0xFFFFFFFFFFFFFFFFFFFFFFFFFFFFFFFFFFFFFFFF AND PUSH1 0x60 SHL DUP2 MSTORE POP POP DUP2 PUSH20 0xFFFFFFFFFFFFFFFFFFFFFFFFFFFFFFFFFFFFFFFF AND PUSH1 0xC0 DUP2 PUSH20 0xFFFFFFFFFFFFFFFFFFFFFFFFFFFFFFFFFFFFFFFF AND PUSH1 0x60 SHL DUP2 MSTORE POP POP DUP1 PUSH1 0x2 DUP1 PUSH2 0x100 EXP DUP2 SLOAD DUP2 PUSH20 0xFFFFFFFFFFFFFFFFFFFFFFFFFFFFFFFFFFFFFFFF MUL NOT AND SWAP1 DUP4 PUSH20 0xFFFFFFFFFFFFFFFFFFFFFFFFFFFFFFFFFFFFFFFF AND MUL OR SWAP1 SSTORE POP PUSH1 0x0 PUSH1 0x2 PUSH1 0x0 PUSH2 0x100 EXP DUP2 SLOAD DUP2 PUSH2 0xFFFF MUL NOT AND SWAP1 DUP4 PUSH2 0xFFFF AND MUL OR SWAP1 SSTORE POP POP POP POP POP PUSH3 0x228 JUMP JUMPDEST PUSH1 0x0 DUP2 MLOAD SWAP1 POP PUSH3 0x15D DUP2 PUSH3 0x20E JUMP JUMPDEST SWAP3 SWAP2 POP POP JUMP JUMPDEST PUSH1 0x0 DUP1 PUSH1 0x0 DUP1 PUSH1 0x80 DUP6 DUP8 SUB SLT ISZERO PUSH3 0x180 JUMPI PUSH3 0x17F PUSH3 0x209 JUMP JUMPDEST JUMPDEST PUSH1 0x0 PUSH3 0x190 DUP8 DUP3 DUP9 ADD PUSH3 0x14C JUMP JUMPDEST SWAP5 POP POP PUSH1 0x20 PUSH3 0x1A3 DUP8 DUP3 DUP9 ADD PUSH3 0x14C JUMP JUMPDEST SWAP4 POP POP PUSH1 0x40 PUSH3 0x1B6 DUP8 DUP3 DUP9 ADD PUSH3 0x14C JUMP JUMPDEST SWAP3 POP POP PUSH1 0x60 PUSH3 0x1C9 DUP8 DUP3 DUP9 ADD PUSH3 0x14C JUMP JUMPDEST SWAP2 POP POP SWAP3 SWAP6 SWAP2 SWAP5 POP SWAP3 POP JUMP JUMPDEST PUSH1 0x0 PUSH3 0x1E2 DUP3 PUSH3 0x1E9 JUMP JUMPDEST SWAP1 POP SWAP2 SWAP1 POP JUMP JUMPDEST PUSH1 0x0 PUSH20 0xFFFFFFFFFFFFFFFFFFFFFFFFFFFFFFFFFFFFFFFF DUP3 AND SWAP1 POP SWAP2 SWAP1 POP JUMP JUMPDEST PUSH1 0x0 DUP1 REVERT JUMPDEST PUSH3 0x219 DUP2 PUSH3 0x1D5 JUMP JUMPDEST DUP2 EQ PUSH3 0x225 JUMPI PUSH1 0x0 DUP1 REVERT JUMPDEST POP JUMP JUMPDEST PUSH1 0x80 MLOAD PUSH1 0x60 SHR PUSH1 0xA0 MLOAD PUSH1 0x60 SHR PUSH1 0xC0 MLOAD PUSH1 0x60 SHR PUSH2 0x52B0 PUSH3 0x2A0 PUSH1 0x0 CODECOPY PUSH1 0x0 DUP2 DUP2 PUSH2 0x438 ADD MSTORE DUP2 DUP2 PUSH2 0x1359 ADD MSTORE DUP2 DUP2 PUSH2 0x1F7C ADD MSTORE PUSH2 0x2887 ADD MSTORE PUSH1 0x0 DUP2 DUP2 PUSH2 0x11E2 ADD MSTORE DUP2 DUP2 PUSH2 0x2067 ADD MSTORE DUP2 DUP2 PUSH2 0x2C76 ADD MSTORE PUSH2 0x2D0A ADD MSTORE PUSH1 0x0 DUP2 DUP2 PUSH2 0x12D9 ADD MSTORE DUP2 DUP2 PUSH2 0x12FD ADD MSTORE DUP2 DUP2 PUSH2 0x167B ADD MSTORE PUSH2 0x27DA ADD MSTORE PUSH2 0x52B0 PUSH1 0x0 RETURN INVALID PUSH1 0x80 PUSH1 0x40 MSTORE PUSH1 0x4 CALLDATASIZE LT PUSH2 0x10D JUMPI PUSH1 0x0 CALLDATALOAD PUSH1 0xE0 SHR DUP1 PUSH4 0x7D19E596 GT PUSH2 0x95 JUMPI DUP1 PUSH4 0xB2561263 GT PUSH2 0x64 JUMPI DUP1 PUSH4 0xB2561263 EQ PUSH2 0x33F JUMPI DUP1 PUSH4 0xD02F411E EQ PUSH2 0x368 JUMPI DUP1 PUSH4 0xD25DD975 EQ PUSH2 0x3A5 JUMPI DUP1 PUSH4 0xE7AA0BD7 EQ PUSH2 0x3E2 JUMPI DUP1 PUSH4 0xE9DB7D79 EQ PUSH2 0x40B JUMPI PUSH2 0x114 JUMP JUMPDEST DUP1 PUSH4 0x7D19E596 EQ PUSH2 0x285 JUMPI DUP1 PUSH4 0x7F5D4285 EQ PUSH2 0x2C2 JUMPI DUP1 PUSH4 0x8B0473B4 EQ PUSH2 0x2ED JUMPI DUP1 PUSH4 0x8EDE1F05 EQ PUSH2 0x316 JUMPI PUSH2 0x114 JUMP JUMPDEST DUP1 PUSH4 0x49C4920F GT PUSH2 0xDC JUMPI DUP1 PUSH4 0x49C4920F EQ PUSH2 0x1BF JUMPI DUP1 PUSH4 0x64166E63 EQ PUSH2 0x1EA JUMPI DUP1 PUSH4 0x6A5B428B EQ PUSH2 0x213 JUMPI DUP1 PUSH4 0x6A94E8FE EQ PUSH2 0x23E JUMPI DUP1 PUSH4 0x795053D3 EQ PUSH2 0x25A JUMPI PUSH2 0x114 JUMP JUMPDEST DUP1 PUSH4 0xA6B25F2 EQ PUSH2 0x119 JUMPI DUP1 PUSH4 0x278ECDE1 EQ PUSH2 0x142 JUMPI DUP1 PUSH4 0x34D844D8 EQ PUSH2 0x16B JUMPI DUP1 PUSH4 0x37BDC99B EQ PUSH2 0x196 JUMPI PUSH2 0x114 JUMP JUMPDEST CALLDATASIZE PUSH2 0x114 JUMPI STOP JUMPDEST PUSH1 0x0 DUP1 REVERT JUMPDEST CALLVALUE DUP1 ISZERO PUSH2 0x125 JUMPI PUSH1 0x0 DUP1 REVERT JUMPDEST POP PUSH2 0x140 PUSH1 0x4 DUP1 CALLDATASIZE SUB DUP2 ADD SWAP1 PUSH2 0x13B SWAP2 SWAP1 PUSH2 0x3C91 JUMP JUMPDEST PUSH2 0x436 JUMP JUMPDEST STOP JUMPDEST CALLVALUE DUP1 ISZERO PUSH2 0x14E JUMPI PUSH1 0x0 DUP1 REVERT JUMPDEST POP PUSH2 0x169 PUSH1 0x4 DUP1 CALLDATASIZE SUB DUP2 ADD SWAP1 PUSH2 0x164 SWAP2 SWAP1 PUSH2 0x3C11 JUMP JUMPDEST PUSH2 0x562 JUMP JUMPDEST STOP JUMPDEST CALLVALUE DUP1 ISZERO PUSH2 0x177 JUMPI PUSH1 0x0 DUP1 REVERT JUMPDEST POP PUSH2 0x180 PUSH2 0xD06 JUMP JUMPDEST PUSH1 0x40 MLOAD PUSH2 0x18D SWAP2 SWAP1 PUSH2 0x4912 JUMP JUMPDEST PUSH1 0x40 MLOAD DUP1 SWAP2 SUB SWAP1 RETURN JUMPDEST CALLVALUE DUP1 ISZERO PUSH2 0x1A2 JUMPI PUSH1 0x0 DUP1 REVERT JUMPDEST POP PUSH2 0x1BD PUSH1 0x4 DUP1 CALLDATASIZE SUB DUP2 ADD SWAP1 PUSH2 0x1B8 SWAP2 SWAP1 PUSH2 0x3C11 JUMP JUMPDEST PUSH2 0xD12 JUMP JUMPDEST STOP JUMPDEST CALLVALUE DUP1 ISZERO PUSH2 0x1CB JUMPI PUSH1 0x0 DUP1 REVERT JUMPDEST POP PUSH2 0x1D4 PUSH2 0x12D7 JUMP JUMPDEST PUSH1 0x40 MLOAD PUSH2 0x1E1 SWAP2 SWAP1 PUSH2 0x469B JUMP JUMPDEST PUSH1 0x40 MLOAD DUP1 SWAP2 SUB SWAP1 RETURN JUMPDEST CALLVALUE DUP1 ISZERO PUSH2 0x1F6 JUMPI PUSH1 0x0 DUP1 REVERT JUMPDEST POP PUSH2 0x211 PUSH1 0x4 DUP1 CALLDATASIZE SUB DUP2 ADD SWAP1 PUSH2 0x20C SWAP2 SWAP1 PUSH2 0x3C3E JUMP JUMPDEST PUSH2 0x12FB JUMP JUMPDEST STOP JUMPDEST CALLVALUE DUP1 ISZERO PUSH2 0x21F JUMPI PUSH1 0x0 DUP1 REVERT JUMPDEST POP PUSH2 0x228 PUSH2 0x1408 JUMP JUMPDEST PUSH1 0x40 MLOAD PUSH2 0x235 SWAP2 SWAP1 PUSH2 0x48F7 JUMP JUMPDEST PUSH1 0x40 MLOAD DUP1 SWAP2 SUB SWAP1 RETURN JUMPDEST PUSH2 0x258 PUSH1 0x4 DUP1 CALLDATASIZE SUB DUP2 ADD SWAP1 PUSH2 0x253 SWAP2 SWAP1 PUSH2 0x3B61 JUMP JUMPDEST PUSH2 0x141C JUMP JUMPDEST STOP JUMPDEST CALLVALUE DUP1 ISZERO PUSH2 0x266 JUMPI PUSH1 0x0 DUP1 REVERT JUMPDEST POP PUSH2 0x26F PUSH2 0x1C2E JUMP JUMPDEST PUSH1 0x40 MLOAD PUSH2 0x27C SWAP2 SWAP1 PUSH2 0x4605 JUMP JUMPDEST PUSH1 0x40 MLOAD DUP1 SWAP2 SUB SWAP1 RETURN JUMPDEST CALLVALUE DUP1 ISZERO PUSH2 0x291 JUMPI PUSH1 0x0 DUP1 REVERT JUMPDEST POP PUSH2 0x2AC PUSH1 0x4 DUP1 CALLDATASIZE SUB DUP2 ADD SWAP1 PUSH2 0x2A7 SWAP2 SWAP1 PUSH2 0x3C11 JUMP JUMPDEST PUSH2 0x1C52 JUMP JUMPDEST PUSH1 0x40 MLOAD PUSH2 0x2B9 SWAP2 SWAP1 PUSH2 0x48B0 JUMP JUMPDEST PUSH1 0x40 MLOAD DUP1 SWAP2 SUB SWAP1 RETURN JUMPDEST CALLVALUE DUP1 ISZERO PUSH2 0x2CE JUMPI PUSH1 0x0 DUP1 REVERT JUMPDEST POP PUSH2 0x2D7 PUSH2 0x1F7A JUMP JUMPDEST PUSH1 0x40 MLOAD PUSH2 0x2E4 SWAP2 SWAP1 PUSH2 0x46D1 JUMP JUMPDEST PUSH1 0x40 MLOAD DUP1 SWAP2 SUB SWAP1 RETURN JUMPDEST CALLVALUE DUP1 ISZERO PUSH2 0x2F9 JUMPI PUSH1 0x0 DUP1 REVERT JUMPDEST POP PUSH2 0x314 PUSH1 0x4 DUP1 CALLDATASIZE SUB DUP2 ADD SWAP1 PUSH2 0x30F SWAP2 SWAP1 PUSH2 0x3BE4 JUMP JUMPDEST PUSH2 0x1F9E JUMP JUMPDEST STOP JUMPDEST CALLVALUE DUP1 ISZERO PUSH2 0x322 JUMPI PUSH1 0x0 DUP1 REVERT JUMPDEST POP PUSH2 0x33D PUSH1 0x4 DUP1 CALLDATASIZE SUB DUP2 ADD SWAP1 PUSH2 0x338 SWAP2 SWAP1 PUSH2 0x3A11 JUMP JUMPDEST PUSH2 0x2065 JUMP JUMPDEST STOP JUMPDEST CALLVALUE DUP1 ISZERO PUSH2 0x34B JUMPI PUSH1 0x0 DUP1 REVERT JUMPDEST POP PUSH2 0x366 PUSH1 0x4 DUP1 CALLDATASIZE SUB DUP2 ADD SWAP1 PUSH2 0x361 SWAP2 SWAP1 PUSH2 0x39E4 JUMP JUMPDEST PUSH2 0x21BC JUMP JUMPDEST STOP JUMPDEST CALLVALUE DUP1 ISZERO PUSH2 0x374 JUMPI PUSH1 0x0 DUP1 REVERT JUMPDEST POP PUSH2 0x38F PUSH1 0x4 DUP1 CALLDATASIZE SUB DUP2 ADD SWAP1 PUSH2 0x38A SWAP2 SWAP1 PUSH2 0x3A64 JUMP JUMPDEST PUSH2 0x225E JUMP JUMPDEST PUSH1 0x40 MLOAD PUSH2 0x39C SWAP2 SWAP1 PUSH2 0x4680 JUMP JUMPDEST PUSH1 0x40 MLOAD DUP1 SWAP2 SUB SWAP1 RETURN JUMPDEST CALLVALUE DUP1 ISZERO PUSH2 0x3B1 JUMPI PUSH1 0x0 DUP1 REVERT JUMPDEST POP PUSH2 0x3CC PUSH1 0x4 DUP1 CALLDATASIZE SUB DUP2 ADD SWAP1 PUSH2 0x3C7 SWAP2 SWAP1 PUSH2 0x3C11 JUMP JUMPDEST PUSH2 0x25B0 JUMP JUMPDEST PUSH1 0x40 MLOAD PUSH2 0x3D9 SWAP2 SWAP1 PUSH2 0x488E JUMP JUMPDEST PUSH1 0x40 MLOAD DUP1 SWAP2 SUB SWAP1 RETURN JUMPDEST CALLVALUE DUP1 ISZERO PUSH2 0x3EE JUMPI PUSH1 0x0 DUP1 REVERT JUMPDEST POP PUSH2 0x409 PUSH1 0x4 DUP1 CALLDATASIZE SUB DUP2 ADD SWAP1 PUSH2 0x404 SWAP2 SWAP1 PUSH2 0x3C11 JUMP JUMPDEST PUSH2 0x2C74 JUMP JUMPDEST STOP JUMPDEST CALLVALUE DUP1 ISZERO PUSH2 0x417 JUMPI PUSH1 0x0 DUP1 REVERT JUMPDEST POP PUSH2 0x420 PUSH2 0x2D08 JUMP JUMPDEST PUSH1 0x40 MLOAD PUSH2 0x42D SWAP2 SWAP1 PUSH2 0x46B6 JUMP JUMPDEST PUSH1 0x40 MLOAD DUP1 SWAP2 SUB SWAP1 RETURN JUMPDEST PUSH32 0x0 PUSH20 0xFFFFFFFFFFFFFFFFFFFFFFFFFFFFFFFFFFFFFFFF AND PUSH2 0x475 PUSH2 0x2D2C JUMP JUMPDEST PUSH20 0xFFFFFFFFFFFFFFFFFFFFFFFFFFFFFFFFFFFFFFFF AND EQ PUSH2 0x495 JUMPI PUSH1 0x0 DUP1 REVERT JUMPDEST DUP4 PUSH1 0x3 PUSH1 0x0 DUP8 DUP2 MSTORE PUSH1 0x20 ADD SWAP1 DUP2 MSTORE PUSH1 0x20 ADD PUSH1 0x0 KECCAK256 PUSH1 0x7 ADD SWAP1 PUSH1 0x4 PUSH2 0x4BA SWAP3 SWAP2 SWAP1 PUSH2 0x3135 JUMP JUMPDEST POP DUP3 PUSH1 0x3 PUSH1 0x0 DUP8 DUP2 MSTORE PUSH1 0x20 ADD SWAP1 DUP2 MSTORE PUSH1 0x20 ADD PUSH1 0x0 KECCAK256 PUSH1 0x6 ADD SWAP1 PUSH1 0x2 PUSH2 0x4E0 SWAP3 SWAP2 SWAP1 PUSH2 0x31D6 JUMP JUMPDEST POP DUP2 PUSH1 0x3 PUSH1 0x0 DUP8 DUP2 MSTORE PUSH1 0x20 ADD SWAP1 DUP2 MSTORE PUSH1 0x20 ADD PUSH1 0x0 KECCAK256 PUSH1 0x1 ADD PUSH1 0x14 PUSH2 0x100 EXP DUP2 SLOAD DUP2 PUSH8 0xFFFFFFFFFFFFFFFF MUL NOT AND SWAP1 DUP4 PUSH8 0xFFFFFFFFFFFFFFFF AND MUL OR SWAP1 SSTORE POP DUP1 PUSH1 0x3 PUSH1 0x0 DUP8 DUP2 MSTORE PUSH1 0x20 ADD SWAP1 DUP2 MSTORE PUSH1 0x20 ADD PUSH1 0x0 KECCAK256 PUSH1 0x2 ADD PUSH1 0x0 PUSH2 0x100 EXP DUP2 SLOAD DUP2 PUSH8 0xFFFFFFFFFFFFFFFF MUL NOT AND SWAP1 DUP4 PUSH8 0xFFFFFFFFFFFFFFFF AND MUL OR SWAP1 SSTORE POP POP POP POP POP POP JUMP JUMPDEST PUSH1 0x2 PUSH1 0x0 SLOAD EQ ISZERO PUSH2 0x5A8 JUMPI PUSH1 0x40 MLOAD PUSH32 0x8C379A000000000000000000000000000000000000000000000000000000000 DUP2 MSTORE PUSH1 0x4 ADD PUSH2 0x59F SWAP1 PUSH2 0x486E JUMP JUMPDEST PUSH1 0x40 MLOAD DUP1 SWAP2 SUB SWAP1 REVERT JUMPDEST PUSH1 0x2 PUSH1 0x0 DUP2 SWAP1 SSTORE POP PUSH1 0x0 PUSH2 0x5BA PUSH2 0x2D2C JUMP JUMPDEST SWAP1 POP PUSH1 0x0 PUSH1 0x3 PUSH1 0x0 DUP5 DUP2 MSTORE PUSH1 0x20 ADD SWAP1 DUP2 MSTORE PUSH1 0x20 ADD PUSH1 0x0 KECCAK256 PUSH1 0x40 MLOAD DUP1 PUSH2 0x180 ADD PUSH1 0x40 MSTORE SWAP1 DUP2 PUSH1 0x0 DUP3 ADD PUSH1 0x0 SWAP1 SLOAD SWAP1 PUSH2 0x100 EXP SWAP1 DIV PUSH20 0xFFFFFFFFFFFFFFFFFFFFFFFFFFFFFFFFFFFFFFFF AND PUSH20 0xFFFFFFFFFFFFFFFFFFFFFFFFFFFFFFFFFFFFFFFF AND PUSH20 0xFFFFFFFFFFFFFFFFFFFFFFFFFFFFFFFFFFFFFFFF AND DUP2 MSTORE PUSH1 0x20 ADD PUSH1 0x1 DUP3 ADD PUSH1 0x0 SWAP1 SLOAD SWAP1 PUSH2 0x100 EXP SWAP1 DIV PUSH20 0xFFFFFFFFFFFFFFFFFFFFFFFFFFFFFFFFFFFFFFFF AND PUSH20 0xFFFFFFFFFFFFFFFFFFFFFFFFFFFFFFFFFFFFFFFF AND PUSH20 0xFFFFFFFFFFFFFFFFFFFFFFFFFFFFFFFFFFFFFFFF AND DUP2 MSTORE PUSH1 0x20 ADD PUSH1 0x1 DUP3 ADD PUSH1 0x14 SWAP1 SLOAD SWAP1 PUSH2 0x100 EXP SWAP1 DIV PUSH8 0xFFFFFFFFFFFFFFFF AND PUSH8 0xFFFFFFFFFFFFFFFF AND PUSH8 0xFFFFFFFFFFFFFFFF AND DUP2 MSTORE PUSH1 0x20 ADD PUSH1 0x2 DUP3 ADD PUSH1 0x0 SWAP1 SLOAD SWAP1 PUSH2 0x100 EXP SWAP1 DIV PUSH8 0xFFFFFFFFFFFFFFFF AND PUSH8 0xFFFFFFFFFFFFFFFF AND PUSH8 0xFFFFFFFFFFFFFFFF AND DUP2 MSTORE PUSH1 0x20 ADD PUSH1 0x2 DUP3 ADD PUSH1 0x8 SWAP1 SLOAD SWAP1 PUSH2 0x100 EXP SWAP1 DIV PUSH8 0xFFFFFFFFFFFFFFFF AND PUSH8 0xFFFFFFFFFFFFFFFF AND PUSH8 0xFFFFFFFFFFFFFFFF AND DUP2 MSTORE PUSH1 0x20 ADD PUSH1 0x3 DUP3 ADD PUSH1 0x0 SWAP1 SLOAD SWAP1 PUSH2 0x100 EXP SWAP1 DIV PUSH20 0xFFFFFFFFFFFFFFFFFFFFFFFFFFFFFFFFFFFFFFFF AND PUSH20 0xFFFFFFFFFFFFFFFFFFFFFFFFFFFFFFFFFFFFFFFF AND PUSH20 0xFFFFFFFFFFFFFFFFFFFFFFFFFFFFFFFFFFFFFFFF AND DUP2 MSTORE PUSH1 0x20 ADD PUSH1 0x4 DUP3 ADD SLOAD DUP2 MSTORE PUSH1 0x20 ADD PUSH1 0x5 DUP3 ADD PUSH1 0x0 SWAP1 SLOAD SWAP1 PUSH2 0x100 EXP SWAP1 DIV PUSH20 0xFFFFFFFFFFFFFFFFFFFFFFFFFFFFFFFFFFFFFFFF AND PUSH20 0xFFFFFFFFFFFFFFFFFFFFFFFFFFFFFFFFFFFFFFFF AND PUSH20 0xFFFFFFFFFFFFFFFFFFFFFFFFFFFFFFFFFFFFFFFF AND DUP2 MSTORE PUSH1 0x20 ADD PUSH1 0x5 DUP3 ADD PUSH1 0x14 SWAP1 SLOAD SWAP1 PUSH2 0x100 EXP SWAP1 DIV PUSH2 0xFFFF AND PUSH2 0xFFFF AND PUSH2 0xFFFF AND DUP2 MSTORE PUSH1 0x20 ADD PUSH1 0x6 DUP3 ADD PUSH1 0x2 DUP1 PUSH1 0x20 MUL PUSH1 0x40 MLOAD SWAP1 DUP2 ADD PUSH1 0x40 MSTORE DUP1 SWAP3 SWAP2 SWAP1 DUP3 PUSH1 0x2 DUP1 ISZERO PUSH2 0x857 JUMPI PUSH1 0x20 MUL DUP3 ADD SWAP2 PUSH1 0x0 SWAP1 JUMPDEST DUP3 DUP3 SWAP1 SLOAD SWAP1 PUSH2 0x100 EXP SWAP1 DIV PUSH1 0x1 SIGNEXTEND PUSH1 0x1 SIGNEXTEND DUP2 MSTORE PUSH1 0x20 ADD SWAP1 PUSH1 0x2 ADD SWAP1 PUSH1 0x20 DUP3 PUSH1 0x1 ADD DIV SWAP3 DUP4 ADD SWAP3 PUSH1 0x1 SUB DUP3 MUL SWAP2 POP DUP1 DUP5 GT PUSH2 0x820 JUMPI SWAP1 POP JUMPDEST POP POP POP POP POP DUP2 MSTORE PUSH1 0x20 ADD PUSH1 0x7 DUP3 ADD PUSH1 0x4 DUP1 PUSH1 0x20 MUL PUSH1 0x40 MLOAD SWAP1 DUP2 ADD PUSH1 0x40 MSTORE DUP1 SWAP3 SWAP2 SWAP1 DUP3 PUSH1 0x4 DUP1 ISZERO PUSH2 0x8C4 JUMPI PUSH1 0x20 MUL DUP3 ADD SWAP2 PUSH1 0x0 SWAP1 JUMPDEST DUP3 DUP3 SWAP1 SLOAD SWAP1 PUSH2 0x100 EXP SWAP1 DIV PUSH2 0xFFFF AND PUSH2 0xFFFF AND DUP2 MSTORE PUSH1 0x20 ADD SWAP1 PUSH1 0x2 ADD SWAP1 PUSH1 0x20 DUP3 PUSH1 0x1 ADD DIV SWAP3 DUP4 ADD SWAP3 PUSH1 0x1 SUB DUP3 MUL SWAP2 POP DUP1 DUP5 GT PUSH2 0x88B JUMPI SWAP1 POP JUMPDEST POP POP POP POP POP DUP2 MSTORE PUSH1 0x20 ADD PUSH1 0x8 DUP3 ADD SLOAD DUP2 MSTORE POP POP SWAP1 POP DUP1 PUSH1 0x20 ADD MLOAD PUSH20 0xFFFFFFFFFFFFFFFFFFFFFFFFFFFFFFFFFFFFFFFF AND DUP3 PUSH20 0xFFFFFFFFFFFFFFFFFFFFFFFFFFFFFFFFFFFFFFFF AND EQ PUSH2 0x94B JUMPI PUSH1 0x40 MLOAD PUSH32 0x8C379A000000000000000000000000000000000000000000000000000000000 DUP2 MSTORE PUSH1 0x4 ADD PUSH2 0x942 SWAP1 PUSH2 0x470E JUMP JUMPDEST PUSH1 0x40 MLOAD DUP1 SWAP2 SUB SWAP1 REVERT JUMPDEST PUSH1 0x0 DUP2 PUSH2 0x100 ADD MLOAD PUSH2 0xFFFF AND EQ PUSH2 0x997 JUMPI PUSH1 0x40 MLOAD PUSH32 0x8C379A000000000000000000000000000000000000000000000000000000000 DUP2 MSTORE PUSH1 0x4 ADD PUSH2 0x98E SWAP1 PUSH2 0x47CE JUMP JUMPDEST PUSH1 0x40 MLOAD DUP1 SWAP2 SUB SWAP1 REVERT JUMPDEST PUSH2 0x2710 DUP2 PUSH2 0x140 ADD MLOAD PUSH1 0x0 PUSH1 0xFF AND PUSH1 0x4 DUP2 LT PUSH2 0x9B6 JUMPI PUSH2 0x9B5 PUSH2 0x4F0C JUMP JUMPDEST JUMPDEST PUSH1 0x20 MUL ADD SWAP1 PUSH2 0xFFFF AND SWAP1 DUP2 PUSH2 0xFFFF AND DUP2 MSTORE POP POP PUSH1 0x0 DUP2 PUSH2 0x140 ADD MLOAD PUSH1 0x1 PUSH1 0xFF AND PUSH1 0x4 DUP2 LT PUSH2 0x9E7 JUMPI PUSH2 0x9E6 PUSH2 0x4F0C JUMP JUMPDEST JUMPDEST PUSH1 0x20 MUL ADD SWAP1 PUSH2 0xFFFF AND SWAP1 DUP2 PUSH2 0xFFFF AND DUP2 MSTORE POP POP PUSH1 0x0 DUP2 PUSH2 0x140 ADD MLOAD PUSH1 0x2 PUSH1 0xFF AND PUSH1 0x4 DUP2 LT PUSH2 0xA18 JUMPI PUSH2 0xA17 PUSH2 0x4F0C JUMP JUMPDEST JUMPDEST PUSH1 0x20 MUL ADD SWAP1 PUSH2 0xFFFF AND SWAP1 DUP2 PUSH2 0xFFFF AND DUP2 MSTORE POP POP PUSH1 0x0 DUP2 PUSH2 0x140 ADD MLOAD PUSH1 0x3 PUSH1 0xFF AND PUSH1 0x4 DUP2 LT PUSH2 0xA49 JUMPI PUSH2 0xA48 PUSH2 0x4F0C JUMP JUMPDEST JUMPDEST PUSH1 0x20 MUL ADD SWAP1 PUSH2 0xFFFF AND SWAP1 DUP2 PUSH2 0xFFFF AND DUP2 MSTORE POP POP PUSH1 0x1 PUSH2 0xA87 DUP3 PUSH2 0x120 ADD MLOAD PUSH1 0x0 PUSH1 0xFF AND PUSH1 0x2 DUP2 LT PUSH2 0xA7D JUMPI PUSH2 0xA7C PUSH2 0x4F0C JUMP JUMPDEST JUMPDEST PUSH1 0x20 MUL ADD MLOAD PUSH2 0x2D34 JUMP JUMPDEST PUSH2 0xA91 SWAP2 SWAP1 PUSH2 0x4B98 JUMP JUMPDEST DUP2 PUSH2 0x120 ADD MLOAD PUSH1 0x0 PUSH1 0xFF AND PUSH1 0x2 DUP2 LT PUSH2 0xAAD JUMPI PUSH2 0xAAC PUSH2 0x4F0C JUMP JUMPDEST JUMPDEST PUSH1 0x20 MUL ADD SWAP1 PUSH1 0x1 SIGNEXTEND SWAP1 DUP2 PUSH1 0x1 SIGNEXTEND DUP2 MSTORE POP POP PUSH2 0xAE7 DUP2 PUSH2 0x120 ADD MLOAD PUSH1 0x1 PUSH1 0xFF AND PUSH1 0x2 DUP2 LT PUSH2 0xADD JUMPI PUSH2 0xADC PUSH2 0x4F0C JUMP JUMPDEST JUMPDEST PUSH1 0x20 MUL ADD MLOAD PUSH2 0x2D34 JUMP JUMPDEST DUP2 PUSH2 0x120 ADD MLOAD PUSH1 0x1 PUSH1 0xFF AND PUSH1 0x2 DUP2 LT PUSH2 0xB03 JUMPI PUSH2 0xB02 PUSH2 0x4F0C JUMP JUMPDEST JUMPDEST PUSH1 0x20 MUL ADD SWAP1 PUSH1 0x1 SIGNEXTEND SWAP1 DUP2 PUSH1 0x1 SIGNEXTEND DUP2 MSTORE POP POP DUP1 PUSH2 0x140 ADD MLOAD PUSH1 0x3 PUSH1 0x0 DUP6 DUP2 MSTORE PUSH1 0x20 ADD SWAP1 DUP2 MSTORE PUSH1 0x20 ADD PUSH1 0x0 KECCAK256 PUSH1 0x7 ADD SWAP1 PUSH1 0x4 PUSH2 0xB3E SWAP3 SWAP2 SWAP1 PUSH2 0x3279 JUMP JUMPDEST POP DUP1 PUSH2 0x120 ADD MLOAD PUSH1 0x3 PUSH1 0x0 DUP6 DUP2 MSTORE PUSH1 0x20 ADD SWAP1 DUP2 MSTORE PUSH1 0x20 ADD PUSH1 0x0 KECCAK256 PUSH1 0x6 ADD SWAP1 PUSH1 0x2 PUSH2 0xB69 SWAP3 SWAP2 SWAP1 PUSH2 0x3316 JUMP JUMPDEST POP PUSH1 0x0 PUSH20 0xFFFFFFFFFFFFFFFFFFFFFFFFFFFFFFFFFFFFFFFF AND DUP2 PUSH1 0xE0 ADD MLOAD PUSH20 0xFFFFFFFFFFFFFFFFFFFFFFFFFFFFFFFFFFFFFFFF AND EQ ISZERO PUSH2 0xC5E JUMPI PUSH1 0x0 DUP2 PUSH1 0x0 ADD MLOAD PUSH20 0xFFFFFFFFFFFFFFFFFFFFFFFFFFFFFFFFFFFFFFFF AND DUP3 PUSH2 0x160 ADD MLOAD PUSH1 0x40 MLOAD PUSH2 0xBD2 SWAP1 PUSH2 0x45F0 JUMP JUMPDEST PUSH1 0x0 PUSH1 0x40 MLOAD DUP1 DUP4 SUB DUP2 DUP6 DUP8 GAS CALL SWAP3 POP POP POP RETURNDATASIZE DUP1 PUSH1 0x0 DUP2 EQ PUSH2 0xC0F JUMPI PUSH1 0x40 MLOAD SWAP2 POP PUSH1 0x1F NOT PUSH1 0x3F RETURNDATASIZE ADD AND DUP3 ADD PUSH1 0x40 MSTORE RETURNDATASIZE DUP3 MSTORE RETURNDATASIZE PUSH1 0x0 PUSH1 0x20 DUP5 ADD RETURNDATACOPY PUSH2 0xC14 JUMP JUMPDEST PUSH1 0x60 SWAP2 POP JUMPDEST POP POP SWAP1 POP DUP1 PUSH2 0xC58 JUMPI PUSH1 0x40 MLOAD PUSH32 0x8C379A000000000000000000000000000000000000000000000000000000000 DUP2 MSTORE PUSH1 0x4 ADD PUSH2 0xC4F SWAP1 PUSH2 0x47EE JUMP JUMPDEST PUSH1 0x40 MLOAD DUP1 SWAP2 SUB SWAP1 REVERT JUMPDEST POP PUSH2 0xC77 JUMP JUMPDEST PUSH2 0xC76 DUP2 PUSH1 0xE0 ADD MLOAD DUP3 PUSH1 0x0 ADD MLOAD DUP4 PUSH2 0x160 ADD MLOAD PUSH2 0x2D59 JUMP JUMPDEST JUMPDEST PUSH1 0x1 PUSH1 0x3 PUSH1 0x0 DUP6 DUP2 MSTORE PUSH1 0x20 ADD SWAP1 DUP2 MSTORE PUSH1 0x20 ADD PUSH1 0x0 KECCAK256 PUSH1 0x5 ADD PUSH1 0x14 PUSH2 0x100 EXP DUP2 SLOAD DUP2 PUSH2 0xFFFF MUL NOT AND SWAP1 DUP4 PUSH2 0xFFFF AND MUL OR SWAP1 SSTORE POP PUSH1 0x1 DUP2 PUSH2 0x100 ADD SWAP1 PUSH2 0xFFFF AND SWAP1 DUP2 PUSH2 0xFFFF AND DUP2 MSTORE POP POP DUP3 PUSH32 0x3040CDFC2F24DFAFD209EF0CCC47490FDAE241F1A1785243988B61E296C5A908 DUP3 TIMESTAMP PUSH1 0x40 MLOAD PUSH2 0xCF1 SWAP3 SWAP2 SWAP1 PUSH2 0x48CC JUMP JUMPDEST PUSH1 0x40 MLOAD DUP1 SWAP2 SUB SWAP1 LOG2 POP POP PUSH1 0x1 PUSH1 0x0 DUP2 SWAP1 SSTORE POP POP JUMP JUMPDEST PUSH1 0x1 DUP1 PUSH1 0x0 ADD SLOAD SWAP1 POP DUP2 JUMP JUMPDEST PUSH1 0x2 PUSH1 0x0 SLOAD EQ ISZERO PUSH2 0xD58 JUMPI PUSH1 0x40 MLOAD PUSH32 0x8C379A000000000000000000000000000000000000000000000000000000000 DUP2 MSTORE PUSH1 0x4 ADD PUSH2 0xD4F SWAP1 PUSH2 0x486E JUMP JUMPDEST PUSH1 0x40 MLOAD DUP1 SWAP2 SUB SWAP1 REVERT JUMPDEST PUSH1 0x2 PUSH1 0x0 DUP2 SWAP1 SSTORE POP PUSH1 0x0 PUSH2 0xD6A PUSH2 0x2D2C JUMP JUMPDEST SWAP1 POP PUSH1 0x0 PUSH1 0x3 PUSH1 0x0 DUP5 DUP2 MSTORE PUSH1 0x20 ADD SWAP1 DUP2 MSTORE PUSH1 0x20 ADD PUSH1 0x0 KECCAK256 PUSH1 0x40 MLOAD DUP1 PUSH2 0x180 ADD PUSH1 0x40 MSTORE SWAP1 DUP2 PUSH1 0x0 DUP3 ADD PUSH1 0x0 SWAP1 SLOAD SWAP1 PUSH2 0x100 EXP SWAP1 DIV PUSH20 0xFFFFFFFFFFFFFFFFFFFFFFFFFFFFFFFFFFFFFFFF AND PUSH20 0xFFFFFFFFFFFFFFFFFFFFFFFFFFFFFFFFFFFFFFFF AND PUSH20 0xFFFFFFFFFFFFFFFFFFFFFFFFFFFFFFFFFFFFFFFF AND DUP2 MSTORE PUSH1 0x20 ADD PUSH1 0x1 DUP3 ADD PUSH1 0x0 SWAP1 SLOAD SWAP1 PUSH2 0x100 EXP SWAP1 DIV PUSH20 0xFFFFFFFFFFFFFFFFFFFFFFFFFFFFFFFFFFFFFFFF AND PUSH20 0xFFFFFFFFFFFFFFFFFFFFFFFFFFFFFFFFFFFFFFFF AND PUSH20 0xFFFFFFFFFFFFFFFFFFFFFFFFFFFFFFFFFFFFFFFF AND DUP2 MSTORE PUSH1 0x20 ADD PUSH1 0x1 DUP3 ADD PUSH1 0x14 SWAP1 SLOAD SWAP1 PUSH2 0x100 EXP SWAP1 DIV PUSH8 0xFFFFFFFFFFFFFFFF AND PUSH8 0xFFFFFFFFFFFFFFFF AND PUSH8 0xFFFFFFFFFFFFFFFF AND DUP2 MSTORE PUSH1 0x20 ADD PUSH1 0x2 DUP3 ADD PUSH1 0x0 SWAP1 SLOAD SWAP1 PUSH2 0x100 EXP SWAP1 DIV PUSH8 0xFFFFFFFFFFFFFFFF AND PUSH8 0xFFFFFFFFFFFFFFFF AND PUSH8 0xFFFFFFFFFFFFFFFF AND DUP2 MSTORE PUSH1 0x20 ADD PUSH1 0x2 DUP3 ADD PUSH1 0x8 SWAP1 SLOAD SWAP1 PUSH2 0x100 EXP SWAP1 DIV PUSH8 0xFFFFFFFFFFFFFFFF AND PUSH8 0xFFFFFFFFFFFFFFFF AND PUSH8 0xFFFFFFFFFFFFFFFF AND DUP2 MSTORE PUSH1 0x20 ADD PUSH1 0x3 DUP3 ADD PUSH1 0x0 SWAP1 SLOAD SWAP1 PUSH2 0x100 EXP SWAP1 DIV PUSH20 0xFFFFFFFFFFFFFFFFFFFFFFFFFFFFFFFFFFFFFFFF AND PUSH20 0xFFFFFFFFFFFFFFFFFFFFFFFFFFFFFFFFFFFFFFFF AND PUSH20 0xFFFFFFFFFFFFFFFFFFFFFFFFFFFFFFFFFFFFFFFF AND DUP2 MSTORE PUSH1 0x20 ADD PUSH1 0x4 DUP3 ADD SLOAD DUP2 MSTORE PUSH1 0x20 ADD PUSH1 0x5 DUP3 ADD PUSH1 0x0 SWAP1 SLOAD SWAP1 PUSH2 0x100 EXP SWAP1 DIV PUSH20 0xFFFFFFFFFFFFFFFFFFFFFFFFFFFFFFFFFFFFFFFF AND PUSH20 0xFFFFFFFFFFFFFFFFFFFFFFFFFFFFFFFFFFFFFFFF AND PUSH20 0xFFFFFFFFFFFFFFFFFFFFFFFFFFFFFFFFFFFFFFFF AND DUP2 MSTORE PUSH1 0x20 ADD PUSH1 0x5 DUP3 ADD PUSH1 0x14 SWAP1 SLOAD SWAP1 PUSH2 0x100 EXP SWAP1 DIV PUSH2 0xFFFF AND PUSH2 0xFFFF AND PUSH2 0xFFFF AND DUP2 MSTORE PUSH1 0x20 ADD PUSH1 0x6 DUP3 ADD PUSH1 0x2 DUP1 PUSH1 0x20 MUL PUSH1 0x40 MLOAD SWAP1 DUP2 ADD PUSH1 0x40 MSTORE DUP1 SWAP3 SWAP2 SWAP1 DUP3 PUSH1 0x2 DUP1 ISZERO PUSH2 0x1007 JUMPI PUSH1 0x20 MUL DUP3 ADD SWAP2 PUSH1 0x0 SWAP1 JUMPDEST DUP3 DUP3 SWAP1 SLOAD SWAP1 PUSH2 0x100 EXP SWAP1 DIV PUSH1 0x1 SIGNEXTEND PUSH1 0x1 SIGNEXTEND DUP2 MSTORE PUSH1 0x20 ADD SWAP1 PUSH1 0x2 ADD SWAP1 PUSH1 0x20 DUP3 PUSH1 0x1 ADD DIV SWAP3 DUP4 ADD SWAP3 PUSH1 0x1 SUB DUP3 MUL SWAP2 POP DUP1 DUP5 GT PUSH2 0xFD0 JUMPI SWAP1 POP JUMPDEST POP POP POP POP POP DUP2 MSTORE PUSH1 0x20 ADD PUSH1 0x7 DUP3 ADD PUSH1 0x4 DUP1 PUSH1 0x20 MUL PUSH1 0x40 MLOAD SWAP1 DUP2 ADD PUSH1 0x40 MSTORE DUP1 SWAP3 SWAP2 SWAP1 DUP3 PUSH1 0x4 DUP1 ISZERO PUSH2 0x1074 JUMPI PUSH1 0x20 MUL DUP3 ADD SWAP2 PUSH1 0x0 SWAP1 JUMPDEST DUP3 DUP3 SWAP1 SLOAD SWAP1 PUSH2 0x100 EXP SWAP1 DIV PUSH2 0xFFFF AND PUSH2 0xFFFF AND DUP2 MSTORE PUSH1 0x20 ADD SWAP1 PUSH1 0x2 ADD SWAP1 PUSH1 0x20 DUP3 PUSH1 0x1 ADD DIV SWAP3 DUP4 ADD SWAP3 PUSH1 0x1 SUB DUP3 MUL SWAP2 POP DUP1 DUP5 GT PUSH2 0x103B JUMPI SWAP1 POP JUMPDEST POP POP POP POP POP DUP2 MSTORE PUSH1 0x20 ADD PUSH1 0x8 DUP3 ADD SLOAD DUP2 MSTORE POP POP SWAP1 POP DUP1 PUSH1 0x0 ADD MLOAD PUSH20 0xFFFFFFFFFFFFFFFFFFFFFFFFFFFFFFFFFFFFFFFF AND DUP3 PUSH20 0xFFFFFFFFFFFFFFFFFFFFFFFFFFFFFFFFFFFFFFFF AND EQ PUSH2 0x10FB JUMPI PUSH1 0x40 MLOAD PUSH32 0x8C379A000000000000000000000000000000000000000000000000000000000 DUP2 MSTORE PUSH1 0x4 ADD PUSH2 0x10F2 SWAP1 PUSH2 0x474E JUMP JUMPDEST PUSH1 0x40 MLOAD DUP1 SWAP2 SUB SWAP1 REVERT JUMPDEST PUSH1 0x1 PUSH2 0x1126 DUP3 PUSH2 0x120 ADD MLOAD PUSH1 0x0 PUSH1 0xFF AND PUSH1 0x2 DUP2 LT PUSH2 0x111C JUMPI PUSH2 0x111B PUSH2 0x4F0C JUMP JUMPDEST JUMPDEST PUSH1 0x20 MUL ADD MLOAD PUSH2 0x2D34 JUMP JUMPDEST PUSH2 0x1130 SWAP2 SWAP1 PUSH2 0x4B98 JUMP JUMPDEST DUP2 PUSH2 0x120 ADD MLOAD PUSH1 0x0 PUSH1 0xFF AND PUSH1 0x2 DUP2 LT PUSH2 0x114C JUMPI PUSH2 0x114B PUSH2 0x4F0C JUMP JUMPDEST JUMPDEST PUSH1 0x20 MUL ADD SWAP1 PUSH1 0x1 SIGNEXTEND SWAP1 DUP2 PUSH1 0x1 SIGNEXTEND DUP2 MSTORE POP POP PUSH2 0x1186 DUP2 PUSH2 0x120 ADD MLOAD PUSH1 0x1 PUSH1 0xFF AND PUSH1 0x2 DUP2 LT PUSH2 0x117C JUMPI PUSH2 0x117B PUSH2 0x4F0C JUMP JUMPDEST JUMPDEST PUSH1 0x20 MUL ADD MLOAD PUSH2 0x2D34 JUMP JUMPDEST DUP2 PUSH2 0x120 ADD MLOAD PUSH1 0x1 PUSH1 0xFF AND PUSH1 0x2 DUP2 LT PUSH2 0x11A2 JUMPI PUSH2 0x11A1 PUSH2 0x4F0C JUMP JUMPDEST JUMPDEST PUSH1 0x20 MUL ADD SWAP1 PUSH1 0x1 SIGNEXTEND SWAP1 DUP2 PUSH1 0x1 SIGNEXTEND DUP2 MSTORE POP POP DUP1 PUSH2 0x120 ADD MLOAD PUSH1 0x3 PUSH1 0x0 DUP6 DUP2 MSTORE PUSH1 0x20 ADD SWAP1 DUP2 MSTORE PUSH1 0x20 ADD PUSH1 0x0 KECCAK256 PUSH1 0x6 ADD SWAP1 PUSH1 0x2 PUSH2 0x11DD SWAP3 SWAP2 SWAP1 PUSH2 0x3316 JUMP JUMPDEST POP PUSH1 0x0 PUSH32 0x0 PUSH20 0xFFFFFFFFFFFFFFFFFFFFFFFFFFFFFFFFFFFFFFFF AND PUSH4 0xB34291A6 DUP6 PUSH1 0x40 MLOAD DUP3 PUSH4 0xFFFFFFFF AND PUSH1 0xE0 SHL DUP2 MSTORE PUSH1 0x4 ADD PUSH2 0x1239 SWAP2 SWAP1 PUSH2 0x4912 JUMP JUMPDEST PUSH1 0xA0 PUSH1 0x40 MLOAD DUP1 DUP4 SUB DUP2 PUSH1 0x0 DUP8 DUP1 EXTCODESIZE ISZERO DUP1 ISZERO PUSH2 0x1253 JUMPI PUSH1 0x0 DUP1 REVERT JUMPDEST POP GAS CALL ISZERO DUP1 ISZERO PUSH2 0x1267 JUMPI RETURNDATASIZE PUSH1 0x0 DUP1 RETURNDATACOPY RETURNDATASIZE PUSH1 0x0 REVERT JUMPDEST POP POP POP POP PUSH1 0x40 MLOAD RETURNDATASIZE PUSH1 0x1F NOT PUSH1 0x1F DUP3 ADD AND DUP3 ADD DUP1 PUSH1 0x40 MSTORE POP DUP2 ADD SWAP1 PUSH2 0x128B SWAP2 SWAP1 PUSH2 0x3A91 JUMP JUMPDEST SWAP1 POP DUP4 PUSH32 0xCEE8F1BC520AAB5C898F5422F832F8A47AE3030CE2B380AFE2BB849A0FD10F3F TIMESTAMP DUP5 DUP5 PUSH1 0x40 MLOAD PUSH2 0x12C1 SWAP4 SWAP3 SWAP2 SWAP1 PUSH2 0x49BB JUMP JUMPDEST PUSH1 0x40 MLOAD DUP1 SWAP2 SUB SWAP1 LOG2 POP POP POP PUSH1 0x1 PUSH1 0x0 DUP2 SWAP1 SSTORE POP POP JUMP JUMPDEST PUSH32 0x0 DUP2 JUMP JUMPDEST PUSH32 0x0 PUSH20 0xFFFFFFFFFFFFFFFFFFFFFFFFFFFFFFFFFFFFFFFF AND PUSH2 0x133A PUSH2 0x2D2C JUMP JUMPDEST PUSH20 0xFFFFFFFFFFFFFFFFFFFFFFFFFFFFFFFFFFFFFFFF AND EQ DUP1 PUSH2 0x13AE JUMPI POP PUSH32 0x0 PUSH20 0xFFFFFFFFFFFFFFFFFFFFFFFFFFFFFFFFFFFFFFFF AND PUSH2 0x1396 PUSH2 0x2D2C JUMP JUMPDEST PUSH20 0xFFFFFFFFFFFFFFFFFFFFFFFFFFFFFFFFFFFFFFFF AND EQ JUMPDEST PUSH2 0x13B7 JUMPI PUSH1 0x0 DUP1 REVERT JUMPDEST DUP2 PUSH1 0x3 PUSH1 0x0 DUP6 DUP2 MSTORE PUSH1 0x20 ADD SWAP1 DUP2 MSTORE PUSH1 0x20 ADD PUSH1 0x0 KECCAK256 PUSH1 0x7 ADD SWAP1 PUSH1 0x4 PUSH2 0x13DC SWAP3 SWAP2 SWAP1 PUSH2 0x3135 JUMP JUMPDEST POP DUP1 PUSH1 0x3 PUSH1 0x0 DUP6 DUP2 MSTORE PUSH1 0x20 ADD SWAP1 DUP2 MSTORE PUSH1 0x20 ADD PUSH1 0x0 KECCAK256 PUSH1 0x6 ADD SWAP1 PUSH1 0x2 PUSH2 0x1402 SWAP3 SWAP2 SWAP1 PUSH2 0x31D6 JUMP JUMPDEST POP POP POP POP JUMP JUMPDEST PUSH1 0x2 PUSH1 0x0 SWAP1 SLOAD SWAP1 PUSH2 0x100 EXP SWAP1 DIV PUSH2 0xFFFF AND DUP2 JUMP JUMPDEST PUSH1 0x2 PUSH1 0x0 SLOAD EQ ISZERO PUSH2 0x1462 JUMPI PUSH1 0x40 MLOAD PUSH32 0x8C379A000000000000000000000000000000000000000000000000000000000 DUP2 MSTORE PUSH1 0x4 ADD PUSH2 0x1459 SWAP1 PUSH2 0x486E JUMP JUMPDEST PUSH1 0x40 MLOAD DUP1 SWAP2 SUB SWAP1 REVERT JUMPDEST PUSH1 0x2 PUSH1 0x0 DUP2 SWAP1 SSTORE POP PUSH1 0x0 PUSH2 0x1476 PUSH1 0x1 PUSH2 0x2DDF JUMP JUMPDEST SWAP1 POP PUSH1 0x0 PUSH2 0x1482 PUSH2 0x2D2C JUMP JUMPDEST SWAP1 POP PUSH1 0x0 PUSH20 0xFFFFFFFFFFFFFFFFFFFFFFFFFFFFFFFFFFFFFFFF AND PUSH1 0x3 PUSH1 0x0 DUP5 DUP2 MSTORE PUSH1 0x20 ADD SWAP1 DUP2 MSTORE PUSH1 0x20 ADD PUSH1 0x0 KECCAK256 PUSH1 0x0 ADD PUSH1 0x0 SWAP1 SLOAD SWAP1 PUSH2 0x100 EXP SWAP1 DIV PUSH20 0xFFFFFFFFFFFFFFFFFFFFFFFFFFFFFFFFFFFFFFFF AND PUSH20 0xFFFFFFFFFFFFFFFFFFFFFFFFFFFFFFFFFFFFFFFF AND EQ PUSH2 0x1529 JUMPI PUSH1 0x40 MLOAD PUSH32 0x8C379A000000000000000000000000000000000000000000000000000000000 DUP2 MSTORE PUSH1 0x4 ADD PUSH2 0x1520 SWAP1 PUSH2 0x476E JUMP JUMPDEST PUSH1 0x40 MLOAD DUP1 SWAP2 SUB SWAP1 REVERT JUMPDEST PUSH1 0x0 PUSH20 0xFFFFFFFFFFFFFFFFFFFFFFFFFFFFFFFFFFFFFFFF AND DUP6 PUSH1 0x20 ADD PUSH1 0x20 DUP2 ADD SWAP1 PUSH2 0x1554 SWAP2 SWAP1 PUSH2 0x39E4 JUMP JUMPDEST PUSH20 0xFFFFFFFFFFFFFFFFFFFFFFFFFFFFFFFFFFFFFFFF AND EQ ISZERO PUSH2 0x15AB JUMPI PUSH1 0x40 MLOAD PUSH32 0x8C379A000000000000000000000000000000000000000000000000000000000 DUP2 MSTORE PUSH1 0x4 ADD PUSH2 0x15A2 SWAP1 PUSH2 0x484E JUMP JUMPDEST PUSH1 0x40 MLOAD DUP1 SWAP2 SUB SWAP1 REVERT JUMPDEST DUP5 PUSH1 0x20 ADD PUSH1 0x20 DUP2 ADD SWAP1 PUSH2 0x15BE SWAP2 SWAP1 PUSH2 0x39E4 JUMP JUMPDEST PUSH20 0xFFFFFFFFFFFFFFFFFFFFFFFFFFFFFFFFFFFFFFFF AND DUP2 PUSH20 0xFFFFFFFFFFFFFFFFFFFFFFFFFFFFFFFFFFFFFFFF AND EQ ISZERO PUSH2 0x162C JUMPI PUSH1 0x40 MLOAD PUSH32 0x8C379A000000000000000000000000000000000000000000000000000000000 DUP2 MSTORE PUSH1 0x4 ADD PUSH2 0x1623 SWAP1 PUSH2 0x478E JUMP JUMPDEST PUSH1 0x40 MLOAD DUP1 SWAP2 SUB SWAP1 REVERT JUMPDEST PUSH1 0x0 CALLVALUE EQ PUSH2 0x1645 JUMPI CALLVALUE DUP6 PUSH1 0xE0 ADD CALLDATALOAD EQ PUSH2 0x1644 JUMPI PUSH1 0x0 DUP1 REVERT JUMPDEST JUMPDEST PUSH1 0x0 PUSH20 0xFFFFFFFFFFFFFFFFFFFFFFFFFFFFFFFFFFFFFFFF AND DUP5 PUSH20 0xFFFFFFFFFFFFFFFFFFFFFFFFFFFFFFFFFFFFFFFF AND EQ PUSH2 0x1709 JUMPI PUSH32 0x0 PUSH20 0xFFFFFFFFFFFFFFFFFFFFFFFFFFFFFFFFFFFFFFFF AND PUSH4 0x2EA8EDDD DUP4 DUP7 DUP7 PUSH1 0x40 MLOAD DUP5 PUSH4 0xFFFFFFFF AND PUSH1 0xE0 SHL DUP2 MSTORE PUSH1 0x4 ADD PUSH2 0x16D6 SWAP4 SWAP3 SWAP2 SWAP1 PUSH2 0x492D JUMP JUMPDEST PUSH1 0x0 PUSH1 0x40 MLOAD DUP1 DUP4 SUB DUP2 PUSH1 0x0 DUP8 DUP1 EXTCODESIZE ISZERO DUP1 ISZERO PUSH2 0x16F0 JUMPI PUSH1 0x0 DUP1 REVERT JUMPDEST POP GAS CALL ISZERO DUP1 ISZERO PUSH2 0x1704 JUMPI RETURNDATASIZE PUSH1 0x0 DUP1 RETURNDATACOPY RETURNDATASIZE PUSH1 0x0 REVERT JUMPDEST POP POP POP POP JUMPDEST PUSH1 0x0 PUSH1 0x2 PUSH1 0x0 SWAP1 SLOAD SWAP1 PUSH2 0x100 EXP SWAP1 DIV PUSH2 0xFFFF AND SWAP1 POP PUSH1 0x0 PUSH1 0x40 MLOAD DUP1 PUSH1 0x80 ADD PUSH1 0x40 MSTORE DUP1 PUSH1 0x0 PUSH2 0xFFFF AND DUP2 MSTORE PUSH1 0x20 ADD PUSH2 0x2710 PUSH2 0xFFFF AND DUP2 MSTORE PUSH1 0x20 ADD DUP9 PUSH1 0x80 ADD PUSH1 0x20 DUP2 ADD SWAP1 PUSH2 0x1755 SWAP2 SWAP1 PUSH2 0x3BE4 JUMP JUMPDEST PUSH2 0xFFFF AND PUSH2 0xFFFF AND DUP2 MSTORE PUSH1 0x20 ADD DUP4 PUSH2 0xFFFF AND PUSH2 0xFFFF AND DUP2 MSTORE POP SWAP1 POP PUSH1 0x0 PUSH1 0x40 MLOAD DUP1 PUSH1 0x40 ADD PUSH1 0x40 MSTORE DUP1 PUSH1 0x0 PUSH1 0x1 SIGNEXTEND PUSH1 0x1 SIGNEXTEND DUP2 MSTORE PUSH1 0x20 ADD PUSH1 0x1 DUP1 SIGNEXTEND PUSH1 0x1 SIGNEXTEND DUP2 MSTORE POP SWAP1 POP PUSH1 0x0 PUSH1 0x40 MLOAD DUP1 PUSH2 0x180 ADD PUSH1 0x40 MSTORE DUP1 DUP7 PUSH20 0xFFFFFFFFFFFFFFFFFFFFFFFFFFFFFFFFFFFFFFFF AND DUP2 MSTORE PUSH1 0x20 ADD DUP11 PUSH1 0x20 ADD PUSH1 0x20 DUP2 ADD SWAP1 PUSH2 0x17D3 SWAP2 SWAP1 PUSH2 0x39E4 JUMP JUMPDEST PUSH20 0xFFFFFFFFFFFFFFFFFFFFFFFFFFFFFFFFFFFFFFFF AND DUP2 MSTORE PUSH1 0x20 ADD TIMESTAMP PUSH8 0xFFFFFFFFFFFFFFFF AND DUP2 MSTORE PUSH1 0x20 ADD DUP11 PUSH1 0xA0 ADD PUSH1 0x20 DUP2 ADD SWAP1 PUSH2 0x1811 SWAP2 SWAP1 PUSH2 0x3D0E JUMP JUMPDEST PUSH4 0xFFFFFFFF AND TIMESTAMP PUSH2 0x1822 SWAP2 SWAP1 PUSH2 0x4C0E JUMP JUMPDEST PUSH8 0xFFFFFFFFFFFFFFFF AND DUP2 MSTORE PUSH1 0x20 ADD PUSH1 0x0 DUP12 PUSH1 0xC0 ADD PUSH1 0x20 DUP2 ADD SWAP1 PUSH2 0x1846 SWAP2 SWAP1 PUSH2 0x3D0E JUMP JUMPDEST PUSH4 0xFFFFFFFF AND GT PUSH2 0x1869 JUMPI DUP11 PUSH1 0xA0 ADD PUSH1 0x20 DUP2 ADD SWAP1 PUSH2 0x1864 SWAP2 SWAP1 PUSH2 0x3D0E JUMP JUMPDEST PUSH2 0x187D JUMP JUMPDEST DUP11 PUSH1 0xC0 ADD PUSH1 0x20 DUP2 ADD SWAP1 PUSH2 0x187C SWAP2 SWAP1 PUSH2 0x3D0E JUMP JUMPDEST JUMPDEST PUSH4 0xFFFFFFFF AND PUSH8 0xFFFFFFFFFFFFFFFF AND DUP2 MSTORE PUSH1 0x20 ADD DUP11 PUSH1 0x40 ADD PUSH1 0x20 DUP2 ADD SWAP1 PUSH2 0x18A5 SWAP2 SWAP1 PUSH2 0x39E4 JUMP JUMPDEST PUSH20 0xFFFFFFFFFFFFFFFFFFFFFFFFFFFFFFFFFFFFFFFF AND DUP2 MSTORE PUSH1 0x20 ADD DUP11 PUSH1 0x80 ADD PUSH1 0x20 DUP2 ADD SWAP1 PUSH2 0x18D3 SWAP2 SWAP1 PUSH2 0x3BE4 JUMP JUMPDEST PUSH2 0xFFFF AND DUP2 MSTORE PUSH1 0x20 ADD DUP11 PUSH1 0x60 ADD PUSH1 0x20 DUP2 ADD SWAP1 PUSH2 0x18EF SWAP2 SWAP1 PUSH2 0x39E4 JUMP JUMPDEST PUSH20 0xFFFFFFFFFFFFFFFFFFFFFFFFFFFFFFFFFFFFFFFF AND DUP2 MSTORE PUSH1 0x20 ADD PUSH1 0x0 PUSH2 0xFFFF AND DUP2 MSTORE PUSH1 0x20 ADD DUP4 DUP2 MSTORE PUSH1 0x20 ADD DUP5 DUP2 MSTORE PUSH1 0x20 ADD DUP11 PUSH1 0xE0 ADD CALLDATALOAD DUP2 MSTORE POP SWAP1 POP PUSH1 0x0 PUSH20 0xFFFFFFFFFFFFFFFFFFFFFFFFFFFFFFFFFFFFFFFF AND DUP10 PUSH1 0x60 ADD PUSH1 0x20 DUP2 ADD SWAP1 PUSH2 0x1956 SWAP2 SWAP1 PUSH2 0x39E4 JUMP JUMPDEST PUSH20 0xFFFFFFFFFFFFFFFFFFFFFFFFFFFFFFFFFFFFFFFF AND EQ PUSH2 0x1994 JUMPI PUSH2 0x1993 DUP10 PUSH1 0x60 ADD PUSH1 0x20 DUP2 ADD SWAP1 PUSH2 0x1987 SWAP2 SWAP1 PUSH2 0x39E4 JUMP JUMPDEST DUP7 ADDRESS DUP13 PUSH1 0xE0 ADD CALLDATALOAD PUSH2 0x2DED JUMP JUMPDEST JUMPDEST DUP1 PUSH1 0x3 PUSH1 0x0 DUP9 DUP2 MSTORE PUSH1 0x20 ADD SWAP1 DUP2 MSTORE PUSH1 0x20 ADD PUSH1 0x0 KECCAK256 PUSH1 0x0 DUP3 ADD MLOAD DUP2 PUSH1 0x0 ADD PUSH1 0x0 PUSH2 0x100 EXP DUP2 SLOAD DUP2 PUSH20 0xFFFFFFFFFFFFFFFFFFFFFFFFFFFFFFFFFFFFFFFF MUL NOT AND SWAP1 DUP4 PUSH20 0xFFFFFFFFFFFFFFFFFFFFFFFFFFFFFFFFFFFFFFFF AND MUL OR SWAP1 SSTORE POP PUSH1 0x20 DUP3 ADD MLOAD DUP2 PUSH1 0x1 ADD PUSH1 0x0 PUSH2 0x100 EXP DUP2 SLOAD DUP2 PUSH20 0xFFFFFFFFFFFFFFFFFFFFFFFFFFFFFFFFFFFFFFFF MUL NOT AND SWAP1 DUP4 PUSH20 0xFFFFFFFFFFFFFFFFFFFFFFFFFFFFFFFFFFFFFFFF AND MUL OR SWAP1 SSTORE POP PUSH1 0x40 DUP3 ADD MLOAD DUP2 PUSH1 0x1 ADD PUSH1 0x14 PUSH2 0x100 EXP DUP2 SLOAD DUP2 PUSH8 0xFFFFFFFFFFFFFFFF MUL NOT AND SWAP1 DUP4 PUSH8 0xFFFFFFFFFFFFFFFF AND MUL OR SWAP1 SSTORE POP PUSH1 0x60 DUP3 ADD MLOAD DUP2 PUSH1 0x2 ADD PUSH1 0x0 PUSH2 0x100 EXP DUP2 SLOAD DUP2 PUSH8 0xFFFFFFFFFFFFFFFF MUL NOT AND SWAP1 DUP4 PUSH8 0xFFFFFFFFFFFFFFFF AND MUL OR SWAP1 SSTORE POP PUSH1 0x80 DUP3 ADD MLOAD DUP2 PUSH1 0x2 ADD PUSH1 0x8 PUSH2 0x100 EXP DUP2 SLOAD DUP2 PUSH8 0xFFFFFFFFFFFFFFFF MUL NOT AND SWAP1 DUP4 PUSH8 0xFFFFFFFFFFFFFFFF AND MUL OR SWAP1 SSTORE POP PUSH1 0xA0 DUP3 ADD MLOAD DUP2 PUSH1 0x3 ADD PUSH1 0x0 PUSH2 0x100 EXP DUP2 SLOAD DUP2 PUSH20 0xFFFFFFFFFFFFFFFFFFFFFFFFFFFFFFFFFFFFFFFF MUL NOT AND SWAP1 DUP4 PUSH20 0xFFFFFFFFFFFFFFFFFFFFFFFFFFFFFFFFFFFFFFFF AND MUL OR SWAP1 SSTORE POP PUSH1 0xC0 DUP3 ADD MLOAD DUP2 PUSH1 0x4 ADD SSTORE PUSH1 0xE0 DUP3 ADD MLOAD DUP2 PUSH1 0x5 ADD PUSH1 0x0 PUSH2 0x100 EXP DUP2 SLOAD DUP2 PUSH20 0xFFFFFFFFFFFFFFFFFFFFFFFFFFFFFFFFFFFFFFFF MUL NOT AND SWAP1 DUP4 PUSH20 0xFFFFFFFFFFFFFFFFFFFFFFFFFFFFFFFFFFFFFFFF AND MUL OR SWAP1 SSTORE POP PUSH2 0x100 DUP3 ADD MLOAD DUP2 PUSH1 0x5 ADD PUSH1 0x14 PUSH2 0x100 EXP DUP2 SLOAD DUP2 PUSH2 0xFFFF MUL NOT AND SWAP1 DUP4 PUSH2 0xFFFF AND MUL OR SWAP1 SSTORE POP PUSH2 0x120 DUP3 ADD MLOAD DUP2 PUSH1 0x6 ADD SWAP1 PUSH1 0x2 PUSH2 0x1B97 SWAP3 SWAP2 SWAP1 PUSH2 0x3316 JUMP JUMPDEST POP PUSH2 0x140 DUP3 ADD MLOAD DUP2 PUSH1 0x7 ADD SWAP1 PUSH1 0x4 PUSH2 0x1BB0 SWAP3 SWAP2 SWAP1 PUSH2 0x3279 JUMP JUMPDEST POP PUSH2 0x160 DUP3 ADD MLOAD DUP2 PUSH1 0x8 ADD SSTORE SWAP1 POP POP PUSH2 0x1BC9 PUSH1 0x1 PUSH2 0x2E76 JUMP JUMPDEST DUP6 PUSH32 0x71D560F85948B6D530D753B205401BC1830F037C665C4DDAB459556547FA5541 TIMESTAMP DUP4 DUP12 DUP12 DUP15 PUSH1 0xA0 ADD PUSH1 0x20 DUP2 ADD SWAP1 PUSH2 0x1C02 SWAP2 SWAP1 PUSH2 0x3D0E JUMP JUMPDEST PUSH1 0x40 MLOAD PUSH2 0x1C13 SWAP6 SWAP5 SWAP4 SWAP3 SWAP2 SWAP1 PUSH2 0x4964 JUMP JUMPDEST PUSH1 0x40 MLOAD DUP1 SWAP2 SUB SWAP1 LOG2 POP POP POP POP POP POP PUSH1 0x1 PUSH1 0x0 DUP2 SWAP1 SSTORE POP POP POP POP JUMP JUMPDEST PUSH1 0x2 DUP1 SLOAD SWAP1 PUSH2 0x100 EXP SWAP1 DIV PUSH20 0xFFFFFFFFFFFFFFFFFFFFFFFFFFFFFFFFFFFFFFFF AND DUP2 JUMP JUMPDEST PUSH2 0x1C5A PUSH2 0x33B6 JUMP JUMPDEST PUSH1 0x3 PUSH1 0x0 DUP4 DUP2 MSTORE PUSH1 0x20 ADD SWAP1 DUP2 MSTORE PUSH1 0x20 ADD PUSH1 0x0 KECCAK256 PUSH1 0x40 MLOAD DUP1 PUSH2 0x180 ADD PUSH1 0x40 MSTORE SWAP1 DUP2 PUSH1 0x0 DUP3 ADD PUSH1 0x0 SWAP1 SLOAD SWAP1 PUSH2 0x100 EXP SWAP1 DIV PUSH20 0xFFFFFFFFFFFFFFFFFFFFFFFFFFFFFFFFFFFFFFFF AND PUSH20 0xFFFFFFFFFFFFFFFFFFFFFFFFFFFFFFFFFFFFFFFF AND PUSH20 0xFFFFFFFFFFFFFFFFFFFFFFFFFFFFFFFFFFFFFFFF AND DUP2 MSTORE PUSH1 0x20 ADD PUSH1 0x1 DUP3 ADD PUSH1 0x0 SWAP1 SLOAD SWAP1 PUSH2 0x100 EXP SWAP1 DIV PUSH20 0xFFFFFFFFFFFFFFFFFFFFFFFFFFFFFFFFFFFFFFFF AND PUSH20 0xFFFFFFFFFFFFFFFFFFFFFFFFFFFFFFFFFFFFFFFF AND PUSH20 0xFFFFFFFFFFFFFFFFFFFFFFFFFFFFFFFFFFFFFFFF AND DUP2 MSTORE PUSH1 0x20 ADD PUSH1 0x1 DUP3 ADD PUSH1 0x14 SWAP1 SLOAD SWAP1 PUSH2 0x100 EXP SWAP1 DIV PUSH8 0xFFFFFFFFFFFFFFFF AND PUSH8 0xFFFFFFFFFFFFFFFF AND PUSH8 0xFFFFFFFFFFFFFFFF AND DUP2 MSTORE PUSH1 0x20 ADD PUSH1 0x2 DUP3 ADD PUSH1 0x0 SWAP1 SLOAD SWAP1 PUSH2 0x100 EXP SWAP1 DIV PUSH8 0xFFFFFFFFFFFFFFFF AND PUSH8 0xFFFFFFFFFFFFFFFF AND PUSH8 0xFFFFFFFFFFFFFFFF AND DUP2 MSTORE PUSH1 0x20 ADD PUSH1 0x2 DUP3 ADD PUSH1 0x8 SWAP1 SLOAD SWAP1 PUSH2 0x100 EXP SWAP1 DIV PUSH8 0xFFFFFFFFFFFFFFFF AND PUSH8 0xFFFFFFFFFFFFFFFF AND PUSH8 0xFFFFFFFFFFFFFFFF AND DUP2 MSTORE PUSH1 0x20 ADD PUSH1 0x3 DUP3 ADD PUSH1 0x0 SWAP1 SLOAD SWAP1 PUSH2 0x100 EXP SWAP1 DIV PUSH20 0xFFFFFFFFFFFFFFFFFFFFFFFFFFFFFFFFFFFFFFFF AND PUSH20 0xFFFFFFFFFFFFFFFFFFFFFFFFFFFFFFFFFFFFFFFF AND PUSH20 0xFFFFFFFFFFFFFFFFFFFFFFFFFFFFFFFFFFFFFFFF AND DUP2 MSTORE PUSH1 0x20 ADD PUSH1 0x4 DUP3 ADD SLOAD DUP2 MSTORE PUSH1 0x20 ADD PUSH1 0x5 DUP3 ADD PUSH1 0x0 SWAP1 SLOAD SWAP1 PUSH2 0x100 EXP SWAP1 DIV PUSH20 0xFFFFFFFFFFFFFFFFFFFFFFFFFFFFFFFFFFFFFFFF AND PUSH20 0xFFFFFFFFFFFFFFFFFFFFFFFFFFFFFFFFFFFFFFFF AND PUSH20 0xFFFFFFFFFFFFFFFFFFFFFFFFFFFFFFFFFFFFFFFF AND DUP2 MSTORE PUSH1 0x20 ADD PUSH1 0x5 DUP3 ADD PUSH1 0x14 SWAP1 SLOAD SWAP1 PUSH2 0x100 EXP SWAP1 DIV PUSH2 0xFFFF AND PUSH2 0xFFFF AND PUSH2 0xFFFF AND DUP2 MSTORE PUSH1 0x20 ADD PUSH1 0x6 DUP3 ADD PUSH1 0x2 DUP1 PUSH1 0x20 MUL PUSH1 0x40 MLOAD SWAP1 DUP2 ADD PUSH1 0x40 MSTORE DUP1 SWAP3 SWAP2 SWAP1 DUP3 PUSH1 0x2 DUP1 ISZERO PUSH2 0x1EF3 JUMPI PUSH1 0x20 MUL DUP3 ADD SWAP2 PUSH1 0x0 SWAP1 JUMPDEST DUP3 DUP3 SWAP1 SLOAD SWAP1 PUSH2 0x100 EXP SWAP1 DIV PUSH1 0x1 SIGNEXTEND PUSH1 0x1 SIGNEXTEND DUP2 MSTORE PUSH1 0x20 ADD SWAP1 PUSH1 0x2 ADD SWAP1 PUSH1 0x20 DUP3 PUSH1 0x1 ADD DIV SWAP3 DUP4 ADD SWAP3 PUSH1 0x1 SUB DUP3 MUL SWAP2 POP DUP1 DUP5 GT PUSH2 0x1EBC JUMPI SWAP1 POP JUMPDEST POP POP POP POP POP DUP2 MSTORE PUSH1 0x20 ADD PUSH1 0x7 DUP3 ADD PUSH1 0x4 DUP1 PUSH1 0x20 MUL PUSH1 0x40 MLOAD SWAP1 DUP2 ADD PUSH1 0x40 MSTORE DUP1 SWAP3 SWAP2 SWAP1 DUP3 PUSH1 0x4 DUP1 ISZERO PUSH2 0x1F60 JUMPI PUSH1 0x20 MUL DUP3 ADD SWAP2 PUSH1 0x0 SWAP1 JUMPDEST DUP3 DUP3 SWAP1 SLOAD SWAP1 PUSH2 0x100 EXP SWAP1 DIV PUSH2 0xFFFF AND PUSH2 0xFFFF AND DUP2 MSTORE PUSH1 0x20 ADD SWAP1 PUSH1 0x2 ADD SWAP1 PUSH1 0x20 DUP3 PUSH1 0x1 ADD DIV SWAP3 DUP4 ADD SWAP3 PUSH1 0x1 SUB DUP3 MUL SWAP2 POP DUP1 DUP5 GT PUSH2 0x1F27 JUMPI SWAP1 POP JUMPDEST POP POP POP POP POP DUP2 MSTORE PUSH1 0x20 ADD PUSH1 0x8 DUP3 ADD SLOAD DUP2 MSTORE POP POP SWAP1 POP SWAP2 SWAP1 POP JUMP JUMPDEST PUSH32 0x0 DUP2 JUMP JUMPDEST PUSH1 0x2 DUP1 SLOAD SWAP1 PUSH2 0x100 EXP SWAP1 DIV PUSH20 0xFFFFFFFFFFFFFFFFFFFFFFFFFFFFFFFFFFFFFFFF AND PUSH20 0xFFFFFFFFFFFFFFFFFFFFFFFFFFFFFFFFFFFFFFFF AND PUSH2 0x1FDD PUSH2 0x2D2C JUMP JUMPDEST PUSH20 0xFFFFFFFFFFFFFFFFFFFFFFFFFFFFFFFFFFFFFFFF AND EQ PUSH2 0x1FFD JUMPI PUSH1 0x0 DUP1 REVERT JUMPDEST PUSH1 0x64 DUP2 PUSH2 0xFFFF AND GT ISZERO PUSH2 0x2045 JUMPI PUSH1 0x40 MLOAD PUSH32 0x8C379A000000000000000000000000000000000000000000000000000000000 DUP2 MSTORE PUSH1 0x4 ADD PUSH2 0x203C SWAP1 PUSH2 0x472E JUMP JUMPDEST PUSH1 0x40 MLOAD DUP1 SWAP2 SUB SWAP1 REVERT JUMPDEST DUP1 PUSH1 0x2 PUSH1 0x0 PUSH2 0x100 EXP DUP2 SLOAD DUP2 PUSH2 0xFFFF MUL NOT AND SWAP1 DUP4 PUSH2 0xFFFF AND MUL OR SWAP1 SSTORE POP POP JUMP JUMPDEST PUSH32 0x0 PUSH20 0xFFFFFFFFFFFFFFFFFFFFFFFFFFFFFFFFFFFFFFFF AND PUSH2 0x20A4 PUSH2 0x2D2C JUMP JUMPDEST PUSH20 0xFFFFFFFFFFFFFFFFFFFFFFFFFFFFFFFFFFFFFFFF AND EQ PUSH2 0x20C4 JUMPI PUSH1 0x0 DUP1 REVERT JUMPDEST PUSH1 0x0 PUSH20 0xFFFFFFFFFFFFFFFFFFFFFFFFFFFFFFFFFFFFFFFF AND DUP2 PUSH20 0xFFFFFFFFFFFFFFFFFFFFFFFFFFFFFFFFFFFFFFFF AND EQ ISZERO PUSH2 0x21AB JUMPI PUSH1 0x0 DUP4 PUSH20 0xFFFFFFFFFFFFFFFFFFFFFFFFFFFFFFFFFFFFFFFF AND DUP4 PUSH1 0x40 MLOAD PUSH2 0x211F SWAP1 PUSH2 0x45F0 JUMP JUMPDEST PUSH1 0x0 PUSH1 0x40 MLOAD DUP1 DUP4 SUB DUP2 DUP6 DUP8 GAS CALL SWAP3 POP POP POP RETURNDATASIZE DUP1 PUSH1 0x0 DUP2 EQ PUSH2 0x215C JUMPI PUSH1 0x40 MLOAD SWAP2 POP PUSH1 0x1F NOT PUSH1 0x3F RETURNDATASIZE ADD AND DUP3 ADD PUSH1 0x40 MSTORE RETURNDATASIZE DUP3 MSTORE RETURNDATASIZE PUSH1 0x0 PUSH1 0x20 DUP5 ADD RETURNDATACOPY PUSH2 0x2161 JUMP JUMPDEST PUSH1 0x60 SWAP2 POP JUMPDEST POP POP SWAP1 POP DUP1 PUSH2 0x21A5 JUMPI PUSH1 0x40 MLOAD PUSH32 0x8C379A000000000000000000000000000000000000000000000000000000000 DUP2 MSTORE PUSH1 0x4 ADD PUSH2 0x219C SWAP1 PUSH2 0x47EE JUMP JUMPDEST PUSH1 0x40 MLOAD DUP1 SWAP2 SUB SWAP1 REVERT JUMPDEST POP PUSH2 0x21B7 JUMP JUMPDEST PUSH2 0x21B6 DUP2 DUP5 DUP5 PUSH2 0x2D59 JUMP JUMPDEST JUMPDEST POP POP POP JUMP JUMPDEST PUSH1 0x2 DUP1 SLOAD SWAP1 PUSH2 0x100 EXP SWAP1 DIV PUSH20 0xFFFFFFFFFFFFFFFFFFFFFFFFFFFFFFFFFFFFFFFF AND PUSH20 0xFFFFFFFFFFFFFFFFFFFFFFFFFFFFFFFFFFFFFFFF AND PUSH2 0x21FB PUSH2 0x2D2C JUMP JUMPDEST PUSH20 0xFFFFFFFFFFFFFFFFFFFFFFFFFFFFFFFFFFFFFFFF AND EQ PUSH2 0x221B JUMPI PUSH1 0x0 DUP1 REVERT JUMPDEST DUP1 PUSH1 0x2 DUP1 PUSH2 0x100 EXP DUP2 SLOAD DUP2 PUSH20 0xFFFFFFFFFFFFFFFFFFFFFFFFFFFFFFFFFFFFFFFF MUL NOT AND SWAP1 DUP4 PUSH20 0xFFFFFFFFFFFFFFFFFFFFFFFFFFFFFFFFFFFFFFFF AND MUL OR SWAP1 SSTORE POP POP JUMP JUMPDEST PUSH2 0x2266 PUSH2 0x349D JUMP JUMPDEST PUSH2 0x226E PUSH2 0x349D JUMP JUMPDEST PUSH1 0x0 DUP1 DUP5 PUSH1 0x3 PUSH1 0xFF AND PUSH1 0x5 DUP2 LT PUSH2 0x2288 JUMPI PUSH2 0x2287 PUSH2 0x4F0C JUMP JUMPDEST JUMPDEST PUSH1 0x20 MUL ADD PUSH1 0x20 DUP2 ADD SWAP1 PUSH2 0x229B SWAP2 SWAP1 PUSH2 0x3BE4 JUMP JUMPDEST PUSH2 0xFFFF AND GT ISZERO PUSH2 0x2355 JUMPI PUSH2 0x232A PUSH2 0x2710 PUSH2 0xFFFF AND PUSH2 0x231C DUP7 PUSH1 0x1 PUSH1 0xFF AND PUSH1 0x5 DUP2 LT PUSH2 0x22C9 JUMPI PUSH2 0x22C8 PUSH2 0x4F0C JUMP JUMPDEST JUMPDEST PUSH1 0x20 MUL ADD PUSH1 0x20 DUP2 ADD SWAP1 PUSH2 0x22DC SWAP2 SWAP1 PUSH2 0x3BE4 JUMP JUMPDEST PUSH2 0xFFFF AND DUP8 PUSH1 0x3 PUSH1 0xFF AND PUSH1 0x5 DUP2 LT PUSH2 0x22F7 JUMPI PUSH2 0x22F6 PUSH2 0x4F0C JUMP JUMPDEST JUMPDEST PUSH1 0x20 MUL ADD PUSH1 0x20 DUP2 ADD SWAP1 PUSH2 0x230A SWAP2 SWAP1 PUSH2 0x3BE4 JUMP JUMPDEST PUSH2 0xFFFF AND PUSH2 0x2E8C SWAP1 SWAP2 SWAP1 PUSH4 0xFFFFFFFF AND JUMP JUMPDEST PUSH2 0x2EA2 SWAP1 SWAP2 SWAP1 PUSH4 0xFFFFFFFF AND JUMP JUMPDEST DUP3 PUSH1 0x3 PUSH1 0xFF AND PUSH1 0x4 DUP2 LT PUSH2 0x2341 JUMPI PUSH2 0x2340 PUSH2 0x4F0C JUMP JUMPDEST JUMPDEST PUSH1 0x20 MUL ADD SWAP1 PUSH2 0xFFFF AND SWAP1 DUP2 PUSH2 0xFFFF AND DUP2 MSTORE POP POP JUMPDEST PUSH1 0x0 DUP5 PUSH1 0x2 PUSH1 0xFF AND PUSH1 0x5 DUP2 LT PUSH2 0x236E JUMPI PUSH2 0x236D PUSH2 0x4F0C JUMP JUMPDEST JUMPDEST PUSH1 0x20 MUL ADD PUSH1 0x20 DUP2 ADD SWAP1 PUSH2 0x2381 SWAP2 SWAP1 PUSH2 0x3BE4 JUMP JUMPDEST PUSH2 0xFFFF AND GT ISZERO PUSH2 0x243B JUMPI PUSH2 0x2410 PUSH2 0x2710 PUSH2 0xFFFF AND PUSH2 0x2402 DUP7 PUSH1 0x1 PUSH1 0xFF AND PUSH1 0x5 DUP2 LT PUSH2 0x23AF JUMPI PUSH2 0x23AE PUSH2 0x4F0C JUMP JUMPDEST JUMPDEST PUSH1 0x20 MUL ADD PUSH1 0x20 DUP2 ADD SWAP1 PUSH2 0x23C2 SWAP2 SWAP1 PUSH2 0x3BE4 JUMP JUMPDEST PUSH2 0xFFFF AND DUP8 PUSH1 0x2 PUSH1 0xFF AND PUSH1 0x5 DUP2 LT PUSH2 0x23DD JUMPI PUSH2 0x23DC PUSH2 0x4F0C JUMP JUMPDEST JUMPDEST PUSH1 0x20 MUL ADD PUSH1 0x20 DUP2 ADD SWAP1 PUSH2 0x23F0 SWAP2 SWAP1 PUSH2 0x3BE4 JUMP JUMPDEST PUSH2 0xFFFF AND PUSH2 0x2E8C SWAP1 SWAP2 SWAP1 PUSH4 0xFFFFFFFF AND JUMP JUMPDEST PUSH2 0x2EA2 SWAP1 SWAP2 SWAP1 PUSH4 0xFFFFFFFF AND JUMP JUMPDEST DUP3 PUSH1 0x2 PUSH1 0xFF AND PUSH1 0x4 DUP2 LT PUSH2 0x2427 JUMPI PUSH2 0x2426 PUSH2 0x4F0C JUMP JUMPDEST JUMPDEST PUSH1 0x20 MUL ADD SWAP1 PUSH2 0xFFFF AND SWAP1 DUP2 PUSH2 0xFFFF AND DUP2 MSTORE POP POP JUMPDEST PUSH2 0x24C0 PUSH2 0x2710 PUSH2 0xFFFF AND PUSH2 0x24B2 DUP7 PUSH1 0x1 PUSH1 0xFF AND PUSH1 0x5 DUP2 LT PUSH2 0x245F JUMPI PUSH2 0x245E PUSH2 0x4F0C JUMP JUMPDEST JUMPDEST PUSH1 0x20 MUL ADD PUSH1 0x20 DUP2 ADD SWAP1 PUSH2 0x2472 SWAP2 SWAP1 PUSH2 0x3BE4 JUMP JUMPDEST PUSH2 0xFFFF AND DUP8 PUSH1 0x4 PUSH1 0xFF AND PUSH1 0x5 DUP2 LT PUSH2 0x248D JUMPI PUSH2 0x248C PUSH2 0x4F0C JUMP JUMPDEST JUMPDEST PUSH1 0x20 MUL ADD PUSH1 0x20 DUP2 ADD SWAP1 PUSH2 0x24A0 SWAP2 SWAP1 PUSH2 0x3BE4 JUMP JUMPDEST PUSH2 0xFFFF AND PUSH2 0x2E8C SWAP1 SWAP2 SWAP1 PUSH4 0xFFFFFFFF AND JUMP JUMPDEST PUSH2 0x2EA2 SWAP1 SWAP2 SWAP1 PUSH4 0xFFFFFFFF AND JUMP JUMPDEST SWAP1 POP DUP1 DUP3 PUSH1 0x2 PUSH1 0xFF AND PUSH1 0x4 DUP2 LT PUSH2 0x24DA JUMPI PUSH2 0x24D9 PUSH2 0x4F0C JUMP JUMPDEST JUMPDEST PUSH1 0x20 MUL ADD MLOAD DUP4 PUSH1 0x3 PUSH1 0xFF AND PUSH1 0x4 DUP2 LT PUSH2 0x24F6 JUMPI PUSH2 0x24F5 PUSH2 0x4F0C JUMP JUMPDEST JUMPDEST PUSH1 0x20 MUL ADD MLOAD DUP7 PUSH1 0x1 PUSH1 0xFF AND PUSH1 0x5 DUP2 LT PUSH2 0x2512 JUMPI PUSH2 0x2511 PUSH2 0x4F0C JUMP JUMPDEST JUMPDEST PUSH1 0x20 MUL ADD PUSH1 0x20 DUP2 ADD SWAP1 PUSH2 0x2525 SWAP2 SWAP1 PUSH2 0x3BE4 JUMP JUMPDEST SUB SUB SUB DUP3 PUSH1 0x1 PUSH1 0xFF AND PUSH1 0x4 DUP2 LT PUSH2 0x253F JUMPI PUSH2 0x253E PUSH2 0x4F0C JUMP JUMPDEST JUMPDEST PUSH1 0x20 MUL ADD SWAP1 PUSH2 0xFFFF AND SWAP1 DUP2 PUSH2 0xFFFF AND DUP2 MSTORE POP POP DUP4 PUSH1 0x0 PUSH1 0xFF AND PUSH1 0x5 DUP2 LT PUSH2 0x2569 JUMPI PUSH2 0x2568 PUSH2 0x4F0C JUMP JUMPDEST JUMPDEST PUSH1 0x20 MUL ADD PUSH1 0x20 DUP2 ADD SWAP1 PUSH2 0x257C SWAP2 SWAP1 PUSH2 0x3BE4 JUMP JUMPDEST DUP3 PUSH1 0x0 PUSH1 0xFF AND PUSH1 0x4 DUP2 LT PUSH2 0x2593 JUMPI PUSH2 0x2592 PUSH2 0x4F0C JUMP JUMPDEST JUMPDEST PUSH1 0x20 MUL ADD SWAP1 PUSH2 0xFFFF AND SWAP1 DUP2 PUSH2 0xFFFF AND DUP2 MSTORE POP POP DUP2 SWAP3 POP POP POP SWAP2 SWAP1 POP JUMP JUMPDEST PUSH2 0x25B8 PUSH2 0x34BF JUMP JUMPDEST PUSH1 0x0 PUSH1 0x3 PUSH1 0x0 DUP5 DUP2 MSTORE PUSH1 0x20 ADD SWAP1 DUP2 MSTORE PUSH1 0x20 ADD PUSH1 0x0 KECCAK256 PUSH1 0x5 ADD PUSH1 0x0 SWAP1 SLOAD SWAP1 PUSH2 0x100 EXP SWAP1 DIV PUSH20 0xFFFFFFFFFFFFFFFFFFFFFFFFFFFFFFFFFFFFFFFF AND SWAP1 POP PUSH1 0x0 PUSH1 0x40 MLOAD DUP1 PUSH1 0x60 ADD PUSH1 0x40 MSTORE DUP1 DUP4 PUSH20 0xFFFFFFFFFFFFFFFFFFFFFFFFFFFFFFFFFFFFFFFF AND DUP2 MSTORE PUSH1 0x20 ADD PUSH1 0x0 PUSH20 0xFFFFFFFFFFFFFFFFFFFFFFFFFFFFFFFFFFFFFFFF AND DUP5 PUSH20 0xFFFFFFFFFFFFFFFFFFFFFFFFFFFFFFFFFFFFFFFF AND EQ PUSH2 0x26D3 JUMPI DUP4 PUSH20 0xFFFFFFFFFFFFFFFFFFFFFFFFFFFFFFFFFFFFFFFF AND PUSH4 0x313CE567 PUSH1 0x40 MLOAD DUP2 PUSH4 0xFFFFFFFF AND PUSH1 0xE0 SHL DUP2 MSTORE PUSH1 0x4 ADD PUSH1 0x20 PUSH1 0x40 MLOAD DUP1 DUP4 SUB DUP2 DUP7 DUP1 EXTCODESIZE ISZERO DUP1 ISZERO PUSH2 0x2696 JUMPI PUSH1 0x0 DUP1 REVERT JUMPDEST POP GAS STATICCALL ISZERO DUP1 ISZERO PUSH2 0x26AA JUMPI RETURNDATASIZE PUSH1 0x0 DUP1 RETURNDATACOPY RETURNDATASIZE PUSH1 0x0 REVERT JUMPDEST POP POP POP POP PUSH1 0x40 MLOAD RETURNDATASIZE PUSH1 0x1F NOT PUSH1 0x1F DUP3 ADD AND DUP3 ADD DUP1 PUSH1 0x40 MSTORE POP DUP2 ADD SWAP1 PUSH2 0x26CE SWAP2 SWAP1 PUSH2 0x3D3B JUMP JUMPDEST PUSH2 0x26D6 JUMP JUMPDEST PUSH1 0x12 JUMPDEST PUSH1 0xFF AND DUP2 MSTORE PUSH1 0x20 ADD PUSH1 0x0 PUSH20 0xFFFFFFFFFFFFFFFFFFFFFFFFFFFFFFFFFFFFFFFF AND DUP5 PUSH20 0xFFFFFFFFFFFFFFFFFFFFFFFFFFFFFFFFFFFFFFFF AND EQ PUSH2 0x279A JUMPI DUP4 PUSH20 0xFFFFFFFFFFFFFFFFFFFFFFFFFFFFFFFFFFFFFFFF AND PUSH4 0x95D89B41 PUSH1 0x40 MLOAD DUP2 PUSH4 0xFFFFFFFF AND PUSH1 0xE0 SHL DUP2 MSTORE PUSH1 0x4 ADD PUSH1 0x0 PUSH1 0x40 MLOAD DUP1 DUP4 SUB DUP2 DUP7 DUP1 EXTCODESIZE ISZERO DUP1 ISZERO PUSH2 0x2758 JUMPI PUSH1 0x0 DUP1 REVERT JUMPDEST POP GAS STATICCALL ISZERO DUP1 ISZERO PUSH2 0x276C JUMPI RETURNDATASIZE PUSH1 0x0 DUP1 RETURNDATACOPY RETURNDATASIZE PUSH1 0x0 REVERT JUMPDEST POP POP POP POP PUSH1 0x40 MLOAD RETURNDATASIZE PUSH1 0x0 DUP3 RETURNDATACOPY RETURNDATASIZE PUSH1 0x1F NOT PUSH1 0x1F DUP3 ADD AND DUP3 ADD DUP1 PUSH1 0x40 MSTORE POP DUP2 ADD SWAP1 PUSH2 0x2795 SWAP2 SWAP1 PUSH2 0x3AEB JUMP JUMPDEST PUSH2 0x27D1 JUMP JUMPDEST PUSH1 0x40 MLOAD DUP1 PUSH1 0x40 ADD PUSH1 0x40 MSTORE DUP1 PUSH1 0x3 DUP2 MSTORE PUSH1 0x20 ADD PUSH32 0x4554480000000000000000000000000000000000000000000000000000000000 DUP2 MSTORE POP JUMPDEST DUP2 MSTORE POP SWAP1 POP PUSH1 0x0 PUSH32 0x0 PUSH20 0xFFFFFFFFFFFFFFFFFFFFFFFFFFFFFFFFFFFFFFFF AND PUSH4 0x16E0551B DUP7 PUSH1 0x40 MLOAD DUP3 PUSH4 0xFFFFFFFF AND PUSH1 0xE0 SHL DUP2 MSTORE PUSH1 0x4 ADD PUSH2 0x2831 SWAP2 SWAP1 PUSH2 0x4912 JUMP JUMPDEST PUSH1 0xA0 PUSH1 0x40 MLOAD DUP1 DUP4 SUB DUP2 DUP7 DUP1 EXTCODESIZE ISZERO DUP1 ISZERO PUSH2 0x2849 JUMPI PUSH1 0x0 DUP1 REVERT JUMPDEST POP GAS STATICCALL ISZERO DUP1 ISZERO PUSH2 0x285D JUMPI RETURNDATASIZE PUSH1 0x0 DUP1 RETURNDATACOPY RETURNDATASIZE PUSH1 0x0 REVERT JUMPDEST POP POP POP POP PUSH1 0x40 MLOAD RETURNDATASIZE PUSH1 0x1F NOT PUSH1 0x1F DUP3 ADD AND DUP3 ADD DUP1 PUSH1 0x40 MSTORE POP DUP2 ADD SWAP1 PUSH2 0x2881 SWAP2 SWAP1 PUSH2 0x3B34 JUMP JUMPDEST SWAP1 POP PUSH1 0x0 PUSH32 0x0 PUSH20 0xFFFFFFFFFFFFFFFFFFFFFFFFFFFFFFFFFFFFFFFF AND PUSH4 0xFE5E2969 DUP8 PUSH1 0x40 MLOAD DUP3 PUSH4 0xFFFFFFFF AND PUSH1 0xE0 SHL DUP2 MSTORE PUSH1 0x4 ADD PUSH2 0x28DE SWAP2 SWAP1 PUSH2 0x4912 JUMP JUMPDEST PUSH1 0x60 PUSH1 0x40 MLOAD DUP1 DUP4 SUB DUP2 DUP7 DUP1 EXTCODESIZE ISZERO DUP1 ISZERO PUSH2 0x28F6 JUMPI PUSH1 0x0 DUP1 REVERT JUMPDEST POP GAS STATICCALL ISZERO DUP1 ISZERO PUSH2 0x290A JUMPI RETURNDATASIZE PUSH1 0x0 DUP1 RETURNDATACOPY RETURNDATASIZE PUSH1 0x0 REVERT JUMPDEST POP POP POP POP PUSH1 0x40 MLOAD RETURNDATASIZE PUSH1 0x1F NOT PUSH1 0x1F DUP3 ADD AND DUP3 ADD DUP1 PUSH1 0x40 MSTORE POP DUP2 ADD SWAP1 PUSH2 0x292E SWAP2 SWAP1 PUSH2 0x3BB7 JUMP JUMPDEST SWAP1 POP PUSH1 0x40 MLOAD DUP1 PUSH1 0x80 ADD PUSH1 0x40 MSTORE DUP1 PUSH1 0x3 PUSH1 0x0 DUP10 DUP2 MSTORE PUSH1 0x20 ADD SWAP1 DUP2 MSTORE PUSH1 0x20 ADD PUSH1 0x0 KECCAK256 PUSH1 0x40 MLOAD DUP1 PUSH2 0x180 ADD PUSH1 0x40 MSTORE SWAP1 DUP2 PUSH1 0x0 DUP3 ADD PUSH1 0x0 SWAP1 SLOAD SWAP1 PUSH2 0x100 EXP SWAP1 DIV PUSH20 0xFFFFFFFFFFFFFFFFFFFFFFFFFFFFFFFFFFFFFFFF AND PUSH20 0xFFFFFFFFFFFFFFFFFFFFFFFFFFFFFFFFFFFFFFFF AND PUSH20 0xFFFFFFFFFFFFFFFFFFFFFFFFFFFFFFFFFFFFFFFF AND DUP2 MSTORE PUSH1 0x20 ADD PUSH1 0x1 DUP3 ADD PUSH1 0x0 SWAP1 SLOAD SWAP1 PUSH2 0x100 EXP SWAP1 DIV PUSH20 0xFFFFFFFFFFFFFFFFFFFFFFFFFFFFFFFFFFFFFFFF AND PUSH20 0xFFFFFFFFFFFFFFFFFFFFFFFFFFFFFFFFFFFFFFFF AND PUSH20 0xFFFFFFFFFFFFFFFFFFFFFFFFFFFFFFFFFFFFFFFF AND DUP2 MSTORE PUSH1 0x20 ADD PUSH1 0x1 DUP3 ADD PUSH1 0x14 SWAP1 SLOAD SWAP1 PUSH2 0x100 EXP SWAP1 DIV PUSH8 0xFFFFFFFFFFFFFFFF AND PUSH8 0xFFFFFFFFFFFFFFFF AND PUSH8 0xFFFFFFFFFFFFFFFF AND DUP2 MSTORE PUSH1 0x20 ADD PUSH1 0x2 DUP3 ADD PUSH1 0x0 SWAP1 SLOAD SWAP1 PUSH2 0x100 EXP SWAP1 DIV PUSH8 0xFFFFFFFFFFFFFFFF AND PUSH8 0xFFFFFFFFFFFFFFFF AND PUSH8 0xFFFFFFFFFFFFFFFF AND DUP2 MSTORE PUSH1 0x20 ADD PUSH1 0x2 DUP3 ADD PUSH1 0x8 SWAP1 SLOAD SWAP1 PUSH2 0x100 EXP SWAP1 DIV PUSH8 0xFFFFFFFFFFFFFFFF AND PUSH8 0xFFFFFFFFFFFFFFFF AND PUSH8 0xFFFFFFFFFFFFFFFF AND DUP2 MSTORE PUSH1 0x20 ADD PUSH1 0x3 DUP3 ADD PUSH1 0x0 SWAP1 SLOAD SWAP1 PUSH2 0x100 EXP SWAP1 DIV PUSH20 0xFFFFFFFFFFFFFFFFFFFFFFFFFFFFFFFFFFFFFFFF AND PUSH20 0xFFFFFFFFFFFFFFFFFFFFFFFFFFFFFFFFFFFFFFFF AND PUSH20 0xFFFFFFFFFFFFFFFFFFFFFFFFFFFFFFFFFFFFFFFF AND DUP2 MSTORE PUSH1 0x20 ADD PUSH1 0x4 DUP3 ADD SLOAD DUP2 MSTORE PUSH1 0x20 ADD PUSH1 0x5 DUP3 ADD PUSH1 0x0 SWAP1 SLOAD SWAP1 PUSH2 0x100 EXP SWAP1 DIV PUSH20 0xFFFFFFFFFFFFFFFFFFFFFFFFFFFFFFFFFFFFFFFF AND PUSH20 0xFFFFFFFFFFFFFFFFFFFFFFFFFFFFFFFFFFFFFFFF AND PUSH20 0xFFFFFFFFFFFFFFFFFFFFFFFFFFFFFFFFFFFFFFFF AND DUP2 MSTORE PUSH1 0x20 ADD PUSH1 0x5 DUP3 ADD PUSH1 0x14 SWAP1 SLOAD SWAP1 PUSH2 0x100 EXP SWAP1 DIV PUSH2 0xFFFF AND PUSH2 0xFFFF AND PUSH2 0xFFFF AND DUP2 MSTORE PUSH1 0x20 ADD PUSH1 0x6 DUP3 ADD PUSH1 0x2 DUP1 PUSH1 0x20 MUL PUSH1 0x40 MLOAD SWAP1 DUP2 ADD PUSH1 0x40 MSTORE DUP1 SWAP3 SWAP2 SWAP1 DUP3 PUSH1 0x2 DUP1 ISZERO PUSH2 0x2BD4 JUMPI PUSH1 0x20 MUL DUP3 ADD SWAP2 PUSH1 0x0 SWAP1 JUMPDEST DUP3 DUP3 SWAP1 SLOAD SWAP1 PUSH2 0x100 EXP SWAP1 DIV PUSH1 0x1 SIGNEXTEND PUSH1 0x1 SIGNEXTEND DUP2 MSTORE PUSH1 0x20 ADD SWAP1 PUSH1 0x2 ADD SWAP1 PUSH1 0x20 DUP3 PUSH1 0x1 ADD DIV SWAP3 DUP4 ADD SWAP3 PUSH1 0x1 SUB DUP3 MUL SWAP2 POP DUP1 DUP5 GT PUSH2 0x2B9D JUMPI SWAP1 POP JUMPDEST POP POP POP POP POP DUP2 MSTORE PUSH1 0x20 ADD PUSH1 0x7 DUP3 ADD PUSH1 0x4 DUP1 PUSH1 0x20 MUL PUSH1 0x40 MLOAD SWAP1 DUP2 ADD PUSH1 0x40 MSTORE DUP1 SWAP3 SWAP2 SWAP1 DUP3 PUSH1 0x4 DUP1 ISZERO PUSH2 0x2C41 JUMPI PUSH1 0x20 MUL DUP3 ADD SWAP2 PUSH1 0x0 SWAP1 JUMPDEST DUP3 DUP3 SWAP1 SLOAD SWAP1 PUSH2 0x100 EXP SWAP1 DIV PUSH2 0xFFFF AND PUSH2 0xFFFF AND DUP2 MSTORE PUSH1 0x20 ADD SWAP1 PUSH1 0x2 ADD SWAP1 PUSH1 0x20 DUP3 PUSH1 0x1 ADD DIV SWAP3 DUP4 ADD SWAP3 PUSH1 0x1 SUB DUP3 MUL SWAP2 POP DUP1 DUP5 GT PUSH2 0x2C08 JUMPI SWAP1 POP JUMPDEST POP POP POP POP POP DUP2 MSTORE PUSH1 0x20 ADD PUSH1 0x8 DUP3 ADD SLOAD DUP2 MSTORE POP POP DUP2 MSTORE PUSH1 0x20 ADD DUP4 DUP2 MSTORE PUSH1 0x20 ADD DUP3 DUP2 MSTORE PUSH1 0x20 ADD DUP5 DUP2 MSTORE POP SWAP5 POP POP POP POP POP SWAP2 SWAP1 POP JUMP JUMPDEST PUSH32 0x0 PUSH20 0xFFFFFFFFFFFFFFFFFFFFFFFFFFFFFFFFFFFFFFFF AND PUSH2 0x2CB3 PUSH2 0x2D2C JUMP JUMPDEST PUSH20 0xFFFFFFFFFFFFFFFFFFFFFFFFFFFFFFFFFFFFFFFF AND EQ PUSH2 0x2CD3 JUMPI PUSH1 0x0 DUP1 REVERT JUMPDEST PUSH1 0x1 PUSH1 0x3 PUSH1 0x0 DUP4 DUP2 MSTORE PUSH1 0x20 ADD SWAP1 DUP2 MSTORE PUSH1 0x20 ADD PUSH1 0x0 KECCAK256 PUSH1 0x5 ADD PUSH1 0x14 PUSH2 0x100 EXP DUP2 SLOAD DUP2 PUSH2 0xFFFF MUL NOT AND SWAP1 DUP4 PUSH2 0xFFFF AND MUL OR SWAP1 SSTORE POP POP JUMP JUMPDEST PUSH32 0x0 DUP2 JUMP JUMPDEST PUSH1 0x0 CALLER SWAP1 POP SWAP1 JUMP JUMPDEST PUSH1 0x0 DUP1 DUP3 PUSH1 0x1 SIGNEXTEND SLT ISZERO PUSH2 0x2D50 JUMPI DUP2 PUSH2 0x2D4B SWAP1 PUSH2 0x4E65 JUMP JUMPDEST PUSH2 0x2D52 JUMP JUMPDEST DUP2 JUMPDEST SWAP1 POP SWAP2 SWAP1 POP JUMP JUMPDEST PUSH2 0x2DDA DUP4 PUSH4 0xA9059CBB PUSH1 0xE0 SHL DUP5 DUP5 PUSH1 0x40 MLOAD PUSH1 0x24 ADD PUSH2 0x2D78 SWAP3 SWAP2 SWAP1 PUSH2 0x4657 JUMP JUMPDEST PUSH1 0x40 MLOAD PUSH1 0x20 DUP2 DUP4 SUB SUB DUP2 MSTORE SWAP1 PUSH1 0x40 MSTORE SWAP1 PUSH28 0xFFFFFFFFFFFFFFFFFFFFFFFFFFFFFFFFFFFFFFFFFFFFFFFFFFFFFFFF NOT AND PUSH1 0x20 DUP3 ADD DUP1 MLOAD PUSH28 0xFFFFFFFFFFFFFFFFFFFFFFFFFFFFFFFFFFFFFFFFFFFFFFFFFFFFFFFF DUP4 DUP2 DUP4 AND OR DUP4 MSTORE POP POP POP POP PUSH2 0x2EB8 JUMP JUMPDEST POP POP POP JUMP JUMPDEST PUSH1 0x0 DUP2 PUSH1 0x0 ADD SLOAD SWAP1 POP SWAP2 SWAP1 POP JUMP JUMPDEST PUSH2 0x2E70 DUP5 PUSH4 0x23B872DD PUSH1 0xE0 SHL DUP6 DUP6 DUP6 PUSH1 0x40 MLOAD PUSH1 0x24 ADD PUSH2 0x2E0E SWAP4 SWAP3 SWAP2 SWAP1 PUSH2 0x4620 JUMP JUMPDEST PUSH1 0x40 MLOAD PUSH1 0x20 DUP2 DUP4 SUB SUB DUP2 MSTORE SWAP1 PUSH1 0x40 MSTORE SWAP1 PUSH28 0xFFFFFFFFFFFFFFFFFFFFFFFFFFFFFFFFFFFFFFFFFFFFFFFFFFFFFFFF NOT AND PUSH1 0x20 DUP3 ADD DUP1 MLOAD PUSH28 0xFFFFFFFFFFFFFFFFFFFFFFFFFFFFFFFFFFFFFFFFFFFFFFFFFFFFFFFF DUP4 DUP2 DUP4 AND OR DUP4 MSTORE POP POP POP POP PUSH2 0x2EB8 JUMP JUMPDEST POP POP POP POP JUMP JUMPDEST PUSH1 0x1 DUP2 PUSH1 0x0 ADD PUSH1 0x0 DUP3 DUP3 SLOAD ADD SWAP3 POP POP DUP2 SWAP1 SSTORE POP POP JUMP JUMPDEST PUSH1 0x0 DUP2 DUP4 PUSH2 0x2E9A SWAP2 SWAP1 PUSH2 0x4C95 JUMP JUMPDEST SWAP1 POP SWAP3 SWAP2 POP POP JUMP JUMPDEST PUSH1 0x0 DUP2 DUP4 PUSH2 0x2EB0 SWAP2 SWAP1 PUSH2 0x4C64 JUMP JUMPDEST SWAP1 POP SWAP3 SWAP2 POP POP JUMP JUMPDEST PUSH1 0x0 PUSH2 0x2F1A DUP3 PUSH1 0x40 MLOAD DUP1 PUSH1 0x40 ADD PUSH1 0x40 MSTORE DUP1 PUSH1 0x20 DUP2 MSTORE PUSH1 0x20 ADD PUSH32 0x5361666545524332303A206C6F772D6C6576656C2063616C6C206661696C6564 DUP2 MSTORE POP DUP6 PUSH20 0xFFFFFFFFFFFFFFFFFFFFFFFFFFFFFFFFFFFFFFFF AND PUSH2 0x2F7F SWAP1 SWAP3 SWAP2 SWAP1 PUSH4 0xFFFFFFFF AND JUMP JUMPDEST SWAP1 POP PUSH1 0x0 DUP2 MLOAD GT ISZERO PUSH2 0x2F7A JUMPI DUP1 DUP1 PUSH1 0x20 ADD SWAP1 MLOAD DUP2 ADD SWAP1 PUSH2 0x2F3A SWAP2 SWAP1 PUSH2 0x3ABE JUMP JUMPDEST PUSH2 0x2F79 JUMPI PUSH1 0x40 MLOAD PUSH32 0x8C379A000000000000000000000000000000000000000000000000000000000 DUP2 MSTORE PUSH1 0x4 ADD PUSH2 0x2F70 SWAP1 PUSH2 0x482E JUMP JUMPDEST PUSH1 0x40 MLOAD DUP1 SWAP2 SUB SWAP1 REVERT JUMPDEST JUMPDEST POP POP POP JUMP JUMPDEST PUSH1 0x60 PUSH2 0x2F8E DUP5 DUP5 PUSH1 0x0 DUP6 PUSH2 0x2F97 JUMP JUMPDEST SWAP1 POP SWAP4 SWAP3 POP POP POP JUMP JUMPDEST PUSH1 0x60 DUP3 SELFBALANCE LT ISZERO PUSH2 0x2FDC JUMPI PUSH1 0x40 MLOAD PUSH32 0x8C379A000000000000000000000000000000000000000000000000000000000 DUP2 MSTORE PUSH1 0x4 ADD PUSH2 0x2FD3 SWAP1 PUSH2 0x47AE JUMP JUMPDEST PUSH1 0x40 MLOAD DUP1 SWAP2 SUB SWAP1 REVERT JUMPDEST PUSH2 0x2FE5 DUP6 PUSH2 0x30AB JUMP JUMPDEST PUSH2 0x3024 JUMPI PUSH1 0x40 MLOAD PUSH32 0x8C379A000000000000000000000000000000000000000000000000000000000 DUP2 MSTORE PUSH1 0x4 ADD PUSH2 0x301B SWAP1 PUSH2 0x480E JUMP JUMPDEST PUSH1 0x40 MLOAD DUP1 SWAP2 SUB SWAP1 REVERT JUMPDEST PUSH1 0x0 DUP1 DUP7 PUSH20 0xFFFFFFFFFFFFFFFFFFFFFFFFFFFFFFFFFFFFFFFF AND DUP6 DUP8 PUSH1 0x40 MLOAD PUSH2 0x304D SWAP2 SWAP1 PUSH2 0x45D9 JUMP JUMPDEST PUSH1 0x0 PUSH1 0x40 MLOAD DUP1 DUP4 SUB DUP2 DUP6 DUP8 GAS CALL SWAP3 POP POP POP RETURNDATASIZE DUP1 PUSH1 0x0 DUP2 EQ PUSH2 0x308A JUMPI PUSH1 0x40 MLOAD SWAP2 POP PUSH1 0x1F NOT PUSH1 0x3F RETURNDATASIZE ADD AND DUP3 ADD PUSH1 0x40 MSTORE RETURNDATASIZE DUP3 MSTORE RETURNDATASIZE PUSH1 0x0 PUSH1 0x20 DUP5 ADD RETURNDATACOPY PUSH2 0x308F JUMP JUMPDEST PUSH1 0x60 SWAP2 POP JUMPDEST POP SWAP2 POP SWAP2 POP PUSH2 0x309F DUP3 DUP3 DUP7 PUSH2 0x30CE JUMP JUMPDEST SWAP3 POP POP POP SWAP5 SWAP4 POP POP POP POP JUMP JUMPDEST PUSH1 0x0 DUP1 DUP3 PUSH20 0xFFFFFFFFFFFFFFFFFFFFFFFFFFFFFFFFFFFFFFFF AND EXTCODESIZE GT SWAP1 POP SWAP2 SWAP1 POP JUMP JUMPDEST PUSH1 0x60 DUP4 ISZERO PUSH2 0x30DE JUMPI DUP3 SWAP1 POP PUSH2 0x312E JUMP JUMPDEST PUSH1 0x0 DUP4 MLOAD GT ISZERO PUSH2 0x30F1 JUMPI DUP3 MLOAD DUP1 DUP5 PUSH1 0x20 ADD REVERT JUMPDEST DUP2 PUSH1 0x40 MLOAD PUSH32 0x8C379A000000000000000000000000000000000000000000000000000000000 DUP2 MSTORE PUSH1 0x4 ADD PUSH2 0x3125 SWAP2 SWAP1 PUSH2 0x46EC JUMP JUMPDEST PUSH1 0x40 MLOAD DUP1 SWAP2 SUB SWAP1 REVERT JUMPDEST SWAP4 SWAP3 POP POP POP JUMP JUMPDEST DUP3 PUSH1 0x4 PUSH1 0xF ADD PUSH1 0x10 SWAP1 DIV DUP2 ADD SWAP3 DUP3 ISZERO PUSH2 0x31C5 JUMPI SWAP2 PUSH1 0x20 MUL DUP3 ADD PUSH1 0x0 JUMPDEST DUP4 DUP3 GT ISZERO PUSH2 0x3195 JUMPI DUP4 CALLDATALOAD PUSH2 0xFFFF AND DUP4 DUP3 PUSH2 0x100 EXP DUP2 SLOAD DUP2 PUSH2 0xFFFF MUL NOT AND SWAP1 DUP4 PUSH2 0xFFFF AND MUL OR SWAP1 SSTORE POP SWAP3 PUSH1 0x20 ADD SWAP3 PUSH1 0x2 ADD PUSH1 0x20 DUP2 PUSH1 0x1 ADD DIV SWAP3 DUP4 ADD SWAP3 PUSH1 0x1 SUB MUL PUSH2 0x3151 JUMP JUMPDEST DUP1 ISZERO PUSH2 0x31C3 JUMPI DUP3 DUP2 PUSH2 0x100 EXP DUP2 SLOAD SWAP1 PUSH2 0xFFFF MUL NOT AND SWAP1 SSTORE PUSH1 0x2 ADD PUSH1 0x20 DUP2 PUSH1 0x1 ADD DIV SWAP3 DUP4 ADD SWAP3 PUSH1 0x1 SUB MUL PUSH2 0x3195 JUMP JUMPDEST POP JUMPDEST POP SWAP1 POP PUSH2 0x31D2 SWAP2 SWAP1 PUSH2 0x34FF JUMP JUMPDEST POP SWAP1 JUMP JUMPDEST DUP3 PUSH1 0x2 PUSH1 0xF ADD PUSH1 0x10 SWAP1 DIV DUP2 ADD SWAP3 DUP3 ISZERO PUSH2 0x3268 JUMPI SWAP2 PUSH1 0x20 MUL DUP3 ADD PUSH1 0x0 JUMPDEST DUP4 DUP3 GT ISZERO PUSH2 0x3238 JUMPI DUP4 CALLDATALOAD PUSH1 0x1 SIGNEXTEND DUP4 DUP3 PUSH2 0x100 EXP DUP2 SLOAD DUP2 PUSH2 0xFFFF MUL NOT AND SWAP1 DUP4 PUSH1 0x1 SIGNEXTEND PUSH2 0xFFFF AND MUL OR SWAP1 SSTORE POP SWAP3 PUSH1 0x20 ADD SWAP3 PUSH1 0x2 ADD PUSH1 0x20 DUP2 PUSH1 0x1 ADD DIV SWAP3 DUP4 ADD SWAP3 PUSH1 0x1 SUB MUL PUSH2 0x31F2 JUMP JUMPDEST DUP1 ISZERO PUSH2 0x3266 JUMPI DUP3 DUP2 PUSH2 0x100 EXP DUP2 SLOAD SWAP1 PUSH2 0xFFFF MUL NOT AND SWAP1 SSTORE PUSH1 0x2 ADD PUSH1 0x20 DUP2 PUSH1 0x1 ADD DIV SWAP3 DUP4 ADD SWAP3 PUSH1 0x1 SUB MUL PUSH2 0x3238 JUMP JUMPDEST POP JUMPDEST POP SWAP1 POP PUSH2 0x3275 SWAP2 SWAP1 PUSH2 0x34FF JUMP JUMPDEST POP SWAP1 JUMP JUMPDEST DUP3 PUSH1 0x4 PUSH1 0xF ADD PUSH1 0x10 SWAP1 DIV DUP2 ADD SWAP3 DUP3 ISZERO PUSH2 0x3305 JUMPI SWAP2 PUSH1 0x20 MUL DUP3 ADD PUSH1 0x0 JUMPDEST DUP4 DUP3 GT ISZERO PUSH2 0x32D5 JUMPI DUP4 MLOAD DUP4 DUP3 PUSH2 0x100 EXP DUP2 SLOAD DUP2 PUSH2 0xFFFF MUL NOT AND SWAP1 DUP4 PUSH2 0xFFFF AND MUL OR SWAP1 SSTORE POP SWAP3 PUSH1 0x20 ADD SWAP3 PUSH1 0x2 ADD PUSH1 0x20 DUP2 PUSH1 0x1 ADD DIV SWAP3 DUP4 ADD SWAP3 PUSH1 0x1 SUB MUL PUSH2 0x3295 JUMP JUMPDEST DUP1 ISZERO PUSH2 0x3303 JUMPI DUP3 DUP2 PUSH2 0x100 EXP DUP2 SLOAD SWAP1 PUSH2 0xFFFF MUL NOT AND SWAP1 SSTORE PUSH1 0x2 ADD PUSH1 0x20 DUP2 PUSH1 0x1 ADD DIV SWAP3 DUP4 ADD SWAP3 PUSH1 0x1 SUB MUL PUSH2 0x32D5 JUMP JUMPDEST POP JUMPDEST POP SWAP1 POP PUSH2 0x3312 SWAP2 SWAP1 PUSH2 0x34FF JUMP JUMPDEST POP SWAP1 JUMP JUMPDEST DUP3 PUSH1 0x2 PUSH1 0xF ADD PUSH1 0x10 SWAP1 DIV DUP2 ADD SWAP3 DUP3 ISZERO PUSH2 0x33A5 JUMPI SWAP2 PUSH1 0x20 MUL DUP3 ADD PUSH1 0x0 JUMPDEST DUP4 DUP3 GT ISZERO PUSH2 0x3375 JUMPI DUP4 MLOAD DUP4 DUP3 PUSH2 0x100 EXP DUP2 SLOAD DUP2 PUSH2 0xFFFF MUL NOT AND SWAP1 DUP4 PUSH1 0x1 SIGNEXTEND PUSH2 0xFFFF AND MUL OR SWAP1 SSTORE POP SWAP3 PUSH1 0x20 ADD SWAP3 PUSH1 0x2 ADD PUSH1 0x20 DUP2 PUSH1 0x1 ADD DIV SWAP3 DUP4 ADD SWAP3 PUSH1 0x1 SUB MUL PUSH2 0x3332 JUMP JUMPDEST DUP1 ISZERO PUSH2 0x33A3 JUMPI DUP3 DUP2 PUSH2 0x100 EXP DUP2 SLOAD SWAP1 PUSH2 0xFFFF MUL NOT AND SWAP1 SSTORE PUSH1 0x2 ADD PUSH1 0x20 DUP2 PUSH1 0x1 ADD DIV SWAP3 DUP4 ADD SWAP3 PUSH1 0x1 SUB MUL PUSH2 0x3375 JUMP JUMPDEST POP JUMPDEST POP SWAP1 POP PUSH2 0x33B2 SWAP2 SWAP1 PUSH2 0x34FF JUMP JUMPDEST POP SWAP1 JUMP JUMPDEST PUSH1 0x40 MLOAD DUP1 PUSH2 0x180 ADD PUSH1 0x40 MSTORE DUP1 PUSH1 0x0 PUSH20 0xFFFFFFFFFFFFFFFFFFFFFFFFFFFFFFFFFFFFFFFF AND DUP2 MSTORE PUSH1 0x20 ADD PUSH1 0x0 PUSH20 0xFFFFFFFFFFFFFFFFFFFFFFFFFFFFFFFFFFFFFFFF AND DUP2 MSTORE PUSH1 0x20 ADD PUSH1 0x0 PUSH8 0xFFFFFFFFFFFFFFFF AND DUP2 MSTORE PUSH1 0x20 ADD PUSH1 0x0 PUSH8 0xFFFFFFFFFFFFFFFF AND DUP2 MSTORE PUSH1 0x20 ADD PUSH1 0x0 PUSH8 0xFFFFFFFFFFFFFFFF AND DUP2 MSTORE PUSH1 0x20 ADD PUSH1 0x0 PUSH20 0xFFFFFFFFFFFFFFFFFFFFFFFFFFFFFFFFFFFFFFFF AND DUP2 MSTORE PUSH1 0x20 ADD PUSH1 0x0 DUP2 MSTORE PUSH1 0x20 ADD PUSH1 0x0 PUSH20 0xFFFFFFFFFFFFFFFFFFFFFFFFFFFFFFFFFFFFFFFF AND DUP2 MSTORE PUSH1 0x20 ADD PUSH1 0x0 PUSH2 0xFFFF AND DUP2 MSTORE PUSH1 0x20 ADD PUSH2 0x3483 PUSH2 0x351C JUMP JUMPDEST DUP2 MSTORE PUSH1 0x20 ADD PUSH2 0x3490 PUSH2 0x349D JUMP JUMPDEST DUP2 MSTORE PUSH1 0x20 ADD PUSH1 0x0 DUP2 MSTORE POP SWAP1 JUMP JUMPDEST PUSH1 0x40 MLOAD DUP1 PUSH1 0x80 ADD PUSH1 0x40 MSTORE DUP1 PUSH1 0x4 SWAP1 PUSH1 0x20 DUP3 MUL DUP1 CALLDATASIZE DUP4 CALLDATACOPY DUP1 DUP3 ADD SWAP2 POP POP SWAP1 POP POP SWAP1 JUMP JUMPDEST PUSH1 0x40 MLOAD DUP1 PUSH1 0x80 ADD PUSH1 0x40 MSTORE DUP1 PUSH2 0x34D2 PUSH2 0x33B6 JUMP JUMPDEST DUP2 MSTORE PUSH1 0x20 ADD PUSH2 0x34DF PUSH2 0x353E JUMP JUMPDEST DUP2 MSTORE PUSH1 0x20 ADD PUSH2 0x34EC PUSH2 0x358D JUMP JUMPDEST DUP2 MSTORE PUSH1 0x20 ADD PUSH2 0x34F9 PUSH2 0x35C3 JUMP JUMPDEST DUP2 MSTORE POP SWAP1 JUMP JUMPDEST JUMPDEST DUP1 DUP3 GT ISZERO PUSH2 0x3518 JUMPI PUSH1 0x0 DUP2 PUSH1 0x0 SWAP1 SSTORE POP PUSH1 0x1 ADD PUSH2 0x3500 JUMP JUMPDEST POP SWAP1 JUMP JUMPDEST PUSH1 0x40 MLOAD DUP1 PUSH1 0x40 ADD PUSH1 0x40 MSTORE DUP1 PUSH1 0x2 SWAP1 PUSH1 0x20 DUP3 MUL DUP1 CALLDATASIZE DUP4 CALLDATACOPY DUP1 DUP3 ADD SWAP2 POP POP SWAP1 POP POP SWAP1 JUMP JUMPDEST PUSH1 0x40 MLOAD DUP1 PUSH1 0xA0 ADD PUSH1 0x40 MSTORE DUP1 PUSH1 0x0 PUSH20 0xFFFFFFFFFFFFFFFFFFFFFFFFFFFFFFFFFFFFFFFF AND DUP2 MSTORE PUSH1 0x20 ADD PUSH1 0x0 PUSH2 0xFFFF AND DUP2 MSTORE PUSH1 0x20 ADD PUSH1 0x0 ISZERO ISZERO DUP2 MSTORE PUSH1 0x20 ADD PUSH1 0x0 ISZERO ISZERO DUP2 MSTORE PUSH1 0x20 ADD PUSH1 0x0 ISZERO ISZERO DUP2 MSTORE POP SWAP1 JUMP JUMPDEST PUSH1 0x40 MLOAD DUP1 PUSH1 0x40 ADD PUSH1 0x40 MSTORE DUP1 PUSH1 0x0 PUSH20 0xFFFFFFFFFFFFFFFFFFFFFFFFFFFFFFFFFFFFFFFF AND DUP2 MSTORE PUSH1 0x20 ADD PUSH2 0x35BD PUSH2 0x35FA JUMP JUMPDEST DUP2 MSTORE POP SWAP1 JUMP JUMPDEST PUSH1 0x40 MLOAD DUP1 PUSH1 0x60 ADD PUSH1 0x40 MSTORE DUP1 PUSH1 0x0 PUSH20 0xFFFFFFFFFFFFFFFFFFFFFFFFFFFFFFFFFFFFFFFF AND DUP2 MSTORE PUSH1 0x20 ADD PUSH1 0x0 DUP2 MSTORE PUSH1 0x20 ADD PUSH1 0x60 DUP2 MSTORE POP SWAP1 JUMP JUMPDEST PUSH1 0x40 MLOAD DUP1 PUSH1 0x40 ADD PUSH1 0x40 MSTORE DUP1 PUSH1 0x2 SWAP1 PUSH1 0x20 DUP3 MUL DUP1 CALLDATASIZE DUP4 CALLDATACOPY DUP1 DUP3 ADD SWAP2 POP POP SWAP1 POP POP SWAP1 JUMP JUMPDEST PUSH1 0x0 PUSH2 0x362F PUSH2 0x362A DUP5 PUSH2 0x4A19 JUMP JUMPDEST PUSH2 0x49F4 JUMP JUMPDEST SWAP1 POP DUP1 DUP3 DUP6 PUSH1 0x20 DUP7 MUL DUP3 ADD GT ISZERO PUSH2 0x3649 JUMPI PUSH2 0x3648 PUSH2 0x4F79 JUMP JUMPDEST JUMPDEST PUSH1 0x0 JUMPDEST DUP6 DUP2 LT ISZERO PUSH2 0x3679 JUMPI DUP2 PUSH2 0x365F DUP9 DUP3 PUSH2 0x3966 JUMP JUMPDEST DUP5 MSTORE PUSH1 0x20 DUP5 ADD SWAP4 POP PUSH1 0x20 DUP4 ADD SWAP3 POP POP PUSH1 0x1 DUP2 ADD SWAP1 POP PUSH2 0x364C JUMP JUMPDEST POP POP POP SWAP4 SWAP3 POP POP POP JUMP JUMPDEST PUSH1 0x0 PUSH2 0x3696 PUSH2 0x3691 DUP5 PUSH2 0x4A3F JUMP JUMPDEST PUSH2 0x49F4 JUMP JUMPDEST SWAP1 POP DUP1 DUP3 DUP6 PUSH1 0x20 DUP7 MUL DUP3 ADD GT ISZERO PUSH2 0x36B0 JUMPI PUSH2 0x36AF PUSH2 0x4F79 JUMP JUMPDEST JUMPDEST PUSH1 0x0 JUMPDEST DUP6 DUP2 LT ISZERO PUSH2 0x36E0 JUMPI DUP2 PUSH2 0x36C6 DUP9 DUP3 PUSH2 0x3990 JUMP JUMPDEST DUP5 MSTORE PUSH1 0x20 DUP5 ADD SWAP4 POP PUSH1 0x20 DUP4 ADD SWAP3 POP POP PUSH1 0x1 DUP2 ADD SWAP1 POP PUSH2 0x36B3 JUMP JUMPDEST POP POP POP SWAP4 SWAP3 POP POP POP JUMP JUMPDEST PUSH1 0x0 PUSH2 0x36FD PUSH2 0x36F8 DUP5 PUSH2 0x4A65 JUMP JUMPDEST PUSH2 0x49F4 JUMP JUMPDEST SWAP1 POP DUP3 DUP2 MSTORE PUSH1 0x20 DUP2 ADD DUP5 DUP5 DUP5 ADD GT ISZERO PUSH2 0x3719 JUMPI PUSH2 0x3718 PUSH2 0x4F7E JUMP JUMPDEST JUMPDEST PUSH2 0x3724 DUP5 DUP3 DUP6 PUSH2 0x4E01 JUMP JUMPDEST POP SWAP4 SWAP3 POP POP POP JUMP JUMPDEST PUSH1 0x0 DUP2 CALLDATALOAD SWAP1 POP PUSH2 0x373B DUP2 PUSH2 0x51D9 JUMP JUMPDEST SWAP3 SWAP2 POP POP JUMP JUMPDEST PUSH1 0x0 DUP2 MLOAD SWAP1 POP PUSH2 0x3750 DUP2 PUSH2 0x51D9 JUMP JUMPDEST SWAP3 SWAP2 POP POP JUMP JUMPDEST PUSH1 0x0 DUP2 SWAP1 POP DUP3 PUSH1 0x20 PUSH1 0x2 MUL DUP3 ADD GT ISZERO PUSH2 0x3772 JUMPI PUSH2 0x3771 PUSH2 0x4F79 JUMP JUMPDEST JUMPDEST SWAP3 SWAP2 POP POP JUMP JUMPDEST PUSH1 0x0 DUP3 PUSH1 0x1F DUP4 ADD SLT PUSH2 0x378D JUMPI PUSH2 0x378C PUSH2 0x4F6A JUMP JUMPDEST JUMPDEST PUSH1 0x2 PUSH2 0x379A DUP5 DUP3 DUP6 PUSH2 0x361C JUMP JUMPDEST SWAP2 POP POP SWAP3 SWAP2 POP POP JUMP JUMPDEST PUSH1 0x0 DUP2 SWAP1 POP DUP3 PUSH1 0x20 PUSH1 0x4 MUL DUP3 ADD GT ISZERO PUSH2 0x37BF JUMPI PUSH2 0x37BE PUSH2 0x4F79 JUMP JUMPDEST JUMPDEST SWAP3 SWAP2 POP POP JUMP JUMPDEST PUSH1 0x0 DUP2 SWAP1 POP DUP3 PUSH1 0x20 PUSH1 0x5 MUL DUP3 ADD GT ISZERO PUSH2 0x37E1 JUMPI PUSH2 0x37E0 PUSH2 0x4F79 JUMP JUMPDEST JUMPDEST SWAP3 SWAP2 POP POP JUMP JUMPDEST PUSH1 0x0 DUP3 PUSH1 0x1F DUP4 ADD SLT PUSH2 0x37FC JUMPI PUSH2 0x37FB PUSH2 0x4F6A JUMP JUMPDEST JUMPDEST PUSH1 0x5 PUSH2 0x3809 DUP5 DUP3 DUP6 PUSH2 0x3683 JUMP JUMPDEST SWAP2 POP POP SWAP3 SWAP2 POP POP JUMP JUMPDEST PUSH1 0x0 DUP2 MLOAD SWAP1 POP PUSH2 0x3821 DUP2 PUSH2 0x51F0 JUMP JUMPDEST SWAP3 SWAP2 POP POP JUMP JUMPDEST PUSH1 0x0 DUP3 PUSH1 0x1F DUP4 ADD SLT PUSH2 0x383C JUMPI PUSH2 0x383B PUSH2 0x4F6A JUMP JUMPDEST JUMPDEST DUP2 MLOAD PUSH2 0x384C DUP5 DUP3 PUSH1 0x20 DUP7 ADD PUSH2 0x36EA JUMP JUMPDEST SWAP2 POP POP SWAP3 SWAP2 POP POP JUMP JUMPDEST PUSH1 0x0 PUSH1 0xA0 DUP3 DUP5 SUB SLT ISZERO PUSH2 0x386B JUMPI PUSH2 0x386A PUSH2 0x4F74 JUMP JUMPDEST JUMPDEST PUSH2 0x3875 PUSH1 0xA0 PUSH2 0x49F4 JUMP JUMPDEST SWAP1 POP PUSH1 0x0 PUSH2 0x3885 DUP5 DUP3 DUP6 ADD PUSH2 0x3741 JUMP JUMPDEST PUSH1 0x0 DUP4 ADD MSTORE POP PUSH1 0x20 PUSH2 0x3899 DUP5 DUP3 DUP6 ADD PUSH2 0x3966 JUMP JUMPDEST PUSH1 0x20 DUP4 ADD MSTORE POP PUSH1 0x40 PUSH2 0x38AD DUP5 DUP3 DUP6 ADD PUSH2 0x3812 JUMP JUMPDEST PUSH1 0x40 DUP4 ADD MSTORE POP PUSH1 0x60 PUSH2 0x38C1 DUP5 DUP3 DUP6 ADD PUSH2 0x3812 JUMP JUMPDEST PUSH1 0x60 DUP4 ADD MSTORE POP PUSH1 0x80 PUSH2 0x38D5 DUP5 DUP3 DUP6 ADD PUSH2 0x3812 JUMP JUMPDEST PUSH1 0x80 DUP4 ADD MSTORE POP SWAP3 SWAP2 POP POP JUMP JUMPDEST PUSH1 0x0 PUSH2 0x100 DUP3 DUP5 SUB SLT ISZERO PUSH2 0x38F8 JUMPI PUSH2 0x38F7 PUSH2 0x4F6F JUMP JUMPDEST JUMPDEST DUP2 SWAP1 POP SWAP3 SWAP2 POP POP JUMP JUMPDEST PUSH1 0x0 PUSH1 0x60 DUP3 DUP5 SUB SLT ISZERO PUSH2 0x3917 JUMPI PUSH2 0x3916 PUSH2 0x4F74 JUMP JUMPDEST JUMPDEST PUSH2 0x3921 PUSH1 0x40 PUSH2 0x49F4 JUMP JUMPDEST SWAP1 POP PUSH1 0x0 PUSH2 0x3931 DUP5 DUP3 DUP6 ADD PUSH2 0x3741 JUMP JUMPDEST PUSH1 0x0 DUP4 ADD MSTORE POP PUSH1 0x20 PUSH2 0x3945 DUP5 DUP3 DUP6 ADD PUSH2 0x3778 JUMP JUMPDEST PUSH1 0x20 DUP4 ADD MSTORE POP SWAP3 SWAP2 POP POP JUMP JUMPDEST PUSH1 0x0 DUP2 CALLDATALOAD SWAP1 POP PUSH2 0x3960 DUP2 PUSH2 0x5207 JUMP JUMPDEST SWAP3 SWAP2 POP POP JUMP JUMPDEST PUSH1 0x0 DUP2 MLOAD SWAP1 POP PUSH2 0x3975 DUP2 PUSH2 0x5207 JUMP JUMPDEST SWAP3 SWAP2 POP POP JUMP JUMPDEST PUSH1 0x0 DUP2 CALLDATALOAD SWAP1 POP PUSH2 0x398A DUP2 PUSH2 0x521E JUMP JUMPDEST SWAP3 SWAP2 POP POP JUMP JUMPDEST PUSH1 0x0 DUP2 MLOAD SWAP1 POP PUSH2 0x399F DUP2 PUSH2 0x521E JUMP JUMPDEST SWAP3 SWAP2 POP POP JUMP JUMPDEST PUSH1 0x0 DUP2 CALLDATALOAD SWAP1 POP PUSH2 0x39B4 DUP2 PUSH2 0x5235 JUMP JUMPDEST SWAP3 SWAP2 POP POP JUMP JUMPDEST PUSH1 0x0 DUP2 CALLDATALOAD SWAP1 POP PUSH2 0x39C9 DUP2 PUSH2 0x524C JUMP JUMPDEST SWAP3 SWAP2 POP POP JUMP JUMPDEST PUSH1 0x0 DUP2 MLOAD SWAP1 POP PUSH2 0x39DE DUP2 PUSH2 0x5263 JUMP JUMPDEST SWAP3 SWAP2 POP POP JUMP JUMPDEST PUSH1 0x0 PUSH1 0x20 DUP3 DUP5 SUB SLT ISZERO PUSH2 0x39FA JUMPI PUSH2 0x39F9 PUSH2 0x4F88 JUMP JUMPDEST JUMPDEST PUSH1 0x0 PUSH2 0x3A08 DUP5 DUP3 DUP6 ADD PUSH2 0x372C JUMP JUMPDEST SWAP2 POP POP SWAP3 SWAP2 POP POP JUMP JUMPDEST PUSH1 0x0 DUP1 PUSH1 0x0 PUSH1 0x60 DUP5 DUP7 SUB SLT ISZERO PUSH2 0x3A2A JUMPI PUSH2 0x3A29 PUSH2 0x4F88 JUMP JUMPDEST JUMPDEST PUSH1 0x0 PUSH2 0x3A38 DUP7 DUP3 DUP8 ADD PUSH2 0x372C JUMP JUMPDEST SWAP4 POP POP PUSH1 0x20 PUSH2 0x3A49 DUP7 DUP3 DUP8 ADD PUSH2 0x397B JUMP JUMPDEST SWAP3 POP POP PUSH1 0x40 PUSH2 0x3A5A DUP7 DUP3 DUP8 ADD PUSH2 0x372C JUMP JUMPDEST SWAP2 POP POP SWAP3 POP SWAP3 POP SWAP3 JUMP JUMPDEST PUSH1 0x0 PUSH1 0xA0 DUP3 DUP5 SUB SLT ISZERO PUSH2 0x3A7A JUMPI PUSH2 0x3A79 PUSH2 0x4F88 JUMP JUMPDEST JUMPDEST PUSH1 0x0 PUSH2 0x3A88 DUP5 DUP3 DUP6 ADD PUSH2 0x37C5 JUMP JUMPDEST SWAP2 POP POP SWAP3 SWAP2 POP POP JUMP JUMPDEST PUSH1 0x0 PUSH1 0xA0 DUP3 DUP5 SUB SLT ISZERO PUSH2 0x3AA7 JUMPI PUSH2 0x3AA6 PUSH2 0x4F88 JUMP JUMPDEST JUMPDEST PUSH1 0x0 PUSH2 0x3AB5 DUP5 DUP3 DUP6 ADD PUSH2 0x37E7 JUMP JUMPDEST SWAP2 POP POP SWAP3 SWAP2 POP POP JUMP JUMPDEST PUSH1 0x0 PUSH1 0x20 DUP3 DUP5 SUB SLT ISZERO PUSH2 0x3AD4 JUMPI PUSH2 0x3AD3 PUSH2 0x4F88 JUMP JUMPDEST JUMPDEST PUSH1 0x0 PUSH2 0x3AE2 DUP5 DUP3 DUP6 ADD PUSH2 0x3812 JUMP JUMPDEST SWAP2 POP POP SWAP3 SWAP2 POP POP JUMP JUMPDEST PUSH1 0x0 PUSH1 0x20 DUP3 DUP5 SUB SLT ISZERO PUSH2 0x3B01 JUMPI PUSH2 0x3B00 PUSH2 0x4F88 JUMP JUMPDEST JUMPDEST PUSH1 0x0 DUP3 ADD MLOAD PUSH8 0xFFFFFFFFFFFFFFFF DUP2 GT ISZERO PUSH2 0x3B1F JUMPI PUSH2 0x3B1E PUSH2 0x4F83 JUMP JUMPDEST JUMPDEST PUSH2 0x3B2B DUP5 DUP3 DUP6 ADD PUSH2 0x3827 JUMP JUMPDEST SWAP2 POP POP SWAP3 SWAP2 POP POP JUMP JUMPDEST PUSH1 0x0 PUSH1 0xA0 DUP3 DUP5 SUB SLT ISZERO PUSH2 0x3B4A JUMPI PUSH2 0x3B49 PUSH2 0x4F88 JUMP JUMPDEST JUMPDEST PUSH1 0x0 PUSH2 0x3B58 DUP5 DUP3 DUP6 ADD PUSH2 0x3855 JUMP JUMPDEST SWAP2 POP POP SWAP3 SWAP2 POP POP JUMP JUMPDEST PUSH1 0x0 DUP1 PUSH1 0x0 PUSH2 0x140 DUP5 DUP7 SUB SLT ISZERO PUSH2 0x3B7B JUMPI PUSH2 0x3B7A PUSH2 0x4F88 JUMP JUMPDEST JUMPDEST PUSH1 0x0 PUSH2 0x3B89 DUP7 DUP3 DUP8 ADD PUSH2 0x38E1 JUMP JUMPDEST SWAP4 POP POP PUSH2 0x100 PUSH2 0x3B9B DUP7 DUP3 DUP8 ADD PUSH2 0x372C JUMP JUMPDEST SWAP3 POP POP PUSH2 0x120 PUSH2 0x3BAD DUP7 DUP3 DUP8 ADD PUSH2 0x3951 JUMP JUMPDEST SWAP2 POP POP SWAP3 POP SWAP3 POP SWAP3 JUMP JUMPDEST PUSH1 0x0 PUSH1 0x60 DUP3 DUP5 SUB SLT ISZERO PUSH2 0x3BCD JUMPI PUSH2 0x3BCC PUSH2 0x4F88 JUMP JUMPDEST JUMPDEST PUSH1 0x0 PUSH2 0x3BDB DUP5 DUP3 DUP6 ADD PUSH2 0x3901 JUMP JUMPDEST SWAP2 POP POP SWAP3 SWAP2 POP POP JUMP JUMPDEST PUSH1 0x0 PUSH1 0x20 DUP3 DUP5 SUB SLT ISZERO PUSH2 0x3BFA JUMPI PUSH2 0x3BF9 PUSH2 0x4F88 JUMP JUMPDEST JUMPDEST PUSH1 0x0 PUSH2 0x3C08 DUP5 DUP3 DUP6 ADD PUSH2 0x3951 JUMP JUMPDEST SWAP2 POP POP SWAP3 SWAP2 POP POP JUMP JUMPDEST PUSH1 0x0 PUSH1 0x20 DUP3 DUP5 SUB SLT ISZERO PUSH2 0x3C27 JUMPI PUSH2 0x3C26 PUSH2 0x4F88 JUMP JUMPDEST JUMPDEST PUSH1 0x0 PUSH2 0x3C35 DUP5 DUP3 DUP6 ADD PUSH2 0x397B JUMP JUMPDEST SWAP2 POP POP SWAP3 SWAP2 POP POP JUMP JUMPDEST PUSH1 0x0 DUP1 PUSH1 0x0 PUSH1 0xE0 DUP5 DUP7 SUB SLT ISZERO PUSH2 0x3C57 JUMPI PUSH2 0x3C56 PUSH2 0x4F88 JUMP JUMPDEST JUMPDEST PUSH1 0x0 PUSH2 0x3C65 DUP7 DUP3 DUP8 ADD PUSH2 0x397B JUMP JUMPDEST SWAP4 POP POP PUSH1 0x20 PUSH2 0x3C76 DUP7 DUP3 DUP8 ADD PUSH2 0x37A3 JUMP JUMPDEST SWAP3 POP POP PUSH1 0xA0 PUSH2 0x3C87 DUP7 DUP3 DUP8 ADD PUSH2 0x3756 JUMP JUMPDEST SWAP2 POP POP SWAP3 POP SWAP3 POP SWAP3 JUMP JUMPDEST PUSH1 0x0 DUP1 PUSH1 0x0 DUP1 PUSH1 0x0 PUSH2 0x120 DUP7 DUP9 SUB SLT ISZERO PUSH2 0x3CAE JUMPI PUSH2 0x3CAD PUSH2 0x4F88 JUMP JUMPDEST JUMPDEST PUSH1 0x0 PUSH2 0x3CBC DUP9 DUP3 DUP10 ADD PUSH2 0x397B JUMP JUMPDEST SWAP6 POP POP PUSH1 0x20 PUSH2 0x3CCD DUP9 DUP3 DUP10 ADD PUSH2 0x37A3 JUMP JUMPDEST SWAP5 POP POP PUSH1 0xA0 PUSH2 0x3CDE DUP9 DUP3 DUP10 ADD PUSH2 0x3756 JUMP JUMPDEST SWAP4 POP POP PUSH1 0xE0 PUSH2 0x3CEF DUP9 DUP3 DUP10 ADD PUSH2 0x39BA JUMP JUMPDEST SWAP3 POP POP PUSH2 0x100 PUSH2 0x3D01 DUP9 DUP3 DUP10 ADD PUSH2 0x39BA JUMP JUMPDEST SWAP2 POP POP SWAP3 SWAP6 POP SWAP3 SWAP6 SWAP1 SWAP4 POP JUMP JUMPDEST PUSH1 0x0 PUSH1 0x20 DUP3 DUP5 SUB SLT ISZERO PUSH2 0x3D24 JUMPI PUSH2 0x3D23 PUSH2 0x4F88 JUMP JUMPDEST JUMPDEST PUSH1 0x0 PUSH2 0x3D32 DUP5 DUP3 DUP6 ADD PUSH2 0x39A5 JUMP JUMPDEST SWAP2 POP POP SWAP3 SWAP2 POP POP JUMP JUMPDEST PUSH1 0x0 PUSH1 0x20 DUP3 DUP5 SUB SLT ISZERO PUSH2 0x3D51 JUMPI PUSH2 0x3D50 PUSH2 0x4F88 JUMP JUMPDEST JUMPDEST PUSH1 0x0 PUSH2 0x3D5F DUP5 DUP3 DUP6 ADD PUSH2 0x39CF JUMP JUMPDEST SWAP2 POP POP SWAP3 SWAP2 POP POP JUMP JUMPDEST PUSH1 0x0 PUSH2 0x3D74 DUP4 DUP4 PUSH2 0x3FEE JUMP JUMPDEST PUSH1 0x20 DUP4 ADD SWAP1 POP SWAP3 SWAP2 POP POP JUMP JUMPDEST PUSH1 0x0 PUSH2 0x3D8C DUP4 DUP4 PUSH2 0x4570 JUMP JUMPDEST PUSH1 0x20 DUP4 ADD SWAP1 POP SWAP3 SWAP2 POP POP JUMP JUMPDEST PUSH1 0x0 PUSH2 0x3DA4 DUP4 DUP4 PUSH2 0x459D JUMP JUMPDEST PUSH1 0x20 DUP4 ADD SWAP1 POP SWAP3 SWAP2 POP POP JUMP JUMPDEST PUSH2 0x3DB9 DUP2 PUSH2 0x4CEF JUMP JUMPDEST DUP3 MSTORE POP POP JUMP JUMPDEST PUSH2 0x3DC8 DUP2 PUSH2 0x4CEF JUMP JUMPDEST DUP3 MSTORE POP POP JUMP JUMPDEST PUSH2 0x3DD7 DUP2 PUSH2 0x4ABE JUMP JUMPDEST PUSH2 0x3DE1 DUP2 DUP5 PUSH2 0x4B34 JUMP JUMPDEST SWAP3 POP PUSH2 0x3DEC DUP3 PUSH2 0x4A96 JUMP JUMPDEST DUP1 PUSH1 0x0 JUMPDEST DUP4 DUP2 LT ISZERO PUSH2 0x3E1D JUMPI DUP2 MLOAD PUSH2 0x3E04 DUP8 DUP3 PUSH2 0x3D68 JUMP JUMPDEST SWAP7 POP PUSH2 0x3E0F DUP4 PUSH2 0x4B00 JUMP JUMPDEST SWAP3 POP POP PUSH1 0x1 DUP2 ADD SWAP1 POP PUSH2 0x3DF0 JUMP JUMPDEST POP POP POP POP POP POP JUMP JUMPDEST PUSH2 0x3E2E DUP2 PUSH2 0x4AC9 JUMP JUMPDEST PUSH2 0x3E38 DUP2 DUP5 PUSH2 0x4B3F JUMP JUMPDEST SWAP3 POP PUSH2 0x3E43 DUP3 PUSH2 0x4AA0 JUMP JUMPDEST DUP1 PUSH1 0x0 JUMPDEST DUP4 DUP2 LT ISZERO PUSH2 0x3E74 JUMPI DUP2 MLOAD PUSH2 0x3E5B DUP8 DUP3 PUSH2 0x3D80 JUMP JUMPDEST SWAP7 POP PUSH2 0x3E66 DUP4 PUSH2 0x4B0D JUMP JUMPDEST SWAP3 POP POP PUSH1 0x1 DUP2 ADD SWAP1 POP PUSH2 0x3E47 JUMP JUMPDEST POP POP POP POP POP POP JUMP JUMPDEST PUSH2 0x3E85 DUP2 PUSH2 0x4AD4 JUMP JUMPDEST PUSH2 0x3E8F DUP2 DUP5 PUSH2 0x4B4A JUMP JUMPDEST SWAP3 POP PUSH2 0x3E9A DUP3 PUSH2 0x4AAA JUMP JUMPDEST DUP1 PUSH1 0x0 JUMPDEST DUP4 DUP2 LT ISZERO PUSH2 0x3ECB JUMPI DUP2 MLOAD PUSH2 0x3EB2 DUP8 DUP3 PUSH2 0x3D80 JUMP JUMPDEST SWAP7 POP PUSH2 0x3EBD DUP4 PUSH2 0x4B1A JUMP JUMPDEST SWAP3 POP POP PUSH1 0x1 DUP2 ADD SWAP1 POP PUSH2 0x3E9E JUMP JUMPDEST POP POP POP POP POP POP JUMP JUMPDEST PUSH2 0x3EDC DUP2 PUSH2 0x4AD4 JUMP JUMPDEST PUSH2 0x3EE6 DUP2 DUP5 PUSH2 0x4B55 JUMP JUMPDEST SWAP3 POP PUSH2 0x3EF1 DUP3 PUSH2 0x4AAA JUMP JUMPDEST DUP1 PUSH1 0x0 JUMPDEST DUP4 DUP2 LT ISZERO PUSH2 0x3F22 JUMPI DUP2 MLOAD PUSH2 0x3F09 DUP8 DUP3 PUSH2 0x3D80 JUMP JUMPDEST SWAP7 POP PUSH2 0x3F14 DUP4 PUSH2 0x4B1A JUMP JUMPDEST SWAP3 POP POP PUSH1 0x1 DUP2 ADD SWAP1 POP PUSH2 0x3EF5 JUMP JUMPDEST POP POP POP POP POP POP JUMP JUMPDEST PUSH2 0x3F33 DUP2 PUSH2 0x4ADF JUMP JUMPDEST PUSH2 0x3F3D DUP2 DUP5 PUSH2 0x4B60 JUMP JUMPDEST SWAP3 POP PUSH2 0x3F48 DUP3 PUSH2 0x4AB4 JUMP JUMPDEST DUP1 PUSH1 0x0 JUMPDEST DUP4 DUP2 LT ISZERO PUSH2 0x3F79 JUMPI DUP2 MLOAD PUSH2 0x3F60 DUP8 DUP3 PUSH2 0x3D98 JUMP JUMPDEST SWAP7 POP PUSH2 0x3F6B DUP4 PUSH2 0x4B27 JUMP JUMPDEST SWAP3 POP POP PUSH1 0x1 DUP2 ADD SWAP1 POP PUSH2 0x3F4C JUMP JUMPDEST POP POP POP POP POP POP JUMP JUMPDEST PUSH2 0x3F8A DUP2 PUSH2 0x4D01 JUMP JUMPDEST DUP3 MSTORE POP POP JUMP JUMPDEST PUSH1 0x0 PUSH2 0x3F9B DUP3 PUSH2 0x4AEA JUMP JUMPDEST PUSH2 0x3FA5 DUP2 DUP6 PUSH2 0x4B6B JUMP JUMPDEST SWAP4 POP PUSH2 0x3FB5 DUP2 DUP6 PUSH1 0x20 DUP7 ADD PUSH2 0x4E01 JUMP JUMPDEST DUP1 DUP5 ADD SWAP2 POP POP SWAP3 SWAP2 POP POP JUMP JUMPDEST PUSH2 0x3FCA DUP2 PUSH2 0x4D83 JUMP JUMPDEST DUP3 MSTORE POP POP JUMP JUMPDEST PUSH2 0x3FD9 DUP2 PUSH2 0x4D95 JUMP JUMPDEST DUP3 MSTORE POP POP JUMP JUMPDEST PUSH2 0x3FE8 DUP2 PUSH2 0x4DA7 JUMP JUMPDEST DUP3 MSTORE POP POP JUMP JUMPDEST PUSH2 0x3FF7 DUP2 PUSH2 0x4D0D JUMP JUMPDEST DUP3 MSTORE POP POP JUMP JUMPDEST PUSH1 0x0 PUSH2 0x4008 DUP3 PUSH2 0x4AF5 JUMP JUMPDEST PUSH2 0x4012 DUP2 DUP6 PUSH2 0x4B76 JUMP JUMPDEST SWAP4 POP PUSH2 0x4022 DUP2 DUP6 PUSH1 0x20 DUP7 ADD PUSH2 0x4E01 JUMP JUMPDEST PUSH2 0x402B DUP2 PUSH2 0x4F8D JUMP JUMPDEST DUP5 ADD SWAP2 POP POP SWAP3 SWAP2 POP POP JUMP JUMPDEST PUSH1 0x0 PUSH2 0x4041 DUP3 PUSH2 0x4AF5 JUMP JUMPDEST PUSH2 0x404B DUP2 DUP6 PUSH2 0x4B87 JUMP JUMPDEST SWAP4 POP PUSH2 0x405B DUP2 DUP6 PUSH1 0x20 DUP7 ADD PUSH2 0x4E01 JUMP JUMPDEST PUSH2 0x4064 DUP2 PUSH2 0x4F8D JUMP JUMPDEST DUP5 ADD SWAP2 POP POP SWAP3 SWAP2 POP POP JUMP JUMPDEST PUSH1 0x0 PUSH2 0x407C PUSH1 0x5 DUP4 PUSH2 0x4B87 JUMP JUMPDEST SWAP2 POP PUSH2 0x4087 DUP3 PUSH2 0x4F9E JUMP JUMPDEST PUSH1 0x20 DUP3 ADD SWAP1 POP SWAP2 SWAP1 POP JUMP JUMPDEST PUSH1 0x0 PUSH2 0x409F PUSH1 0x5 DUP4 PUSH2 0x4B87 JUMP JUMPDEST SWAP2 POP PUSH2 0x40AA DUP3 PUSH2 0x4FC7 JUMP JUMPDEST PUSH1 0x20 DUP3 ADD SWAP1 POP SWAP2 SWAP1 POP JUMP JUMPDEST PUSH1 0x0 PUSH2 0x40C2 PUSH1 0x5 DUP4 PUSH2 0x4B87 JUMP JUMPDEST SWAP2 POP PUSH2 0x40CD DUP3 PUSH2 0x4FF0 JUMP JUMPDEST PUSH1 0x20 DUP3 ADD SWAP1 POP SWAP2 SWAP1 POP JUMP JUMPDEST PUSH1 0x0 PUSH2 0x40E5 PUSH1 0x5 DUP4 PUSH2 0x4B87 JUMP JUMPDEST SWAP2 POP PUSH2 0x40F0 DUP3 PUSH2 0x5019 JUMP JUMPDEST PUSH1 0x20 DUP3 ADD SWAP1 POP SWAP2 SWAP1 POP JUMP JUMPDEST PUSH1 0x0 PUSH2 0x4108 PUSH1 0x5 DUP4 PUSH2 0x4B87 JUMP JUMPDEST SWAP2 POP PUSH2 0x4113 DUP3 PUSH2 0x5042 JUMP JUMPDEST PUSH1 0x20 DUP3 ADD SWAP1 POP SWAP2 SWAP1 POP JUMP JUMPDEST PUSH1 0x0 PUSH2 0x412B PUSH1 0x26 DUP4 PUSH2 0x4B87 JUMP JUMPDEST SWAP2 POP PUSH2 0x4136 DUP3 PUSH2 0x506B JUMP JUMPDEST PUSH1 0x40 DUP3 ADD SWAP1 POP SWAP2 SWAP1 POP JUMP JUMPDEST PUSH1 0x0 PUSH2 0x414E PUSH1 0x5 DUP4 PUSH2 0x4B87 JUMP JUMPDEST SWAP2 POP PUSH2 0x4159 DUP3 PUSH2 0x50BA JUMP JUMPDEST PUSH1 0x20 DUP3 ADD SWAP1 POP SWAP2 SWAP1 POP JUMP JUMPDEST PUSH1 0x0 PUSH2 0x4171 PUSH1 0x0 DUP4 PUSH2 0x4B6B JUMP JUMPDEST SWAP2 POP PUSH2 0x417C DUP3 PUSH2 0x50E3 JUMP JUMPDEST PUSH1 0x0 DUP3 ADD SWAP1 POP SWAP2 SWAP1 POP JUMP JUMPDEST PUSH1 0x0 PUSH2 0x4194 PUSH1 0x5 DUP4 PUSH2 0x4B87 JUMP JUMPDEST SWAP2 POP PUSH2 0x419F DUP3 PUSH2 0x50E6 JUMP JUMPDEST PUSH1 0x20 DUP3 ADD SWAP1 POP SWAP2 SWAP1 POP JUMP JUMPDEST PUSH1 0x0 PUSH2 0x41B7 PUSH1 0x1D DUP4 PUSH2 0x4B87 JUMP JUMPDEST SWAP2 POP PUSH2 0x41C2 DUP3 PUSH2 0x510F JUMP JUMPDEST PUSH1 0x20 DUP3 ADD SWAP1 POP SWAP2 SWAP1 POP JUMP JUMPDEST PUSH1 0x0 PUSH2 0x41DA PUSH1 0x2A DUP4 PUSH2 0x4B87 JUMP JUMPDEST SWAP2 POP PUSH2 0x41E5 DUP3 PUSH2 0x5138 JUMP JUMPDEST PUSH1 0x40 DUP3 ADD SWAP1 POP SWAP2 SWAP1 POP JUMP JUMPDEST PUSH1 0x0 PUSH2 0x41FD PUSH1 0x5 DUP4 PUSH2 0x4B87 JUMP JUMPDEST SWAP2 POP PUSH2 0x4208 DUP3 PUSH2 0x5187 JUMP JUMPDEST PUSH1 0x20 DUP3 ADD SWAP1 POP SWAP2 SWAP1 POP JUMP JUMPDEST PUSH1 0x0 PUSH2 0x4220 PUSH1 0x1F DUP4 PUSH2 0x4B87 JUMP JUMPDEST SWAP2 POP PUSH2 0x422B DUP3 PUSH2 0x51B0 JUMP JUMPDEST PUSH1 0x20 DUP3 ADD SWAP1 POP SWAP2 SWAP1 POP JUMP JUMPDEST PUSH1 0xA0 DUP3 ADD PUSH1 0x0 DUP3 ADD MLOAD PUSH2 0x424C PUSH1 0x0 DUP6 ADD DUP3 PUSH2 0x3DB0 JUMP JUMPDEST POP PUSH1 0x20 DUP3 ADD MLOAD PUSH2 0x425F PUSH1 0x20 DUP6 ADD DUP3 PUSH2 0x4570 JUMP JUMPDEST POP PUSH1 0x40 DUP3 ADD MLOAD PUSH2 0x4272 PUSH1 0x40 DUP6 ADD DUP3 PUSH2 0x3F81 JUMP JUMPDEST POP PUSH1 0x60 DUP3 ADD MLOAD PUSH2 0x4285 PUSH1 0x60 DUP6 ADD DUP3 PUSH2 0x3F81 JUMP JUMPDEST POP PUSH1 0x80 DUP3 ADD MLOAD PUSH2 0x4298 PUSH1 0x80 DUP6 ADD DUP3 PUSH2 0x3F81 JUMP JUMPDEST POP POP POP POP JUMP JUMPDEST PUSH1 0x0 PUSH2 0x320 DUP4 ADD PUSH1 0x0 DUP4 ADD MLOAD PUSH2 0x42B7 PUSH1 0x0 DUP7 ADD DUP3 PUSH2 0x4305 JUMP JUMPDEST POP PUSH1 0x20 DUP4 ADD MLOAD PUSH2 0x42CB PUSH2 0x200 DUP7 ADD DUP3 PUSH2 0x4236 JUMP JUMPDEST POP PUSH1 0x40 DUP4 ADD MLOAD PUSH2 0x42DF PUSH2 0x2A0 DUP7 ADD DUP3 PUSH2 0x44F1 JUMP JUMPDEST POP PUSH1 0x60 DUP4 ADD MLOAD DUP5 DUP3 SUB PUSH2 0x300 DUP7 ADD MSTORE PUSH2 0x42F8 DUP3 DUP3 PUSH2 0x4520 JUMP JUMPDEST SWAP2 POP POP DUP1 SWAP2 POP POP SWAP3 SWAP2 POP POP JUMP JUMPDEST PUSH2 0x200 DUP3 ADD PUSH1 0x0 DUP3 ADD MLOAD PUSH2 0x431C PUSH1 0x0 DUP6 ADD DUP3 PUSH2 0x3DB0 JUMP JUMPDEST POP PUSH1 0x20 DUP3 ADD MLOAD PUSH2 0x432F PUSH1 0x20 DUP6 ADD DUP3 PUSH2 0x3DB0 JUMP JUMPDEST POP PUSH1 0x40 DUP3 ADD MLOAD PUSH2 0x4342 PUSH1 0x40 DUP6 ADD DUP3 PUSH2 0x45CA JUMP JUMPDEST POP PUSH1 0x60 DUP3 ADD MLOAD PUSH2 0x4355 PUSH1 0x60 DUP6 ADD DUP3 PUSH2 0x45CA JUMP JUMPDEST POP PUSH1 0x80 DUP3 ADD MLOAD PUSH2 0x4368 PUSH1 0x80 DUP6 ADD DUP3 PUSH2 0x45CA JUMP JUMPDEST POP PUSH1 0xA0 DUP3 ADD MLOAD PUSH2 0x437B PUSH1 0xA0 DUP6 ADD DUP3 PUSH2 0x3DB0 JUMP JUMPDEST POP PUSH1 0xC0 DUP3 ADD MLOAD PUSH2 0x438E PUSH1 0xC0 DUP6 ADD DUP3 PUSH2 0x459D JUMP JUMPDEST POP PUSH1 0xE0 DUP3 ADD MLOAD PUSH2 0x43A1 PUSH1 0xE0 DUP6 ADD DUP3 PUSH2 0x3DB0 JUMP JUMPDEST POP PUSH2 0x100 DUP3 ADD MLOAD PUSH2 0x43B6 PUSH2 0x100 DUP6 ADD DUP3 PUSH2 0x4570 JUMP JUMPDEST POP PUSH2 0x120 DUP3 ADD MLOAD PUSH2 0x43CB PUSH2 0x120 DUP6 ADD DUP3 PUSH2 0x3DCE JUMP JUMPDEST POP PUSH2 0x140 DUP3 ADD MLOAD PUSH2 0x43E0 PUSH2 0x160 DUP6 ADD DUP3 PUSH2 0x3E7C JUMP JUMPDEST POP PUSH2 0x160 DUP3 ADD MLOAD PUSH2 0x43F5 PUSH2 0x1E0 DUP6 ADD DUP3 PUSH2 0x459D JUMP JUMPDEST POP POP POP POP JUMP JUMPDEST PUSH2 0x200 DUP3 ADD PUSH1 0x0 DUP3 ADD MLOAD PUSH2 0x4412 PUSH1 0x0 DUP6 ADD DUP3 PUSH2 0x3DB0 JUMP JUMPDEST POP PUSH1 0x20 DUP3 ADD MLOAD PUSH2 0x4425 PUSH1 0x20 DUP6 ADD DUP3 PUSH2 0x3DB0 JUMP JUMPDEST POP PUSH1 0x40 DUP3 ADD MLOAD PUSH2 0x4438 PUSH1 0x40 DUP6 ADD DUP3 PUSH2 0x45CA JUMP JUMPDEST POP PUSH1 0x60 DUP3 ADD MLOAD PUSH2 0x444B PUSH1 0x60 DUP6 ADD DUP3 PUSH2 0x45CA JUMP JUMPDEST POP PUSH1 0x80 DUP3 ADD MLOAD PUSH2 0x445E PUSH1 0x80 DUP6 ADD DUP3 PUSH2 0x45CA JUMP JUMPDEST POP PUSH1 0xA0 DUP3 ADD MLOAD PUSH2 0x4471 PUSH1 0xA0 DUP6 ADD DUP3 PUSH2 0x3DB0 JUMP JUMPDEST POP PUSH1 0xC0 DUP3 ADD MLOAD PUSH2 0x4484 PUSH1 0xC0 DUP6 ADD DUP3 PUSH2 0x459D JUMP JUMPDEST POP PUSH1 0xE0 DUP3 ADD MLOAD PUSH2 0x4497 PUSH1 0xE0 DUP6 ADD DUP3 PUSH2 0x3DB0 JUMP JUMPDEST POP PUSH2 0x100 DUP3 ADD MLOAD PUSH2 0x44AC PUSH2 0x100 DUP6 ADD DUP3 PUSH2 0x4570 JUMP JUMPDEST POP PUSH2 0x120 DUP3 ADD MLOAD PUSH2 0x44C1 PUSH2 0x120 DUP6 ADD DUP3 PUSH2 0x3DCE JUMP JUMPDEST POP PUSH2 0x140 DUP3 ADD MLOAD PUSH2 0x44D6 PUSH2 0x160 DUP6 ADD DUP3 PUSH2 0x3E7C JUMP JUMPDEST POP PUSH2 0x160 DUP3 ADD MLOAD PUSH2 0x44EB PUSH2 0x1E0 DUP6 ADD DUP3 PUSH2 0x459D JUMP JUMPDEST POP POP POP POP JUMP JUMPDEST PUSH1 0x60 DUP3 ADD PUSH1 0x0 DUP3 ADD MLOAD PUSH2 0x4507 PUSH1 0x0 DUP6 ADD DUP3 PUSH2 0x3DB0 JUMP JUMPDEST POP PUSH1 0x20 DUP3 ADD MLOAD PUSH2 0x451A PUSH1 0x20 DUP6 ADD DUP3 PUSH2 0x3E25 JUMP JUMPDEST POP POP POP POP JUMP JUMPDEST PUSH1 0x0 PUSH1 0x60 DUP4 ADD PUSH1 0x0 DUP4 ADD MLOAD PUSH2 0x4538 PUSH1 0x0 DUP7 ADD DUP3 PUSH2 0x3DB0 JUMP JUMPDEST POP PUSH1 0x20 DUP4 ADD MLOAD PUSH2 0x454B PUSH1 0x20 DUP7 ADD DUP3 PUSH2 0x459D JUMP JUMPDEST POP PUSH1 0x40 DUP4 ADD MLOAD DUP5 DUP3 SUB PUSH1 0x40 DUP7 ADD MSTORE PUSH2 0x4563 DUP3 DUP3 PUSH2 0x3FFD JUMP JUMPDEST SWAP2 POP POP DUP1 SWAP2 POP POP SWAP3 SWAP2 POP POP JUMP JUMPDEST PUSH2 0x4579 DUP2 PUSH2 0x4D1A JUMP JUMPDEST DUP3 MSTORE POP POP JUMP JUMPDEST PUSH2 0x4588 DUP2 PUSH2 0x4D1A JUMP JUMPDEST DUP3 MSTORE POP POP JUMP JUMPDEST PUSH2 0x4597 DUP2 PUSH2 0x4DDD JUMP JUMPDEST DUP3 MSTORE POP POP JUMP JUMPDEST PUSH2 0x45A6 DUP2 PUSH2 0x4D48 JUMP JUMPDEST DUP3 MSTORE POP POP JUMP JUMPDEST PUSH2 0x45B5 DUP2 PUSH2 0x4D48 JUMP JUMPDEST DUP3 MSTORE POP POP JUMP JUMPDEST PUSH2 0x45C4 DUP2 PUSH2 0x4DEF JUMP JUMPDEST DUP3 MSTORE POP POP JUMP JUMPDEST PUSH2 0x45D3 DUP2 PUSH2 0x4D62 JUMP JUMPDEST DUP3 MSTORE POP POP JUMP JUMPDEST PUSH1 0x0 PUSH2 0x45E5 DUP3 DUP5 PUSH2 0x3F90 JUMP JUMPDEST SWAP2 POP DUP2 SWAP1 POP SWAP3 SWAP2 POP POP JUMP JUMPDEST PUSH1 0x0 PUSH2 0x45FB DUP3 PUSH2 0x4164 JUMP JUMPDEST SWAP2 POP DUP2 SWAP1 POP SWAP2 SWAP1 POP JUMP JUMPDEST PUSH1 0x0 PUSH1 0x20 DUP3 ADD SWAP1 POP PUSH2 0x461A PUSH1 0x0 DUP4 ADD DUP5 PUSH2 0x3DBF JUMP JUMPDEST SWAP3 SWAP2 POP POP JUMP JUMPDEST PUSH1 0x0 PUSH1 0x60 DUP3 ADD SWAP1 POP PUSH2 0x4635 PUSH1 0x0 DUP4 ADD DUP7 PUSH2 0x3DBF JUMP JUMPDEST PUSH2 0x4642 PUSH1 0x20 DUP4 ADD DUP6 PUSH2 0x3DBF JUMP JUMPDEST PUSH2 0x464F PUSH1 0x40 DUP4 ADD DUP5 PUSH2 0x45AC JUMP JUMPDEST SWAP5 SWAP4 POP POP POP POP JUMP JUMPDEST PUSH1 0x0 PUSH1 0x40 DUP3 ADD SWAP1 POP PUSH2 0x466C PUSH1 0x0 DUP4 ADD DUP6 PUSH2 0x3DBF JUMP JUMPDEST PUSH2 0x4679 PUSH1 0x20 DUP4 ADD DUP5 PUSH2 0x45AC JUMP JUMPDEST SWAP4 SWAP3 POP POP POP JUMP JUMPDEST PUSH1 0x0 PUSH1 0x80 DUP3 ADD SWAP1 POP PUSH2 0x4695 PUSH1 0x0 DUP4 ADD DUP5 PUSH2 0x3ED3 JUMP JUMPDEST SWAP3 SWAP2 POP POP JUMP JUMPDEST PUSH1 0x0 PUSH1 0x20 DUP3 ADD SWAP1 POP PUSH2 0x46B0 PUSH1 0x0 DUP4 ADD DUP5 PUSH2 0x3FC1 JUMP JUMPDEST SWAP3 SWAP2 POP POP JUMP JUMPDEST PUSH1 0x0 PUSH1 0x20 DUP3 ADD SWAP1 POP PUSH2 0x46CB PUSH1 0x0 DUP4 ADD DUP5 PUSH2 0x3FD0 JUMP JUMPDEST SWAP3 SWAP2 POP POP JUMP JUMPDEST PUSH1 0x0 PUSH1 0x20 DUP3 ADD SWAP1 POP PUSH2 0x46E6 PUSH1 0x0 DUP4 ADD DUP5 PUSH2 0x3FDF JUMP JUMPDEST SWAP3 SWAP2 POP POP JUMP JUMPDEST PUSH1 0x0 PUSH1 0x20 DUP3 ADD SWAP1 POP DUP2 DUP2 SUB PUSH1 0x0 DUP4 ADD MSTORE PUSH2 0x4706 DUP2 DUP5 PUSH2 0x4036 JUMP JUMPDEST SWAP1 POP SWAP3 SWAP2 POP POP JUMP JUMPDEST PUSH1 0x0 PUSH1 0x20 DUP3 ADD SWAP1 POP DUP2 DUP2 SUB PUSH1 0x0 DUP4 ADD MSTORE PUSH2 0x4727 DUP2 PUSH2 0x406F JUMP JUMPDEST SWAP1 POP SWAP2 SWAP1 POP JUMP JUMPDEST PUSH1 0x0 PUSH1 0x20 DUP3 ADD SWAP1 POP DUP2 DUP2 SUB PUSH1 0x0 DUP4 ADD MSTORE PUSH2 0x4747 DUP2 PUSH2 0x4092 JUMP JUMPDEST SWAP1 POP SWAP2 SWAP1 POP JUMP JUMPDEST PUSH1 0x0 PUSH1 0x20 DUP3 ADD SWAP1 POP DUP2 DUP2 SUB PUSH1 0x0 DUP4 ADD MSTORE PUSH2 0x4767 DUP2 PUSH2 0x40B5 JUMP JUMPDEST SWAP1 POP SWAP2 SWAP1 POP JUMP JUMPDEST PUSH1 0x0 PUSH1 0x20 DUP3 ADD SWAP1 POP DUP2 DUP2 SUB PUSH1 0x0 DUP4 ADD MSTORE PUSH2 0x4787 DUP2 PUSH2 0x40D8 JUMP JUMPDEST SWAP1 POP SWAP2 SWAP1 POP JUMP JUMPDEST PUSH1 0x0 PUSH1 0x20 DUP3 ADD SWAP1 POP DUP2 DUP2 SUB PUSH1 0x0 DUP4 ADD MSTORE PUSH2 0x47A7 DUP2 PUSH2 0x40FB JUMP JUMPDEST SWAP1 POP SWAP2 SWAP1 POP JUMP JUMPDEST PUSH1 0x0 PUSH1 0x20 DUP3 ADD SWAP1 POP DUP2 DUP2 SUB PUSH1 0x0 DUP4 ADD MSTORE PUSH2 0x47C7 DUP2 PUSH2 0x411E JUMP JUMPDEST SWAP1 POP SWAP2 SWAP1 POP JUMP JUMPDEST PUSH1 0x0 PUSH1 0x20 DUP3 ADD SWAP1 POP DUP2 DUP2 SUB PUSH1 0x0 DUP4 ADD MSTORE PUSH2 0x47E7 DUP2 PUSH2 0x4141 JUMP JUMPDEST SWAP1 POP SWAP2 SWAP1 POP JUMP JUMPDEST PUSH1 0x0 PUSH1 0x20 DUP3 ADD SWAP1 POP DUP2 DUP2 SUB PUSH1 0x0 DUP4 ADD MSTORE PUSH2 0x4807 DUP2 PUSH2 0x4187 JUMP JUMPDEST SWAP1 POP SWAP2 SWAP1 POP JUMP JUMPDEST PUSH1 0x0 PUSH1 0x20 DUP3 ADD SWAP1 POP DUP2 DUP2 SUB PUSH1 0x0 DUP4 ADD MSTORE PUSH2 0x4827 DUP2 PUSH2 0x41AA JUMP JUMPDEST SWAP1 POP SWAP2 SWAP1 POP JUMP JUMPDEST PUSH1 0x0 PUSH1 0x20 DUP3 ADD SWAP1 POP DUP2 DUP2 SUB PUSH1 0x0 DUP4 ADD MSTORE PUSH2 0x4847 DUP2 PUSH2 0x41CD JUMP JUMPDEST SWAP1 POP SWAP2 SWAP1 POP JUMP JUMPDEST PUSH1 0x0 PUSH1 0x20 DUP3 ADD SWAP1 POP DUP2 DUP2 SUB PUSH1 0x0 DUP4 ADD MSTORE PUSH2 0x4867 DUP2 PUSH2 0x41F0 JUMP JUMPDEST SWAP1 POP SWAP2 SWAP1 POP JUMP JUMPDEST PUSH1 0x0 PUSH1 0x20 DUP3 ADD SWAP1 POP DUP2 DUP2 SUB PUSH1 0x0 DUP4 ADD MSTORE PUSH2 0x4887 DUP2 PUSH2 0x4213 JUMP JUMPDEST SWAP1 POP SWAP2 SWAP1 POP JUMP JUMPDEST PUSH1 0x0 PUSH1 0x20 DUP3 ADD SWAP1 POP DUP2 DUP2 SUB PUSH1 0x0 DUP4 ADD MSTORE PUSH2 0x48A8 DUP2 DUP5 PUSH2 0x429E JUMP JUMPDEST SWAP1 POP SWAP3 SWAP2 POP POP JUMP JUMPDEST PUSH1 0x0 PUSH2 0x200 DUP3 ADD SWAP1 POP PUSH2 0x48C6 PUSH1 0x0 DUP4 ADD DUP5 PUSH2 0x43FB JUMP JUMPDEST SWAP3 SWAP2 POP POP JUMP JUMPDEST PUSH1 0x0 PUSH2 0x220 DUP3 ADD SWAP1 POP PUSH2 0x48E2 PUSH1 0x0 DUP4 ADD DUP6 PUSH2 0x43FB JUMP JUMPDEST PUSH2 0x48F0 PUSH2 0x200 DUP4 ADD DUP5 PUSH2 0x45AC JUMP JUMPDEST SWAP4 SWAP3 POP POP POP JUMP JUMPDEST PUSH1 0x0 PUSH1 0x20 DUP3 ADD SWAP1 POP PUSH2 0x490C PUSH1 0x0 DUP4 ADD DUP5 PUSH2 0x457F JUMP JUMPDEST SWAP3 SWAP2 POP POP JUMP JUMPDEST PUSH1 0x0 PUSH1 0x20 DUP3 ADD SWAP1 POP PUSH2 0x4927 PUSH1 0x0 DUP4 ADD DUP5 PUSH2 0x45AC JUMP JUMPDEST SWAP3 SWAP2 POP POP JUMP JUMPDEST PUSH1 0x0 PUSH1 0x60 DUP3 ADD SWAP1 POP PUSH2 0x4942 PUSH1 0x0 DUP4 ADD DUP7 PUSH2 0x45AC JUMP JUMPDEST PUSH2 0x494F PUSH1 0x20 DUP4 ADD DUP6 PUSH2 0x3DBF JUMP JUMPDEST PUSH2 0x495C PUSH1 0x40 DUP4 ADD DUP5 PUSH2 0x457F JUMP JUMPDEST SWAP5 SWAP4 POP POP POP POP JUMP JUMPDEST PUSH1 0x0 PUSH2 0x280 DUP3 ADD SWAP1 POP PUSH2 0x497A PUSH1 0x0 DUP4 ADD DUP9 PUSH2 0x45AC JUMP JUMPDEST PUSH2 0x4987 PUSH1 0x20 DUP4 ADD DUP8 PUSH2 0x43FB JUMP JUMPDEST PUSH2 0x4995 PUSH2 0x220 DUP4 ADD DUP7 PUSH2 0x3DBF JUMP JUMPDEST PUSH2 0x49A3 PUSH2 0x240 DUP4 ADD DUP6 PUSH2 0x458E JUMP JUMPDEST PUSH2 0x49B1 PUSH2 0x260 DUP4 ADD DUP5 PUSH2 0x45BB JUMP JUMPDEST SWAP7 SWAP6 POP POP POP POP POP POP JUMP JUMPDEST PUSH1 0x0 PUSH2 0x2C0 DUP3 ADD SWAP1 POP PUSH2 0x49D1 PUSH1 0x0 DUP4 ADD DUP7 PUSH2 0x45AC JUMP JUMPDEST PUSH2 0x49DE PUSH1 0x20 DUP4 ADD DUP6 PUSH2 0x43FB JUMP JUMPDEST PUSH2 0x49EC PUSH2 0x220 DUP4 ADD DUP5 PUSH2 0x3F2A JUMP JUMPDEST SWAP5 SWAP4 POP POP POP POP JUMP JUMPDEST PUSH1 0x0 PUSH2 0x49FE PUSH2 0x4A0F JUMP JUMPDEST SWAP1 POP PUSH2 0x4A0A DUP3 DUP3 PUSH2 0x4E34 JUMP JUMPDEST SWAP2 SWAP1 POP JUMP JUMPDEST PUSH1 0x0 PUSH1 0x40 MLOAD SWAP1 POP SWAP1 JUMP JUMPDEST PUSH1 0x0 PUSH8 0xFFFFFFFFFFFFFFFF DUP3 GT ISZERO PUSH2 0x4A34 JUMPI PUSH2 0x4A33 PUSH2 0x4F3B JUMP JUMPDEST JUMPDEST PUSH1 0x20 DUP3 MUL SWAP1 POP SWAP2 SWAP1 POP JUMP JUMPDEST PUSH1 0x0 PUSH8 0xFFFFFFFFFFFFFFFF DUP3 GT ISZERO PUSH2 0x4A5A JUMPI PUSH2 0x4A59 PUSH2 0x4F3B JUMP JUMPDEST JUMPDEST PUSH1 0x20 DUP3 MUL SWAP1 POP SWAP2 SWAP1 POP JUMP JUMPDEST PUSH1 0x0 PUSH8 0xFFFFFFFFFFFFFFFF DUP3 GT ISZERO PUSH2 0x4A80 JUMPI PUSH2 0x4A7F PUSH2 0x4F3B JUMP JUMPDEST JUMPDEST PUSH2 0x4A89 DUP3 PUSH2 0x4F8D JUMP JUMPDEST SWAP1 POP PUSH1 0x20 DUP2 ADD SWAP1 POP SWAP2 SWAP1 POP JUMP JUMPDEST PUSH1 0x0 DUP2 SWAP1 POP SWAP2 SWAP1 POP JUMP JUMPDEST PUSH1 0x0 DUP2 SWAP1 POP SWAP2 SWAP1 POP JUMP JUMPDEST PUSH1 0x0 DUP2 SWAP1 POP SWAP2 SWAP1 POP JUMP JUMPDEST PUSH1 0x0 DUP2 SWAP1 POP SWAP2 SWAP1 POP JUMP JUMPDEST PUSH1 0x0 PUSH1 0x2 SWAP1 POP SWAP2 SWAP1 POP JUMP JUMPDEST PUSH1 0x0 PUSH1 0x2 SWAP1 POP SWAP2 SWAP1 POP JUMP JUMPDEST PUSH1 0x0 PUSH1 0x4 SWAP1 POP SWAP2 SWAP1 POP JUMP JUMPDEST PUSH1 0x0 PUSH1 0x5 SWAP1 POP SWAP2 SWAP1 POP JUMP JUMPDEST PUSH1 0x0 DUP2 MLOAD SWAP1 POP SWAP2 SWAP1 POP JUMP JUMPDEST PUSH1 0x0 DUP2 MLOAD SWAP1 POP SWAP2 SWAP1 POP JUMP JUMPDEST PUSH1 0x0 PUSH1 0x20 DUP3 ADD SWAP1 POP SWAP2 SWAP1 POP JUMP JUMPDEST PUSH1 0x0 PUSH1 0x20 DUP3 ADD SWAP1 POP SWAP2 SWAP1 POP JUMP JUMPDEST PUSH1 0x0 PUSH1 0x20 DUP3 ADD SWAP1 POP SWAP2 SWAP1 POP JUMP JUMPDEST PUSH1 0x0 PUSH1 0x20 DUP3 ADD SWAP1 POP SWAP2 SWAP1 POP JUMP JUMPDEST PUSH1 0x0 DUP2 SWAP1 POP SWAP3 SWAP2 POP POP JUMP JUMPDEST PUSH1 0x0 DUP2 SWAP1 POP SWAP3 SWAP2 POP POP JUMP JUMPDEST PUSH1 0x0 DUP2 SWAP1 POP SWAP3 SWAP2 POP POP JUMP JUMPDEST PUSH1 0x0 DUP2 SWAP1 POP SWAP3 SWAP2 POP POP JUMP JUMPDEST PUSH1 0x0 DUP2 SWAP1 POP SWAP3 SWAP2 POP POP JUMP JUMPDEST PUSH1 0x0 DUP2 SWAP1 POP SWAP3 SWAP2 POP POP JUMP JUMPDEST PUSH1 0x0 DUP3 DUP3 MSTORE PUSH1 0x20 DUP3 ADD SWAP1 POP SWAP3 SWAP2 POP POP JUMP JUMPDEST PUSH1 0x0 DUP3 DUP3 MSTORE PUSH1 0x20 DUP3 ADD SWAP1 POP SWAP3 SWAP2 POP POP JUMP JUMPDEST PUSH1 0x0 PUSH2 0x4BA3 DUP3 PUSH2 0x4D0D JUMP JUMPDEST SWAP2 POP PUSH2 0x4BAE DUP4 PUSH2 0x4D0D JUMP JUMPDEST SWAP3 POP DUP2 PUSH2 0x7FFF SUB DUP4 SGT PUSH1 0x0 DUP4 SLT ISZERO AND ISZERO PUSH2 0x4BCB JUMPI PUSH2 0x4BCA PUSH2 0x4EAE JUMP JUMPDEST JUMPDEST DUP2 PUSH32 0xFFFFFFFFFFFFFFFFFFFFFFFFFFFFFFFFFFFFFFFFFFFFFFFFFFFFFFFFFFFF8000 SUB DUP4 SLT PUSH1 0x0 DUP4 SLT AND ISZERO PUSH2 0x4C03 JUMPI PUSH2 0x4C02 PUSH2 0x4EAE JUMP JUMPDEST JUMPDEST DUP3 DUP3 ADD SWAP1 POP SWAP3 SWAP2 POP POP JUMP JUMPDEST PUSH1 0x0 PUSH2 0x4C19 DUP3 PUSH2 0x4D48 JUMP JUMPDEST SWAP2 POP PUSH2 0x4C24 DUP4 PUSH2 0x4D48 JUMP JUMPDEST SWAP3 POP DUP3 PUSH32 0xFFFFFFFFFFFFFFFFFFFFFFFFFFFFFFFFFFFFFFFFFFFFFFFFFFFFFFFFFFFFFFFF SUB DUP3 GT ISZERO PUSH2 0x4C59 JUMPI PUSH2 0x4C58 PUSH2 0x4EAE JUMP JUMPDEST JUMPDEST DUP3 DUP3 ADD SWAP1 POP SWAP3 SWAP2 POP POP JUMP JUMPDEST PUSH1 0x0 PUSH2 0x4C6F DUP3 PUSH2 0x4D48 JUMP JUMPDEST SWAP2 POP PUSH2 0x4C7A DUP4 PUSH2 0x4D48 JUMP JUMPDEST SWAP3 POP DUP3 PUSH2 0x4C8A JUMPI PUSH2 0x4C89 PUSH2 0x4EDD JUMP JUMPDEST JUMPDEST DUP3 DUP3 DIV SWAP1 POP SWAP3 SWAP2 POP POP JUMP JUMPDEST PUSH1 0x0 PUSH2 0x4CA0 DUP3 PUSH2 0x4D48 JUMP JUMPDEST SWAP2 POP PUSH2 0x4CAB DUP4 PUSH2 0x4D48 JUMP JUMPDEST SWAP3 POP DUP2 PUSH32 0xFFFFFFFFFFFFFFFFFFFFFFFFFFFFFFFFFFFFFFFFFFFFFFFFFFFFFFFFFFFFFFFF DIV DUP4 GT DUP3 ISZERO ISZERO AND ISZERO PUSH2 0x4CE4 JUMPI PUSH2 0x4CE3 PUSH2 0x4EAE JUMP JUMPDEST JUMPDEST DUP3 DUP3 MUL SWAP1 POP SWAP3 SWAP2 POP POP JUMP JUMPDEST PUSH1 0x0 PUSH2 0x4CFA DUP3 PUSH2 0x4D28 JUMP JUMPDEST SWAP1 POP SWAP2 SWAP1 POP JUMP JUMPDEST PUSH1 0x0 DUP2 ISZERO ISZERO SWAP1 POP SWAP2 SWAP1 POP JUMP JUMPDEST PUSH1 0x0 DUP2 PUSH1 0x1 SIGNEXTEND SWAP1 POP SWAP2 SWAP1 POP JUMP JUMPDEST PUSH1 0x0 PUSH2 0xFFFF DUP3 AND SWAP1 POP SWAP2 SWAP1 POP JUMP JUMPDEST PUSH1 0x0 PUSH20 0xFFFFFFFFFFFFFFFFFFFFFFFFFFFFFFFFFFFFFFFF DUP3 AND SWAP1 POP SWAP2 SWAP1 POP JUMP JUMPDEST PUSH1 0x0 DUP2 SWAP1 POP SWAP2 SWAP1 POP JUMP JUMPDEST PUSH1 0x0 PUSH4 0xFFFFFFFF DUP3 AND SWAP1 POP SWAP2 SWAP1 POP JUMP JUMPDEST PUSH1 0x0 PUSH8 0xFFFFFFFFFFFFFFFF DUP3 AND SWAP1 POP SWAP2 SWAP1 POP JUMP JUMPDEST PUSH1 0x0 PUSH1 0xFF DUP3 AND SWAP1 POP SWAP2 SWAP1 POP JUMP JUMPDEST PUSH1 0x0 PUSH2 0x4D8E DUP3 PUSH2 0x4DB9 JUMP JUMPDEST SWAP1 POP SWAP2 SWAP1 POP JUMP JUMPDEST PUSH1 0x0 PUSH2 0x4DA0 DUP3 PUSH2 0x4DB9 JUMP JUMPDEST SWAP1 POP SWAP2 SWAP1 POP JUMP JUMPDEST PUSH1 0x0 PUSH2 0x4DB2 DUP3 PUSH2 0x4DB9 JUMP JUMPDEST SWAP1 POP SWAP2 SWAP1 POP JUMP JUMPDEST PUSH1 0x0 PUSH2 0x4DC4 DUP3 PUSH2 0x4DCB JUMP JUMPDEST SWAP1 POP SWAP2 SWAP1 POP JUMP JUMPDEST PUSH1 0x0 PUSH2 0x4DD6 DUP3 PUSH2 0x4D28 JUMP JUMPDEST SWAP1 POP SWAP2 SWAP1 POP JUMP JUMPDEST PUSH1 0x0 PUSH2 0x4DE8 DUP3 PUSH2 0x4D1A JUMP JUMPDEST SWAP1 POP SWAP2 SWAP1 POP JUMP JUMPDEST PUSH1 0x0 PUSH2 0x4DFA DUP3 PUSH2 0x4D52 JUMP JUMPDEST SWAP1 POP SWAP2 SWAP1 POP JUMP JUMPDEST PUSH1 0x0 JUMPDEST DUP4 DUP2 LT ISZERO PUSH2 0x4E1F JUMPI DUP1 DUP3 ADD MLOAD DUP2 DUP5 ADD MSTORE PUSH1 0x20 DUP2 ADD SWAP1 POP PUSH2 0x4E04 JUMP JUMPDEST DUP4 DUP2 GT ISZERO PUSH2 0x4E2E JUMPI PUSH1 0x0 DUP5 DUP5 ADD MSTORE JUMPDEST POP POP POP POP JUMP JUMPDEST PUSH2 0x4E3D DUP3 PUSH2 0x4F8D JUMP JUMPDEST DUP2 ADD DUP2 DUP2 LT PUSH8 0xFFFFFFFFFFFFFFFF DUP3 GT OR ISZERO PUSH2 0x4E5C JUMPI PUSH2 0x4E5B PUSH2 0x4F3B JUMP JUMPDEST JUMPDEST DUP1 PUSH1 0x40 MSTORE POP POP POP JUMP JUMPDEST PUSH1 0x0 PUSH2 0x4E70 DUP3 PUSH2 0x4D0D JUMP JUMPDEST SWAP2 POP PUSH32 0xFFFFFFFFFFFFFFFFFFFFFFFFFFFFFFFFFFFFFFFFFFFFFFFFFFFFFFFFFFFF8000 DUP3 EQ ISZERO PUSH2 0x4EA3 JUMPI PUSH2 0x4EA2 PUSH2 0x4EAE JUMP JUMPDEST JUMPDEST DUP2 PUSH1 0x0 SUB SWAP1 POP SWAP2 SWAP1 POP JUMP JUMPDEST PUSH32 0x4E487B7100000000000000000000000000000000000000000000000000000000 PUSH1 0x0 MSTORE PUSH1 0x11 PUSH1 0x4 MSTORE PUSH1 0x24 PUSH1 0x0 REVERT JUMPDEST PUSH32 0x4E487B7100000000000000000000000000000000000000000000000000000000 PUSH1 0x0 MSTORE PUSH1 0x12 PUSH1 0x4 MSTORE PUSH1 0x24 PUSH1 0x0 REVERT JUMPDEST PUSH32 0x4E487B7100000000000000000000000000000000000000000000000000000000 PUSH1 0x0 MSTORE PUSH1 0x32 PUSH1 0x4 MSTORE PUSH1 0x24 PUSH1 0x0 REVERT JUMPDEST PUSH32 0x4E487B7100000000000000000000000000000000000000000000000000000000 PUSH1 0x0 MSTORE PUSH1 0x41 PUSH1 0x4 MSTORE PUSH1 0x24 PUSH1 0x0 REVERT JUMPDEST PUSH1 0x0 DUP1 REVERT JUMPDEST PUSH1 0x0 DUP1 REVERT JUMPDEST PUSH1 0x0 DUP1 REVERT JUMPDEST PUSH1 0x0 DUP1 REVERT JUMPDEST PUSH1 0x0 DUP1 REVERT JUMPDEST PUSH1 0x0 DUP1 REVERT JUMPDEST PUSH1 0x0 DUP1 REVERT JUMPDEST PUSH1 0x0 PUSH1 0x1F NOT PUSH1 0x1F DUP4 ADD AND SWAP1 POP SWAP2 SWAP1 POP JUMP JUMPDEST PUSH32 0x312D303131000000000000000000000000000000000000000000000000000000 PUSH1 0x0 DUP3 ADD MSTORE POP JUMP JUMPDEST PUSH32 0x302D303038000000000000000000000000000000000000000000000000000000 PUSH1 0x0 DUP3 ADD MSTORE POP JUMP JUMPDEST PUSH32 0x312D303235000000000000000000000000000000000000000000000000000000 PUSH1 0x0 DUP3 ADD MSTORE POP JUMP JUMPDEST PUSH32 0x302D303031000000000000000000000000000000000000000000000000000000 PUSH1 0x0 DUP3 ADD MSTORE POP JUMP JUMPDEST PUSH32 0x302D303033000000000000000000000000000000000000000000000000000000 PUSH1 0x0 DUP3 ADD MSTORE POP JUMP JUMPDEST PUSH32 0x416464726573733A20696E73756666696369656E742062616C616E636520666F PUSH1 0x0 DUP3 ADD MSTORE PUSH32 0x722063616C6C0000000000000000000000000000000000000000000000000000 PUSH1 0x20 DUP3 ADD MSTORE POP JUMP JUMPDEST PUSH32 0x302D303035000000000000000000000000000000000000000000000000000000 PUSH1 0x0 DUP3 ADD MSTORE POP JUMP JUMPDEST POP JUMP JUMPDEST PUSH32 0x312D303132000000000000000000000000000000000000000000000000000000 PUSH1 0x0 DUP3 ADD MSTORE POP JUMP JUMPDEST PUSH32 0x416464726573733A2063616C6C20746F206E6F6E2D636F6E7472616374000000 PUSH1 0x0 DUP3 ADD MSTORE POP JUMP JUMPDEST PUSH32 0x5361666545524332303A204552433230206F7065726174696F6E20646964206E PUSH1 0x0 DUP3 ADD MSTORE PUSH32 0x6F74207375636365656400000000000000000000000000000000000000000000 PUSH1 0x20 DUP3 ADD MSTORE POP JUMP JUMPDEST PUSH32 0x302D303032000000000000000000000000000000000000000000000000000000 PUSH1 0x0 DUP3 ADD MSTORE POP JUMP JUMPDEST PUSH32 0x5265656E7472616E637947756172643A207265656E7472616E742063616C6C00 PUSH1 0x0 DUP3 ADD MSTORE POP JUMP JUMPDEST PUSH2 0x51E2 DUP2 PUSH2 0x4CEF JUMP JUMPDEST DUP2 EQ PUSH2 0x51ED JUMPI PUSH1 0x0 DUP1 REVERT JUMPDEST POP JUMP JUMPDEST PUSH2 0x51F9 DUP2 PUSH2 0x4D01 JUMP JUMPDEST DUP2 EQ PUSH2 0x5204 JUMPI PUSH1 0x0 DUP1 REVERT JUMPDEST POP JUMP JUMPDEST PUSH2 0x5210 DUP2 PUSH2 0x4D1A JUMP JUMPDEST DUP2 EQ PUSH2 0x521B JUMPI PUSH1 0x0 DUP1 REVERT JUMPDEST POP JUMP JUMPDEST PUSH2 0x5227 DUP2 PUSH2 0x4D48 JUMP JUMPDEST DUP2 EQ PUSH2 0x5232 JUMPI PUSH1 0x0 DUP1 REVERT JUMPDEST POP JUMP JUMPDEST PUSH2 0x523E DUP2 PUSH2 0x4D52 JUMP JUMPDEST DUP2 EQ PUSH2 0x5249 JUMPI PUSH1 0x0 DUP1 REVERT JUMPDEST POP JUMP JUMPDEST PUSH2 0x5255 DUP2 PUSH2 0x4D62 JUMP JUMPDEST DUP2 EQ PUSH2 0x5260 JUMPI PUSH1 0x0 DUP1 REVERT JUMPDEST POP JUMP JUMPDEST PUSH2 0x526C DUP2 PUSH2 0x4D76 JUMP JUMPDEST DUP2 EQ PUSH2 0x5277 JUMPI PUSH1 0x0 DUP1 REVERT JUMPDEST POP JUMP INVALID LOG2 PUSH5 0x6970667358 0x22 SLT KECCAK256 0x4D 0xEF ISZERO 0x4F MSTORE SWAP3 0xDA SLOAD CREATE2 PUSH14 0xD908917B894FC7E10230088BA89E PUSH22 0x1EDC03AC9E840064736F6C6343000807003300000000 "},"methodIdentifiers":{"challenge(uint256,uint16[4],int16[2],uint64,uint64)":"0a6b25f2","escrowFee()":"6a5b428b","escrowIdCounter()":"34d844d8","getAllEscrowData(uint256)":"d25dd975","getEscrow(uint256)":"7d19e596","governanceAddress()":"795053d3","pay((address,address,address,address,uint16,uint32,uint32,uint256),address,uint16)":"6a94e8fe","refund(uint256)":"278ecde1","release(uint256)":"37bdc99b","sendEscrowShare(address,uint256,address)":"8ede1f05","setClaimed(uint256)":"e7aa0bd7","settle(uint256,uint16[4],int16[2])":"64166e63","splitCalculation(uint16[5])":"d02f411e","unicrowArbitrator()":"49c4920f","unicrowClaim()":"e9db7d79","unicrowDispute()":"7f5d4285","updateEscrowFee(uint16)":"8b0473b4","updateGovernance(address)":"b2561263"}}}}}