{"contracts/UnicrowDispute.sol":{"UnicrowDispute":{"abi":[{"inputs":[{"internalType":"address","name":"unicrow_","type":"address"},{"internalType":"address","name":"unicrowClaim_","type":"address"},{"internalType":"address","name":"unicrowArbitrator_","type":"address"}],"stateMutability":"nonpayable","type":"constructor"},{"anonymous":false,"inputs":[{"indexed":true,"internalType":"uint256","name":"escrowId","type":"uint256"},{"components":[{"internalType":"address","name":"buyer","type":"address"},{"internalType":"address","name":"seller","type":"address"},{"internalType":"uint64","name":"challengePeriodStart","type":"uint64"},{"internalType":"uint64","name":"challengePeriodEnd","type":"uint64"},{"internalType":"uint64","name":"challengeExtension","type":"uint64"},{"internalType":"address","name":"marketplace","type":"address"},{"internalType":"uint256","name":"marketplaceFee","type":"uint256"},{"internalType":"address","name":"currency","type":"address"},{"internalType":"uint16","name":"claimed","type":"uint16"},{"internalType":"int16[2]","name":"consensus","type":"int16[2]"},{"internalType":"uint16[4]","name":"split","type":"uint16[4]"},{"internalType":"uint256","name":"amount","type":"uint256"}],"indexed":false,"internalType":"struct Escrow","name":"escrow","type":"tuple"},{"indexed":false,"internalType":"uint16[2]","name":"latestSettlementOffer","type":"uint16[2]"},{"indexed":false,"internalType":"uint256","name":"blockTime","type":"uint256"},{"indexed":false,"internalType":"uint256[5]","name":"amounts","type":"uint256[5]"}],"name":"ApproveOffer","type":"event"},{"anonymous":false,"inputs":[{"indexed":true,"internalType":"uint256","name":"escrowId","type":"uint256"},{"indexed":false,"internalType":"uint256","name":"blockTime","type":"uint256"},{"components":[{"internalType":"address","name":"buyer","type":"address"},{"internalType":"address","name":"seller","type":"address"},{"internalType":"uint64","name":"challengePeriodStart","type":"uint64"},{"internalType":"uint64","name":"challengePeriodEnd","type":"uint64"},{"internalType":"uint64","name":"challengeExtension","type":"uint64"},{"internalType":"address","name":"marketplace","type":"address"},{"internalType":"uint256","name":"marketplaceFee","type":"uint256"},{"internalType":"address","name":"currency","type":"address"},{"internalType":"uint16","name":"claimed","type":"uint16"},{"internalType":"int16[2]","name":"consensus","type":"int16[2]"},{"internalType":"uint16[4]","name":"split","type":"uint16[4]"},{"internalType":"uint256","name":"amount","type":"uint256"}],"indexed":false,"internalType":"struct Escrow","name":"escrow","type":"tuple"}],"name":"Challenge","type":"event"},{"anonymous":false,"inputs":[{"indexed":true,"internalType":"uint256","name":"escrowId","type":"uint256"},{"indexed":false,"internalType":"uint256","name":"blockTime","type":"uint256"},{"indexed":false,"internalType":"uint16[2]","name":"latestSettlementOffer","type":"uint16[2]"},{"indexed":false,"internalType":"address","name":"latestSettlementOfferBy","type":"address"}],"name":"SettlementOffer","type":"event"},{"inputs":[{"internalType":"uint256","name":"escrowId","type":"uint256"},{"internalType":"uint16[2]","name":"validation","type":"uint16[2]"}],"name":"approveSettlement","outputs":[],"stateMutability":"nonpayable","type":"function"},{"inputs":[{"internalType":"uint256","name":"escrowId","type":"uint256"}],"name":"challenge","outputs":[],"stateMutability":"nonpayable","type":"function"},{"inputs":[{"internalType":"uint256","name":"escrowId","type":"uint256"}],"name":"getSettlementDetails","outputs":[{"components":[{"internalType":"address","name":"latestSettlementOfferBy","type":"address"},{"internalType":"uint16[2]","name":"latestSettlementOffer","type":"uint16[2]"}],"internalType":"struct Settlement","name":"","type":"tuple"}],"stateMutability":"view","type":"function"},{"inputs":[{"internalType":"uint256","name":"","type":"uint256"},{"internalType":"uint256","name":"","type":"uint256"}],"name":"latestSettlementOffer","outputs":[{"internalType":"uint16","name":"","type":"uint16"}],"stateMutability":"view","type":"function"},{"inputs":[{"internalType":"uint256","name":"","type":"uint256"}],"name":"latestSettlementOfferBy","outputs":[{"internalType":"address","name":"","type":"address"}],"stateMutability":"view","type":"function"},{"inputs":[{"internalType":"uint256","name":"escrowId","type":"uint256"},{"internalType":"uint16[2]","name":"newSplit","type":"uint16[2]"}],"name":"offerSettlement","outputs":[],"stateMutability":"nonpayable","type":"function"},{"inputs":[],"name":"unicrow","outputs":[{"internalType":"contract Unicrow","name":"","type":"address"}],"stateMutability":"view","type":"function"},{"inputs":[],"name":"unicrowArbitrator","outputs":[{"internalType":"contract IUnicrowArbitrator","name":"","type":"address"}],"stateMutability":"view","type":"function"},{"inputs":[],"name":"unicrowClaim","outputs":[{"internalType":"contract IUnicrowClaim","name":"","type":"address"}],"stateMutability":"view","type":"function"}],"evm":{"bytecode":{"linkReferences":{},"object":"60e06040523480156200001157600080fd5b5060405162002f4138038062002f41833981810160405281019062000037919062000104565b60016000819055508273ffffffffffffffffffffffffffffffffffffffff1660808173ffffffffffffffffffffffffffffffffffffffff1660601b815250508173ffffffffffffffffffffffffffffffffffffffff1660a08173ffffffffffffffffffffffffffffffffffffffff1660601b815250508073ffffffffffffffffffffffffffffffffffffffff1660c08173ffffffffffffffffffffffffffffffffffffffff1660601b81525050505050620001b3565b600081519050620000fe8162000199565b92915050565b60008060006060848603121562000120576200011f62000194565b5b60006200013086828701620000ed565b93505060206200014386828701620000ed565b92505060406200015686828701620000ed565b9150509250925092565b60006200016d8262000174565b9050919050565b600073ffffffffffffffffffffffffffffffffffffffff82169050919050565b600080fd5b620001a48162000160565b8114620001b057600080fd5b50565b60805160601c60a05160601c60c05160601c612d2b62000216600039600061021501526000818161087f01526115550152600081816102390152818161029e015281816107e9015281816109cf0152818161108101526112030152612d2b6000f3fe608060405234801561001057600080fd5b50600436106100935760003560e01c80639f8621b8116100665780639f8621b814610134578063ab82d9a014610150578063c57086451461016c578063e9db7d7914610188578063fe5e2969146101a657610093565b8063325369f61461009857806349c4920f146100c85780636e4e2934146100e65780637e684d0514610104575b600080fd5b6100b260048036038101906100ad9190611c25565b6101d6565b6040516100bf91906124f7565b60405180910390f35b6100d0610213565b6040516100dd91906122e2565b60405180910390f35b6100ee610237565b6040516100fb9190612318565b60405180910390f35b61011e60048036038101906101199190611bb8565b61025b565b60405161012b91906122c7565b60405180910390f35b61014e60048036038101906101499190611be5565b61028e565b005b61016a60048036038101906101659190611bb8565b610971565b005b61018660048036038101906101819190611be5565b6111a5565b005b610190611553565b60405161019d91906122fd565b60405180910390f35b6101c060048036038101906101bb9190611bb8565b611577565b6040516101cd91906124dc565b60405180910390f35b600260205281600052604060002081600281106101f257600080fd5b60109182820401919006600202915091509054906101000a900461ffff1681565b7f000000000000000000000000000000000000000000000000000000000000000081565b7f000000000000000000000000000000000000000000000000000000000000000081565b60016020528060005260406000206000915054906101000a900473ffffffffffffffffffffffffffffffffffffffff1681565b6000610298611660565b905060007f000000000000000000000000000000000000000000000000000000000000000073ffffffffffffffffffffffffffffffffffffffff16637d19e596856040518263ffffffff1660e01b81526004016102f59190612512565b6102006040518083038186803b15801561030e57600080fd5b505afa158015610322573d6000803e3d6000fd5b505050506040513d601f19601f820116820180604052508101906103469190611b5d565b9050806000015173ffffffffffffffffffffffffffffffffffffffff168273ffffffffffffffffffffffffffffffffffffffff1614806103b55750806020015173ffffffffffffffffffffffffffffffffffffffff168273ffffffffffffffffffffffffffffffffffffffff16145b6103f4576040517f08c379a00000000000000000000000000000000000000000000000000000000081526004016103eb90612373565b60405180910390fd5b600073ffffffffffffffffffffffffffffffffffffffff166001600086815260200190815260200160002060009054906101000a900473ffffffffffffffffffffffffffffffffffffffff1673ffffffffffffffffffffffffffffffffffffffff161415610497576040517f08c379a000000000000000000000000000000000000000000000000000000000815260040161048e906123f3565b60405180910390fd5b6001600085815260200190815260200160002060009054906101000a900473ffffffffffffffffffffffffffffffffffffffff1673ffffffffffffffffffffffffffffffffffffffff168273ffffffffffffffffffffffffffffffffffffffff161415610539576040517f08c379a0000000000000000000000000000000000000000000000000000000008152600401610530906123b3565b60405180910390fd5b6000600260008681526020019081526020016000206002806020026040519081016040528092919082600280156105ad576020028201916000905b82829054906101000a900461ffff1661ffff16815260200190600201906020826001010492830192600103820291508084116105745790505b5050505050905080600060ff16600281106105cb576105ca612a3c565b5b602002015161ffff1684600060ff16600281106105eb576105ea612a3c565b5b6020020160208101906105fe9190611b8b565b61ffff1614801561065a575080600160ff166002811061062157610620612a3c565b5b602002015161ffff1684600160ff166002811061064157610640612a3c565b5b6020020160208101906106549190611b8b565b61ffff16145b610699576040517f08c379a000000000000000000000000000000000000000000000000000000000815260040161069090612413565b60405180910390fd5b6000826101400151905081600060ff16600281106106ba576106b9612a3c565b5b602002015181600060ff16600481106106d6576106d5612a3c565b5b602002019061ffff16908161ffff168152505081600160ff1660028110610700576106ff612a3c565b5b602002015181600160ff166004811061071c5761071b612a3c565b5b602002019061ffff16908161ffff1681525050600161075a846101200151600060ff16600281106107505761074f612a3c565b5b6020020151611668565b61076491906127d0565b836101200151600060ff16600281106107805761077f612a3c565b5b602002019060010b908160010b815250506107ba836101200151600160ff16600281106107b0576107af612a3c565b5b6020020151611668565b836101200151600160ff16600281106107d6576107d5612a3c565b5b602002019060010b908160010b815250507f000000000000000000000000000000000000000000000000000000000000000073ffffffffffffffffffffffffffffffffffffffff166364166e6387838661012001516040518463ffffffff1660e01b815260040161084993929190612564565b600060405180830381600087803b15801561086357600080fd5b505af1158015610877573d6000803e3d6000fd5b5050505060007f000000000000000000000000000000000000000000000000000000000000000073ffffffffffffffffffffffffffffffffffffffff1663b34291a6886040518263ffffffff1660e01b81526004016108d69190612512565b60a060405180830381600087803b1580156108f057600080fd5b505af1158015610904573d6000803e3d6000fd5b505050506040513d601f19601f820116820180604052508101906109289190611b30565b9050867f4ddd0d366374522f804ecaa3ad96835645d0b72cff36124aef9df54c9cb3baa0858542856040516109609493929190612493565b60405180910390a250505050505050565b600260005414156109b7576040517f08c379a00000000000000000000000000000000000000000000000000000000081526004016109ae90612433565b60405180910390fd5b600260008190555060006109c9611660565b905060007f000000000000000000000000000000000000000000000000000000000000000073ffffffffffffffffffffffffffffffffffffffff16637d19e596846040518263ffffffff1660e01b8152600401610a269190612512565b6102006040518083038186803b158015610a3f57600080fd5b505afa158015610a53573d6000803e3d6000fd5b505050506040513d601f19601f82011682018060405250810190610a779190611b5d565b9050806020015173ffffffffffffffffffffffffffffffffffffffff168273ffffffffffffffffffffffffffffffffffffffff161480610ae65750806000015173ffffffffffffffffffffffffffffffffffffffff168273ffffffffffffffffffffffffffffffffffffffff16145b610b25576040517f08c379a0000000000000000000000000000000000000000000000000000000008152600401610b1c90612373565b60405180910390fd5b6000816101200151600160ff1660028110610b4357610b42612a3c565b5b602002015160010b131580610b7c57506000816101200151600060ff1660028110610b7157610b70612a3c565b5b602002015160010b13155b610bbb576040517f08c379a0000000000000000000000000000000000000000000000000000000008152600401610bb290612393565b60405180910390fd5b806060015167ffffffffffffffff164210610c0b576040517f08c379a0000000000000000000000000000000000000000000000000000000008152600401610c02906123d3565b60405180910390fd5b806040015167ffffffffffffffff164211610c5b576040517f08c379a0000000000000000000000000000000000000000000000000000000008152600401610c5290612353565b60405180910390fd5b806000015173ffffffffffffffffffffffffffffffffffffffff168273ffffffffffffffffffffffffffffffffffffffff16141580610cbe57506000816101200151600060ff1660028110610cb357610cb2612a3c565b5b602002015160010b13155b610cfd576040517f08c379a0000000000000000000000000000000000000000000000000000000008152600401610cf490612453565b60405180910390fd5b806020015173ffffffffffffffffffffffffffffffffffffffff168273ffffffffffffffffffffffffffffffffffffffff16141580610d6057506000816101200151600160ff1660028110610d5557610d54612a3c565b5b602002015160010b13155b610d9f576040517f08c379a0000000000000000000000000000000000000000000000000000000008152600401610d9690612473565b60405180910390fd5b806000015173ffffffffffffffffffffffffffffffffffffffff168273ffffffffffffffffffffffffffffffffffffffff161415610f0057612710816101400151600060ff1660048110610df657610df5612a3c565b5b602002019061ffff16908161ffff16815250506000816101400151600160ff1660048110610e2757610e26612a3c565b5b602002019061ffff16908161ffff16815250506001610e65826101200151600060ff1660028110610e5b57610e5a612a3c565b5b6020020151611668565b610e6f91906127d0565b816101200151600060ff1660028110610e8b57610e8a612a3c565b5b602002019060010b908160010b81525050610ec5816101200151600160ff1660028110610ebb57610eba612a3c565b5b6020020151611668565b610ece906129c4565b816101200151600160ff1660028110610eea57610ee9612a3c565b5b602002019060010b908160010b8152505061105e565b806020015173ffffffffffffffffffffffffffffffffffffffff168273ffffffffffffffffffffffffffffffffffffffff16141561105d57612710816101400151600160ff1660048110610f5757610f56612a3c565b5b602002019061ffff16908161ffff16815250506000816101400151600060ff1660048110610f8857610f87612a3c565b5b602002019061ffff16908161ffff1681525050610fc4816101200151600060ff1660028110610fba57610fb9612a3c565b5b6020020151611668565b610fcd906129c4565b816101200151600060ff1660028110610fe957610fe8612a3c565b5b602002019060010b908160010b815250506001611025826101200151600160ff166002811061101b5761101a612a3c565b5b6020020151611668565b61102f91906127d0565b816101200151600160ff166002811061104b5761104a612a3c565b5b602002019060010b908160010b815250505b5b60008160600151905060008260800151836060015161107d919061287e565b90507f000000000000000000000000000000000000000000000000000000000000000073ffffffffffffffffffffffffffffffffffffffff16630a6b25f28685610140015186610120015186866040518663ffffffff1660e01b81526004016110ea95949392919061259b565b600060405180830381600087803b15801561110457600080fd5b505af1158015611118573d6000803e3d6000fd5b5050505081836040019067ffffffffffffffff16908167ffffffffffffffff168152505080836060019067ffffffffffffffff16908167ffffffffffffffff1681525050847f77b7286d957f26f537d326e5e4827ce9e7301d2c888d53fc985a93da2f0a1950428560405161118e9291906125f0565b60405180910390a250505050600160008190555050565b600260005414156111eb576040517f08c379a00000000000000000000000000000000000000000000000000000000081526004016111e290612433565b60405180910390fd5b600260008190555060006111fd611660565b905060007f000000000000000000000000000000000000000000000000000000000000000073ffffffffffffffffffffffffffffffffffffffff16637d19e596856040518263ffffffff1660e01b815260040161125a9190612512565b6102006040518083038186803b15801561127357600080fd5b505afa158015611287573d6000803e3d6000fd5b505050506040513d601f19601f820116820180604052508101906112ab9190611b5d565b9050806000015173ffffffffffffffffffffffffffffffffffffffff168273ffffffffffffffffffffffffffffffffffffffff16148061131a5750806020015173ffffffffffffffffffffffffffffffffffffffff168273ffffffffffffffffffffffffffffffffffffffff16145b611359576040517f08c379a000000000000000000000000000000000000000000000000000000000815260040161135090612373565b60405180910390fd5b6000816101200151600160ff166002811061137757611376612a3c565b5b602002015160010b1315806113b057506000816101200151600060ff16600281106113a5576113a4612a3c565b5b602002015160010b13155b6113ef576040517f08c379a00000000000000000000000000000000000000000000000000000000081526004016113e690612393565b60405180910390fd5b61271083600160ff166002811061140957611408612a3c565b5b60200201602081019061141c9190611b8b565b84600060ff166002811061143357611432612a3c565b5b6020020160208101906114469190611b8b565b6114509190612846565b61ffff1614611494576040517f08c379a000000000000000000000000000000000000000000000000000000000815260040161148b90612333565b60405180910390fd5b816001600086815260200190815260200160002060006101000a81548173ffffffffffffffffffffffffffffffffffffffff021916908373ffffffffffffffffffffffffffffffffffffffff160217905550826002600086815260200190815260200160002090600261150892919061168d565b50837fad77a7f72aee179b5a343e49e8b5cdf52d31d42bb43df14f33d26ccb08d0a66e42853360405161153d9392919061252d565b60405180910390a2505060016000819055505050565b7f000000000000000000000000000000000000000000000000000000000000000081565b61157f61172e565b600060405180604001604052806001600086815260200190815260200160002060009054906101000a900473ffffffffffffffffffffffffffffffffffffffff1673ffffffffffffffffffffffffffffffffffffffff1681526020016002600086815260200190815260200160002060028060200260405190810160405280929190826002801561164d576020028201916000905b82829054906101000a900461ffff1661ffff16815260200190600201906020826001010492830192600103820291508084116116145790505b5050505050815250905080915050919050565b600033905090565b6000808260010b1215611684578161167f906129c4565b611686565b815b9050919050565b826002600f0160109004810192821561171d5791602002820160005b838211156116ed57833561ffff1683826101000a81548161ffff021916908361ffff16021790555092602001926002016020816001010492830192600103026116a9565b801561171b5782816101000a81549061ffff02191690556002016020816001010492830192600103026116ed565b505b50905061172a9190611764565b5090565b6040518060400160405280600073ffffffffffffffffffffffffffffffffffffffff16815260200161175e611781565b81525090565b5b8082111561177d576000816000905550600101611765565b5090565b6040518060400160405280600290602082028036833780820191505090505090565b60006117b66117b18461263f565b61261a565b905080828560208602820111156117d0576117cf612aa4565b5b60005b8581101561180057816117e68882611990565b8452602084019350602083019250506001810190506117d3565b5050509392505050565b600061181d61181884612665565b61261a565b9050808285602086028201111561183757611836612aa4565b5b60005b85811015611867578161184d8882611adc565b84526020840193506020830192505060018101905061183a565b5050509392505050565b600061188461187f8461268b565b61261a565b9050808285602086028201111561189e5761189d612aa4565b5b60005b858110156118ce57816118b48882611b06565b8452602084019350602083019250506001810190506118a1565b5050509392505050565b6000815190506118e781612c82565b92915050565b600082601f83011261190257611901612a9a565b5b600261190f8482856117a3565b91505092915050565b60008190508260206002028201111561193457611933612aa4565b5b92915050565b600082601f83011261194f5761194e612a9a565b5b600461195c84828561180a565b91505092915050565b600082601f83011261197a57611979612a9a565b5b6005611987848285611871565b91505092915050565b60008151905061199f81612c99565b92915050565b600061020082840312156119bc576119bb612a9f565b5b6119c761018061261a565b905060006119d7848285016118d8565b60008301525060206119eb848285016118d8565b60208301525060406119ff84828501611b1b565b6040830152506060611a1384828501611b1b565b6060830152506080611a2784828501611b1b565b60808301525060a0611a3b848285016118d8565b60a08301525060c0611a4f84828501611b06565b60c08301525060e0611a63848285016118d8565b60e083015250610100611a7884828501611adc565b61010083015250610120611a8e848285016118ed565b61012083015250610160611aa48482850161193a565b610140830152506101e0611aba84828501611b06565b6101608301525092915050565b600081359050611ad681612cb0565b92915050565b600081519050611aeb81612cb0565b92915050565b600081359050611b0081612cc7565b92915050565b600081519050611b1581612cc7565b92915050565b600081519050611b2a81612cde565b92915050565b600060a08284031215611b4657611b45612aa9565b5b6000611b5484828501611965565b91505092915050565b60006102008284031215611b7457611b73612aa9565b5b6000611b82848285016119a5565b91505092915050565b600060208284031215611ba157611ba0612aa9565b5b6000611baf84828501611ac7565b91505092915050565b600060208284031215611bce57611bcd612aa9565b5b6000611bdc84828501611af1565b91505092915050565b60008060608385031215611bfc57611bfb612aa9565b5b6000611c0a85828601611af1565b9250506020611c1b85828601611918565b9150509250929050565b60008060408385031215611c3c57611c3b612aa9565b5b6000611c4a85828601611af1565b9250506020611c5b85828601611af1565b9150509250929050565b6000611c718383611fb8565b60208301905092915050565b6000611c89838361226d565b60208301905092915050565b6000611ca1838361228b565b60208301905092915050565b611cb6816128bc565b82525050565b611cc5816128bc565b82525050565b611cd4816126e3565b611cde818461275b565b9250611ce9826126b1565b8060005b83811015611d1a578151611d018782611c65565b9650611d0c8361271a565b925050600181019050611ced565b505050505050565b611d2b816126e3565b611d358184612766565b9250611d40826126b1565b8060005b83811015611d71578151611d588782611c65565b9650611d638361271a565b925050600181019050611d44565b505050505050565b611d82816126ee565b611d8c818461277c565b9250611d97826126bb565b8060005b83811015611dd057611dad82846127b9565b611db78782611c7d565b9650611dc283612727565b925050600181019050611d9b565b505050505050565b611de1816126f9565b611deb8184612771565b9250611df6826126c5565b8060005b83811015611e27578151611e0e8782611c7d565b9650611e1983612734565b925050600181019050611dfa565b505050505050565b611e38816126f9565b611e42818461277c565b9250611e4d826126c5565b8060005b83811015611e7e578151611e658782611c7d565b9650611e7083612734565b925050600181019050611e51565b505050505050565b611e8f81612704565b611e998184612787565b9250611ea4826126cf565b8060005b83811015611ed5578151611ebc8782611c7d565b9650611ec783612741565b925050600181019050611ea8565b505050505050565b611ee681612704565b611ef08184612792565b9250611efb826126cf565b8060005b83811015611f2c578151611f138782611c7d565b9650611f1e83612741565b925050600181019050611eff565b505050505050565b611f3d8161270f565b611f47818461279d565b9250611f52826126d9565b8060005b83811015611f83578151611f6a8782611c95565b9650611f758361274e565b925050600181019050611f56565b505050505050565b611f9481612927565b82525050565b611fa381612939565b82525050565b611fb28161294b565b82525050565b611fc1816128ce565b82525050565b6000611fd46005836127a8565b9150611fdf82612abf565b602082019050919050565b6000611ff76005836127a8565b915061200282612ae8565b602082019050919050565b600061201a6005836127a8565b915061202582612b11565b602082019050919050565b600061203d6005836127a8565b915061204882612b3a565b602082019050919050565b60006120606005836127a8565b915061206b82612b63565b602082019050919050565b60006120836005836127a8565b915061208e82612b8c565b602082019050919050565b60006120a66005836127a8565b91506120b182612bb5565b602082019050919050565b60006120c96005836127a8565b91506120d482612bde565b602082019050919050565b60006120ec601f836127a8565b91506120f782612c07565b602082019050919050565b600061210f6005836127a8565b915061211a82612c30565b602082019050919050565b60006121326005836127a8565b915061213d82612c59565b602082019050919050565b6102008201600082015161215f6000850182611cad565b5060208201516121726020850182611cad565b50604082015161218560408501826122a9565b50606082015161219860608501826122a9565b5060808201516121ab60808501826122a9565b5060a08201516121be60a0850182611cad565b5060c08201516121d160c085018261228b565b5060e08201516121e460e0850182611cad565b506101008201516121f961010085018261226d565b5061012082015161220e610120850182611ccb565b50610140820151612223610160850182611e86565b506101608201516122386101e085018261228b565b50505050565b6060820160008201516122546000850182611cad565b5060208201516122676020850182611dd8565b50505050565b612276816128db565b82525050565b612285816128db565b82525050565b61229481612909565b82525050565b6122a381612909565b82525050565b6122b281612913565b82525050565b6122c181612913565b82525050565b60006020820190506122dc6000830184611cbc565b92915050565b60006020820190506122f76000830184611f8b565b92915050565b60006020820190506123126000830184611f9a565b92915050565b600060208201905061232d6000830184611fa9565b92915050565b6000602082019050818103600083015261234c81611fc7565b9050919050565b6000602082019050818103600083015261236c81611fea565b9050919050565b6000602082019050818103600083015261238c8161200d565b9050919050565b600060208201905081810360008301526123ac81612030565b9050919050565b600060208201905081810360008301526123cc81612053565b9050919050565b600060208201905081810360008301526123ec81612076565b9050919050565b6000602082019050818103600083015261240c81612099565b9050919050565b6000602082019050818103600083015261242c816120bc565b9050919050565b6000602082019050818103600083015261244c816120df565b9050919050565b6000602082019050818103600083015261246c81612102565b9050919050565b6000602082019050818103600083015261248c81612125565b9050919050565b6000610300820190506124a96000830187612148565b6124b7610200830186611e2f565b6124c561024083018561229a565b6124d3610260830184611f34565b95945050505050565b60006060820190506124f1600083018461223e565b92915050565b600060208201905061250c600083018461227c565b92915050565b6000602082019050612527600083018461229a565b92915050565b6000608082019050612542600083018661229a565b61254f6020830185611d79565b61255c6060830184611cbc565b949350505050565b600060e082019050612579600083018661229a565b6125866020830185611edd565b61259360a0830184611d22565b949350505050565b6000610120820190506125b1600083018861229a565b6125be6020830187611edd565b6125cb60a0830186611d22565b6125d860e08301856122b8565b6125e66101008301846122b8565b9695505050505050565b600061022082019050612606600083018561229a565b6126136020830184612148565b9392505050565b6000612624612635565b90506126308282612993565b919050565b6000604051905090565b600067ffffffffffffffff82111561265a57612659612a6b565b5b602082029050919050565b600067ffffffffffffffff8211156126805761267f612a6b565b5b602082029050919050565b600067ffffffffffffffff8211156126a6576126a5612a6b565b5b602082029050919050565b6000819050919050565b6000819050919050565b6000819050919050565b6000819050919050565b6000819050919050565b600060029050919050565b600060029050919050565b600060029050919050565b600060049050919050565b600060059050919050565b6000602082019050919050565b6000602082019050919050565b6000602082019050919050565b6000602082019050919050565b6000602082019050919050565b600081905092915050565b600081905092915050565b600081905092915050565b600081905092915050565b600081905092915050565b600081905092915050565b600081905092915050565b600082825260208201905092915050565b60006127c86020840184611ac7565b905092915050565b60006127db826128ce565b91506127e6836128ce565b925081617fff0383136000831215161561280357612802612a0d565b5b817fffffffffffffffffffffffffffffffffffffffffffffffffffffffffffff800003831260008312161561283b5761283a612a0d565b5b828201905092915050565b6000612851826128db565b915061285c836128db565b92508261ffff0382111561287357612872612a0d565b5b828201905092915050565b600061288982612913565b915061289483612913565b92508267ffffffffffffffff038211156128b1576128b0612a0d565b5b828201905092915050565b60006128c7826128e9565b9050919050565b60008160010b9050919050565b600061ffff82169050919050565b600073ffffffffffffffffffffffffffffffffffffffff82169050919050565b6000819050919050565b600067ffffffffffffffff82169050919050565b60006129328261295d565b9050919050565b60006129448261295d565b9050919050565b60006129568261296f565b9050919050565b600061296882612981565b9050919050565b600061297a82612981565b9050919050565b600061298c826128e9565b9050919050565b61299c82612aae565b810181811067ffffffffffffffff821117156129bb576129ba612a6b565b5b80604052505050565b60006129cf826128ce565b91507fffffffffffffffffffffffffffffffffffffffffffffffffffffffffffff8000821415612a0257612a01612a0d565b5b816000039050919050565b7f4e487b7100000000000000000000000000000000000000000000000000000000600052601160045260246000fd5b7f4e487b7100000000000000000000000000000000000000000000000000000000600052603260045260246000fd5b7f4e487b7100000000000000000000000000000000000000000000000000000000600052604160045260246000fd5b600080fd5b600080fd5b600080fd5b600080fd5b6000601f19601f8301169050919050565b7f312d303037000000000000000000000000000000000000000000000000000000600082015250565b7f312d303139000000000000000000000000000000000000000000000000000000600082015250565b7f312d303039000000000000000000000000000000000000000000000000000000600082015250565b7f312d303035000000000000000000000000000000000000000000000000000000600082015250565b7f312d303230000000000000000000000000000000000000000000000000000000600082015250565b7f312d303136000000000000000000000000000000000000000000000000000000600082015250565b7f312d303137000000000000000000000000000000000000000000000000000000600082015250565b7f312d303138000000000000000000000000000000000000000000000000000000600082015250565b7f5265656e7472616e637947756172643a207265656e7472616e742063616c6c00600082015250565b7f312d303134000000000000000000000000000000000000000000000000000000600082015250565b7f312d303135000000000000000000000000000000000000000000000000000000600082015250565b612c8b816128bc565b8114612c9657600080fd5b50565b612ca2816128ce565b8114612cad57600080fd5b50565b612cb9816128db565b8114612cc457600080fd5b50565b612cd081612909565b8114612cdb57600080fd5b50565b612ce781612913565b8114612cf257600080fd5b5056fea26469706673582212203153f30b89a95193785d8c34751ef03f9346fa8bc397b9a0d460eeed20312d2064736f6c63430008070033","opcodes":"PUSH1 0xE0 PUSH1 0x40 MSTORE CALLVALUE DUP1 ISZERO PUSH3 0x11 JUMPI PUSH1 0x0 DUP1 REVERT JUMPDEST POP PUSH1 0x40 MLOAD PUSH3 0x2F41 CODESIZE SUB DUP1 PUSH3 0x2F41 DUP4 CODECOPY DUP2 DUP2 ADD PUSH1 0x40 MSTORE DUP2 ADD SWAP1 PUSH3 0x37 SWAP2 SWAP1 PUSH3 0x104 JUMP JUMPDEST PUSH1 0x1 PUSH1 0x0 DUP2 SWAP1 SSTORE POP DUP3 PUSH20 0xFFFFFFFFFFFFFFFFFFFFFFFFFFFFFFFFFFFFFFFF AND PUSH1 0x80 DUP2 PUSH20 0xFFFFFFFFFFFFFFFFFFFFFFFFFFFFFFFFFFFFFFFF AND PUSH1 0x60 SHL DUP2 MSTORE POP POP DUP2 PUSH20 0xFFFFFFFFFFFFFFFFFFFFFFFFFFFFFFFFFFFFFFFF AND PUSH1 0xA0 DUP2 PUSH20 0xFFFFFFFFFFFFFFFFFFFFFFFFFFFFFFFFFFFFFFFF AND PUSH1 0x60 SHL DUP2 MSTORE POP POP DUP1 PUSH20 0xFFFFFFFFFFFFFFFFFFFFFFFFFFFFFFFFFFFFFFFF AND PUSH1 0xC0 DUP2 PUSH20 0xFFFFFFFFFFFFFFFFFFFFFFFFFFFFFFFFFFFFFFFF AND PUSH1 0x60 SHL DUP2 MSTORE POP POP POP POP POP PUSH3 0x1B3 JUMP JUMPDEST PUSH1 0x0 DUP2 MLOAD SWAP1 POP PUSH3 0xFE DUP2 PUSH3 0x199 JUMP JUMPDEST SWAP3 SWAP2 POP POP JUMP JUMPDEST PUSH1 0x0 DUP1 PUSH1 0x0 PUSH1 0x60 DUP5 DUP7 SUB SLT ISZERO PUSH3 0x120 JUMPI PUSH3 0x11F PUSH3 0x194 JUMP JUMPDEST JUMPDEST PUSH1 0x0 PUSH3 0x130 DUP7 DUP3 DUP8 ADD PUSH3 0xED JUMP JUMPDEST SWAP4 POP POP PUSH1 0x20 PUSH3 0x143 DUP7 DUP3 DUP8 ADD PUSH3 0xED JUMP JUMPDEST SWAP3 POP POP PUSH1 0x40 PUSH3 0x156 DUP7 DUP3 DUP8 ADD PUSH3 0xED JUMP JUMPDEST SWAP2 POP POP SWAP3 POP SWAP3 POP SWAP3 JUMP JUMPDEST PUSH1 0x0 PUSH3 0x16D DUP3 PUSH3 0x174 JUMP JUMPDEST SWAP1 POP SWAP2 SWAP1 POP JUMP JUMPDEST PUSH1 0x0 PUSH20 0xFFFFFFFFFFFFFFFFFFFFFFFFFFFFFFFFFFFFFFFF DUP3 AND SWAP1 POP SWAP2 SWAP1 POP JUMP JUMPDEST PUSH1 0x0 DUP1 REVERT JUMPDEST PUSH3 0x1A4 DUP2 PUSH3 0x160 JUMP JUMPDEST DUP2 EQ PUSH3 0x1B0 JUMPI PUSH1 0x0 DUP1 REVERT JUMPDEST POP JUMP JUMPDEST PUSH1 0x80 MLOAD PUSH1 0x60 SHR PUSH1 0xA0 MLOAD PUSH1 0x60 SHR PUSH1 0xC0 MLOAD PUSH1 0x60 SHR PUSH2 0x2D2B PUSH3 0x216 PUSH1 0x0 CODECOPY PUSH1 0x0 PUSH2 0x215 ADD MSTORE PUSH1 0x0 DUP2 DUP2 PUSH2 0x87F ADD MSTORE PUSH2 0x1555 ADD MSTORE PUSH1 0x0 DUP2 DUP2 PUSH2 0x239 ADD MSTORE DUP2 DUP2 PUSH2 0x29E ADD MSTORE DUP2 DUP2 PUSH2 0x7E9 ADD MSTORE DUP2 DUP2 PUSH2 0x9CF ADD MSTORE DUP2 DUP2 PUSH2 0x1081 ADD MSTORE PUSH2 0x1203 ADD MSTORE PUSH2 0x2D2B PUSH1 0x0 RETURN INVALID PUSH1 0x80 PUSH1 0x40 MSTORE CALLVALUE DUP1 ISZERO PUSH2 0x10 JUMPI PUSH1 0x0 DUP1 REVERT JUMPDEST POP PUSH1 0x4 CALLDATASIZE LT PUSH2 0x93 JUMPI PUSH1 0x0 CALLDATALOAD PUSH1 0xE0 SHR DUP1 PUSH4 0x9F8621B8 GT PUSH2 0x66 JUMPI DUP1 PUSH4 0x9F8621B8 EQ PUSH2 0x134 JUMPI DUP1 PUSH4 0xAB82D9A0 EQ PUSH2 0x150 JUMPI DUP1 PUSH4 0xC5708645 EQ PUSH2 0x16C JUMPI DUP1 PUSH4 0xE9DB7D79 EQ PUSH2 0x188 JUMPI DUP1 PUSH4 0xFE5E2969 EQ PUSH2 0x1A6 JUMPI PUSH2 0x93 JUMP JUMPDEST DUP1 PUSH4 0x325369F6 EQ PUSH2 0x98 JUMPI DUP1 PUSH4 0x49C4920F EQ PUSH2 0xC8 JUMPI DUP1 PUSH4 0x6E4E2934 EQ PUSH2 0xE6 JUMPI DUP1 PUSH4 0x7E684D05 EQ PUSH2 0x104 JUMPI JUMPDEST PUSH1 0x0 DUP1 REVERT JUMPDEST PUSH2 0xB2 PUSH1 0x4 DUP1 CALLDATASIZE SUB DUP2 ADD SWAP1 PUSH2 0xAD SWAP2 SWAP1 PUSH2 0x1C25 JUMP JUMPDEST PUSH2 0x1D6 JUMP JUMPDEST PUSH1 0x40 MLOAD PUSH2 0xBF SWAP2 SWAP1 PUSH2 0x24F7 JUMP JUMPDEST PUSH1 0x40 MLOAD DUP1 SWAP2 SUB SWAP1 RETURN JUMPDEST PUSH2 0xD0 PUSH2 0x213 JUMP JUMPDEST PUSH1 0x40 MLOAD PUSH2 0xDD SWAP2 SWAP1 PUSH2 0x22E2 JUMP JUMPDEST PUSH1 0x40 MLOAD DUP1 SWAP2 SUB SWAP1 RETURN JUMPDEST PUSH2 0xEE PUSH2 0x237 JUMP JUMPDEST PUSH1 0x40 MLOAD PUSH2 0xFB SWAP2 SWAP1 PUSH2 0x2318 JUMP JUMPDEST PUSH1 0x40 MLOAD DUP1 SWAP2 SUB SWAP1 RETURN JUMPDEST PUSH2 0x11E PUSH1 0x4 DUP1 CALLDATASIZE SUB DUP2 ADD SWAP1 PUSH2 0x119 SWAP2 SWAP1 PUSH2 0x1BB8 JUMP JUMPDEST PUSH2 0x25B JUMP JUMPDEST PUSH1 0x40 MLOAD PUSH2 0x12B SWAP2 SWAP1 PUSH2 0x22C7 JUMP JUMPDEST PUSH1 0x40 MLOAD DUP1 SWAP2 SUB SWAP1 RETURN JUMPDEST PUSH2 0x14E PUSH1 0x4 DUP1 CALLDATASIZE SUB DUP2 ADD SWAP1 PUSH2 0x149 SWAP2 SWAP1 PUSH2 0x1BE5 JUMP JUMPDEST PUSH2 0x28E JUMP JUMPDEST STOP JUMPDEST PUSH2 0x16A PUSH1 0x4 DUP1 CALLDATASIZE SUB DUP2 ADD SWAP1 PUSH2 0x165 SWAP2 SWAP1 PUSH2 0x1BB8 JUMP JUMPDEST PUSH2 0x971 JUMP JUMPDEST STOP JUMPDEST PUSH2 0x186 PUSH1 0x4 DUP1 CALLDATASIZE SUB DUP2 ADD SWAP1 PUSH2 0x181 SWAP2 SWAP1 PUSH2 0x1BE5 JUMP JUMPDEST PUSH2 0x11A5 JUMP JUMPDEST STOP JUMPDEST PUSH2 0x190 PUSH2 0x1553 JUMP JUMPDEST PUSH1 0x40 MLOAD PUSH2 0x19D SWAP2 SWAP1 PUSH2 0x22FD JUMP JUMPDEST PUSH1 0x40 MLOAD DUP1 SWAP2 SUB SWAP1 RETURN JUMPDEST PUSH2 0x1C0 PUSH1 0x4 DUP1 CALLDATASIZE SUB DUP2 ADD SWAP1 PUSH2 0x1BB SWAP2 SWAP1 PUSH2 0x1BB8 JUMP JUMPDEST PUSH2 0x1577 JUMP JUMPDEST PUSH1 0x40 MLOAD PUSH2 0x1CD SWAP2 SWAP1 PUSH2 0x24DC JUMP JUMPDEST PUSH1 0x40 MLOAD DUP1 SWAP2 SUB SWAP1 RETURN JUMPDEST PUSH1 0x2 PUSH1 0x20 MSTORE DUP2 PUSH1 0x0 MSTORE PUSH1 0x40 PUSH1 0x0 KECCAK256 DUP2 PUSH1 0x2 DUP2 LT PUSH2 0x1F2 JUMPI PUSH1 0x0 DUP1 REVERT JUMPDEST PUSH1 0x10 SWAP2 DUP3 DUP3 DIV ADD SWAP2 SWAP1 MOD PUSH1 0x2 MUL SWAP2 POP SWAP2 POP SWAP1 SLOAD SWAP1 PUSH2 0x100 EXP SWAP1 DIV PUSH2 0xFFFF AND DUP2 JUMP JUMPDEST PUSH32 0x0 DUP2 JUMP JUMPDEST PUSH32 0x0 DUP2 JUMP JUMPDEST PUSH1 0x1 PUSH1 0x20 MSTORE DUP1 PUSH1 0x0 MSTORE PUSH1 0x40 PUSH1 0x0 KECCAK256 PUSH1 0x0 SWAP2 POP SLOAD SWAP1 PUSH2 0x100 EXP SWAP1 DIV PUSH20 0xFFFFFFFFFFFFFFFFFFFFFFFFFFFFFFFFFFFFFFFF AND DUP2 JUMP JUMPDEST PUSH1 0x0 PUSH2 0x298 PUSH2 0x1660 JUMP JUMPDEST SWAP1 POP PUSH1 0x0 PUSH32 0x0 PUSH20 0xFFFFFFFFFFFFFFFFFFFFFFFFFFFFFFFFFFFFFFFF AND PUSH4 0x7D19E596 DUP6 PUSH1 0x40 MLOAD DUP3 PUSH4 0xFFFFFFFF AND PUSH1 0xE0 SHL DUP2 MSTORE PUSH1 0x4 ADD PUSH2 0x2F5 SWAP2 SWAP1 PUSH2 0x2512 JUMP JUMPDEST PUSH2 0x200 PUSH1 0x40 MLOAD DUP1 DUP4 SUB DUP2 DUP7 DUP1 EXTCODESIZE ISZERO DUP1 ISZERO PUSH2 0x30E JUMPI PUSH1 0x0 DUP1 REVERT JUMPDEST POP GAS STATICCALL ISZERO DUP1 ISZERO PUSH2 0x322 JUMPI RETURNDATASIZE PUSH1 0x0 DUP1 RETURNDATACOPY RETURNDATASIZE PUSH1 0x0 REVERT JUMPDEST POP POP POP POP PUSH1 0x40 MLOAD RETURNDATASIZE PUSH1 0x1F NOT PUSH1 0x1F DUP3 ADD AND DUP3 ADD DUP1 PUSH1 0x40 MSTORE POP DUP2 ADD SWAP1 PUSH2 0x346 SWAP2 SWAP1 PUSH2 0x1B5D JUMP JUMPDEST SWAP1 POP DUP1 PUSH1 0x0 ADD MLOAD PUSH20 0xFFFFFFFFFFFFFFFFFFFFFFFFFFFFFFFFFFFFFFFF AND DUP3 PUSH20 0xFFFFFFFFFFFFFFFFFFFFFFFFFFFFFFFFFFFFFFFF AND EQ DUP1 PUSH2 0x3B5 JUMPI POP DUP1 PUSH1 0x20 ADD MLOAD PUSH20 0xFFFFFFFFFFFFFFFFFFFFFFFFFFFFFFFFFFFFFFFF AND DUP3 PUSH20 0xFFFFFFFFFFFFFFFFFFFFFFFFFFFFFFFFFFFFFFFF AND EQ JUMPDEST PUSH2 0x3F4 JUMPI PUSH1 0x40 MLOAD PUSH32 0x8C379A000000000000000000000000000000000000000000000000000000000 DUP2 MSTORE PUSH1 0x4 ADD PUSH2 0x3EB SWAP1 PUSH2 0x2373 JUMP JUMPDEST PUSH1 0x40 MLOAD DUP1 SWAP2 SUB SWAP1 REVERT JUMPDEST PUSH1 0x0 PUSH20 0xFFFFFFFFFFFFFFFFFFFFFFFFFFFFFFFFFFFFFFFF AND PUSH1 0x1 PUSH1 0x0 DUP7 DUP2 MSTORE PUSH1 0x20 ADD SWAP1 DUP2 MSTORE PUSH1 0x20 ADD PUSH1 0x0 KECCAK256 PUSH1 0x0 SWAP1 SLOAD SWAP1 PUSH2 0x100 EXP SWAP1 DIV PUSH20 0xFFFFFFFFFFFFFFFFFFFFFFFFFFFFFFFFFFFFFFFF AND PUSH20 0xFFFFFFFFFFFFFFFFFFFFFFFFFFFFFFFFFFFFFFFF AND EQ ISZERO PUSH2 0x497 JUMPI PUSH1 0x40 MLOAD PUSH32 0x8C379A000000000000000000000000000000000000000000000000000000000 DUP2 MSTORE PUSH1 0x4 ADD PUSH2 0x48E SWAP1 PUSH2 0x23F3 JUMP JUMPDEST PUSH1 0x40 MLOAD DUP1 SWAP2 SUB SWAP1 REVERT JUMPDEST PUSH1 0x1 PUSH1 0x0 DUP6 DUP2 MSTORE PUSH1 0x20 ADD SWAP1 DUP2 MSTORE PUSH1 0x20 ADD PUSH1 0x0 KECCAK256 PUSH1 0x0 SWAP1 SLOAD SWAP1 PUSH2 0x100 EXP SWAP1 DIV PUSH20 0xFFFFFFFFFFFFFFFFFFFFFFFFFFFFFFFFFFFFFFFF AND PUSH20 0xFFFFFFFFFFFFFFFFFFFFFFFFFFFFFFFFFFFFFFFF AND DUP3 PUSH20 0xFFFFFFFFFFFFFFFFFFFFFFFFFFFFFFFFFFFFFFFF AND EQ ISZERO PUSH2 0x539 JUMPI PUSH1 0x40 MLOAD PUSH32 0x8C379A000000000000000000000000000000000000000000000000000000000 DUP2 MSTORE PUSH1 0x4 ADD PUSH2 0x530 SWAP1 PUSH2 0x23B3 JUMP JUMPDEST PUSH1 0x40 MLOAD DUP1 SWAP2 SUB SWAP1 REVERT JUMPDEST PUSH1 0x0 PUSH1 0x2 PUSH1 0x0 DUP7 DUP2 MSTORE PUSH1 0x20 ADD SWAP1 DUP2 MSTORE PUSH1 0x20 ADD PUSH1 0x0 KECCAK256 PUSH1 0x2 DUP1 PUSH1 0x20 MUL PUSH1 0x40 MLOAD SWAP1 DUP2 ADD PUSH1 0x40 MSTORE DUP1 SWAP3 SWAP2 SWAP1 DUP3 PUSH1 0x2 DUP1 ISZERO PUSH2 0x5AD JUMPI PUSH1 0x20 MUL DUP3 ADD SWAP2 PUSH1 0x0 SWAP1 JUMPDEST DUP3 DUP3 SWAP1 SLOAD SWAP1 PUSH2 0x100 EXP SWAP1 DIV PUSH2 0xFFFF AND PUSH2 0xFFFF AND DUP2 MSTORE PUSH1 0x20 ADD SWAP1 PUSH1 0x2 ADD SWAP1 PUSH1 0x20 DUP3 PUSH1 0x1 ADD DIV SWAP3 DUP4 ADD SWAP3 PUSH1 0x1 SUB DUP3 MUL SWAP2 POP DUP1 DUP5 GT PUSH2 0x574 JUMPI SWAP1 POP JUMPDEST POP POP POP POP POP SWAP1 POP DUP1 PUSH1 0x0 PUSH1 0xFF AND PUSH1 0x2 DUP2 LT PUSH2 0x5CB JUMPI PUSH2 0x5CA PUSH2 0x2A3C JUMP JUMPDEST JUMPDEST PUSH1 0x20 MUL ADD MLOAD PUSH2 0xFFFF AND DUP5 PUSH1 0x0 PUSH1 0xFF AND PUSH1 0x2 DUP2 LT PUSH2 0x5EB JUMPI PUSH2 0x5EA PUSH2 0x2A3C JUMP JUMPDEST JUMPDEST PUSH1 0x20 MUL ADD PUSH1 0x20 DUP2 ADD SWAP1 PUSH2 0x5FE SWAP2 SWAP1 PUSH2 0x1B8B JUMP JUMPDEST PUSH2 0xFFFF AND EQ DUP1 ISZERO PUSH2 0x65A JUMPI POP DUP1 PUSH1 0x1 PUSH1 0xFF AND PUSH1 0x2 DUP2 LT PUSH2 0x621 JUMPI PUSH2 0x620 PUSH2 0x2A3C JUMP JUMPDEST JUMPDEST PUSH1 0x20 MUL ADD MLOAD PUSH2 0xFFFF AND DUP5 PUSH1 0x1 PUSH1 0xFF AND PUSH1 0x2 DUP2 LT PUSH2 0x641 JUMPI PUSH2 0x640 PUSH2 0x2A3C JUMP JUMPDEST JUMPDEST PUSH1 0x20 MUL ADD PUSH1 0x20 DUP2 ADD SWAP1 PUSH2 0x654 SWAP2 SWAP1 PUSH2 0x1B8B JUMP JUMPDEST PUSH2 0xFFFF AND EQ JUMPDEST PUSH2 0x699 JUMPI PUSH1 0x40 MLOAD PUSH32 0x8C379A000000000000000000000000000000000000000000000000000000000 DUP2 MSTORE PUSH1 0x4 ADD PUSH2 0x690 SWAP1 PUSH2 0x2413 JUMP JUMPDEST PUSH1 0x40 MLOAD DUP1 SWAP2 SUB SWAP1 REVERT JUMPDEST PUSH1 0x0 DUP3 PUSH2 0x140 ADD MLOAD SWAP1 POP DUP2 PUSH1 0x0 PUSH1 0xFF AND PUSH1 0x2 DUP2 LT PUSH2 0x6BA JUMPI PUSH2 0x6B9 PUSH2 0x2A3C JUMP JUMPDEST JUMPDEST PUSH1 0x20 MUL ADD MLOAD DUP2 PUSH1 0x0 PUSH1 0xFF AND PUSH1 0x4 DUP2 LT PUSH2 0x6D6 JUMPI PUSH2 0x6D5 PUSH2 0x2A3C JUMP JUMPDEST JUMPDEST PUSH1 0x20 MUL ADD SWAP1 PUSH2 0xFFFF AND SWAP1 DUP2 PUSH2 0xFFFF AND DUP2 MSTORE POP POP DUP2 PUSH1 0x1 PUSH1 0xFF AND PUSH1 0x2 DUP2 LT PUSH2 0x700 JUMPI PUSH2 0x6FF PUSH2 0x2A3C JUMP JUMPDEST JUMPDEST PUSH1 0x20 MUL ADD MLOAD DUP2 PUSH1 0x1 PUSH1 0xFF AND PUSH1 0x4 DUP2 LT PUSH2 0x71C JUMPI PUSH2 0x71B PUSH2 0x2A3C JUMP JUMPDEST JUMPDEST PUSH1 0x20 MUL ADD SWAP1 PUSH2 0xFFFF AND SWAP1 DUP2 PUSH2 0xFFFF AND DUP2 MSTORE POP POP PUSH1 0x1 PUSH2 0x75A DUP5 PUSH2 0x120 ADD MLOAD PUSH1 0x0 PUSH1 0xFF AND PUSH1 0x2 DUP2 LT PUSH2 0x750 JUMPI PUSH2 0x74F PUSH2 0x2A3C JUMP JUMPDEST JUMPDEST PUSH1 0x20 MUL ADD MLOAD PUSH2 0x1668 JUMP JUMPDEST PUSH2 0x764 SWAP2 SWAP1 PUSH2 0x27D0 JUMP JUMPDEST DUP4 PUSH2 0x120 ADD MLOAD PUSH1 0x0 PUSH1 0xFF AND PUSH1 0x2 DUP2 LT PUSH2 0x780 JUMPI PUSH2 0x77F PUSH2 0x2A3C JUMP JUMPDEST JUMPDEST PUSH1 0x20 MUL ADD SWAP1 PUSH1 0x1 SIGNEXTEND SWAP1 DUP2 PUSH1 0x1 SIGNEXTEND DUP2 MSTORE POP POP PUSH2 0x7BA DUP4 PUSH2 0x120 ADD MLOAD PUSH1 0x1 PUSH1 0xFF AND PUSH1 0x2 DUP2 LT PUSH2 0x7B0 JUMPI PUSH2 0x7AF PUSH2 0x2A3C JUMP JUMPDEST JUMPDEST PUSH1 0x20 MUL ADD MLOAD PUSH2 0x1668 JUMP JUMPDEST DUP4 PUSH2 0x120 ADD MLOAD PUSH1 0x1 PUSH1 0xFF AND PUSH1 0x2 DUP2 LT PUSH2 0x7D6 JUMPI PUSH2 0x7D5 PUSH2 0x2A3C JUMP JUMPDEST JUMPDEST PUSH1 0x20 MUL ADD SWAP1 PUSH1 0x1 SIGNEXTEND SWAP1 DUP2 PUSH1 0x1 SIGNEXTEND DUP2 MSTORE POP POP PUSH32 0x0 PUSH20 0xFFFFFFFFFFFFFFFFFFFFFFFFFFFFFFFFFFFFFFFF AND PUSH4 0x64166E63 DUP8 DUP4 DUP7 PUSH2 0x120 ADD MLOAD PUSH1 0x40 MLOAD DUP5 PUSH4 0xFFFFFFFF AND PUSH1 0xE0 SHL DUP2 MSTORE PUSH1 0x4 ADD PUSH2 0x849 SWAP4 SWAP3 SWAP2 SWAP1 PUSH2 0x2564 JUMP JUMPDEST PUSH1 0x0 PUSH1 0x40 MLOAD DUP1 DUP4 SUB DUP2 PUSH1 0x0 DUP8 DUP1 EXTCODESIZE ISZERO DUP1 ISZERO PUSH2 0x863 JUMPI PUSH1 0x0 DUP1 REVERT JUMPDEST POP GAS CALL ISZERO DUP1 ISZERO PUSH2 0x877 JUMPI RETURNDATASIZE PUSH1 0x0 DUP1 RETURNDATACOPY RETURNDATASIZE PUSH1 0x0 REVERT JUMPDEST POP POP POP POP PUSH1 0x0 PUSH32 0x0 PUSH20 0xFFFFFFFFFFFFFFFFFFFFFFFFFFFFFFFFFFFFFFFF AND PUSH4 0xB34291A6 DUP9 PUSH1 0x40 MLOAD DUP3 PUSH4 0xFFFFFFFF AND PUSH1 0xE0 SHL DUP2 MSTORE PUSH1 0x4 ADD PUSH2 0x8D6 SWAP2 SWAP1 PUSH2 0x2512 JUMP JUMPDEST PUSH1 0xA0 PUSH1 0x40 MLOAD DUP1 DUP4 SUB DUP2 PUSH1 0x0 DUP8 DUP1 EXTCODESIZE ISZERO DUP1 ISZERO PUSH2 0x8F0 JUMPI PUSH1 0x0 DUP1 REVERT JUMPDEST POP GAS CALL ISZERO DUP1 ISZERO PUSH2 0x904 JUMPI RETURNDATASIZE PUSH1 0x0 DUP1 RETURNDATACOPY RETURNDATASIZE PUSH1 0x0 REVERT JUMPDEST POP POP POP POP PUSH1 0x40 MLOAD RETURNDATASIZE PUSH1 0x1F NOT PUSH1 0x1F DUP3 ADD AND DUP3 ADD DUP1 PUSH1 0x40 MSTORE POP DUP2 ADD SWAP1 PUSH2 0x928 SWAP2 SWAP1 PUSH2 0x1B30 JUMP JUMPDEST SWAP1 POP DUP7 PUSH32 0x4DDD0D366374522F804ECAA3AD96835645D0B72CFF36124AEF9DF54C9CB3BAA0 DUP6 DUP6 TIMESTAMP DUP6 PUSH1 0x40 MLOAD PUSH2 0x960 SWAP5 SWAP4 SWAP3 SWAP2 SWAP1 PUSH2 0x2493 JUMP JUMPDEST PUSH1 0x40 MLOAD DUP1 SWAP2 SUB SWAP1 LOG2 POP POP POP POP POP POP POP JUMP JUMPDEST PUSH1 0x2 PUSH1 0x0 SLOAD EQ ISZERO PUSH2 0x9B7 JUMPI PUSH1 0x40 MLOAD PUSH32 0x8C379A000000000000000000000000000000000000000000000000000000000 DUP2 MSTORE PUSH1 0x4 ADD PUSH2 0x9AE SWAP1 PUSH2 0x2433 JUMP JUMPDEST PUSH1 0x40 MLOAD DUP1 SWAP2 SUB SWAP1 REVERT JUMPDEST PUSH1 0x2 PUSH1 0x0 DUP2 SWAP1 SSTORE POP PUSH1 0x0 PUSH2 0x9C9 PUSH2 0x1660 JUMP JUMPDEST SWAP1 POP PUSH1 0x0 PUSH32 0x0 PUSH20 0xFFFFFFFFFFFFFFFFFFFFFFFFFFFFFFFFFFFFFFFF AND PUSH4 0x7D19E596 DUP5 PUSH1 0x40 MLOAD DUP3 PUSH4 0xFFFFFFFF AND PUSH1 0xE0 SHL DUP2 MSTORE PUSH1 0x4 ADD PUSH2 0xA26 SWAP2 SWAP1 PUSH2 0x2512 JUMP JUMPDEST PUSH2 0x200 PUSH1 0x40 MLOAD DUP1 DUP4 SUB DUP2 DUP7 DUP1 EXTCODESIZE ISZERO DUP1 ISZERO PUSH2 0xA3F JUMPI PUSH1 0x0 DUP1 REVERT JUMPDEST POP GAS STATICCALL ISZERO DUP1 ISZERO PUSH2 0xA53 JUMPI RETURNDATASIZE PUSH1 0x0 DUP1 RETURNDATACOPY RETURNDATASIZE PUSH1 0x0 REVERT JUMPDEST POP POP POP POP PUSH1 0x40 MLOAD RETURNDATASIZE PUSH1 0x1F NOT PUSH1 0x1F DUP3 ADD AND DUP3 ADD DUP1 PUSH1 0x40 MSTORE POP DUP2 ADD SWAP1 PUSH2 0xA77 SWAP2 SWAP1 PUSH2 0x1B5D JUMP JUMPDEST SWAP1 POP DUP1 PUSH1 0x20 ADD MLOAD PUSH20 0xFFFFFFFFFFFFFFFFFFFFFFFFFFFFFFFFFFFFFFFF AND DUP3 PUSH20 0xFFFFFFFFFFFFFFFFFFFFFFFFFFFFFFFFFFFFFFFF AND EQ DUP1 PUSH2 0xAE6 JUMPI POP DUP1 PUSH1 0x0 ADD MLOAD PUSH20 0xFFFFFFFFFFFFFFFFFFFFFFFFFFFFFFFFFFFFFFFF AND DUP3 PUSH20 0xFFFFFFFFFFFFFFFFFFFFFFFFFFFFFFFFFFFFFFFF AND EQ JUMPDEST PUSH2 0xB25 JUMPI PUSH1 0x40 MLOAD PUSH32 0x8C379A000000000000000000000000000000000000000000000000000000000 DUP2 MSTORE PUSH1 0x4 ADD PUSH2 0xB1C SWAP1 PUSH2 0x2373 JUMP JUMPDEST PUSH1 0x40 MLOAD DUP1 SWAP2 SUB SWAP1 REVERT JUMPDEST PUSH1 0x0 DUP2 PUSH2 0x120 ADD MLOAD PUSH1 0x1 PUSH1 0xFF AND PUSH1 0x2 DUP2 LT PUSH2 0xB43 JUMPI PUSH2 0xB42 PUSH2 0x2A3C JUMP JUMPDEST JUMPDEST PUSH1 0x20 MUL ADD MLOAD PUSH1 0x1 SIGNEXTEND SGT ISZERO DUP1 PUSH2 0xB7C JUMPI POP PUSH1 0x0 DUP2 PUSH2 0x120 ADD MLOAD PUSH1 0x0 PUSH1 0xFF AND PUSH1 0x2 DUP2 LT PUSH2 0xB71 JUMPI PUSH2 0xB70 PUSH2 0x2A3C JUMP JUMPDEST JUMPDEST PUSH1 0x20 MUL ADD MLOAD PUSH1 0x1 SIGNEXTEND SGT ISZERO JUMPDEST PUSH2 0xBBB JUMPI PUSH1 0x40 MLOAD PUSH32 0x8C379A000000000000000000000000000000000000000000000000000000000 DUP2 MSTORE PUSH1 0x4 ADD PUSH2 0xBB2 SWAP1 PUSH2 0x2393 JUMP JUMPDEST PUSH1 0x40 MLOAD DUP1 SWAP2 SUB SWAP1 REVERT JUMPDEST DUP1 PUSH1 0x60 ADD MLOAD PUSH8 0xFFFFFFFFFFFFFFFF AND TIMESTAMP LT PUSH2 0xC0B JUMPI PUSH1 0x40 MLOAD PUSH32 0x8C379A000000000000000000000000000000000000000000000000000000000 DUP2 MSTORE PUSH1 0x4 ADD PUSH2 0xC02 SWAP1 PUSH2 0x23D3 JUMP JUMPDEST PUSH1 0x40 MLOAD DUP1 SWAP2 SUB SWAP1 REVERT JUMPDEST DUP1 PUSH1 0x40 ADD MLOAD PUSH8 0xFFFFFFFFFFFFFFFF AND TIMESTAMP GT PUSH2 0xC5B JUMPI PUSH1 0x40 MLOAD PUSH32 0x8C379A000000000000000000000000000000000000000000000000000000000 DUP2 MSTORE PUSH1 0x4 ADD PUSH2 0xC52 SWAP1 PUSH2 0x2353 JUMP JUMPDEST PUSH1 0x40 MLOAD DUP1 SWAP2 SUB SWAP1 REVERT JUMPDEST DUP1 PUSH1 0x0 ADD MLOAD PUSH20 0xFFFFFFFFFFFFFFFFFFFFFFFFFFFFFFFFFFFFFFFF AND DUP3 PUSH20 0xFFFFFFFFFFFFFFFFFFFFFFFFFFFFFFFFFFFFFFFF AND EQ ISZERO DUP1 PUSH2 0xCBE JUMPI POP PUSH1 0x0 DUP2 PUSH2 0x120 ADD MLOAD PUSH1 0x0 PUSH1 0xFF AND PUSH1 0x2 DUP2 LT PUSH2 0xCB3 JUMPI PUSH2 0xCB2 PUSH2 0x2A3C JUMP JUMPDEST JUMPDEST PUSH1 0x20 MUL ADD MLOAD PUSH1 0x1 SIGNEXTEND SGT ISZERO JUMPDEST PUSH2 0xCFD JUMPI PUSH1 0x40 MLOAD PUSH32 0x8C379A000000000000000000000000000000000000000000000000000000000 DUP2 MSTORE PUSH1 0x4 ADD PUSH2 0xCF4 SWAP1 PUSH2 0x2453 JUMP JUMPDEST PUSH1 0x40 MLOAD DUP1 SWAP2 SUB SWAP1 REVERT JUMPDEST DUP1 PUSH1 0x20 ADD MLOAD PUSH20 0xFFFFFFFFFFFFFFFFFFFFFFFFFFFFFFFFFFFFFFFF AND DUP3 PUSH20 0xFFFFFFFFFFFFFFFFFFFFFFFFFFFFFFFFFFFFFFFF AND EQ ISZERO DUP1 PUSH2 0xD60 JUMPI POP PUSH1 0x0 DUP2 PUSH2 0x120 ADD MLOAD PUSH1 0x1 PUSH1 0xFF AND PUSH1 0x2 DUP2 LT PUSH2 0xD55 JUMPI PUSH2 0xD54 PUSH2 0x2A3C JUMP JUMPDEST JUMPDEST PUSH1 0x20 MUL ADD MLOAD PUSH1 0x1 SIGNEXTEND SGT ISZERO JUMPDEST PUSH2 0xD9F JUMPI PUSH1 0x40 MLOAD PUSH32 0x8C379A000000000000000000000000000000000000000000000000000000000 DUP2 MSTORE PUSH1 0x4 ADD PUSH2 0xD96 SWAP1 PUSH2 0x2473 JUMP JUMPDEST PUSH1 0x40 MLOAD DUP1 SWAP2 SUB SWAP1 REVERT JUMPDEST DUP1 PUSH1 0x0 ADD MLOAD PUSH20 0xFFFFFFFFFFFFFFFFFFFFFFFFFFFFFFFFFFFFFFFF AND DUP3 PUSH20 0xFFFFFFFFFFFFFFFFFFFFFFFFFFFFFFFFFFFFFFFF AND EQ ISZERO PUSH2 0xF00 JUMPI PUSH2 0x2710 DUP2 PUSH2 0x140 ADD MLOAD PUSH1 0x0 PUSH1 0xFF AND PUSH1 0x4 DUP2 LT PUSH2 0xDF6 JUMPI PUSH2 0xDF5 PUSH2 0x2A3C JUMP JUMPDEST JUMPDEST PUSH1 0x20 MUL ADD SWAP1 PUSH2 0xFFFF AND SWAP1 DUP2 PUSH2 0xFFFF AND DUP2 MSTORE POP POP PUSH1 0x0 DUP2 PUSH2 0x140 ADD MLOAD PUSH1 0x1 PUSH1 0xFF AND PUSH1 0x4 DUP2 LT PUSH2 0xE27 JUMPI PUSH2 0xE26 PUSH2 0x2A3C JUMP JUMPDEST JUMPDEST PUSH1 0x20 MUL ADD SWAP1 PUSH2 0xFFFF AND SWAP1 DUP2 PUSH2 0xFFFF AND DUP2 MSTORE POP POP PUSH1 0x1 PUSH2 0xE65 DUP3 PUSH2 0x120 ADD MLOAD PUSH1 0x0 PUSH1 0xFF AND PUSH1 0x2 DUP2 LT PUSH2 0xE5B JUMPI PUSH2 0xE5A PUSH2 0x2A3C JUMP JUMPDEST JUMPDEST PUSH1 0x20 MUL ADD MLOAD PUSH2 0x1668 JUMP JUMPDEST PUSH2 0xE6F SWAP2 SWAP1 PUSH2 0x27D0 JUMP JUMPDEST DUP2 PUSH2 0x120 ADD MLOAD PUSH1 0x0 PUSH1 0xFF AND PUSH1 0x2 DUP2 LT PUSH2 0xE8B JUMPI PUSH2 0xE8A PUSH2 0x2A3C JUMP JUMPDEST JUMPDEST PUSH1 0x20 MUL ADD SWAP1 PUSH1 0x1 SIGNEXTEND SWAP1 DUP2 PUSH1 0x1 SIGNEXTEND DUP2 MSTORE POP POP PUSH2 0xEC5 DUP2 PUSH2 0x120 ADD MLOAD PUSH1 0x1 PUSH1 0xFF AND PUSH1 0x2 DUP2 LT PUSH2 0xEBB JUMPI PUSH2 0xEBA PUSH2 0x2A3C JUMP JUMPDEST JUMPDEST PUSH1 0x20 MUL ADD MLOAD PUSH2 0x1668 JUMP JUMPDEST PUSH2 0xECE SWAP1 PUSH2 0x29C4 JUMP JUMPDEST DUP2 PUSH2 0x120 ADD MLOAD PUSH1 0x1 PUSH1 0xFF AND PUSH1 0x2 DUP2 LT PUSH2 0xEEA JUMPI PUSH2 0xEE9 PUSH2 0x2A3C JUMP JUMPDEST JUMPDEST PUSH1 0x20 MUL ADD SWAP1 PUSH1 0x1 SIGNEXTEND SWAP1 DUP2 PUSH1 0x1 SIGNEXTEND DUP2 MSTORE POP POP PUSH2 0x105E JUMP JUMPDEST DUP1 PUSH1 0x20 ADD MLOAD PUSH20 0xFFFFFFFFFFFFFFFFFFFFFFFFFFFFFFFFFFFFFFFF AND DUP3 PUSH20 0xFFFFFFFFFFFFFFFFFFFFFFFFFFFFFFFFFFFFFFFF AND EQ ISZERO PUSH2 0x105D JUMPI PUSH2 0x2710 DUP2 PUSH2 0x140 ADD MLOAD PUSH1 0x1 PUSH1 0xFF AND PUSH1 0x4 DUP2 LT PUSH2 0xF57 JUMPI PUSH2 0xF56 PUSH2 0x2A3C JUMP JUMPDEST JUMPDEST PUSH1 0x20 MUL ADD SWAP1 PUSH2 0xFFFF AND SWAP1 DUP2 PUSH2 0xFFFF AND DUP2 MSTORE POP POP PUSH1 0x0 DUP2 PUSH2 0x140 ADD MLOAD PUSH1 0x0 PUSH1 0xFF AND PUSH1 0x4 DUP2 LT PUSH2 0xF88 JUMPI PUSH2 0xF87 PUSH2 0x2A3C JUMP JUMPDEST JUMPDEST PUSH1 0x20 MUL ADD SWAP1 PUSH2 0xFFFF AND SWAP1 DUP2 PUSH2 0xFFFF AND DUP2 MSTORE POP POP PUSH2 0xFC4 DUP2 PUSH2 0x120 ADD MLOAD PUSH1 0x0 PUSH1 0xFF AND PUSH1 0x2 DUP2 LT PUSH2 0xFBA JUMPI PUSH2 0xFB9 PUSH2 0x2A3C JUMP JUMPDEST JUMPDEST PUSH1 0x20 MUL ADD MLOAD PUSH2 0x1668 JUMP JUMPDEST PUSH2 0xFCD SWAP1 PUSH2 0x29C4 JUMP JUMPDEST DUP2 PUSH2 0x120 ADD MLOAD PUSH1 0x0 PUSH1 0xFF AND PUSH1 0x2 DUP2 LT PUSH2 0xFE9 JUMPI PUSH2 0xFE8 PUSH2 0x2A3C JUMP JUMPDEST JUMPDEST PUSH1 0x20 MUL ADD SWAP1 PUSH1 0x1 SIGNEXTEND SWAP1 DUP2 PUSH1 0x1 SIGNEXTEND DUP2 MSTORE POP POP PUSH1 0x1 PUSH2 0x1025 DUP3 PUSH2 0x120 ADD MLOAD PUSH1 0x1 PUSH1 0xFF AND PUSH1 0x2 DUP2 LT PUSH2 0x101B JUMPI PUSH2 0x101A PUSH2 0x2A3C JUMP JUMPDEST JUMPDEST PUSH1 0x20 MUL ADD MLOAD PUSH2 0x1668 JUMP JUMPDEST PUSH2 0x102F SWAP2 SWAP1 PUSH2 0x27D0 JUMP JUMPDEST DUP2 PUSH2 0x120 ADD MLOAD PUSH1 0x1 PUSH1 0xFF AND PUSH1 0x2 DUP2 LT PUSH2 0x104B JUMPI PUSH2 0x104A PUSH2 0x2A3C JUMP JUMPDEST JUMPDEST PUSH1 0x20 MUL ADD SWAP1 PUSH1 0x1 SIGNEXTEND SWAP1 DUP2 PUSH1 0x1 SIGNEXTEND DUP2 MSTORE POP POP JUMPDEST JUMPDEST PUSH1 0x0 DUP2 PUSH1 0x60 ADD MLOAD SWAP1 POP PUSH1 0x0 DUP3 PUSH1 0x80 ADD MLOAD DUP4 PUSH1 0x60 ADD MLOAD PUSH2 0x107D SWAP2 SWAP1 PUSH2 0x287E JUMP JUMPDEST SWAP1 POP PUSH32 0x0 PUSH20 0xFFFFFFFFFFFFFFFFFFFFFFFFFFFFFFFFFFFFFFFF AND PUSH4 0xA6B25F2 DUP7 DUP6 PUSH2 0x140 ADD MLOAD DUP7 PUSH2 0x120 ADD MLOAD DUP7 DUP7 PUSH1 0x40 MLOAD DUP7 PUSH4 0xFFFFFFFF AND PUSH1 0xE0 SHL DUP2 MSTORE PUSH1 0x4 ADD PUSH2 0x10EA SWAP6 SWAP5 SWAP4 SWAP3 SWAP2 SWAP1 PUSH2 0x259B JUMP JUMPDEST PUSH1 0x0 PUSH1 0x40 MLOAD DUP1 DUP4 SUB DUP2 PUSH1 0x0 DUP8 DUP1 EXTCODESIZE ISZERO DUP1 ISZERO PUSH2 0x1104 JUMPI PUSH1 0x0 DUP1 REVERT JUMPDEST POP GAS CALL ISZERO DUP1 ISZERO PUSH2 0x1118 JUMPI RETURNDATASIZE PUSH1 0x0 DUP1 RETURNDATACOPY RETURNDATASIZE PUSH1 0x0 REVERT JUMPDEST POP POP POP POP DUP2 DUP4 PUSH1 0x40 ADD SWAP1 PUSH8 0xFFFFFFFFFFFFFFFF AND SWAP1 DUP2 PUSH8 0xFFFFFFFFFFFFFFFF AND DUP2 MSTORE POP POP DUP1 DUP4 PUSH1 0x60 ADD SWAP1 PUSH8 0xFFFFFFFFFFFFFFFF AND SWAP1 DUP2 PUSH8 0xFFFFFFFFFFFFFFFF AND DUP2 MSTORE POP POP DUP5 PUSH32 0x77B7286D957F26F537D326E5E4827CE9E7301D2C888D53FC985A93DA2F0A1950 TIMESTAMP DUP6 PUSH1 0x40 MLOAD PUSH2 0x118E SWAP3 SWAP2 SWAP1 PUSH2 0x25F0 JUMP JUMPDEST PUSH1 0x40 MLOAD DUP1 SWAP2 SUB SWAP1 LOG2 POP POP POP POP PUSH1 0x1 PUSH1 0x0 DUP2 SWAP1 SSTORE POP POP JUMP JUMPDEST PUSH1 0x2 PUSH1 0x0 SLOAD EQ ISZERO PUSH2 0x11EB JUMPI PUSH1 0x40 MLOAD PUSH32 0x8C379A000000000000000000000000000000000000000000000000000000000 DUP2 MSTORE PUSH1 0x4 ADD PUSH2 0x11E2 SWAP1 PUSH2 0x2433 JUMP JUMPDEST PUSH1 0x40 MLOAD DUP1 SWAP2 SUB SWAP1 REVERT JUMPDEST PUSH1 0x2 PUSH1 0x0 DUP2 SWAP1 SSTORE POP PUSH1 0x0 PUSH2 0x11FD PUSH2 0x1660 JUMP JUMPDEST SWAP1 POP PUSH1 0x0 PUSH32 0x0 PUSH20 0xFFFFFFFFFFFFFFFFFFFFFFFFFFFFFFFFFFFFFFFF AND PUSH4 0x7D19E596 DUP6 PUSH1 0x40 MLOAD DUP3 PUSH4 0xFFFFFFFF AND PUSH1 0xE0 SHL DUP2 MSTORE PUSH1 0x4 ADD PUSH2 0x125A SWAP2 SWAP1 PUSH2 0x2512 JUMP JUMPDEST PUSH2 0x200 PUSH1 0x40 MLOAD DUP1 DUP4 SUB DUP2 DUP7 DUP1 EXTCODESIZE ISZERO DUP1 ISZERO PUSH2 0x1273 JUMPI PUSH1 0x0 DUP1 REVERT JUMPDEST POP GAS STATICCALL ISZERO DUP1 ISZERO PUSH2 0x1287 JUMPI RETURNDATASIZE PUSH1 0x0 DUP1 RETURNDATACOPY RETURNDATASIZE PUSH1 0x0 REVERT JUMPDEST POP POP POP POP PUSH1 0x40 MLOAD RETURNDATASIZE PUSH1 0x1F NOT PUSH1 0x1F DUP3 ADD AND DUP3 ADD DUP1 PUSH1 0x40 MSTORE POP DUP2 ADD SWAP1 PUSH2 0x12AB SWAP2 SWAP1 PUSH2 0x1B5D JUMP JUMPDEST SWAP1 POP DUP1 PUSH1 0x0 ADD MLOAD PUSH20 0xFFFFFFFFFFFFFFFFFFFFFFFFFFFFFFFFFFFFFFFF AND DUP3 PUSH20 0xFFFFFFFFFFFFFFFFFFFFFFFFFFFFFFFFFFFFFFFF AND EQ DUP1 PUSH2 0x131A JUMPI POP DUP1 PUSH1 0x20 ADD MLOAD PUSH20 0xFFFFFFFFFFFFFFFFFFFFFFFFFFFFFFFFFFFFFFFF AND DUP3 PUSH20 0xFFFFFFFFFFFFFFFFFFFFFFFFFFFFFFFFFFFFFFFF AND EQ JUMPDEST PUSH2 0x1359 JUMPI PUSH1 0x40 MLOAD PUSH32 0x8C379A000000000000000000000000000000000000000000000000000000000 DUP2 MSTORE PUSH1 0x4 ADD PUSH2 0x1350 SWAP1 PUSH2 0x2373 JUMP JUMPDEST PUSH1 0x40 MLOAD DUP1 SWAP2 SUB SWAP1 REVERT JUMPDEST PUSH1 0x0 DUP2 PUSH2 0x120 ADD MLOAD PUSH1 0x1 PUSH1 0xFF AND PUSH1 0x2 DUP2 LT PUSH2 0x1377 JUMPI PUSH2 0x1376 PUSH2 0x2A3C JUMP JUMPDEST JUMPDEST PUSH1 0x20 MUL ADD MLOAD PUSH1 0x1 SIGNEXTEND SGT ISZERO DUP1 PUSH2 0x13B0 JUMPI POP PUSH1 0x0 DUP2 PUSH2 0x120 ADD MLOAD PUSH1 0x0 PUSH1 0xFF AND PUSH1 0x2 DUP2 LT PUSH2 0x13A5 JUMPI PUSH2 0x13A4 PUSH2 0x2A3C JUMP JUMPDEST JUMPDEST PUSH1 0x20 MUL ADD MLOAD PUSH1 0x1 SIGNEXTEND SGT ISZERO JUMPDEST PUSH2 0x13EF JUMPI PUSH1 0x40 MLOAD PUSH32 0x8C379A000000000000000000000000000000000000000000000000000000000 DUP2 MSTORE PUSH1 0x4 ADD PUSH2 0x13E6 SWAP1 PUSH2 0x2393 JUMP JUMPDEST PUSH1 0x40 MLOAD DUP1 SWAP2 SUB SWAP1 REVERT JUMPDEST PUSH2 0x2710 DUP4 PUSH1 0x1 PUSH1 0xFF AND PUSH1 0x2 DUP2 LT PUSH2 0x1409 JUMPI PUSH2 0x1408 PUSH2 0x2A3C JUMP JUMPDEST JUMPDEST PUSH1 0x20 MUL ADD PUSH1 0x20 DUP2 ADD SWAP1 PUSH2 0x141C SWAP2 SWAP1 PUSH2 0x1B8B JUMP JUMPDEST DUP5 PUSH1 0x0 PUSH1 0xFF AND PUSH1 0x2 DUP2 LT PUSH2 0x1433 JUMPI PUSH2 0x1432 PUSH2 0x2A3C JUMP JUMPDEST JUMPDEST PUSH1 0x20 MUL ADD PUSH1 0x20 DUP2 ADD SWAP1 PUSH2 0x1446 SWAP2 SWAP1 PUSH2 0x1B8B JUMP JUMPDEST PUSH2 0x1450 SWAP2 SWAP1 PUSH2 0x2846 JUMP JUMPDEST PUSH2 0xFFFF AND EQ PUSH2 0x1494 JUMPI PUSH1 0x40 MLOAD PUSH32 0x8C379A000000000000000000000000000000000000000000000000000000000 DUP2 MSTORE PUSH1 0x4 ADD PUSH2 0x148B SWAP1 PUSH2 0x2333 JUMP JUMPDEST PUSH1 0x40 MLOAD DUP1 SWAP2 SUB SWAP1 REVERT JUMPDEST DUP2 PUSH1 0x1 PUSH1 0x0 DUP7 DUP2 MSTORE PUSH1 0x20 ADD SWAP1 DUP2 MSTORE PUSH1 0x20 ADD PUSH1 0x0 KECCAK256 PUSH1 0x0 PUSH2 0x100 EXP DUP2 SLOAD DUP2 PUSH20 0xFFFFFFFFFFFFFFFFFFFFFFFFFFFFFFFFFFFFFFFF MUL NOT AND SWAP1 DUP4 PUSH20 0xFFFFFFFFFFFFFFFFFFFFFFFFFFFFFFFFFFFFFFFF AND MUL OR SWAP1 SSTORE POP DUP3 PUSH1 0x2 PUSH1 0x0 DUP7 DUP2 MSTORE PUSH1 0x20 ADD SWAP1 DUP2 MSTORE PUSH1 0x20 ADD PUSH1 0x0 KECCAK256 SWAP1 PUSH1 0x2 PUSH2 0x1508 SWAP3 SWAP2 SWAP1 PUSH2 0x168D JUMP JUMPDEST POP DUP4 PUSH32 0xAD77A7F72AEE179B5A343E49E8B5CDF52D31D42BB43DF14F33D26CCB08D0A66E TIMESTAMP DUP6 CALLER PUSH1 0x40 MLOAD PUSH2 0x153D SWAP4 SWAP3 SWAP2 SWAP1 PUSH2 0x252D JUMP JUMPDEST PUSH1 0x40 MLOAD DUP1 SWAP2 SUB SWAP1 LOG2 POP POP PUSH1 0x1 PUSH1 0x0 DUP2 SWAP1 SSTORE POP POP POP JUMP JUMPDEST PUSH32 0x0 DUP2 JUMP JUMPDEST PUSH2 0x157F PUSH2 0x172E JUMP JUMPDEST PUSH1 0x0 PUSH1 0x40 MLOAD DUP1 PUSH1 0x40 ADD PUSH1 0x40 MSTORE DUP1 PUSH1 0x1 PUSH1 0x0 DUP7 DUP2 MSTORE PUSH1 0x20 ADD SWAP1 DUP2 MSTORE PUSH1 0x20 ADD PUSH1 0x0 KECCAK256 PUSH1 0x0 SWAP1 SLOAD SWAP1 PUSH2 0x100 EXP SWAP1 DIV PUSH20 0xFFFFFFFFFFFFFFFFFFFFFFFFFFFFFFFFFFFFFFFF AND PUSH20 0xFFFFFFFFFFFFFFFFFFFFFFFFFFFFFFFFFFFFFFFF AND DUP2 MSTORE PUSH1 0x20 ADD PUSH1 0x2 PUSH1 0x0 DUP7 DUP2 MSTORE PUSH1 0x20 ADD SWAP1 DUP2 MSTORE PUSH1 0x20 ADD PUSH1 0x0 KECCAK256 PUSH1 0x2 DUP1 PUSH1 0x20 MUL PUSH1 0x40 MLOAD SWAP1 DUP2 ADD PUSH1 0x40 MSTORE DUP1 SWAP3 SWAP2 SWAP1 DUP3 PUSH1 0x2 DUP1 ISZERO PUSH2 0x164D JUMPI PUSH1 0x20 MUL DUP3 ADD SWAP2 PUSH1 0x0 SWAP1 JUMPDEST DUP3 DUP3 SWAP1 SLOAD SWAP1 PUSH2 0x100 EXP SWAP1 DIV PUSH2 0xFFFF AND PUSH2 0xFFFF AND DUP2 MSTORE PUSH1 0x20 ADD SWAP1 PUSH1 0x2 ADD SWAP1 PUSH1 0x20 DUP3 PUSH1 0x1 ADD DIV SWAP3 DUP4 ADD SWAP3 PUSH1 0x1 SUB DUP3 MUL SWAP2 POP DUP1 DUP5 GT PUSH2 0x1614 JUMPI SWAP1 POP JUMPDEST POP POP POP POP POP DUP2 MSTORE POP SWAP1 POP DUP1 SWAP2 POP POP SWAP2 SWAP1 POP JUMP JUMPDEST PUSH1 0x0 CALLER SWAP1 POP SWAP1 JUMP JUMPDEST PUSH1 0x0 DUP1 DUP3 PUSH1 0x1 SIGNEXTEND SLT ISZERO PUSH2 0x1684 JUMPI DUP2 PUSH2 0x167F SWAP1 PUSH2 0x29C4 JUMP JUMPDEST PUSH2 0x1686 JUMP JUMPDEST DUP2 JUMPDEST SWAP1 POP SWAP2 SWAP1 POP JUMP JUMPDEST DUP3 PUSH1 0x2 PUSH1 0xF ADD PUSH1 0x10 SWAP1 DIV DUP2 ADD SWAP3 DUP3 ISZERO PUSH2 0x171D JUMPI SWAP2 PUSH1 0x20 MUL DUP3 ADD PUSH1 0x0 JUMPDEST DUP4 DUP3 GT ISZERO PUSH2 0x16ED JUMPI DUP4 CALLDATALOAD PUSH2 0xFFFF AND DUP4 DUP3 PUSH2 0x100 EXP DUP2 SLOAD DUP2 PUSH2 0xFFFF MUL NOT AND SWAP1 DUP4 PUSH2 0xFFFF AND MUL OR SWAP1 SSTORE POP SWAP3 PUSH1 0x20 ADD SWAP3 PUSH1 0x2 ADD PUSH1 0x20 DUP2 PUSH1 0x1 ADD DIV SWAP3 DUP4 ADD SWAP3 PUSH1 0x1 SUB MUL PUSH2 0x16A9 JUMP JUMPDEST DUP1 ISZERO PUSH2 0x171B JUMPI DUP3 DUP2 PUSH2 0x100 EXP DUP2 SLOAD SWAP1 PUSH2 0xFFFF MUL NOT AND SWAP1 SSTORE PUSH1 0x2 ADD PUSH1 0x20 DUP2 PUSH1 0x1 ADD DIV SWAP3 DUP4 ADD SWAP3 PUSH1 0x1 SUB MUL PUSH2 0x16ED JUMP JUMPDEST POP JUMPDEST POP SWAP1 POP PUSH2 0x172A SWAP2 SWAP1 PUSH2 0x1764 JUMP JUMPDEST POP SWAP1 JUMP JUMPDEST PUSH1 0x40 MLOAD DUP1 PUSH1 0x40 ADD PUSH1 0x40 MSTORE DUP1 PUSH1 0x0 PUSH20 0xFFFFFFFFFFFFFFFFFFFFFFFFFFFFFFFFFFFFFFFF AND DUP2 MSTORE PUSH1 0x20 ADD PUSH2 0x175E PUSH2 0x1781 JUMP JUMPDEST DUP2 MSTORE POP SWAP1 JUMP JUMPDEST JUMPDEST DUP1 DUP3 GT ISZERO PUSH2 0x177D JUMPI PUSH1 0x0 DUP2 PUSH1 0x0 SWAP1 SSTORE POP PUSH1 0x1 ADD PUSH2 0x1765 JUMP JUMPDEST POP SWAP1 JUMP JUMPDEST PUSH1 0x40 MLOAD DUP1 PUSH1 0x40 ADD PUSH1 0x40 MSTORE DUP1 PUSH1 0x2 SWAP1 PUSH1 0x20 DUP3 MUL DUP1 CALLDATASIZE DUP4 CALLDATACOPY DUP1 DUP3 ADD SWAP2 POP POP SWAP1 POP POP SWAP1 JUMP JUMPDEST PUSH1 0x0 PUSH2 0x17B6 PUSH2 0x17B1 DUP5 PUSH2 0x263F JUMP JUMPDEST PUSH2 0x261A JUMP JUMPDEST SWAP1 POP DUP1 DUP3 DUP6 PUSH1 0x20 DUP7 MUL DUP3 ADD GT ISZERO PUSH2 0x17D0 JUMPI PUSH2 0x17CF PUSH2 0x2AA4 JUMP JUMPDEST JUMPDEST PUSH1 0x0 JUMPDEST DUP6 DUP2 LT ISZERO PUSH2 0x1800 JUMPI DUP2 PUSH2 0x17E6 DUP9 DUP3 PUSH2 0x1990 JUMP JUMPDEST DUP5 MSTORE PUSH1 0x20 DUP5 ADD SWAP4 POP PUSH1 0x20 DUP4 ADD SWAP3 POP POP PUSH1 0x1 DUP2 ADD SWAP1 POP PUSH2 0x17D3 JUMP JUMPDEST POP POP POP SWAP4 SWAP3 POP POP POP JUMP JUMPDEST PUSH1 0x0 PUSH2 0x181D PUSH2 0x1818 DUP5 PUSH2 0x2665 JUMP JUMPDEST PUSH2 0x261A JUMP JUMPDEST SWAP1 POP DUP1 DUP3 DUP6 PUSH1 0x20 DUP7 MUL DUP3 ADD GT ISZERO PUSH2 0x1837 JUMPI PUSH2 0x1836 PUSH2 0x2AA4 JUMP JUMPDEST JUMPDEST PUSH1 0x0 JUMPDEST DUP6 DUP2 LT ISZERO PUSH2 0x1867 JUMPI DUP2 PUSH2 0x184D DUP9 DUP3 PUSH2 0x1ADC JUMP JUMPDEST DUP5 MSTORE PUSH1 0x20 DUP5 ADD SWAP4 POP PUSH1 0x20 DUP4 ADD SWAP3 POP POP PUSH1 0x1 DUP2 ADD SWAP1 POP PUSH2 0x183A JUMP JUMPDEST POP POP POP SWAP4 SWAP3 POP POP POP JUMP JUMPDEST PUSH1 0x0 PUSH2 0x1884 PUSH2 0x187F DUP5 PUSH2 0x268B JUMP JUMPDEST PUSH2 0x261A JUMP JUMPDEST SWAP1 POP DUP1 DUP3 DUP6 PUSH1 0x20 DUP7 MUL DUP3 ADD GT ISZERO PUSH2 0x189E JUMPI PUSH2 0x189D PUSH2 0x2AA4 JUMP JUMPDEST JUMPDEST PUSH1 0x0 JUMPDEST DUP6 DUP2 LT ISZERO PUSH2 0x18CE JUMPI DUP2 PUSH2 0x18B4 DUP9 DUP3 PUSH2 0x1B06 JUMP JUMPDEST DUP5 MSTORE PUSH1 0x20 DUP5 ADD SWAP4 POP PUSH1 0x20 DUP4 ADD SWAP3 POP POP PUSH1 0x1 DUP2 ADD SWAP1 POP PUSH2 0x18A1 JUMP JUMPDEST POP POP POP SWAP4 SWAP3 POP POP POP JUMP JUMPDEST PUSH1 0x0 DUP2 MLOAD SWAP1 POP PUSH2 0x18E7 DUP2 PUSH2 0x2C82 JUMP JUMPDEST SWAP3 SWAP2 POP POP JUMP JUMPDEST PUSH1 0x0 DUP3 PUSH1 0x1F DUP4 ADD SLT PUSH2 0x1902 JUMPI PUSH2 0x1901 PUSH2 0x2A9A JUMP JUMPDEST JUMPDEST PUSH1 0x2 PUSH2 0x190F DUP5 DUP3 DUP6 PUSH2 0x17A3 JUMP JUMPDEST SWAP2 POP POP SWAP3 SWAP2 POP POP JUMP JUMPDEST PUSH1 0x0 DUP2 SWAP1 POP DUP3 PUSH1 0x20 PUSH1 0x2 MUL DUP3 ADD GT ISZERO PUSH2 0x1934 JUMPI PUSH2 0x1933 PUSH2 0x2AA4 JUMP JUMPDEST JUMPDEST SWAP3 SWAP2 POP POP JUMP JUMPDEST PUSH1 0x0 DUP3 PUSH1 0x1F DUP4 ADD SLT PUSH2 0x194F JUMPI PUSH2 0x194E PUSH2 0x2A9A JUMP JUMPDEST JUMPDEST PUSH1 0x4 PUSH2 0x195C DUP5 DUP3 DUP6 PUSH2 0x180A JUMP JUMPDEST SWAP2 POP POP SWAP3 SWAP2 POP POP JUMP JUMPDEST PUSH1 0x0 DUP3 PUSH1 0x1F DUP4 ADD SLT PUSH2 0x197A JUMPI PUSH2 0x1979 PUSH2 0x2A9A JUMP JUMPDEST JUMPDEST PUSH1 0x5 PUSH2 0x1987 DUP5 DUP3 DUP6 PUSH2 0x1871 JUMP JUMPDEST SWAP2 POP POP SWAP3 SWAP2 POP POP JUMP JUMPDEST PUSH1 0x0 DUP2 MLOAD SWAP1 POP PUSH2 0x199F DUP2 PUSH2 0x2C99 JUMP JUMPDEST SWAP3 SWAP2 POP POP JUMP JUMPDEST PUSH1 0x0 PUSH2 0x200 DUP3 DUP5 SUB SLT ISZERO PUSH2 0x19BC JUMPI PUSH2 0x19BB PUSH2 0x2A9F JUMP JUMPDEST JUMPDEST PUSH2 0x19C7 PUSH2 0x180 PUSH2 0x261A JUMP JUMPDEST SWAP1 POP PUSH1 0x0 PUSH2 0x19D7 DUP5 DUP3 DUP6 ADD PUSH2 0x18D8 JUMP JUMPDEST PUSH1 0x0 DUP4 ADD MSTORE POP PUSH1 0x20 PUSH2 0x19EB DUP5 DUP3 DUP6 ADD PUSH2 0x18D8 JUMP JUMPDEST PUSH1 0x20 DUP4 ADD MSTORE POP PUSH1 0x40 PUSH2 0x19FF DUP5 DUP3 DUP6 ADD PUSH2 0x1B1B JUMP JUMPDEST PUSH1 0x40 DUP4 ADD MSTORE POP PUSH1 0x60 PUSH2 0x1A13 DUP5 DUP3 DUP6 ADD PUSH2 0x1B1B JUMP JUMPDEST PUSH1 0x60 DUP4 ADD MSTORE POP PUSH1 0x80 PUSH2 0x1A27 DUP5 DUP3 DUP6 ADD PUSH2 0x1B1B JUMP JUMPDEST PUSH1 0x80 DUP4 ADD MSTORE POP PUSH1 0xA0 PUSH2 0x1A3B DUP5 DUP3 DUP6 ADD PUSH2 0x18D8 JUMP JUMPDEST PUSH1 0xA0 DUP4 ADD MSTORE POP PUSH1 0xC0 PUSH2 0x1A4F DUP5 DUP3 DUP6 ADD PUSH2 0x1B06 JUMP JUMPDEST PUSH1 0xC0 DUP4 ADD MSTORE POP PUSH1 0xE0 PUSH2 0x1A63 DUP5 DUP3 DUP6 ADD PUSH2 0x18D8 JUMP JUMPDEST PUSH1 0xE0 DUP4 ADD MSTORE POP PUSH2 0x100 PUSH2 0x1A78 DUP5 DUP3 DUP6 ADD PUSH2 0x1ADC JUMP JUMPDEST PUSH2 0x100 DUP4 ADD MSTORE POP PUSH2 0x120 PUSH2 0x1A8E DUP5 DUP3 DUP6 ADD PUSH2 0x18ED JUMP JUMPDEST PUSH2 0x120 DUP4 ADD MSTORE POP PUSH2 0x160 PUSH2 0x1AA4 DUP5 DUP3 DUP6 ADD PUSH2 0x193A JUMP JUMPDEST PUSH2 0x140 DUP4 ADD MSTORE POP PUSH2 0x1E0 PUSH2 0x1ABA DUP5 DUP3 DUP6 ADD PUSH2 0x1B06 JUMP JUMPDEST PUSH2 0x160 DUP4 ADD MSTORE POP SWAP3 SWAP2 POP POP JUMP JUMPDEST PUSH1 0x0 DUP2 CALLDATALOAD SWAP1 POP PUSH2 0x1AD6 DUP2 PUSH2 0x2CB0 JUMP JUMPDEST SWAP3 SWAP2 POP POP JUMP JUMPDEST PUSH1 0x0 DUP2 MLOAD SWAP1 POP PUSH2 0x1AEB DUP2 PUSH2 0x2CB0 JUMP JUMPDEST SWAP3 SWAP2 POP POP JUMP JUMPDEST PUSH1 0x0 DUP2 CALLDATALOAD SWAP1 POP PUSH2 0x1B00 DUP2 PUSH2 0x2CC7 JUMP JUMPDEST SWAP3 SWAP2 POP POP JUMP JUMPDEST PUSH1 0x0 DUP2 MLOAD SWAP1 POP PUSH2 0x1B15 DUP2 PUSH2 0x2CC7 JUMP JUMPDEST SWAP3 SWAP2 POP POP JUMP JUMPDEST PUSH1 0x0 DUP2 MLOAD SWAP1 POP PUSH2 0x1B2A DUP2 PUSH2 0x2CDE JUMP JUMPDEST SWAP3 SWAP2 POP POP JUMP JUMPDEST PUSH1 0x0 PUSH1 0xA0 DUP3 DUP5 SUB SLT ISZERO PUSH2 0x1B46 JUMPI PUSH2 0x1B45 PUSH2 0x2AA9 JUMP JUMPDEST JUMPDEST PUSH1 0x0 PUSH2 0x1B54 DUP5 DUP3 DUP6 ADD PUSH2 0x1965 JUMP JUMPDEST SWAP2 POP POP SWAP3 SWAP2 POP POP JUMP JUMPDEST PUSH1 0x0 PUSH2 0x200 DUP3 DUP5 SUB SLT ISZERO PUSH2 0x1B74 JUMPI PUSH2 0x1B73 PUSH2 0x2AA9 JUMP JUMPDEST JUMPDEST PUSH1 0x0 PUSH2 0x1B82 DUP5 DUP3 DUP6 ADD PUSH2 0x19A5 JUMP JUMPDEST SWAP2 POP POP SWAP3 SWAP2 POP POP JUMP JUMPDEST PUSH1 0x0 PUSH1 0x20 DUP3 DUP5 SUB SLT ISZERO PUSH2 0x1BA1 JUMPI PUSH2 0x1BA0 PUSH2 0x2AA9 JUMP JUMPDEST JUMPDEST PUSH1 0x0 PUSH2 0x1BAF DUP5 DUP3 DUP6 ADD PUSH2 0x1AC7 JUMP JUMPDEST SWAP2 POP POP SWAP3 SWAP2 POP POP JUMP JUMPDEST PUSH1 0x0 PUSH1 0x20 DUP3 DUP5 SUB SLT ISZERO PUSH2 0x1BCE JUMPI PUSH2 0x1BCD PUSH2 0x2AA9 JUMP JUMPDEST JUMPDEST PUSH1 0x0 PUSH2 0x1BDC DUP5 DUP3 DUP6 ADD PUSH2 0x1AF1 JUMP JUMPDEST SWAP2 POP POP SWAP3 SWAP2 POP POP JUMP JUMPDEST PUSH1 0x0 DUP1 PUSH1 0x60 DUP4 DUP6 SUB SLT ISZERO PUSH2 0x1BFC JUMPI PUSH2 0x1BFB PUSH2 0x2AA9 JUMP JUMPDEST JUMPDEST PUSH1 0x0 PUSH2 0x1C0A DUP6 DUP3 DUP7 ADD PUSH2 0x1AF1 JUMP JUMPDEST SWAP3 POP POP PUSH1 0x20 PUSH2 0x1C1B DUP6 DUP3 DUP7 ADD PUSH2 0x1918 JUMP JUMPDEST SWAP2 POP POP SWAP3 POP SWAP3 SWAP1 POP JUMP JUMPDEST PUSH1 0x0 DUP1 PUSH1 0x40 DUP4 DUP6 SUB SLT ISZERO PUSH2 0x1C3C JUMPI PUSH2 0x1C3B PUSH2 0x2AA9 JUMP JUMPDEST JUMPDEST PUSH1 0x0 PUSH2 0x1C4A DUP6 DUP3 DUP7 ADD PUSH2 0x1AF1 JUMP JUMPDEST SWAP3 POP POP PUSH1 0x20 PUSH2 0x1C5B DUP6 DUP3 DUP7 ADD PUSH2 0x1AF1 JUMP JUMPDEST SWAP2 POP POP SWAP3 POP SWAP3 SWAP1 POP JUMP JUMPDEST PUSH1 0x0 PUSH2 0x1C71 DUP4 DUP4 PUSH2 0x1FB8 JUMP JUMPDEST PUSH1 0x20 DUP4 ADD SWAP1 POP SWAP3 SWAP2 POP POP JUMP JUMPDEST PUSH1 0x0 PUSH2 0x1C89 DUP4 DUP4 PUSH2 0x226D JUMP JUMPDEST PUSH1 0x20 DUP4 ADD SWAP1 POP SWAP3 SWAP2 POP POP JUMP JUMPDEST PUSH1 0x0 PUSH2 0x1CA1 DUP4 DUP4 PUSH2 0x228B JUMP JUMPDEST PUSH1 0x20 DUP4 ADD SWAP1 POP SWAP3 SWAP2 POP POP JUMP JUMPDEST PUSH2 0x1CB6 DUP2 PUSH2 0x28BC JUMP JUMPDEST DUP3 MSTORE POP POP JUMP JUMPDEST PUSH2 0x1CC5 DUP2 PUSH2 0x28BC JUMP JUMPDEST DUP3 MSTORE POP POP JUMP JUMPDEST PUSH2 0x1CD4 DUP2 PUSH2 0x26E3 JUMP JUMPDEST PUSH2 0x1CDE DUP2 DUP5 PUSH2 0x275B JUMP JUMPDEST SWAP3 POP PUSH2 0x1CE9 DUP3 PUSH2 0x26B1 JUMP JUMPDEST DUP1 PUSH1 0x0 JUMPDEST DUP4 DUP2 LT ISZERO PUSH2 0x1D1A JUMPI DUP2 MLOAD PUSH2 0x1D01 DUP8 DUP3 PUSH2 0x1C65 JUMP JUMPDEST SWAP7 POP PUSH2 0x1D0C DUP4 PUSH2 0x271A JUMP JUMPDEST SWAP3 POP POP PUSH1 0x1 DUP2 ADD SWAP1 POP PUSH2 0x1CED JUMP JUMPDEST POP POP POP POP POP POP JUMP JUMPDEST PUSH2 0x1D2B DUP2 PUSH2 0x26E3 JUMP JUMPDEST PUSH2 0x1D35 DUP2 DUP5 PUSH2 0x2766 JUMP JUMPDEST SWAP3 POP PUSH2 0x1D40 DUP3 PUSH2 0x26B1 JUMP JUMPDEST DUP1 PUSH1 0x0 JUMPDEST DUP4 DUP2 LT ISZERO PUSH2 0x1D71 JUMPI DUP2 MLOAD PUSH2 0x1D58 DUP8 DUP3 PUSH2 0x1C65 JUMP JUMPDEST SWAP7 POP PUSH2 0x1D63 DUP4 PUSH2 0x271A JUMP JUMPDEST SWAP3 POP POP PUSH1 0x1 DUP2 ADD SWAP1 POP PUSH2 0x1D44 JUMP JUMPDEST POP POP POP POP POP POP JUMP JUMPDEST PUSH2 0x1D82 DUP2 PUSH2 0x26EE JUMP JUMPDEST PUSH2 0x1D8C DUP2 DUP5 PUSH2 0x277C JUMP JUMPDEST SWAP3 POP PUSH2 0x1D97 DUP3 PUSH2 0x26BB JUMP JUMPDEST DUP1 PUSH1 0x0 JUMPDEST DUP4 DUP2 LT ISZERO PUSH2 0x1DD0 JUMPI PUSH2 0x1DAD DUP3 DUP5 PUSH2 0x27B9 JUMP JUMPDEST PUSH2 0x1DB7 DUP8 DUP3 PUSH2 0x1C7D JUMP JUMPDEST SWAP7 POP PUSH2 0x1DC2 DUP4 PUSH2 0x2727 JUMP JUMPDEST SWAP3 POP POP PUSH1 0x1 DUP2 ADD SWAP1 POP PUSH2 0x1D9B JUMP JUMPDEST POP POP POP POP POP POP JUMP JUMPDEST PUSH2 0x1DE1 DUP2 PUSH2 0x26F9 JUMP JUMPDEST PUSH2 0x1DEB DUP2 DUP5 PUSH2 0x2771 JUMP JUMPDEST SWAP3 POP PUSH2 0x1DF6 DUP3 PUSH2 0x26C5 JUMP JUMPDEST DUP1 PUSH1 0x0 JUMPDEST DUP4 DUP2 LT ISZERO PUSH2 0x1E27 JUMPI DUP2 MLOAD PUSH2 0x1E0E DUP8 DUP3 PUSH2 0x1C7D JUMP JUMPDEST SWAP7 POP PUSH2 0x1E19 DUP4 PUSH2 0x2734 JUMP JUMPDEST SWAP3 POP POP PUSH1 0x1 DUP2 ADD SWAP1 POP PUSH2 0x1DFA JUMP JUMPDEST POP POP POP POP POP POP JUMP JUMPDEST PUSH2 0x1E38 DUP2 PUSH2 0x26F9 JUMP JUMPDEST PUSH2 0x1E42 DUP2 DUP5 PUSH2 0x277C JUMP JUMPDEST SWAP3 POP PUSH2 0x1E4D DUP3 PUSH2 0x26C5 JUMP JUMPDEST DUP1 PUSH1 0x0 JUMPDEST DUP4 DUP2 LT ISZERO PUSH2 0x1E7E JUMPI DUP2 MLOAD PUSH2 0x1E65 DUP8 DUP3 PUSH2 0x1C7D JUMP JUMPDEST SWAP7 POP PUSH2 0x1E70 DUP4 PUSH2 0x2734 JUMP JUMPDEST SWAP3 POP POP PUSH1 0x1 DUP2 ADD SWAP1 POP PUSH2 0x1E51 JUMP JUMPDEST POP POP POP POP POP POP JUMP JUMPDEST PUSH2 0x1E8F DUP2 PUSH2 0x2704 JUMP JUMPDEST PUSH2 0x1E99 DUP2 DUP5 PUSH2 0x2787 JUMP JUMPDEST SWAP3 POP PUSH2 0x1EA4 DUP3 PUSH2 0x26CF JUMP JUMPDEST DUP1 PUSH1 0x0 JUMPDEST DUP4 DUP2 LT ISZERO PUSH2 0x1ED5 JUMPI DUP2 MLOAD PUSH2 0x1EBC DUP8 DUP3 PUSH2 0x1C7D JUMP JUMPDEST SWAP7 POP PUSH2 0x1EC7 DUP4 PUSH2 0x2741 JUMP JUMPDEST SWAP3 POP POP PUSH1 0x1 DUP2 ADD SWAP1 POP PUSH2 0x1EA8 JUMP JUMPDEST POP POP POP POP POP POP JUMP JUMPDEST PUSH2 0x1EE6 DUP2 PUSH2 0x2704 JUMP JUMPDEST PUSH2 0x1EF0 DUP2 DUP5 PUSH2 0x2792 JUMP JUMPDEST SWAP3 POP PUSH2 0x1EFB DUP3 PUSH2 0x26CF JUMP JUMPDEST DUP1 PUSH1 0x0 JUMPDEST DUP4 DUP2 LT ISZERO PUSH2 0x1F2C JUMPI DUP2 MLOAD PUSH2 0x1F13 DUP8 DUP3 PUSH2 0x1C7D JUMP JUMPDEST SWAP7 POP PUSH2 0x1F1E DUP4 PUSH2 0x2741 JUMP JUMPDEST SWAP3 POP POP PUSH1 0x1 DUP2 ADD SWAP1 POP PUSH2 0x1EFF JUMP JUMPDEST POP POP POP POP POP POP JUMP JUMPDEST PUSH2 0x1F3D DUP2 PUSH2 0x270F JUMP JUMPDEST PUSH2 0x1F47 DUP2 DUP5 PUSH2 0x279D JUMP JUMPDEST SWAP3 POP PUSH2 0x1F52 DUP3 PUSH2 0x26D9 JUMP JUMPDEST DUP1 PUSH1 0x0 JUMPDEST DUP4 DUP2 LT ISZERO PUSH2 0x1F83 JUMPI DUP2 MLOAD PUSH2 0x1F6A DUP8 DUP3 PUSH2 0x1C95 JUMP JUMPDEST SWAP7 POP PUSH2 0x1F75 DUP4 PUSH2 0x274E JUMP JUMPDEST SWAP3 POP POP PUSH1 0x1 DUP2 ADD SWAP1 POP PUSH2 0x1F56 JUMP JUMPDEST POP POP POP POP POP POP JUMP JUMPDEST PUSH2 0x1F94 DUP2 PUSH2 0x2927 JUMP JUMPDEST DUP3 MSTORE POP POP JUMP JUMPDEST PUSH2 0x1FA3 DUP2 PUSH2 0x2939 JUMP JUMPDEST DUP3 MSTORE POP POP JUMP JUMPDEST PUSH2 0x1FB2 DUP2 PUSH2 0x294B JUMP JUMPDEST DUP3 MSTORE POP POP JUMP JUMPDEST PUSH2 0x1FC1 DUP2 PUSH2 0x28CE JUMP JUMPDEST DUP3 MSTORE POP POP JUMP JUMPDEST PUSH1 0x0 PUSH2 0x1FD4 PUSH1 0x5 DUP4 PUSH2 0x27A8 JUMP JUMPDEST SWAP2 POP PUSH2 0x1FDF DUP3 PUSH2 0x2ABF JUMP JUMPDEST PUSH1 0x20 DUP3 ADD SWAP1 POP SWAP2 SWAP1 POP JUMP JUMPDEST PUSH1 0x0 PUSH2 0x1FF7 PUSH1 0x5 DUP4 PUSH2 0x27A8 JUMP JUMPDEST SWAP2 POP PUSH2 0x2002 DUP3 PUSH2 0x2AE8 JUMP JUMPDEST PUSH1 0x20 DUP3 ADD SWAP1 POP SWAP2 SWAP1 POP JUMP JUMPDEST PUSH1 0x0 PUSH2 0x201A PUSH1 0x5 DUP4 PUSH2 0x27A8 JUMP JUMPDEST SWAP2 POP PUSH2 0x2025 DUP3 PUSH2 0x2B11 JUMP JUMPDEST PUSH1 0x20 DUP3 ADD SWAP1 POP SWAP2 SWAP1 POP JUMP JUMPDEST PUSH1 0x0 PUSH2 0x203D PUSH1 0x5 DUP4 PUSH2 0x27A8 JUMP JUMPDEST SWAP2 POP PUSH2 0x2048 DUP3 PUSH2 0x2B3A JUMP JUMPDEST PUSH1 0x20 DUP3 ADD SWAP1 POP SWAP2 SWAP1 POP JUMP JUMPDEST PUSH1 0x0 PUSH2 0x2060 PUSH1 0x5 DUP4 PUSH2 0x27A8 JUMP JUMPDEST SWAP2 POP PUSH2 0x206B DUP3 PUSH2 0x2B63 JUMP JUMPDEST PUSH1 0x20 DUP3 ADD SWAP1 POP SWAP2 SWAP1 POP JUMP JUMPDEST PUSH1 0x0 PUSH2 0x2083 PUSH1 0x5 DUP4 PUSH2 0x27A8 JUMP JUMPDEST SWAP2 POP PUSH2 0x208E DUP3 PUSH2 0x2B8C JUMP JUMPDEST PUSH1 0x20 DUP3 ADD SWAP1 POP SWAP2 SWAP1 POP JUMP JUMPDEST PUSH1 0x0 PUSH2 0x20A6 PUSH1 0x5 DUP4 PUSH2 0x27A8 JUMP JUMPDEST SWAP2 POP PUSH2 0x20B1 DUP3 PUSH2 0x2BB5 JUMP JUMPDEST PUSH1 0x20 DUP3 ADD SWAP1 POP SWAP2 SWAP1 POP JUMP JUMPDEST PUSH1 0x0 PUSH2 0x20C9 PUSH1 0x5 DUP4 PUSH2 0x27A8 JUMP JUMPDEST SWAP2 POP PUSH2 0x20D4 DUP3 PUSH2 0x2BDE JUMP JUMPDEST PUSH1 0x20 DUP3 ADD SWAP1 POP SWAP2 SWAP1 POP JUMP JUMPDEST PUSH1 0x0 PUSH2 0x20EC PUSH1 0x1F DUP4 PUSH2 0x27A8 JUMP JUMPDEST SWAP2 POP PUSH2 0x20F7 DUP3 PUSH2 0x2C07 JUMP JUMPDEST PUSH1 0x20 DUP3 ADD SWAP1 POP SWAP2 SWAP1 POP JUMP JUMPDEST PUSH1 0x0 PUSH2 0x210F PUSH1 0x5 DUP4 PUSH2 0x27A8 JUMP JUMPDEST SWAP2 POP PUSH2 0x211A DUP3 PUSH2 0x2C30 JUMP JUMPDEST PUSH1 0x20 DUP3 ADD SWAP1 POP SWAP2 SWAP1 POP JUMP JUMPDEST PUSH1 0x0 PUSH2 0x2132 PUSH1 0x5 DUP4 PUSH2 0x27A8 JUMP JUMPDEST SWAP2 POP PUSH2 0x213D DUP3 PUSH2 0x2C59 JUMP JUMPDEST PUSH1 0x20 DUP3 ADD SWAP1 POP SWAP2 SWAP1 POP JUMP JUMPDEST PUSH2 0x200 DUP3 ADD PUSH1 0x0 DUP3 ADD MLOAD PUSH2 0x215F PUSH1 0x0 DUP6 ADD DUP3 PUSH2 0x1CAD JUMP JUMPDEST POP PUSH1 0x20 DUP3 ADD MLOAD PUSH2 0x2172 PUSH1 0x20 DUP6 ADD DUP3 PUSH2 0x1CAD JUMP JUMPDEST POP PUSH1 0x40 DUP3 ADD MLOAD PUSH2 0x2185 PUSH1 0x40 DUP6 ADD DUP3 PUSH2 0x22A9 JUMP JUMPDEST POP PUSH1 0x60 DUP3 ADD MLOAD PUSH2 0x2198 PUSH1 0x60 DUP6 ADD DUP3 PUSH2 0x22A9 JUMP JUMPDEST POP PUSH1 0x80 DUP3 ADD MLOAD PUSH2 0x21AB PUSH1 0x80 DUP6 ADD DUP3 PUSH2 0x22A9 JUMP JUMPDEST POP PUSH1 0xA0 DUP3 ADD MLOAD PUSH2 0x21BE PUSH1 0xA0 DUP6 ADD DUP3 PUSH2 0x1CAD JUMP JUMPDEST POP PUSH1 0xC0 DUP3 ADD MLOAD PUSH2 0x21D1 PUSH1 0xC0 DUP6 ADD DUP3 PUSH2 0x228B JUMP JUMPDEST POP PUSH1 0xE0 DUP3 ADD MLOAD PUSH2 0x21E4 PUSH1 0xE0 DUP6 ADD DUP3 PUSH2 0x1CAD JUMP JUMPDEST POP PUSH2 0x100 DUP3 ADD MLOAD PUSH2 0x21F9 PUSH2 0x100 DUP6 ADD DUP3 PUSH2 0x226D JUMP JUMPDEST POP PUSH2 0x120 DUP3 ADD MLOAD PUSH2 0x220E PUSH2 0x120 DUP6 ADD DUP3 PUSH2 0x1CCB JUMP JUMPDEST POP PUSH2 0x140 DUP3 ADD MLOAD PUSH2 0x2223 PUSH2 0x160 DUP6 ADD DUP3 PUSH2 0x1E86 JUMP JUMPDEST POP PUSH2 0x160 DUP3 ADD MLOAD PUSH2 0x2238 PUSH2 0x1E0 DUP6 ADD DUP3 PUSH2 0x228B JUMP JUMPDEST POP POP POP POP JUMP JUMPDEST PUSH1 0x60 DUP3 ADD PUSH1 0x0 DUP3 ADD MLOAD PUSH2 0x2254 PUSH1 0x0 DUP6 ADD DUP3 PUSH2 0x1CAD JUMP JUMPDEST POP PUSH1 0x20 DUP3 ADD MLOAD PUSH2 0x2267 PUSH1 0x20 DUP6 ADD DUP3 PUSH2 0x1DD8 JUMP JUMPDEST POP POP POP POP JUMP JUMPDEST PUSH2 0x2276 DUP2 PUSH2 0x28DB JUMP JUMPDEST DUP3 MSTORE POP POP JUMP JUMPDEST PUSH2 0x2285 DUP2 PUSH2 0x28DB JUMP JUMPDEST DUP3 MSTORE POP POP JUMP JUMPDEST PUSH2 0x2294 DUP2 PUSH2 0x2909 JUMP JUMPDEST DUP3 MSTORE POP POP JUMP JUMPDEST PUSH2 0x22A3 DUP2 PUSH2 0x2909 JUMP JUMPDEST DUP3 MSTORE POP POP JUMP JUMPDEST PUSH2 0x22B2 DUP2 PUSH2 0x2913 JUMP JUMPDEST DUP3 MSTORE POP POP JUMP JUMPDEST PUSH2 0x22C1 DUP2 PUSH2 0x2913 JUMP JUMPDEST DUP3 MSTORE POP POP JUMP JUMPDEST PUSH1 0x0 PUSH1 0x20 DUP3 ADD SWAP1 POP PUSH2 0x22DC PUSH1 0x0 DUP4 ADD DUP5 PUSH2 0x1CBC JUMP JUMPDEST SWAP3 SWAP2 POP POP JUMP JUMPDEST PUSH1 0x0 PUSH1 0x20 DUP3 ADD SWAP1 POP PUSH2 0x22F7 PUSH1 0x0 DUP4 ADD DUP5 PUSH2 0x1F8B JUMP JUMPDEST SWAP3 SWAP2 POP POP JUMP JUMPDEST PUSH1 0x0 PUSH1 0x20 DUP3 ADD SWAP1 POP PUSH2 0x2312 PUSH1 0x0 DUP4 ADD DUP5 PUSH2 0x1F9A JUMP JUMPDEST SWAP3 SWAP2 POP POP JUMP JUMPDEST PUSH1 0x0 PUSH1 0x20 DUP3 ADD SWAP1 POP PUSH2 0x232D PUSH1 0x0 DUP4 ADD DUP5 PUSH2 0x1FA9 JUMP JUMPDEST SWAP3 SWAP2 POP POP JUMP JUMPDEST PUSH1 0x0 PUSH1 0x20 DUP3 ADD SWAP1 POP DUP2 DUP2 SUB PUSH1 0x0 DUP4 ADD MSTORE PUSH2 0x234C DUP2 PUSH2 0x1FC7 JUMP JUMPDEST SWAP1 POP SWAP2 SWAP1 POP JUMP JUMPDEST PUSH1 0x0 PUSH1 0x20 DUP3 ADD SWAP1 POP DUP2 DUP2 SUB PUSH1 0x0 DUP4 ADD MSTORE PUSH2 0x236C DUP2 PUSH2 0x1FEA JUMP JUMPDEST SWAP1 POP SWAP2 SWAP1 POP JUMP JUMPDEST PUSH1 0x0 PUSH1 0x20 DUP3 ADD SWAP1 POP DUP2 DUP2 SUB PUSH1 0x0 DUP4 ADD MSTORE PUSH2 0x238C DUP2 PUSH2 0x200D JUMP JUMPDEST SWAP1 POP SWAP2 SWAP1 POP JUMP JUMPDEST PUSH1 0x0 PUSH1 0x20 DUP3 ADD SWAP1 POP DUP2 DUP2 SUB PUSH1 0x0 DUP4 ADD MSTORE PUSH2 0x23AC DUP2 PUSH2 0x2030 JUMP JUMPDEST SWAP1 POP SWAP2 SWAP1 POP JUMP JUMPDEST PUSH1 0x0 PUSH1 0x20 DUP3 ADD SWAP1 POP DUP2 DUP2 SUB PUSH1 0x0 DUP4 ADD MSTORE PUSH2 0x23CC DUP2 PUSH2 0x2053 JUMP JUMPDEST SWAP1 POP SWAP2 SWAP1 POP JUMP JUMPDEST PUSH1 0x0 PUSH1 0x20 DUP3 ADD SWAP1 POP DUP2 DUP2 SUB PUSH1 0x0 DUP4 ADD MSTORE PUSH2 0x23EC DUP2 PUSH2 0x2076 JUMP JUMPDEST SWAP1 POP SWAP2 SWAP1 POP JUMP JUMPDEST PUSH1 0x0 PUSH1 0x20 DUP3 ADD SWAP1 POP DUP2 DUP2 SUB PUSH1 0x0 DUP4 ADD MSTORE PUSH2 0x240C DUP2 PUSH2 0x2099 JUMP JUMPDEST SWAP1 POP SWAP2 SWAP1 POP JUMP JUMPDEST PUSH1 0x0 PUSH1 0x20 DUP3 ADD SWAP1 POP DUP2 DUP2 SUB PUSH1 0x0 DUP4 ADD MSTORE PUSH2 0x242C DUP2 PUSH2 0x20BC JUMP JUMPDEST SWAP1 POP SWAP2 SWAP1 POP JUMP JUMPDEST PUSH1 0x0 PUSH1 0x20 DUP3 ADD SWAP1 POP DUP2 DUP2 SUB PUSH1 0x0 DUP4 ADD MSTORE PUSH2 0x244C DUP2 PUSH2 0x20DF JUMP JUMPDEST SWAP1 POP SWAP2 SWAP1 POP JUMP JUMPDEST PUSH1 0x0 PUSH1 0x20 DUP3 ADD SWAP1 POP DUP2 DUP2 SUB PUSH1 0x0 DUP4 ADD MSTORE PUSH2 0x246C DUP2 PUSH2 0x2102 JUMP JUMPDEST SWAP1 POP SWAP2 SWAP1 POP JUMP JUMPDEST PUSH1 0x0 PUSH1 0x20 DUP3 ADD SWAP1 POP DUP2 DUP2 SUB PUSH1 0x0 DUP4 ADD MSTORE PUSH2 0x248C DUP2 PUSH2 0x2125 JUMP JUMPDEST SWAP1 POP SWAP2 SWAP1 POP JUMP JUMPDEST PUSH1 0x0 PUSH2 0x300 DUP3 ADD SWAP1 POP PUSH2 0x24A9 PUSH1 0x0 DUP4 ADD DUP8 PUSH2 0x2148 JUMP JUMPDEST PUSH2 0x24B7 PUSH2 0x200 DUP4 ADD DUP7 PUSH2 0x1E2F JUMP JUMPDEST PUSH2 0x24C5 PUSH2 0x240 DUP4 ADD DUP6 PUSH2 0x229A JUMP JUMPDEST PUSH2 0x24D3 PUSH2 0x260 DUP4 ADD DUP5 PUSH2 0x1F34 JUMP JUMPDEST SWAP6 SWAP5 POP POP POP POP POP JUMP JUMPDEST PUSH1 0x0 PUSH1 0x60 DUP3 ADD SWAP1 POP PUSH2 0x24F1 PUSH1 0x0 DUP4 ADD DUP5 PUSH2 0x223E JUMP JUMPDEST SWAP3 SWAP2 POP POP JUMP JUMPDEST PUSH1 0x0 PUSH1 0x20 DUP3 ADD SWAP1 POP PUSH2 0x250C PUSH1 0x0 DUP4 ADD DUP5 PUSH2 0x227C JUMP JUMPDEST SWAP3 SWAP2 POP POP JUMP JUMPDEST PUSH1 0x0 PUSH1 0x20 DUP3 ADD SWAP1 POP PUSH2 0x2527 PUSH1 0x0 DUP4 ADD DUP5 PUSH2 0x229A JUMP JUMPDEST SWAP3 SWAP2 POP POP JUMP JUMPDEST PUSH1 0x0 PUSH1 0x80 DUP3 ADD SWAP1 POP PUSH2 0x2542 PUSH1 0x0 DUP4 ADD DUP7 PUSH2 0x229A JUMP JUMPDEST PUSH2 0x254F PUSH1 0x20 DUP4 ADD DUP6 PUSH2 0x1D79 JUMP JUMPDEST PUSH2 0x255C PUSH1 0x60 DUP4 ADD DUP5 PUSH2 0x1CBC JUMP JUMPDEST SWAP5 SWAP4 POP POP POP POP JUMP JUMPDEST PUSH1 0x0 PUSH1 0xE0 DUP3 ADD SWAP1 POP PUSH2 0x2579 PUSH1 0x0 DUP4 ADD DUP7 PUSH2 0x229A JUMP JUMPDEST PUSH2 0x2586 PUSH1 0x20 DUP4 ADD DUP6 PUSH2 0x1EDD JUMP JUMPDEST PUSH2 0x2593 PUSH1 0xA0 DUP4 ADD DUP5 PUSH2 0x1D22 JUMP JUMPDEST SWAP5 SWAP4 POP POP POP POP JUMP JUMPDEST PUSH1 0x0 PUSH2 0x120 DUP3 ADD SWAP1 POP PUSH2 0x25B1 PUSH1 0x0 DUP4 ADD DUP9 PUSH2 0x229A JUMP JUMPDEST PUSH2 0x25BE PUSH1 0x20 DUP4 ADD DUP8 PUSH2 0x1EDD JUMP JUMPDEST PUSH2 0x25CB PUSH1 0xA0 DUP4 ADD DUP7 PUSH2 0x1D22 JUMP JUMPDEST PUSH2 0x25D8 PUSH1 0xE0 DUP4 ADD DUP6 PUSH2 0x22B8 JUMP JUMPDEST PUSH2 0x25E6 PUSH2 0x100 DUP4 ADD DUP5 PUSH2 0x22B8 JUMP JUMPDEST SWAP7 SWAP6 POP POP POP POP POP POP JUMP JUMPDEST PUSH1 0x0 PUSH2 0x220 DUP3 ADD SWAP1 POP PUSH2 0x2606 PUSH1 0x0 DUP4 ADD DUP6 PUSH2 0x229A JUMP JUMPDEST PUSH2 0x2613 PUSH1 0x20 DUP4 ADD DUP5 PUSH2 0x2148 JUMP JUMPDEST SWAP4 SWAP3 POP POP POP JUMP JUMPDEST PUSH1 0x0 PUSH2 0x2624 PUSH2 0x2635 JUMP JUMPDEST SWAP1 POP PUSH2 0x2630 DUP3 DUP3 PUSH2 0x2993 JUMP JUMPDEST SWAP2 SWAP1 POP JUMP JUMPDEST PUSH1 0x0 PUSH1 0x40 MLOAD SWAP1 POP SWAP1 JUMP JUMPDEST PUSH1 0x0 PUSH8 0xFFFFFFFFFFFFFFFF DUP3 GT ISZERO PUSH2 0x265A JUMPI PUSH2 0x2659 PUSH2 0x2A6B JUMP JUMPDEST JUMPDEST PUSH1 0x20 DUP3 MUL SWAP1 POP SWAP2 SWAP1 POP JUMP JUMPDEST PUSH1 0x0 PUSH8 0xFFFFFFFFFFFFFFFF DUP3 GT ISZERO PUSH2 0x2680 JUMPI PUSH2 0x267F PUSH2 0x2A6B JUMP JUMPDEST JUMPDEST PUSH1 0x20 DUP3 MUL SWAP1 POP SWAP2 SWAP1 POP JUMP JUMPDEST PUSH1 0x0 PUSH8 0xFFFFFFFFFFFFFFFF DUP3 GT ISZERO PUSH2 0x26A6 JUMPI PUSH2 0x26A5 PUSH2 0x2A6B JUMP JUMPDEST JUMPDEST PUSH1 0x20 DUP3 MUL SWAP1 POP SWAP2 SWAP1 POP JUMP JUMPDEST PUSH1 0x0 DUP2 SWAP1 POP SWAP2 SWAP1 POP JUMP JUMPDEST PUSH1 0x0 DUP2 SWAP1 POP SWAP2 SWAP1 POP JUMP JUMPDEST PUSH1 0x0 DUP2 SWAP1 POP SWAP2 SWAP1 POP JUMP JUMPDEST PUSH1 0x0 DUP2 SWAP1 POP SWAP2 SWAP1 POP JUMP JUMPDEST PUSH1 0x0 DUP2 SWAP1 POP SWAP2 SWAP1 POP JUMP JUMPDEST PUSH1 0x0 PUSH1 0x2 SWAP1 POP SWAP2 SWAP1 POP JUMP JUMPDEST PUSH1 0x0 PUSH1 0x2 SWAP1 POP SWAP2 SWAP1 POP JUMP JUMPDEST PUSH1 0x0 PUSH1 0x2 SWAP1 POP SWAP2 SWAP1 POP JUMP JUMPDEST PUSH1 0x0 PUSH1 0x4 SWAP1 POP SWAP2 SWAP1 POP JUMP JUMPDEST PUSH1 0x0 PUSH1 0x5 SWAP1 POP SWAP2 SWAP1 POP JUMP JUMPDEST PUSH1 0x0 PUSH1 0x20 DUP3 ADD SWAP1 POP SWAP2 SWAP1 POP JUMP JUMPDEST PUSH1 0x0 PUSH1 0x20 DUP3 ADD SWAP1 POP SWAP2 SWAP1 POP JUMP JUMPDEST PUSH1 0x0 PUSH1 0x20 DUP3 ADD SWAP1 POP SWAP2 SWAP1 POP JUMP JUMPDEST PUSH1 0x0 PUSH1 0x20 DUP3 ADD SWAP1 POP SWAP2 SWAP1 POP JUMP JUMPDEST PUSH1 0x0 PUSH1 0x20 DUP3 ADD SWAP1 POP SWAP2 SWAP1 POP JUMP JUMPDEST PUSH1 0x0 DUP2 SWAP1 POP SWAP3 SWAP2 POP POP JUMP JUMPDEST PUSH1 0x0 DUP2 SWAP1 POP SWAP3 SWAP2 POP POP JUMP JUMPDEST PUSH1 0x0 DUP2 SWAP1 POP SWAP3 SWAP2 POP POP JUMP JUMPDEST PUSH1 0x0 DUP2 SWAP1 POP SWAP3 SWAP2 POP POP JUMP JUMPDEST PUSH1 0x0 DUP2 SWAP1 POP SWAP3 SWAP2 POP POP JUMP JUMPDEST PUSH1 0x0 DUP2 SWAP1 POP SWAP3 SWAP2 POP POP JUMP JUMPDEST PUSH1 0x0 DUP2 SWAP1 POP SWAP3 SWAP2 POP POP JUMP JUMPDEST PUSH1 0x0 DUP3 DUP3 MSTORE PUSH1 0x20 DUP3 ADD SWAP1 POP SWAP3 SWAP2 POP POP JUMP JUMPDEST PUSH1 0x0 PUSH2 0x27C8 PUSH1 0x20 DUP5 ADD DUP5 PUSH2 0x1AC7 JUMP JUMPDEST SWAP1 POP SWAP3 SWAP2 POP POP JUMP JUMPDEST PUSH1 0x0 PUSH2 0x27DB DUP3 PUSH2 0x28CE JUMP JUMPDEST SWAP2 POP PUSH2 0x27E6 DUP4 PUSH2 0x28CE JUMP JUMPDEST SWAP3 POP DUP2 PUSH2 0x7FFF SUB DUP4 SGT PUSH1 0x0 DUP4 SLT ISZERO AND ISZERO PUSH2 0x2803 JUMPI PUSH2 0x2802 PUSH2 0x2A0D JUMP JUMPDEST JUMPDEST DUP2 PUSH32 0xFFFFFFFFFFFFFFFFFFFFFFFFFFFFFFFFFFFFFFFFFFFFFFFFFFFFFFFFFFFF8000 SUB DUP4 SLT PUSH1 0x0 DUP4 SLT AND ISZERO PUSH2 0x283B JUMPI PUSH2 0x283A PUSH2 0x2A0D JUMP JUMPDEST JUMPDEST DUP3 DUP3 ADD SWAP1 POP SWAP3 SWAP2 POP POP JUMP JUMPDEST PUSH1 0x0 PUSH2 0x2851 DUP3 PUSH2 0x28DB JUMP JUMPDEST SWAP2 POP PUSH2 0x285C DUP4 PUSH2 0x28DB JUMP JUMPDEST SWAP3 POP DUP3 PUSH2 0xFFFF SUB DUP3 GT ISZERO PUSH2 0x2873 JUMPI PUSH2 0x2872 PUSH2 0x2A0D JUMP JUMPDEST JUMPDEST DUP3 DUP3 ADD SWAP1 POP SWAP3 SWAP2 POP POP JUMP JUMPDEST PUSH1 0x0 PUSH2 0x2889 DUP3 PUSH2 0x2913 JUMP JUMPDEST SWAP2 POP PUSH2 0x2894 DUP4 PUSH2 0x2913 JUMP JUMPDEST SWAP3 POP DUP3 PUSH8 0xFFFFFFFFFFFFFFFF SUB DUP3 GT ISZERO PUSH2 0x28B1 JUMPI PUSH2 0x28B0 PUSH2 0x2A0D JUMP JUMPDEST JUMPDEST DUP3 DUP3 ADD SWAP1 POP SWAP3 SWAP2 POP POP JUMP JUMPDEST PUSH1 0x0 PUSH2 0x28C7 DUP3 PUSH2 0x28E9 JUMP JUMPDEST SWAP1 POP SWAP2 SWAP1 POP JUMP JUMPDEST PUSH1 0x0 DUP2 PUSH1 0x1 SIGNEXTEND SWAP1 POP SWAP2 SWAP1 POP JUMP JUMPDEST PUSH1 0x0 PUSH2 0xFFFF DUP3 AND SWAP1 POP SWAP2 SWAP1 POP JUMP JUMPDEST PUSH1 0x0 PUSH20 0xFFFFFFFFFFFFFFFFFFFFFFFFFFFFFFFFFFFFFFFF DUP3 AND SWAP1 POP SWAP2 SWAP1 POP JUMP JUMPDEST PUSH1 0x0 DUP2 SWAP1 POP SWAP2 SWAP1 POP JUMP JUMPDEST PUSH1 0x0 PUSH8 0xFFFFFFFFFFFFFFFF DUP3 AND SWAP1 POP SWAP2 SWAP1 POP JUMP JUMPDEST PUSH1 0x0 PUSH2 0x2932 DUP3 PUSH2 0x295D JUMP JUMPDEST SWAP1 POP SWAP2 SWAP1 POP JUMP JUMPDEST PUSH1 0x0 PUSH2 0x2944 DUP3 PUSH2 0x295D JUMP JUMPDEST SWAP1 POP SWAP2 SWAP1 POP JUMP JUMPDEST PUSH1 0x0 PUSH2 0x2956 DUP3 PUSH2 0x296F JUMP JUMPDEST SWAP1 POP SWAP2 SWAP1 POP JUMP JUMPDEST PUSH1 0x0 PUSH2 0x2968 DUP3 PUSH2 0x2981 JUMP JUMPDEST SWAP1 POP SWAP2 SWAP1 POP JUMP JUMPDEST PUSH1 0x0 PUSH2 0x297A DUP3 PUSH2 0x2981 JUMP JUMPDEST SWAP1 POP SWAP2 SWAP1 POP JUMP JUMPDEST PUSH1 0x0 PUSH2 0x298C DUP3 PUSH2 0x28E9 JUMP JUMPDEST SWAP1 POP SWAP2 SWAP1 POP JUMP JUMPDEST PUSH2 0x299C DUP3 PUSH2 0x2AAE JUMP JUMPDEST DUP2 ADD DUP2 DUP2 LT PUSH8 0xFFFFFFFFFFFFFFFF DUP3 GT OR ISZERO PUSH2 0x29BB JUMPI PUSH2 0x29BA PUSH2 0x2A6B JUMP JUMPDEST JUMPDEST DUP1 PUSH1 0x40 MSTORE POP POP POP JUMP JUMPDEST PUSH1 0x0 PUSH2 0x29CF DUP3 PUSH2 0x28CE JUMP JUMPDEST SWAP2 POP PUSH32 0xFFFFFFFFFFFFFFFFFFFFFFFFFFFFFFFFFFFFFFFFFFFFFFFFFFFFFFFFFFFF8000 DUP3 EQ ISZERO PUSH2 0x2A02 JUMPI PUSH2 0x2A01 PUSH2 0x2A0D JUMP JUMPDEST JUMPDEST DUP2 PUSH1 0x0 SUB SWAP1 POP SWAP2 SWAP1 POP JUMP JUMPDEST PUSH32 0x4E487B7100000000000000000000000000000000000000000000000000000000 PUSH1 0x0 MSTORE PUSH1 0x11 PUSH1 0x4 MSTORE PUSH1 0x24 PUSH1 0x0 REVERT JUMPDEST PUSH32 0x4E487B7100000000000000000000000000000000000000000000000000000000 PUSH1 0x0 MSTORE PUSH1 0x32 PUSH1 0x4 MSTORE PUSH1 0x24 PUSH1 0x0 REVERT JUMPDEST PUSH32 0x4E487B7100000000000000000000000000000000000000000000000000000000 PUSH1 0x0 MSTORE PUSH1 0x41 PUSH1 0x4 MSTORE PUSH1 0x24 PUSH1 0x0 REVERT JUMPDEST PUSH1 0x0 DUP1 REVERT JUMPDEST PUSH1 0x0 DUP1 REVERT JUMPDEST PUSH1 0x0 DUP1 REVERT JUMPDEST PUSH1 0x0 DUP1 REVERT JUMPDEST PUSH1 0x0 PUSH1 0x1F NOT PUSH1 0x1F DUP4 ADD AND SWAP1 POP SWAP2 SWAP1 POP JUMP JUMPDEST PUSH32 0x312D303037000000000000000000000000000000000000000000000000000000 PUSH1 0x0 DUP3 ADD MSTORE POP JUMP JUMPDEST PUSH32 0x312D303139000000000000000000000000000000000000000000000000000000 PUSH1 0x0 DUP3 ADD MSTORE POP JUMP JUMPDEST PUSH32 0x312D303039000000000000000000000000000000000000000000000000000000 PUSH1 0x0 DUP3 ADD MSTORE POP JUMP JUMPDEST PUSH32 0x312D303035000000000000000000000000000000000000000000000000000000 PUSH1 0x0 DUP3 ADD MSTORE POP JUMP JUMPDEST PUSH32 0x312D303230000000000000000000000000000000000000000000000000000000 PUSH1 0x0 DUP3 ADD MSTORE POP JUMP JUMPDEST PUSH32 0x312D303136000000000000000000000000000000000000000000000000000000 PUSH1 0x0 DUP3 ADD MSTORE POP JUMP JUMPDEST PUSH32 0x312D303137000000000000000000000000000000000000000000000000000000 PUSH1 0x0 DUP3 ADD MSTORE POP JUMP JUMPDEST PUSH32 0x312D303138000000000000000000000000000000000000000000000000000000 PUSH1 0x0 DUP3 ADD MSTORE POP JUMP JUMPDEST PUSH32 0x5265656E7472616E637947756172643A207265656E7472616E742063616C6C00 PUSH1 0x0 DUP3 ADD MSTORE POP JUMP JUMPDEST PUSH32 0x312D303134000000000000000000000000000000000000000000000000000000 PUSH1 0x0 DUP3 ADD MSTORE POP JUMP JUMPDEST PUSH32 0x312D303135000000000000000000000000000000000000000000000000000000 PUSH1 0x0 DUP3 ADD MSTORE POP JUMP JUMPDEST PUSH2 0x2C8B DUP2 PUSH2 0x28BC JUMP JUMPDEST DUP2 EQ PUSH2 0x2C96 JUMPI PUSH1 0x0 DUP1 REVERT JUMPDEST POP JUMP JUMPDEST PUSH2 0x2CA2 DUP2 PUSH2 0x28CE JUMP JUMPDEST DUP2 EQ PUSH2 0x2CAD JUMPI PUSH1 0x0 DUP1 REVERT JUMPDEST POP JUMP JUMPDEST PUSH2 0x2CB9 DUP2 PUSH2 0x28DB JUMP JUMPDEST DUP2 EQ PUSH2 0x2CC4 JUMPI PUSH1 0x0 DUP1 REVERT JUMPDEST POP JUMP JUMPDEST PUSH2 0x2CD0 DUP2 PUSH2 0x2909 JUMP JUMPDEST DUP2 EQ PUSH2 0x2CDB JUMPI PUSH1 0x0 DUP1 REVERT JUMPDEST POP JUMP JUMPDEST PUSH2 0x2CE7 DUP2 PUSH2 0x2913 JUMP JUMPDEST DUP2 EQ PUSH2 0x2CF2 JUMPI PUSH1 0x0 DUP1 REVERT JUMPDEST POP JUMP INVALID LOG2 PUSH5 0x6970667358 0x22 SLT KECCAK256 BALANCE MSTORE8 RETURN SIGNEXTEND DUP10 0xA9 MLOAD SWAP4 PUSH25 0x5D8C34751EF03F9346FA8BC397B9A0D460EEED20312D206473 PUSH16 0x6C634300080700330000000000000000 "},"methodIdentifiers":{"approveSettlement(uint256,uint16[2])":"9f8621b8","challenge(uint256)":"ab82d9a0","getSettlementDetails(uint256)":"fe5e2969","latestSettlementOffer(uint256,uint256)":"325369f6","latestSettlementOfferBy(uint256)":"7e684d05","offerSettlement(uint256,uint16[2])":"c5708645","unicrow()":"6e4e2934","unicrowArbitrator()":"49c4920f","unicrowClaim()":"e9db7d79"}}}}}