{
  "address": "0xe0Ee927Fc4B128b20Fb087F2372d21526d636945",
  "abi": [
    {
      "inputs": [
        {
          "internalType": "address",
          "name": "unicrowClaim_",
          "type": "address"
        },
        {
          "internalType": "address",
          "name": "unicrowArbitrator_",
          "type": "address"
        },
        {
          "internalType": "address",
          "name": "unicrowDispute_",
          "type": "address"
        },
        {
          "internalType": "address",
          "name": "governanceAddress_",
          "type": "address"
        },
        {
          "internalType": "uint16",
          "name": "protocolFee_",
          "type": "uint16"
        }
      ],
      "stateMutability": "nonpayable",
      "type": "constructor"
    },
    {
      "anonymous": false,
      "inputs": [
        {
          "indexed": true,
          "internalType": "uint256",
          "name": "escrowId",
          "type": "uint256"
        },
        {
          "indexed": false,
          "internalType": "uint256",
          "name": "blockTime",
          "type": "uint256"
        },
        {
          "components": [
            {
              "internalType": "address",
              "name": "buyer",
              "type": "address"
            },
            {
              "internalType": "uint64",
              "name": "challengeExtension",
              "type": "uint64"
            },
            {
              "internalType": "address",
              "name": "seller",
              "type": "address"
            },
            {
              "internalType": "uint64",
              "name": "challengePeriodStart",
              "type": "uint64"
            },
            {
              "internalType": "address",
              "name": "marketplace",
              "type": "address"
            },
            {
              "internalType": "uint256",
              "name": "marketplaceFee",
              "type": "uint256"
            },
            {
              "internalType": "uint64",
              "name": "challengePeriodEnd",
              "type": "uint64"
            },
            {
              "internalType": "address",
              "name": "currency",
              "type": "address"
            },
            {
              "internalType": "uint16",
              "name": "claimed",
              "type": "uint16"
            },
            {
              "internalType": "int16[2]",
              "name": "consensus",
              "type": "int16[2]"
            },
            {
              "internalType": "uint16[4]",
              "name": "split",
              "type": "uint16[4]"
            },
            {
              "internalType": "uint256",
              "name": "amount",
              "type": "uint256"
            },
            {
              "internalType": "string",
              "name": "paymentReference",
              "type": "string"
            }
          ],
          "indexed": false,
          "internalType": "struct Escrow",
          "name": "escrow",
          "type": "tuple"
        },
        {
          "indexed": false,
          "internalType": "address",
          "name": "arbitrator",
          "type": "address"
        },
        {
          "indexed": false,
          "internalType": "uint256",
          "name": "arbitratorFee",
          "type": "uint256"
        },
        {
          "indexed": false,
          "internalType": "uint256",
          "name": "challengePeriod",
          "type": "uint256"
        }
      ],
      "name": "Pay",
      "type": "event"
    },
    {
      "anonymous": false,
      "inputs": [
        {
          "indexed": true,
          "internalType": "uint256",
          "name": "escrowId",
          "type": "uint256"
        },
        {
          "components": [
            {
              "internalType": "address",
              "name": "buyer",
              "type": "address"
            },
            {
              "internalType": "uint64",
              "name": "challengeExtension",
              "type": "uint64"
            },
            {
              "internalType": "address",
              "name": "seller",
              "type": "address"
            },
            {
              "internalType": "uint64",
              "name": "challengePeriodStart",
              "type": "uint64"
            },
            {
              "internalType": "address",
              "name": "marketplace",
              "type": "address"
            },
            {
              "internalType": "uint256",
              "name": "marketplaceFee",
              "type": "uint256"
            },
            {
              "internalType": "uint64",
              "name": "challengePeriodEnd",
              "type": "uint64"
            },
            {
              "internalType": "address",
              "name": "currency",
              "type": "address"
            },
            {
              "internalType": "uint16",
              "name": "claimed",
              "type": "uint16"
            },
            {
              "internalType": "int16[2]",
              "name": "consensus",
              "type": "int16[2]"
            },
            {
              "internalType": "uint16[4]",
              "name": "split",
              "type": "uint16[4]"
            },
            {
              "internalType": "uint256",
              "name": "amount",
              "type": "uint256"
            },
            {
              "internalType": "string",
              "name": "paymentReference",
              "type": "string"
            }
          ],
          "indexed": false,
          "internalType": "struct Escrow",
          "name": "escrow",
          "type": "tuple"
        },
        {
          "indexed": false,
          "internalType": "uint256",
          "name": "blockTime",
          "type": "uint256"
        }
      ],
      "name": "Refund",
      "type": "event"
    },
    {
      "anonymous": false,
      "inputs": [
        {
          "indexed": true,
          "internalType": "uint256",
          "name": "escrowId",
          "type": "uint256"
        },
        {
          "indexed": false,
          "internalType": "uint256",
          "name": "blockTime",
          "type": "uint256"
        },
        {
          "components": [
            {
              "internalType": "address",
              "name": "buyer",
              "type": "address"
            },
            {
              "internalType": "uint64",
              "name": "challengeExtension",
              "type": "uint64"
            },
            {
              "internalType": "address",
              "name": "seller",
              "type": "address"
            },
            {
              "internalType": "uint64",
              "name": "challengePeriodStart",
              "type": "uint64"
            },
            {
              "internalType": "address",
              "name": "marketplace",
              "type": "address"
            },
            {
              "internalType": "uint256",
              "name": "marketplaceFee",
              "type": "uint256"
            },
            {
              "internalType": "uint64",
              "name": "challengePeriodEnd",
              "type": "uint64"
            },
            {
              "internalType": "address",
              "name": "currency",
              "type": "address"
            },
            {
              "internalType": "uint16",
              "name": "claimed",
              "type": "uint16"
            },
            {
              "internalType": "int16[2]",
              "name": "consensus",
              "type": "int16[2]"
            },
            {
              "internalType": "uint16[4]",
              "name": "split",
              "type": "uint16[4]"
            },
            {
              "internalType": "uint256",
              "name": "amount",
              "type": "uint256"
            },
            {
              "internalType": "string",
              "name": "paymentReference",
              "type": "string"
            }
          ],
          "indexed": false,
          "internalType": "struct Escrow",
          "name": "escrow",
          "type": "tuple"
        },
        {
          "indexed": false,
          "internalType": "uint256[5]",
          "name": "amounts",
          "type": "uint256[5]"
        }
      ],
      "name": "Release",
      "type": "event"
    },
    {
      "inputs": [
        {
          "internalType": "uint256",
          "name": "escrowId",
          "type": "uint256"
        },
        {
          "internalType": "uint16[4]",
          "name": "split",
          "type": "uint16[4]"
        },
        {
          "internalType": "int16[2]",
          "name": "consensus",
          "type": "int16[2]"
        },
        {
          "internalType": "uint64",
          "name": "challengeStart",
          "type": "uint64"
        },
        {
          "internalType": "uint64",
          "name": "challengeEnd",
          "type": "uint64"
        }
      ],
      "name": "challenge",
      "outputs": [],
      "stateMutability": "nonpayable",
      "type": "function"
    },
    {
      "inputs": [],
      "name": "escrowIdCounter",
      "outputs": [
        {
          "internalType": "uint256",
          "name": "_value",
          "type": "uint256"
        }
      ],
      "stateMutability": "view",
      "type": "function"
    },
    {
      "inputs": [
        {
          "internalType": "uint256",
          "name": "escrowId",
          "type": "uint256"
        }
      ],
      "name": "getAllEscrowData",
      "outputs": [
        {
          "components": [
            {
              "components": [
                {
                  "internalType": "address",
                  "name": "buyer",
                  "type": "address"
                },
                {
                  "internalType": "uint64",
                  "name": "challengeExtension",
                  "type": "uint64"
                },
                {
                  "internalType": "address",
                  "name": "seller",
                  "type": "address"
                },
                {
                  "internalType": "uint64",
                  "name": "challengePeriodStart",
                  "type": "uint64"
                },
                {
                  "internalType": "address",
                  "name": "marketplace",
                  "type": "address"
                },
                {
                  "internalType": "uint256",
                  "name": "marketplaceFee",
                  "type": "uint256"
                },
                {
                  "internalType": "uint64",
                  "name": "challengePeriodEnd",
                  "type": "uint64"
                },
                {
                  "internalType": "address",
                  "name": "currency",
                  "type": "address"
                },
                {
                  "internalType": "uint16",
                  "name": "claimed",
                  "type": "uint16"
                },
                {
                  "internalType": "int16[2]",
                  "name": "consensus",
                  "type": "int16[2]"
                },
                {
                  "internalType": "uint16[4]",
                  "name": "split",
                  "type": "uint16[4]"
                },
                {
                  "internalType": "uint256",
                  "name": "amount",
                  "type": "uint256"
                },
                {
                  "internalType": "string",
                  "name": "paymentReference",
                  "type": "string"
                }
              ],
              "internalType": "struct Escrow",
              "name": "escrow",
              "type": "tuple"
            },
            {
              "components": [
                {
                  "internalType": "address",
                  "name": "arbitrator",
                  "type": "address"
                },
                {
                  "internalType": "uint16",
                  "name": "arbitratorFee",
                  "type": "uint16"
                },
                {
                  "internalType": "bool",
                  "name": "sellerConsensus",
                  "type": "bool"
                },
                {
                  "internalType": "bool",
                  "name": "buyerConsensus",
                  "type": "bool"
                },
                {
                  "internalType": "bool",
                  "name": "arbitrated",
                  "type": "bool"
                }
              ],
              "internalType": "struct Arbitrator",
              "name": "arbitrator",
              "type": "tuple"
            },
            {
              "components": [
                {
                  "internalType": "address",
                  "name": "latestSettlementOfferBy",
                  "type": "address"
                },
                {
                  "internalType": "uint16[2]",
                  "name": "latestSettlementOffer",
                  "type": "uint16[2]"
                }
              ],
              "internalType": "struct Settlement",
              "name": "settlement",
              "type": "tuple"
            },
            {
              "components": [
                {
                  "internalType": "address",
                  "name": "address_",
                  "type": "address"
                },
                {
                  "internalType": "uint8",
                  "name": "decimals",
                  "type": "uint8"
                },
                {
                  "internalType": "string",
                  "name": "symbol",
                  "type": "string"
                }
              ],
              "internalType": "struct Token",
              "name": "token",
              "type": "tuple"
            }
          ],
          "internalType": "struct Data",
          "name": "",
          "type": "tuple"
        }
      ],
      "stateMutability": "view",
      "type": "function"
    },
    {
      "inputs": [
        {
          "internalType": "uint256",
          "name": "escrowId",
          "type": "uint256"
        }
      ],
      "name": "getEscrow",
      "outputs": [
        {
          "components": [
            {
              "internalType": "address",
              "name": "buyer",
              "type": "address"
            },
            {
              "internalType": "uint64",
              "name": "challengeExtension",
              "type": "uint64"
            },
            {
              "internalType": "address",
              "name": "seller",
              "type": "address"
            },
            {
              "internalType": "uint64",
              "name": "challengePeriodStart",
              "type": "uint64"
            },
            {
              "internalType": "address",
              "name": "marketplace",
              "type": "address"
            },
            {
              "internalType": "uint256",
              "name": "marketplaceFee",
              "type": "uint256"
            },
            {
              "internalType": "uint64",
              "name": "challengePeriodEnd",
              "type": "uint64"
            },
            {
              "internalType": "address",
              "name": "currency",
              "type": "address"
            },
            {
              "internalType": "uint16",
              "name": "claimed",
              "type": "uint16"
            },
            {
              "internalType": "int16[2]",
              "name": "consensus",
              "type": "int16[2]"
            },
            {
              "internalType": "uint16[4]",
              "name": "split",
              "type": "uint16[4]"
            },
            {
              "internalType": "uint256",
              "name": "amount",
              "type": "uint256"
            },
            {
              "internalType": "string",
              "name": "paymentReference",
              "type": "string"
            }
          ],
          "internalType": "struct Escrow",
          "name": "",
          "type": "tuple"
        }
      ],
      "stateMutability": "view",
      "type": "function"
    },
    {
      "inputs": [],
      "name": "governanceAddress",
      "outputs": [
        {
          "internalType": "address",
          "name": "",
          "type": "address"
        }
      ],
      "stateMutability": "view",
      "type": "function"
    },
    {
      "inputs": [
        {
          "internalType": "address",
          "name": "sender",
          "type": "address"
        },
        {
          "components": [
            {
              "internalType": "address",
              "name": "buyer",
              "type": "address"
            },
            {
              "internalType": "address",
              "name": "seller",
              "type": "address"
            },
            {
              "internalType": "address",
              "name": "marketplace",
              "type": "address"
            },
            {
              "internalType": "uint16",
              "name": "marketplaceFee",
              "type": "uint16"
            },
            {
              "internalType": "address",
              "name": "currency",
              "type": "address"
            },
            {
              "internalType": "uint32",
              "name": "challengePeriod",
              "type": "uint32"
            },
            {
              "internalType": "uint32",
              "name": "challengeExtension",
              "type": "uint32"
            },
            {
              "internalType": "uint256",
              "name": "amount",
              "type": "uint256"
            },
            {
              "internalType": "string",
              "name": "paymentReference",
              "type": "string"
            }
          ],
          "internalType": "struct EscrowInput",
          "name": "input",
          "type": "tuple"
        },
        {
          "internalType": "address",
          "name": "arbitrator",
          "type": "address"
        },
        {
          "internalType": "uint16",
          "name": "arbitratorFee",
          "type": "uint16"
        }
      ],
      "name": "pay",
      "outputs": [
        {
          "internalType": "uint256",
          "name": "",
          "type": "uint256"
        }
      ],
      "stateMutability": "payable",
      "type": "function"
    },
    {
      "inputs": [],
      "name": "protocolFee",
      "outputs": [
        {
          "internalType": "uint16",
          "name": "",
          "type": "uint16"
        }
      ],
      "stateMutability": "view",
      "type": "function"
    },
    {
      "inputs": [
        {
          "internalType": "uint256",
          "name": "escrowId",
          "type": "uint256"
        }
      ],
      "name": "refund",
      "outputs": [],
      "stateMutability": "nonpayable",
      "type": "function"
    },
    {
      "inputs": [
        {
          "internalType": "uint256",
          "name": "escrowId",
          "type": "uint256"
        }
      ],
      "name": "release",
      "outputs": [],
      "stateMutability": "nonpayable",
      "type": "function"
    },
    {
      "inputs": [
        {
          "internalType": "address",
          "name": "to",
          "type": "address"
        },
        {
          "internalType": "uint256",
          "name": "amount",
          "type": "uint256"
        },
        {
          "internalType": "address",
          "name": "currency",
          "type": "address"
        }
      ],
      "name": "sendEscrowShare",
      "outputs": [],
      "stateMutability": "nonpayable",
      "type": "function"
    },
    {
      "inputs": [
        {
          "internalType": "uint256",
          "name": "escrowId",
          "type": "uint256"
        }
      ],
      "name": "setClaimed",
      "outputs": [],
      "stateMutability": "nonpayable",
      "type": "function"
    },
    {
      "inputs": [
        {
          "internalType": "uint256",
          "name": "escrowId",
          "type": "uint256"
        },
        {
          "internalType": "uint16[4]",
          "name": "split",
          "type": "uint16[4]"
        },
        {
          "internalType": "int16[2]",
          "name": "consensus",
          "type": "int16[2]"
        }
      ],
      "name": "settle",
      "outputs": [],
      "stateMutability": "nonpayable",
      "type": "function"
    },
    {
      "inputs": [
        {
          "internalType": "uint16[5]",
          "name": "currentSplit",
          "type": "uint16[5]"
        }
      ],
      "name": "splitCalculation",
      "outputs": [
        {
          "internalType": "uint16[5]",
          "name": "",
          "type": "uint16[5]"
        }
      ],
      "stateMutability": "pure",
      "type": "function"
    },
    {
      "inputs": [],
      "name": "unicrowArbitrator",
      "outputs": [
        {
          "internalType": "contract IUnicrowArbitrator",
          "name": "",
          "type": "address"
        }
      ],
      "stateMutability": "view",
      "type": "function"
    },
    {
      "inputs": [],
      "name": "unicrowClaim",
      "outputs": [
        {
          "internalType": "contract IUnicrowClaim",
          "name": "",
          "type": "address"
        }
      ],
      "stateMutability": "view",
      "type": "function"
    },
    {
      "inputs": [],
      "name": "unicrowDispute",
      "outputs": [
        {
          "internalType": "contract UnicrowDispute",
          "name": "",
          "type": "address"
        }
      ],
      "stateMutability": "view",
      "type": "function"
    },
    {
      "inputs": [
        {
          "internalType": "uint16",
          "name": "fee",
          "type": "uint16"
        }
      ],
      "name": "updateEscrowFee",
      "outputs": [],
      "stateMutability": "nonpayable",
      "type": "function"
    },
    {
      "inputs": [
        {
          "internalType": "address",
          "name": "governance",
          "type": "address"
        }
      ],
      "name": "updateGovernance",
      "outputs": [],
      "stateMutability": "nonpayable",
      "type": "function"
    }
  ],
  "transactionHash": "0x9d8ee77c3bfa39823e6cc7afcea764673c5671bbc3df4130e864cac106ce9cb8",
  "args": [
    "0x7c27bE3C886465C9bf831E216FbadcDC4f4d9161",
    "0xfA8b095785c87F2fc4f19BA9d9a39B3FD17F74ca",
    "0x81BDA62F4E0e95edaf2ED72985B93e95880D05f7",
    "0xB9c55f13d427fa794C9FC3598Fb1c17925EeF3Fd",
    "69"
  ],
  "numDeployments": 1,
  "solcInputHash": "4d281b00a89f4987d31f83315d6f1345",
  "bytecode": "0x60e06040523480156200001157600080fd5b50604051620038cc380380620038cc8339810160408190526200003491620000d2565b60016000819055606085811b6001600160601b031990811660805287821b811660a0529085901b1660c052600280546001600160b01b031916620100006001600160a01b0386160261ffff19161761ffff8416179055620000a190620000ac602090811b6200245017901c565b50505050506200014c565b80546001019055565b80516001600160a01b0381168114620000cd57600080fd5b919050565b600080600080600060a08688031215620000eb57600080fd5b620000f686620000b5565b94506200010660208701620000b5565b93506200011660408701620000b5565b92506200012660608701620000b5565b9150608086015161ffff811681146200013e57600080fd5b809150509295509295909350565b60805160601c60a05160601c60c05160601c613701620001cb6000396000818161029e015281816103ff015281816118b201526120f50152600081816103da015281816117b501528181611bc5015261239d0152600081816101df01528181610aa00152818161110601528181611880015261203601526137016000f3fe6080604052600436106101295760003560e01c80637f5d4285116100a5578063b256126311610074578063d25dd97511610059578063d25dd9751461037b578063e7aa0bd7146103a8578063e9db7d79146103c857600080fd5b8063b25612631461032e578063d02f411e1461034e57600080fd5b80637f5d42851461028c5780638b0473b4146102c05780638ede1f05146102e0578063b0e21e8a1461030057600080fd5b806337bdc99b116100fc57806364166e63116100e157806364166e6314610219578063795053d3146102395780637d19e5961461025f57600080fd5b806337bdc99b146101ad57806349c4920f146101cd57600080fd5b80630a6b25f21461012e5780630bb5c45714610150578063278ecde11461017657806334d844d814610196575b600080fd5b34801561013a57600080fd5b5061014e610149366004612fee565b6103fc565b005b61016361015e366004612bfb565b6104d5565b6040519081526020015b60405180910390f35b34801561018257600080fd5b5061014e610191366004612f7e565b610eb0565b3480156101a257600080fd5b506001546101639081565b3480156101b957600080fd5b5061014e6101c8366004612f7e565b6114b5565b3480156101d957600080fd5b506102017f000000000000000000000000000000000000000000000000000000000000000081565b6040516001600160a01b03909116815260200161016d565b34801561022557600080fd5b5061014e610234366004612fb0565b61187d565b34801561024557600080fd5b50600254610201906201000090046001600160a01b031681565b34801561026b57600080fd5b5061027f61027a366004612f7e565b611926565b60405161016d91906133b4565b34801561029857600080fd5b506102017f000000000000000000000000000000000000000000000000000000000000000081565b3480156102cc57600080fd5b5061014e6102db366004612f61565b611b2f565b3480156102ec57600080fd5b5061014e6102fb366004612c76565b611bc2565b34801561030c57600080fd5b5060025461031b9061ffff1681565b60405161ffff909116815260200161016d565b34801561033a57600080fd5b5061014e610349366004612bde565b611c70565b34801561035a57600080fd5b5061036e610369366004612cb8565b611cd6565b60405161016d91906132cc565b34801561038757600080fd5b5061039b610396366004612f7e565b611e76565b60405161016d9190613314565b3480156103b457600080fd5b5061014e6103c3366004612f7e565b61239a565b3480156103d457600080fd5b506102017f000000000000000000000000000000000000000000000000000000000000000081565b337f00000000000000000000000000000000000000000000000000000000000000006001600160a01b03161461043157600080fd5b600085815260036020526040902061044e906006018560046127f5565b50600085815260036020526040902061046c9060050184600261288f565b506000948552600360205260409094206001810180547fffffffff0000000000000000ffffffffffffffffffffffffffffffffffffffff16600160a01b67ffffffffffffffff94851602179055600401805467ffffffffffffffff191691909416179092555050565b60006002600054141561052f5760405162461bcd60e51b815260206004820152601f60248201527f5265656e7472616e637947756172643a207265656e7472616e742063616c6c0060448201526064015b60405180910390fd5b60026000908155600154906105476020870187612bde565b60025490915060e0870135906127109061ffff1661056b60808a0160608b01612f61565b610575908861353b565b61057f919061353b565b61ffff16106105d05760405162461bcd60e51b815260206004820152600560248201527f312d3032360000000000000000000000000000000000000000000000000000006044820152606401610526565b6001600160a01b0382166106265760405162461bcd60e51b815260206004820152600560248201527f302d3030310000000000000000000000000000000000000000000000000000006044820152606401610526565b60006106386040890160208a01612bde565b6001600160a01b0316141561068f5760405162461bcd60e51b815260206004820152600560248201527f302d3030320000000000000000000000000000000000000000000000000000006044820152606401610526565b61069f6040880160208901612bde565b6001600160a01b0316826001600160a01b031614156107005760405162461bcd60e51b815260206004820152600560248201527f302d3030330000000000000000000000000000000000000000000000000000006044820152606401610526565b600081116107505760405162461bcd60e51b815260206004820152600560248201527f302d3031310000000000000000000000000000000000000000000000000000006044820152606401610526565b34156107be57600061076860a0890160808a01612bde565b6001600160a01b0316146107be5760405162461bcd60e51b815260206004820152600560248201527f302d3031300000000000000000000000000000000000000000000000000000006044820152606401610526565b60006107d060a0890160808a01612bde565b6001600160a01b031614156107f0573481146107eb57600080fd5b610934565b600061080260a0890160808a01612bde565b6040516370a0823160e01b81523060048201526001600160a01b0391909116906370a082319060240160206040518083038186803b15801561084357600080fd5b505afa158015610857573d6000803e3d6000fd5b505050506040513d601f19601f8201168201806040525081019061087b9190612f97565b905061089861089060a08a0160808b01612bde565b8a3085612459565b60006108aa60a08a0160808b01612bde565b6040516370a0823160e01b81523060048201526001600160a01b0391909116906370a082319060240160206040518083038186803b1580156108eb57600080fd5b505afa1580156108ff573d6000803e3d6000fd5b505050506040513d601f19601f820116820180604052508101906109239190612f97565b905061092f82826135dd565b925050505b60006109466080890160608a01612f61565b61ffff1611156109b95760006109626060890160408a01612bde565b6001600160a01b031614156109b95760405162461bcd60e51b815260206004820152600560248201527f302d3030390000000000000000000000000000000000000000000000000000006044820152606401610526565b6001600160a01b03861615610afd57816001600160a01b0316866001600160a01b031614158015610a0b57506109f56040880160208901612bde565b6001600160a01b0316866001600160a01b031614155b610a575760405162461bcd60e51b815260206004820152600560248201527f312d3032370000000000000000000000000000000000000000000000000000006044820152606401610526565b6040517f2ea8eddd000000000000000000000000000000000000000000000000000000008152600481018490526001600160a01b03878116602483015261ffff871660448301527f00000000000000000000000000000000000000000000000000000000000000001690632ea8eddd90606401600060405180830381600087803b158015610ae457600080fd5b505af1158015610af8573d6000803e3d6000fd5b505050505b60408051608080820183526000808352612710602084015292820190610b28908b0160608c01612f61565b61ffff908116825260025416602091820152604080518082018252600080825260018285015282516101a081019093526001600160a01b03881683529394509291810182610b7c60e08e0160c08f01613050565b63ffffffff1611610b9c57610b9760c08d0160a08e01613050565b610bac565b610bac60e08d0160c08e01613050565b63ffffffff168152602090810190610bca9060408e01908e01612bde565b6001600160a01b031681526020014267ffffffffffffffff1681526020018b6040016020810190610bfb9190612bde565b6001600160a01b03168152602001610c1960808d0160608e01612f61565b61ffff168152602001610c3260c08d0160a08e01613050565b610c429063ffffffff1642613561565b67ffffffffffffffff168152602001610c6160a08d0160808e01612bde565b6001600160a01b031681526000602082015260408101849052606081018590526080810186905260a001610c996101008d018d61347f565b8080601f01602080910402602001604051908101604052809392919081815260200183838082843760009201829052509390945250508881526003602081815260409283902085518154928701516001600160a01b039182167fffffffff0000000000000000000000000000000000000000000000000000000094851617600160a01b67ffffffffffffffff92831681029190911784559588015160018401805460608b015192851690871617918316909702179095556080870151600280840180547fffffffffffffffffffffffff0000000000000000000000000000000000000000169284169290921790915560a08801519483019490945560c087015160048301805460e08a01516101008b0151939098169516949094176801000000000000000096909216959095021761ffff60e01b1916600160e01b61ffff909516949094029390931790556101208401519394508493919250610e009160058401916128eb565b50610140820151610e179060068301906004612944565b5061016082015160078201556101808201518051610e3f91600884019160209091019061299a565b5050600180548101905550857f4175a6fc82ba411dc8ef77e26b517727e5c1a6c47eca1528ae01dc17f4b54a1d42838c8c8f60a0016020810190610e839190613050565b604051610e949594939291906133e9565b60405180910390a2505060016000555091979650505050505050565b60026000541415610f035760405162461bcd60e51b815260206004820152601f60248201527f5265656e7472616e637947756172643a207265656e7472616e742063616c6c006044820152606401610526565b6002600081815582815260036020818152604080842081516101a08101835281546001600160a01b038082168352600160a01b9182900467ffffffffffffffff90811696840196909652600184015480821684870152919091048516606083015282880154811660808301529482015460a0820152600482015493841660c082015268010000000000000000840490941660e0850152600160e01b90920461ffff1661010084015280518082019182905233956101208501926005850191908288855b82829054906101000a900460010b60010b81526020019060020190602082600101049283019260010382029150808411610fc657505050928452505060408051608081019182905260209093019291506006840190600490826000855b82829054906101000a900461ffff1661ffff1681526020019060020190602082600101049283019260010382029150808411611023579050505050505081526020016007820154815260200160088201805461107e90613620565b80601f01602080910402602001604051908101604052809291908181526020018280546110aa90613620565b80156110f75780601f106110cc576101008083540402835291602001916110f7565b820191906000526020600020905b8154815290600101906020018083116110da57829003601f168201915b505050505081525050905060007f00000000000000000000000000000000000000000000000000000000000000006001600160a01b03166316e0551b856040518263ffffffff1660e01b815260040161115291815260200190565b60a06040518083038186803b15801561116a57600080fd5b505afa15801561117e573d6000803e3d6000fd5b505050506040513d601f19601f820116820180604052508101906111a29190612e23565b905081604001516001600160a01b0316836001600160a01b031614806111dd575081604001516001600160a01b0316326001600160a01b0316145b806111f4575080516001600160a01b038481169116145b80611208575080516001600160a01b031632145b6112545760405162461bcd60e51b815260206004820152600560248201527f312d3031310000000000000000000000000000000000000000000000000000006044820152606401610526565b61010082015161ffff16156112ab5760405162461bcd60e51b815260206004820152600560248201527f302d3030350000000000000000000000000000000000000000000000000000006044820152606401610526565b610140820180516127109052805160006020909101819052815160400181905290516060018190526101208301516112e8915b602002015161250a565b6112f39060016134f6565b61012083018051600192830b830b90525161130d916112de565b610120830151600191820b90910b602091820152610140830151600086815260039092526040909120611347916006909101906004612944565b50610120820151600085815260036020526040902061136d9160059091019060026128eb565b506000848152600360205260409020600401805461ffff60e01b1916600160e01b179055600161010083015260e08201516001600160a01b03166114585781516101608301516040516000926001600160a01b031691908381818185875af1925050503d80600081146113fc576040519150601f19603f3d011682016040523d82523d6000602084013e611401565b606091505b50509050806114525760405162461bcd60e51b815260206004820152600560248201527f312d3031320000000000000000000000000000000000000000000000000000006044820152606401610526565b50611470565b6114708260e00151836000015184610160015161252d565b837f1ec8ac2428b647686d37ee1aee5009f337cf5f0b7c5709b547b4461c50b45a2483426040516114a29291906133c7565b60405180910390a2505060016000555050565b600081815260036020818152604080842081516101a08101835281546001600160a01b038082168352600160a01b9182900467ffffffffffffffff908116968401969096526001840154808216848701529190910485166060830152600280840154821660808401529583015460a0830152600483015494851660c08301526801000000000000000085041660e0820152600160e01b90930461ffff16610100840152815180830192839052339594919261012085019260058501918288855b82829054906101000a900460010b60010b8152602001906002019060208260010104928301926001038202915080841161157557505050928452505060408051608081019182905260209093019291506006840190600490826000855b82829054906101000a900461ffff1661ffff16815260200190600201906020826001010492830192600103820291508084116115d2579050505050505081526020016007820154815260200160088201805461162d90613620565b80601f016020809104026020016040519081016040528092919081815260200182805461165990613620565b80156116a65780601f1061167b576101008083540402835291602001916116a6565b820191906000526020600020905b81548152906001019060200180831161168957829003601f168201915b505050505081525050905080600001516001600160a01b0316826001600160a01b0316146117165760405162461bcd60e51b815260206004820152600560248201527f312d3032350000000000000000000000000000000000000000000000000000006044820152606401610526565b6101208101516117279060006112de565b6117329060016134f6565b61012082018051600192830b830b90525161174c916112de565b61012082018051600192830b90920b602092830152516000858152600390925260409091206117829160059091019060026128eb565b506040517f379607f5000000000000000000000000000000000000000000000000000000008152600481018490526000907f00000000000000000000000000000000000000000000000000000000000000006001600160a01b03169063379607f59060240160a060405180830381600087803b15801561180157600080fd5b505af1158015611815573d6000803e3d6000fd5b505050506040513d601f19601f820116820180604052508101906118399190612ce0565b9050837f2b68cbe2d13ab71dfaebca786cc9fdbbe99b2da6531ab8fe2aaf88edf13391c742848460405161186f93929190613432565b60405180910390a250505050565b337f00000000000000000000000000000000000000000000000000000000000000006001600160a01b031614806118dc5750337f00000000000000000000000000000000000000000000000000000000000000006001600160a01b0316145b6118e557600080fd5b6000838152600360205260409020611902906006018360046127f5565b5060008381526003602052604090206119209060050182600261288f565b50505050565b61192e612a0e565b600082815260036020818152604080842081516101a08101835281546001600160a01b038082168352600160a01b9182900467ffffffffffffffff908116968401969096526001840154808216848701529190910485166060830152600280840154821660808401529583015460a0830152600483015494851660c08301526801000000000000000085041660e0820152600160e01b90930461ffff16610100840152815180830192839052929490936101208601939260058601928390855b82829054906101000a900460010b60010b815260200190600201906020826001010492830192600103820291508084116119ee57505050928452505060408051608081019182905260209093019291506006840190600490826000855b82829054906101000a900461ffff1661ffff1681526020019060020190602082600101049283019260010382029150808411611a4b5790505050505050815260200160078201548152602001600882018054611aa690613620565b80601f0160208091040260200160405190810160405280929190818152602001828054611ad290613620565b8015611b1f5780601f10611af457610100808354040283529160200191611b1f565b820191906000526020600020905b815481529060010190602001808311611b0257829003601f168201915b5050505050815250509050919050565b6002546201000090046001600160a01b0316336001600160a01b031614611b5557600080fd5b60648161ffff161115611baa5760405162461bcd60e51b815260206004820152600560248201527f302d3030380000000000000000000000000000000000000000000000000000006044820152606401610526565b6002805461ffff191661ffff92909216919091179055565b337f00000000000000000000000000000000000000000000000000000000000000006001600160a01b031614611bf757600080fd5b6001600160a01b038116611c60576040516001600160a01b038416906113889084906000818181858888f193505050503d8060008114611c53576040519150601f19603f3d011682016040523d82523d6000602084013e611c58565b606091505b505050505050565b611c6b81848461252d565b505050565b6002546201000090046001600160a01b0316336001600160a01b031614611c9657600080fd5b600280546001600160a01b0390921662010000027fffffffffffffffffffff0000000000000000000000000000000000000000ffff909216919091179055565b611cde612a85565b611ce6612a85565b600080611cf96080860160608701612f61565b61ffff161115611d4c57612710611d166040860160208701612f61565b61ffff16611d2a6080870160608801612f61565b61ffff16611d38919061359b565b611d429190613579565b61ffff1660608301525b6000611d5e6060860160408701612f61565b61ffff161115611db157612710611d7b6040860160208701612f61565b61ffff16611d8f6060870160408801612f61565b61ffff16611d9d919061359b565b611da79190613579565b61ffff1660408301525b6000611dc360a0860160808701612f61565b61ffff161115611e0f57612710611de06040860160208701612f61565b61ffff16611df460a0870160808801612f61565b61ffff16611e02919061359b565b611e0c9190613579565b90505b60408083015160608401518392611e2b90880160208901612f61565b611e3591906135ba565b611e3f91906135ba565b611e4991906135ba565b61ffff16602080840191909152611e6290850185612f61565b61ffff908116835216608082015292915050565b611e7e612aa3565b6000828152600360209081526040808320600401548151606081019092526801000000000000000090046001600160a01b0316808252929181018315611f3457836001600160a01b031663313ce5676040518163ffffffff1660e01b815260040160206040518083038186803b158015611ef757600080fd5b505afa158015611f0b573d6000803e3d6000fd5b505050506040513d601f19601f82011682018060405250810190611f2f9190613076565b611f37565b60125b60ff1681526020016001600160a01b03841615611fc857836001600160a01b03166395d89b416040518163ffffffff1660e01b815260040160006040518083038186803b158015611f8757600080fd5b505afa158015611f9b573d6000803e3d6000fd5b505050506040513d6000823e601f3d908101601f19168201604052611fc39190810190612d81565b611fff565b6040518060400160405280600381526020017f45544800000000000000000000000000000000000000000000000000000000008152505b90526040517f16e0551b000000000000000000000000000000000000000000000000000000008152600481018690529091506000907f00000000000000000000000000000000000000000000000000000000000000006001600160a01b0316906316e0551b9060240160a06040518083038186803b15801561208057600080fd5b505afa158015612094573d6000803e3d6000fd5b505050506040513d601f19601f820116820180604052508101906120b89190612e23565b6040517ffe5e2969000000000000000000000000000000000000000000000000000000008152600481018790529091506000906001600160a01b037f0000000000000000000000000000000000000000000000000000000000000000169063fe5e29699060240160606040518083038186803b15801561213757600080fd5b505afa15801561214b573d6000803e3d6000fd5b505050506040513d601f19601f8201168201806040525081019061216f9190612eb5565b604080516000898152600360208190528382206102208401855280546001600160a01b0380821660808701908152600160a01b9283900467ffffffffffffffff90811660a0890152600185015480841660c08a015293909304831660e08801526002808501548316610100890152948401546101208801526004840154928316610140880152680100000000000000008304909116610160870152600160e01b90910461ffff166101808601528551808701968790529697509395869591936101a087019391926005860192918390855b82829054906101000a900460010b60010b8152602001906002019060208260010104928301926001038202915080841161224057505050928452505060408051608081019182905260209093019291506006840190600490826000855b82829054906101000a900461ffff1661ffff168152602001906002019060208260010104928301926001038202915080841161229d57905050505050508152602001600782015481526020016008820180546122f890613620565b80601f016020809104026020016040519081016040528092919081815260200182805461232490613620565b80156123715780601f1061234657610100808354040283529160200191612371565b820191906000526020600020905b81548152906001019060200180831161235457829003601f168201915b505050505081525050815260200183815260200182815260200184815250945050505050919050565b337f00000000000000000000000000000000000000000000000000000000000000006001600160a01b0316146123cf57600080fd5b600260005414156124225760405162461bcd60e51b815260206004820152601f60248201527f5265656e7472616e637947756172643a207265656e7472616e742063616c6c006044820152606401610526565b60026000908155908152600360205260408120600401805461ffff60e01b1916600160e01b17905560019055565b80546001019055565b6040516001600160a01b03808516602483015283166044820152606481018290526119209085907f23b872dd00000000000000000000000000000000000000000000000000000000906084015b60408051601f198184030181529190526020810180517bffffffffffffffffffffffffffffffffffffffffffffffffffffffff167fffffffff0000000000000000000000000000000000000000000000000000000090931692909217909152612576565b6000808260010b12156125255761252082613655565b612527565b815b92915050565b6040516001600160a01b038316602482015260448101829052611c6b9084907fa9059cbb00000000000000000000000000000000000000000000000000000000906064016124a6565b60006125cb826040518060400160405280602081526020017f5361666545524332303a206c6f772d6c6576656c2063616c6c206661696c6564815250856001600160a01b031661265b9092919063ffffffff16565b805190915015611c6b57808060200190518101906125e99190612d66565b611c6b5760405162461bcd60e51b815260206004820152602a60248201527f5361666545524332303a204552433230206f7065726174696f6e20646964206e60448201527f6f742073756363656564000000000000000000000000000000000000000000006064820152608401610526565b606061266a8484600085612674565b90505b9392505050565b6060824710156126ec5760405162461bcd60e51b815260206004820152602660248201527f416464726573733a20696e73756666696369656e742062616c616e636520666f60448201527f722063616c6c00000000000000000000000000000000000000000000000000006064820152608401610526565b6001600160a01b0385163b6127435760405162461bcd60e51b815260206004820152601d60248201527f416464726573733a2063616c6c20746f206e6f6e2d636f6e74726163740000006044820152606401610526565b600080866001600160a01b0316858760405161275f91906132b0565b60006040518083038185875af1925050503d806000811461279c576040519150601f19603f3d011682016040523d82523d6000602084013e6127a1565b606091505b50915091506127b18282866127bc565b979650505050505050565b606083156127cb57508161266d565b8251156127db5782518084602001fd5b8160405162461bcd60e51b81526004016105269190613301565b60018301918390821561287f5791602002820160005b8382111561284f57833561ffff1683826101000a81548161ffff021916908361ffff160217905550926020019260020160208160010104928301926001030261280b565b801561287d5782816101000a81549061ffff021916905560020160208160010104928301926001030261284f565b505b5061288b929150612b1b565b5090565b60018301918390821561287f5791602002820160005b8382111561284f57833560010b83826101000a81548161ffff021916908360010b61ffff16021790555092602001926002016020816001010492830192600103026128a5565b60018301918390821561287f5791602002820160005b8382111561284f57835183826101000a81548161ffff021916908360010b61ffff1602179055509260200192600201602081600101049283019260010302612901565b60018301918390821561287f5791602002820160005b8382111561284f57835183826101000a81548161ffff021916908361ffff160217905550926020019260020160208160010104928301926001030261295a565b8280546129a690613620565b90600052602060002090601f0160209004810192826129c8576000855561287f565b82601f106129e157805160ff191683800117855561287f565b8280016001018555821561287f579182015b8281111561287f5782518255916020019190600101906129f3565b604080516101a081018252600080825260208201819052918101829052606081018290526080810182905260a0810182905260c0810182905260e081018290526101008101919091526101208101612a64612b30565b8152602001612a71612b4e565b815260200160008152602001606081525090565b6040518060a001604052806005906020820280368337509192915050565b6040518060800160405280612ab6612a0e565b81526040805160a081018252600080825260208281018290529282018190526060820181905260808201529101908152602001612af1612b6c565b8152604080516060808201835260008083526020838101919091529282015291015290565b905290565b5b8082111561288b5760008155600101612b1c565b60405180604001604052806002906020820280368337509192915050565b60405180608001604052806004906020820280368337509192915050565b604051806040016040528060006001600160a01b03168152602001612b16612b30565b806040810183101561252757600080fd5b806080810183101561252757600080fd5b80518015158114612bc157600080fd5b919050565b803567ffffffffffffffff81168114612bc157600080fd5b600060208284031215612bf057600080fd5b813561266d816136a3565b60008060008060808587031215612c1157600080fd5b8435612c1c816136a3565b9350602085013567ffffffffffffffff811115612c3857600080fd5b85016101208188031215612c4b57600080fd5b92506040850135612c5b816136a3565b91506060850135612c6b816136bb565b939692955090935050565b600080600060608486031215612c8b57600080fd5b8335612c96816136a3565b9250602084013591506040840135612cad816136a3565b809150509250925092565b600060a08284031215612cca57600080fd5b8260a083011115612cda57600080fd5b50919050565b600060a08284031215612cf257600080fd5b82601f830112612d0157600080fd5b60405160a0810181811067ffffffffffffffff82111715612d2457612d2461368d565b604052808360a08101861015612d3957600080fd5b60005b6005811015612d5b578151835260209283019290910190600101612d3c565b509195945050505050565b600060208284031215612d7857600080fd5b61266d82612bb1565b600060208284031215612d9357600080fd5b815167ffffffffffffffff80821115612dab57600080fd5b818401915084601f830112612dbf57600080fd5b815181811115612dd157612dd161368d565b604051601f8201601f19908116603f01168101908382118183101715612df957612df961368d565b81604052828152876020848701011115612e1257600080fd5b6127b18360208301602088016135f4565b600060a08284031215612e3557600080fd5b60405160a0810181811067ffffffffffffffff82111715612e5857612e5861368d565b6040528251612e66816136a3565b81526020830151612e76816136bb565b6020820152612e8760408401612bb1565b6040820152612e9860608401612bb1565b6060820152612ea960808401612bb1565b60808201529392505050565b600060608284031215612ec757600080fd5b6040516040810181811067ffffffffffffffff82111715612eea57612eea61368d565b6040528251612ef8816136a3565b81526020603f84018513612f0b57600080fd5b612f136134cd565b8082860187606088011115612f2757600080fd5b60005b6002811015612f50578151612f3e816136bb565b84529284019290840190600101612f2a565b505091830191909152509392505050565b600060208284031215612f7357600080fd5b813561266d816136bb565b600060208284031215612f9057600080fd5b5035919050565b600060208284031215612fa957600080fd5b5051919050565b600080600060e08486031215612fc557600080fd5b83359250612fd68560208601612ba0565b9150612fe58560a08601612b8f565b90509250925092565b6000806000806000610120868803121561300757600080fd5b853594506130188760208801612ba0565b93506130278760a08801612b8f565b925061303560e08701612bc6565b91506130446101008701612bc6565b90509295509295909350565b60006020828403121561306257600080fd5b813563ffffffff8116811461266d57600080fd5b60006020828403121561308857600080fd5b815160ff8116811461266d57600080fd5b8060005b6002811015611920578151600190810b8552602094850194909201910161309d565b8060005b600481101561192057815161ffff168452602093840193909101906001016130c3565b600081518084526130fe8160208601602086016135f4565b601f01601f19169290920160200192915050565b80516001600160a01b031682526000610220602083015161313f602086018267ffffffffffffffff169052565b50604083015161315a60408601826001600160a01b03169052565b506060830151613176606086018267ffffffffffffffff169052565b50608083015161319160808601826001600160a01b03169052565b5060a083015160a085015260c08301516131b760c086018267ffffffffffffffff169052565b5060e08301516131d260e08601826001600160a01b03169052565b506101008381015161ffff1690850152610120808401516131f582870182613099565b505061014083015161016061320c818701836130bf565b8401516101e0860152506101808301516102008501829052613230828601826130e6565b95945050505050565b6001600160a01b03815116825260208082015181840160005b6002811015611c5857825161ffff1682529183019190830190600101613252565b6001600160a01b03815116825260ff602082015116602083015260006040820151606060408501526132a860608501826130e6565b949350505050565b600082516132c28184602087016135f4565b9190910192915050565b60a08101818360005b60058110156132f857815161ffff168352602092830192909101906001016132d5565b50505092915050565b60208152600061266d60208301846130e6565b6020815260008251610140806020850152613333610160850183613112565b915060208501516001600160a01b03815116604086015261ffff60208201511660608601526040810151151560808601526060810151151560a08601526080810151151560c086015250604085015161338f60e0860182613239565b506060850151848303601f1901828601526133aa8382613273565b9695505050505050565b60208152600061266d6020830184613112565b6040815260006133da6040830185613112565b90508260208301529392505050565b85815260a06020820152600061340260a0830187613112565b6001600160a01b039590951660408301525061ffff92909216606083015263ffffffff1660809091015292915050565b8381526000602060e08184015261344c60e0840186613112565b9150604083018460005b600581101561347357815183529183019190830190600101613456565b50505050949350505050565b6000808335601e1984360301811261349657600080fd5b83018035915067ffffffffffffffff8211156134b157600080fd5b6020019150368190038213156134c657600080fd5b9250929050565b6040805190810167ffffffffffffffff811182821017156134f0576134f061368d565b60405290565b60008160010b8360010b6000821282617fff0382138115161561351b5761351b613677565b82617fff1903821281161561353257613532613677565b50019392505050565b600061ffff80831681851680830382111561355857613558613677565b01949350505050565b6000821982111561357457613574613677565b500190565b60008261359657634e487b7160e01b600052601260045260246000fd5b500490565b60008160001904831182151516156135b5576135b5613677565b500290565b600061ffff838116908316818110156135d5576135d5613677565b039392505050565b6000828210156135ef576135ef613677565b500390565b60005b8381101561360f5781810151838201526020016135f7565b838111156119205750506000910152565b600181811c9082168061363457607f821691505b60208210811415612cda57634e487b7160e01b600052602260045260246000fd5b60008160010b617fff1981141561366e5761366e613677565b60000392915050565b634e487b7160e01b600052601160045260246000fd5b634e487b7160e01b600052604160045260246000fd5b6001600160a01b03811681146136b857600080fd5b50565b61ffff811681146136b857600080fdfea2646970667358221220c20edab70d33dced647fbd3c9edd7a6941868e3181b39eb3a5b2ba5c39d6319d64736f6c63430008070033",
  "devdoc": {
    "events": {
      "Pay(uint256,uint256,(address,uint64,address,uint64,address,uint256,uint64,address,uint16,int16[2],uint16[4],uint256,string),address,uint256,uint256)": {
        "params": {
          "arbitrator": "Address of an arbitrator (zero is returned if no arbitrator was defined)",
          "arbitratorFee": "Arbitrator's fee in bips",
          "blockTime": "timestamp of the block in which the transaction was included",
          "challengePeriod": "Initial challenge period in seconds",
          "escrow": "Details of the escrow as stored in the contract",
          "escrowId": "Unique, contract-generated escrow record identifier"
        }
      },
      "Refund(uint256,(address,uint64,address,uint64,address,uint256,uint64,address,uint16,int16[2],uint16[4],uint256,string),uint256)": {
        "params": {
          "blockTime": "Timestamp of the block in which the transaction was included",
          "escrow": "Details of the refunded payment",
          "escrowId": "Id of the refunded payment"
        }
      },
      "Release(uint256,uint256,(address,uint64,address,uint64,address,uint256,uint64,address,uint16,int16[2],uint16[4],uint256,string),uint256[5])": {
        "params": {
          "amounts": "Amounts in token allocated to each party (incl. fees). See UnicrowTypes for mapping of each party (WHO_*)",
          "blockTime": "Timestamp of the block in which the transaction was included",
          "escrow": "Details of the released Escrow",
          "escrowId": "ID of the released escrow payment"
        }
      }
    },
    "kind": "dev",
    "methods": {
      "challenge(uint256,uint16[4],int16[2],uint64,uint64)": {
        "details": "can be called by UnicrowDispute only",
        "params": {
          "challengeEnd": "When the new challenge period ends",
          "challengeStart": "When the new challenge period starts",
          "consensus": "New consensus",
          "escrowId": "ID of the challenged escrow payment",
          "split": "New split (bips)"
        }
      },
      "getAllEscrowData(uint256)": {
        "params": {
          "escrowId": "ID of the escrow to be returned"
        }
      },
      "getEscrow(uint256)": {
        "params": {
          "escrowId": "ID of the escrow to be returned"
        }
      },
      "pay(address,(address,address,address,uint16,address,uint32,uint32,uint256,string),address,uint16)": {
        "details": "Escrow ID is generated automatically by the contract",
        "params": {
          "arbitrator": "Arbitrator address (submit zero address to not set an arbitrator)",
          "arbitratorFee": "Arbitrator Fee",
          "input": "Escrow input (seller, marketplace, currency, and challenge period information)",
          "sender": "An address from which the amount  will be deposited (it may be different to a buyer if e.g. another smart contract is paying on behalf of an end user)"
        }
      },
      "refund(uint256)": {
        "details": "Can be called only by the Seller",
        "params": {
          "escrowId": "ID of the escrow to be refunded"
        }
      },
      "release(uint256)": {
        "details": "Can be called by the Buyer only",
        "params": {
          "escrowId": "ID of the escrow to be released"
        }
      },
      "sendEscrowShare(address,uint256,address)": {
        "details": "Transfer ether or token from this contract's treasury. Can be called only by Unicrow's Claim contract"
      },
      "setClaimed(uint256)": {
        "details": "Callable only by other Unicrow contracts",
        "params": {
          "escrowId": "ID of the escrow to set as claimed"
        }
      },
      "settle(uint256,uint16[4],int16[2])": {
        "details": "Can be called only by UnicrowDispute",
        "params": {
          "consensus": "New consensus",
          "escrowId": "ID of the escrow to be settled",
          "split": "New split in bips (total must equal 10000)"
        }
      },
      "splitCalculation(uint16[5])": {
        "details": "The currentSplit is not expected to equal 100% in total. Buyer and seller splits should equal 100 based on how the payment is settled, other splits represent fees which will get reduced and deducted accordingly",
        "params": {
          "currentSplit": "Current splits in bips"
        }
      },
      "updateEscrowFee(uint16)": {
        "params": {
          "fee": "New protocol fee (bips)"
        }
      },
      "updateGovernance(address)": {
        "params": {
          "governance": "New governance address"
        }
      }
    },
    "title": "The primary Unicrow contract",
    "version": 1
  },
  "userdoc": {
    "events": {
      "Pay(uint256,uint256,(address,uint64,address,uint64,address,uint256,uint64,address,uint16,int16[2],uint16[4],uint256,string),address,uint256,uint256)": {
        "notice": "Emitted when the payment is deposited into the contract and an escrow record is created"
      },
      "Refund(uint256,(address,uint64,address,uint64,address,uint256,uint64,address,uint16,int16[2],uint16[4],uint256,string),uint256)": {
        "notice": "Emitted when seller fully refunds the payment. Detailed calculated values are not returned because the payment is refunded in full, all fees are waived"
      },
      "Release(uint256,uint256,(address,uint64,address,uint64,address,uint256,uint64,address,uint16,int16[2],uint16[4],uint256,string),uint256[5])": {
        "notice": "Emitted when the buyer releases the payment manually (regardless of the challenge period)"
      }
    },
    "kind": "user",
    "methods": {
      "challenge(uint256,uint16[4],int16[2],uint64,uint64)": {
        "notice": "Function called by UnicrowDispute to execute a challenge"
      },
      "constructor": {
        "notice": "The contructor initiates immutable and governed references to other contracts"
      },
      "escrowIdCounter()": {
        "notice": "Generates unique escrow ID in incremental order"
      },
      "getAllEscrowData(uint256)": {
        "notice": "Return all the escrow data (incl. arbitration information, settlement offers, and token details)"
      },
      "getEscrow(uint256)": {
        "notice": "Return basic escrow information (excl. arbitration information, settlement offers, and token details)"
      },
      "governanceAddress()": {
        "notice": "address of a governance contract (multisig initially, DAO governor eventually)"
      },
      "pay(address,(address,address,address,uint16,address,uint32,uint32,uint256,string),address,uint16)": {
        "notice": "Deposit ETH or SafeERC20 to open a new escrow payment.We don't white- or black-list, but we strongly discourage users from using ERC777 tokensand any ERC20 tokens which perform extra logic in their transfer functions. If the balance claiming transaction fails due to the token's contract error or malicious behavior, it is not possible to try to claim the balance again."
      },
      "protocolFee()": {
        "notice": "Escrow fee in bips (can never be higher than 100)"
      },
      "refund(uint256)": {
        "notice": "Refund 100% of the buyer payment (all fees are waived)."
      },
      "release(uint256)": {
        "notice": "Release the payment to the seller and to all other parties that charge a fee from it."
      },
      "setClaimed(uint256)": {
        "notice": "Set the escrow as claimed (i.e. that its balance has been sent to all the parties involved)."
      },
      "settle(uint256,uint16[4],int16[2])": {
        "notice": "Settle a payment (i.e. split it with arbitrary shares between the buyer and the seller). Fees are reduced proportionally to the seller's share."
      },
      "splitCalculation(uint16[5])": {
        "notice": "Calculating the final splits (incl. fees) based on how the payment is concluded."
      },
      "unicrowArbitrator()": {
        "notice": "Arbitrator information and functionality for the escrows"
      },
      "unicrowClaim()": {
        "notice": "Withdraws payments from the escrows once the criteria are met"
      },
      "unicrowDispute()": {
        "notice": "Dispute resolution, incl. challenges and settlements"
      },
      "updateEscrowFee(uint16)": {
        "notice": "Update protocol fee (governance only, cannot be more than 1%)"
      },
      "updateGovernance(address)": {
        "notice": "Update governance contract address (governable)"
      }
    },
    "notice": "Receives and distributes the payments, maintains and provides information about the escrow records, and allows basic operations",
    "version": 1
  },
  "storageLayout": {
    "storage": [
      {
        "astId": 10,
        "contract": "contracts/Unicrow.sol:Unicrow",
        "label": "_status",
        "offset": 0,
        "slot": "0",
        "type": "t_uint256"
      },
      {
        "astId": 1371,
        "contract": "contracts/Unicrow.sol:Unicrow",
        "label": "escrowIdCounter",
        "offset": 0,
        "slot": "1",
        "type": "t_struct(Counter)1275_storage"
      },
      {
        "astId": 1386,
        "contract": "contracts/Unicrow.sol:Unicrow",
        "label": "protocolFee",
        "offset": 0,
        "slot": "2",
        "type": "t_uint16"
      },
      {
        "astId": 1389,
        "contract": "contracts/Unicrow.sol:Unicrow",
        "label": "governanceAddress",
        "offset": 2,
        "slot": "2",
        "type": "t_address"
      },
      {
        "astId": 1395,
        "contract": "contracts/Unicrow.sol:Unicrow",
        "label": "escrows",
        "offset": 0,
        "slot": "3",
        "type": "t_mapping(t_uint256,t_struct(Escrow)4922_storage)"
      }
    ],
    "types": {
      "t_address": {
        "encoding": "inplace",
        "label": "address",
        "numberOfBytes": "20"
      },
      "t_array(t_int16)2_storage": {
        "base": "t_int16",
        "encoding": "inplace",
        "label": "int16[2]",
        "numberOfBytes": "32"
      },
      "t_array(t_uint16)4_storage": {
        "base": "t_uint16",
        "encoding": "inplace",
        "label": "uint16[4]",
        "numberOfBytes": "32"
      },
      "t_int16": {
        "encoding": "inplace",
        "label": "int16",
        "numberOfBytes": "2"
      },
      "t_mapping(t_uint256,t_struct(Escrow)4922_storage)": {
        "encoding": "mapping",
        "key": "t_uint256",
        "label": "mapping(uint256 => struct Escrow)",
        "numberOfBytes": "32",
        "value": "t_struct(Escrow)4922_storage"
      },
      "t_string_storage": {
        "encoding": "bytes",
        "label": "string",
        "numberOfBytes": "32"
      },
      "t_struct(Counter)1275_storage": {
        "encoding": "inplace",
        "label": "struct Counters.Counter",
        "members": [
          {
            "astId": 1274,
            "contract": "contracts/Unicrow.sol:Unicrow",
            "label": "_value",
            "offset": 0,
            "slot": "0",
            "type": "t_uint256"
          }
        ],
        "numberOfBytes": "32"
      },
      "t_struct(Escrow)4922_storage": {
        "encoding": "inplace",
        "label": "struct Escrow",
        "members": [
          {
            "astId": 4881,
            "contract": "contracts/Unicrow.sol:Unicrow",
            "label": "buyer",
            "offset": 0,
            "slot": "0",
            "type": "t_address"
          },
          {
            "astId": 4884,
            "contract": "contracts/Unicrow.sol:Unicrow",
            "label": "challengeExtension",
            "offset": 20,
            "slot": "0",
            "type": "t_uint64"
          },
          {
            "astId": 4887,
            "contract": "contracts/Unicrow.sol:Unicrow",
            "label": "seller",
            "offset": 0,
            "slot": "1",
            "type": "t_address"
          },
          {
            "astId": 4890,
            "contract": "contracts/Unicrow.sol:Unicrow",
            "label": "challengePeriodStart",
            "offset": 20,
            "slot": "1",
            "type": "t_uint64"
          },
          {
            "astId": 4893,
            "contract": "contracts/Unicrow.sol:Unicrow",
            "label": "marketplace",
            "offset": 0,
            "slot": "2",
            "type": "t_address"
          },
          {
            "astId": 4896,
            "contract": "contracts/Unicrow.sol:Unicrow",
            "label": "marketplaceFee",
            "offset": 0,
            "slot": "3",
            "type": "t_uint256"
          },
          {
            "astId": 4899,
            "contract": "contracts/Unicrow.sol:Unicrow",
            "label": "challengePeriodEnd",
            "offset": 0,
            "slot": "4",
            "type": "t_uint64"
          },
          {
            "astId": 4902,
            "contract": "contracts/Unicrow.sol:Unicrow",
            "label": "currency",
            "offset": 8,
            "slot": "4",
            "type": "t_address"
          },
          {
            "astId": 4905,
            "contract": "contracts/Unicrow.sol:Unicrow",
            "label": "claimed",
            "offset": 28,
            "slot": "4",
            "type": "t_uint16"
          },
          {
            "astId": 4910,
            "contract": "contracts/Unicrow.sol:Unicrow",
            "label": "consensus",
            "offset": 0,
            "slot": "5",
            "type": "t_array(t_int16)2_storage"
          },
          {
            "astId": 4915,
            "contract": "contracts/Unicrow.sol:Unicrow",
            "label": "split",
            "offset": 0,
            "slot": "6",
            "type": "t_array(t_uint16)4_storage"
          },
          {
            "astId": 4918,
            "contract": "contracts/Unicrow.sol:Unicrow",
            "label": "amount",
            "offset": 0,
            "slot": "7",
            "type": "t_uint256"
          },
          {
            "astId": 4921,
            "contract": "contracts/Unicrow.sol:Unicrow",
            "label": "paymentReference",
            "offset": 0,
            "slot": "8",
            "type": "t_string_storage"
          }
        ],
        "numberOfBytes": "288"
      },
      "t_uint16": {
        "encoding": "inplace",
        "label": "uint16",
        "numberOfBytes": "2"
      },
      "t_uint256": {
        "encoding": "inplace",
        "label": "uint256",
        "numberOfBytes": "32"
      },
      "t_uint64": {
        "encoding": "inplace",
        "label": "uint64",
        "numberOfBytes": "8"
      }
    }
  }
}