{
  "address": "0xF1447b0fda912a6857B5d77d7cDE9663266896cf",
  "abi": [
    {
      "inputs": [
        {
          "internalType": "address",
          "name": "unicrow_",
          "type": "address"
        },
        {
          "internalType": "address",
          "name": "unicrowClaim_",
          "type": "address"
        }
      ],
      "stateMutability": "nonpayable",
      "type": "constructor"
    },
    {
      "anonymous": false,
      "inputs": [
        {
          "indexed": true,
          "internalType": "uint256",
          "name": "escrowId",
          "type": "uint256"
        },
        {
          "components": [
            {
              "internalType": "address",
              "name": "buyer",
              "type": "address"
            },
            {
              "internalType": "uint64",
              "name": "challengeExtension",
              "type": "uint64"
            },
            {
              "internalType": "address",
              "name": "seller",
              "type": "address"
            },
            {
              "internalType": "uint64",
              "name": "challengePeriodStart",
              "type": "uint64"
            },
            {
              "internalType": "address",
              "name": "marketplace",
              "type": "address"
            },
            {
              "internalType": "uint256",
              "name": "marketplaceFee",
              "type": "uint256"
            },
            {
              "internalType": "uint64",
              "name": "challengePeriodEnd",
              "type": "uint64"
            },
            {
              "internalType": "address",
              "name": "currency",
              "type": "address"
            },
            {
              "internalType": "uint16",
              "name": "claimed",
              "type": "uint16"
            },
            {
              "internalType": "int16[2]",
              "name": "consensus",
              "type": "int16[2]"
            },
            {
              "internalType": "uint16[4]",
              "name": "split",
              "type": "uint16[4]"
            },
            {
              "internalType": "uint256",
              "name": "amount",
              "type": "uint256"
            }
          ],
          "indexed": false,
          "internalType": "struct Escrow",
          "name": "escrow",
          "type": "tuple"
        },
        {
          "indexed": false,
          "internalType": "uint256",
          "name": "blockTime",
          "type": "uint256"
        },
        {
          "indexed": false,
          "internalType": "uint256[5]",
          "name": "amounts",
          "type": "uint256[5]"
        }
      ],
      "name": "Arbitrated",
      "type": "event"
    },
    {
      "anonymous": false,
      "inputs": [
        {
          "indexed": true,
          "internalType": "uint256",
          "name": "escrowId",
          "type": "uint256"
        },
        {
          "indexed": false,
          "internalType": "address",
          "name": "arbitrator",
          "type": "address"
        },
        {
          "indexed": false,
          "internalType": "uint256",
          "name": "arbitratorFee",
          "type": "uint256"
        }
      ],
      "name": "ArbitratorApproved",
      "type": "event"
    },
    {
      "anonymous": false,
      "inputs": [
        {
          "indexed": true,
          "internalType": "uint256",
          "name": "escrowId",
          "type": "uint256"
        },
        {
          "indexed": false,
          "internalType": "address",
          "name": "arbitrator",
          "type": "address"
        },
        {
          "indexed": false,
          "internalType": "uint16",
          "name": "arbitratorFee",
          "type": "uint16"
        },
        {
          "indexed": false,
          "internalType": "address",
          "name": "proposer",
          "type": "address"
        }
      ],
      "name": "ArbitratorProposed",
      "type": "event"
    },
    {
      "inputs": [
        {
          "internalType": "uint256",
          "name": "escrowId",
          "type": "uint256"
        },
        {
          "internalType": "address",
          "name": "validationAddress",
          "type": "address"
        },
        {
          "internalType": "uint16",
          "name": "validation",
          "type": "uint16"
        }
      ],
      "name": "approveArbitrator",
      "outputs": [],
      "stateMutability": "nonpayable",
      "type": "function"
    },
    {
      "inputs": [
        {
          "internalType": "uint256",
          "name": "escrowId",
          "type": "uint256"
        },
        {
          "internalType": "uint16[2]",
          "name": "newSplit",
          "type": "uint16[2]"
        }
      ],
      "name": "arbitrate",
      "outputs": [],
      "stateMutability": "nonpayable",
      "type": "function"
    },
    {
      "inputs": [
        {
          "internalType": "uint16[5]",
          "name": "currentSplit",
          "type": "uint16[5]"
        }
      ],
      "name": "arbitrationCalculation",
      "outputs": [
        {
          "internalType": "uint16[5]",
          "name": "",
          "type": "uint16[5]"
        }
      ],
      "stateMutability": "pure",
      "type": "function"
    },
    {
      "inputs": [
        {
          "internalType": "uint256",
          "name": "",
          "type": "uint256"
        }
      ],
      "name": "escrowArbitrator",
      "outputs": [
        {
          "internalType": "address",
          "name": "arbitrator",
          "type": "address"
        },
        {
          "internalType": "uint16",
          "name": "arbitratorFee",
          "type": "uint16"
        },
        {
          "internalType": "bool",
          "name": "sellerConsensus",
          "type": "bool"
        },
        {
          "internalType": "bool",
          "name": "buyerConsensus",
          "type": "bool"
        },
        {
          "internalType": "bool",
          "name": "arbitrated",
          "type": "bool"
        }
      ],
      "stateMutability": "view",
      "type": "function"
    },
    {
      "inputs": [
        {
          "internalType": "uint256",
          "name": "escrowId",
          "type": "uint256"
        }
      ],
      "name": "getArbitratorData",
      "outputs": [
        {
          "components": [
            {
              "internalType": "address",
              "name": "arbitrator",
              "type": "address"
            },
            {
              "internalType": "uint16",
              "name": "arbitratorFee",
              "type": "uint16"
            },
            {
              "internalType": "bool",
              "name": "sellerConsensus",
              "type": "bool"
            },
            {
              "internalType": "bool",
              "name": "buyerConsensus",
              "type": "bool"
            },
            {
              "internalType": "bool",
              "name": "arbitrated",
              "type": "bool"
            }
          ],
          "internalType": "struct Arbitrator",
          "name": "",
          "type": "tuple"
        }
      ],
      "stateMutability": "view",
      "type": "function"
    },
    {
      "inputs": [
        {
          "internalType": "uint256",
          "name": "escrowId",
          "type": "uint256"
        },
        {
          "internalType": "address",
          "name": "arbitrator",
          "type": "address"
        },
        {
          "internalType": "uint16",
          "name": "arbitratorFee",
          "type": "uint16"
        }
      ],
      "name": "proposeArbitrator",
      "outputs": [],
      "stateMutability": "nonpayable",
      "type": "function"
    },
    {
      "inputs": [
        {
          "internalType": "uint256",
          "name": "escrowId",
          "type": "uint256"
        },
        {
          "internalType": "address",
          "name": "arbitrator",
          "type": "address"
        },
        {
          "internalType": "uint16",
          "name": "arbitratorFee",
          "type": "uint16"
        }
      ],
      "name": "setArbitrator",
      "outputs": [],
      "stateMutability": "nonpayable",
      "type": "function"
    },
    {
      "inputs": [],
      "name": "unicrow",
      "outputs": [
        {
          "internalType": "contract Unicrow",
          "name": "",
          "type": "address"
        }
      ],
      "stateMutability": "view",
      "type": "function"
    },
    {
      "inputs": [],
      "name": "unicrowClaim",
      "outputs": [
        {
          "internalType": "contract IUnicrowClaim",
          "name": "",
          "type": "address"
        }
      ],
      "stateMutability": "view",
      "type": "function"
    }
  ],
  "transactionHash": "0xc9aec406ca73e9da2b11e9a5d9cb80c745b46a6a1e059582696713cfc70c43c6",
  "args": [
    "0x24e9ECC6c56dcD0C875fDF181FA3A4EEf3c5D5F0",
    "0x40F83551803051676eB7Cb0374176d03db247b97"
  ],
  "numDeployments": 2,
  "solcInputHash": "dd06e32b55195a1ed654e198c4426365",
  "bytecode": "0x60c06040523480156200001157600080fd5b5060405162001a3d38038062001a3d833981016040819052620000349162000075565b60016000556001600160601b0319606092831b8116608052911b1660a052620000ad565b80516001600160a01b03811681146200007057600080fd5b919050565b600080604083850312156200008957600080fd5b620000948362000058565b9150620000a46020840162000058565b90509250929050565b60805160601c60a05160601c6119336200010a6000396000818161025e015261075f01526000818161016601528181610322015281816103fd0152818161067c01528181610acb01528181610e60015261114a01526119336000f3fe608060405234801561001057600080fd5b50600436106100a35760003560e01c80636e4e2934116100765780638e032c5a1161005b5780638e032c5a146101b3578063e2bc475c146101c6578063e9db7d791461025957600080fd5b80636e4e29341461016157806379414b3c146101a057600080fd5b806316e0551b146100a85780632ea8eddd14610119578063496f928b1461012e5780634c403c5314610141575b600080fd5b6100bb6100b636600461150e565b610280565b6040516101109190600060a0820190506001600160a01b03835116825261ffff602084015116602083015260408301511515604083015260608301511515606083015260808301511515608083015292915050565b60405180910390f35b61012c610127366004611527565b61031f565b005b61012c61013c366004611569565b6103ce565b61015461014f366004611362565b610820565b6040516101109190611612565b6101887f000000000000000000000000000000000000000000000000000000000000000081565b6040516001600160a01b039091168152602001610110565b61012c6101ae366004611527565b610a64565b61012c6101c1366004611527565b610df1565b61021c6101d436600461150e565b6001602052600090815260409020546001600160a01b0381169061ffff600160a01b8204169060ff600160b01b8204811691600160b81b8104821691600160c01b9091041685565b604080516001600160a01b03909616865261ffff90941660208601529115159284019290925290151560608301521515608082015260a001610110565b6101887f000000000000000000000000000000000000000000000000000000000000000081565b6040805160a08101825260008082526020820181905291810182905260608101829052608081019190915250600090815260016020908152604091829020825160a08101845290546001600160a01b038116825261ffff600160a01b8204169282019290925260ff600160b01b83048116151593820193909352600160b81b8204831615156060820152600160c01b9091049091161515608082015290565b337f00000000000000000000000000000000000000000000000000000000000000006001600160a01b03161461035457600080fd5b60009283526001602052604090922080547701010000000000000000000000000000000000000000000061ffff60b01b1961ffff909516600160a01b027fffffffffffffffffffff000000000000000000000000000000000000000000009092166001600160a01b03909416939093171792909216179055565b60006103d983610280565b604051633e8cf2cb60e11b8152600481018590529091506000906001600160a01b037f00000000000000000000000000000000000000000000000000000000000000001690637d19e596906024016102006040518083038186803b15801561044057600080fd5b505afa158015610454573d6000803e3d6000fd5b505050506040513d601f19601f820116820180604052508101906104789190611405565b82519091506001600160a01b0316336001600160a01b0316146104e25760405162461bcd60e51b815260206004820152600560248201527f322d30303500000000000000000000000000000000000000000000000000000060448201526064015b60405180910390fd5b816060015180156104f4575081604001515b6105405760405162461bcd60e51b815260206004820152600560248201527f322d30303100000000000000000000000000000000000000000000000000000060448201526064016104d9565b61055060408401602085016114ea565b61055d60208501856114ea565b61056791906117f1565b61ffff16612710146105bb5760405162461bcd60e51b815260206004820152600560248201527f312d30303700000000000000000000000000000000000000000000000000000060448201526064016104d9565b6101208101516105d29060005b6020020151611104565b6105dd9060016117ac565b61012082018051600192830b830b9052516105f7916105c8565b610120820151600191820b90910b602091820152610617908401846114ea565b61014082015161ffff91909116905261063660408401602085016114ea565b6101408201805161ffff92909216602090920191909152516101208201516040517f64166e630000000000000000000000000000000000000000000000000000000081527f00000000000000000000000000000000000000000000000000000000000000006001600160a01b0316926364166e63926106bb9289929190600401611761565b600060405180830381600087803b1580156106d557600080fd5b505af11580156106e9573d6000803e3d6000fd5b50505060008581526001602052604080822080547fffffffffffffff00ffffffffffffffffffffffffffffffffffffffffffffffff16600160c01b179055517f379607f5000000000000000000000000000000000000000000000000000000008152600481018790529091506001600160a01b037f0000000000000000000000000000000000000000000000000000000000000000169063379607f59060240160a060405180830381600087803b1580156107a357600080fd5b505af11580156107b7573d6000803e3d6000fd5b505050506040513d601f19601f820116820180604052508101906107db919061138a565b9050847f078c1bd0728767e70d5913396262af1d8c75f3daa7a80c3c6af9594909bf806383428460405161081193929190611647565b60405180910390a25050505050565b610828611208565b610830611208565b6000808061084460a08701608088016114ea565b61ffff1611156108e15761271061085e60208701876114ea565b61ffff1661087260a08801608089016114ea565b61ffff166108809190611851565b61088a919061182f565b905061271061089f60408701602088016114ea565b61ffff166108b360a08801608089016114ea565b61ffff166108c19190611851565b6108cb919061182f565b91506108d782826117f1565b61ffff1660808401525b60006108f360808701606088016114ea565b61ffff1611156109465761271061091060408701602088016114ea565b61ffff1661092460808801606089016114ea565b61ffff166109329190611851565b61093c919061182f565b61ffff1660608401525b600061095860608701604088016114ea565b61ffff1611156109ab5761271061097560408701602088016114ea565b61ffff1661098960608801604089016114ea565b61ffff166109979190611851565b6109a1919061182f565b61ffff1660408401525b60006109ba60208701876114ea565b61ffff1611156109eb5761ffff81166109d660208701876114ea565b61ffff166109e49190611870565b61ffff1683525b60006109fd60408701602088016114ea565b61ffff161115610a5b57604080840151606085015161ffff8581169392811692911690610a2f90890160208a016114ea565b61ffff16610a3d9190611870565b610a479190611870565b610a519190611870565b61ffff1660208401525b50909392505050565b8233610a708282611127565b610aa45760405162461bcd60e51b81526020600482015260056024820152640c8b4c0c0d60da1b60448201526064016104d9565b6000858152600160205260408082209051633e8cf2cb60e11b8152600481018890529091907f00000000000000000000000000000000000000000000000000000000000000006001600160a01b031690637d19e596906024016102006040518083038186803b158015610b1657600080fd5b505afa158015610b2a573d6000803e3d6000fd5b505050506040513d601f19601f82011682018060405250810190610b4e9190611405565b90506001600160a01b038616610ba65760405162461bcd60e51b815260206004820152600560248201527f322d30303900000000000000000000000000000000000000000000000000000060448201526064016104d9565b80516001600160a01b03878116911614801590610bd9575080604001516001600160a01b0316866001600160a01b031614155b610c255760405162461bcd60e51b815260206004820152600560248201527f322d30313000000000000000000000000000000000000000000000000000000060448201526064016104d9565b8154600160b81b900460ff161580610c4657508154600160b01b900460ff16155b610c925760405162461bcd60e51b815260206004820152600560248201527f322d30303600000000000000000000000000000000000000000000000000000060448201526064016104d9565b6101408101516127109061ffff8716906003602002015161ffff168360a00151610cbc9190611817565b610cc69190611817565b10610cfb5760405162461bcd60e51b8152602060048201526005602482015264322d30303760d81b60448201526064016104d9565b81546001600160a01b0387167fffffffffffffffffffff0000000000000000000000000000000000000000000090911617600160a01b61ffff871602178255610d52813390516001600160a01b0390811691161490565b15610d6e57815461ffff60b01b1916600160b81b178255610d96565b60408101516001600160a01b0316331415610d9657815461ffff60b01b1916600160b01b1782555b604080516001600160a01b038816815261ffff87166020820152339181019190915287907fbf42827f17777ed92b098fa9e5f6823ecb5c116e3b23909cc242530b1784dbbc906060015b60405180910390a250505050505050565b8233610dfd8282611127565b610e315760405162461bcd60e51b81526020600482015260056024820152640c8b4c0c0d60da1b60448201526064016104d9565b6000610e3c86610280565b604051633e8cf2cb60e11b8152600481018890529091506000906001600160a01b037f00000000000000000000000000000000000000000000000000000000000000001690637d19e596906024016102006040518083038186803b158015610ea357600080fd5b505afa158015610eb7573d6000803e3d6000fd5b505050506040513d601f19601f82011682018060405250810190610edb9190611405565b82519091506001600160a01b0316610f1d5760405162461bcd60e51b81526020600482015260056024820152640645a6060760db1b60448201526064016104d9565b81516001600160a01b03878116911614610f615760405162461bcd60e51b81526020600482015260056024820152640645a6060760db1b60448201526064016104d9565b816020015161ffff168561ffff1614610fa45760405162461bcd60e51b8152602060048201526005602482015264322d30303760d81b60448201526064016104d9565b80516001600160a01b031633141561102b57606082015115610ff05760405162461bcd60e51b8152602060048201526005602482015264322d30303360d81b60448201526064016104d9565b600087815260016020526040902080547fffffffffffffffff00ffffffffffffffffffffffffffffffffffffffffffffff16600160b81b1790555b60408101516001600160a01b03163314156110b55760408201511561107a5760405162461bcd60e51b8152602060048201526005602482015264322d30303360d81b60448201526064016104d9565b600087815260016020526040902080547fffffffffffffffffff00ffffffffffffffffffffffffffffffffffffffffffff16600160b01b1790555b8151602083015160405189927fd514ca74d69a194b5d9455914d0d20ef96d29b6177b241c9d5f608264055199c92610de0926001600160a01b0392909216825261ffff16602082015260400190565b6000808260010b121561111f5761111a82611887565b611121565b815b92915050565b604051633e8cf2cb60e11b81526004810183905260009081906001600160a01b037f00000000000000000000000000000000000000000000000000000000000000001690637d19e596906024016102006040518083038186803b15801561118d57600080fd5b505afa1580156111a1573d6000803e3d6000fd5b505050506040513d601f19601f820116820180604052508101906111c59190611405565b9050826001600160a01b031681600001516001600160a01b031614806112005750826001600160a01b031681604001516001600160a01b0316145b949350505050565b6040518060a001604052806005906020820280368337509192915050565b8051611231816118d5565b919050565b600082601f83011261124757600080fd5b6040516040810181811067ffffffffffffffff8211171561126a5761126a6118bf565b806040525080838560408601111561128157600080fd5b6000805b60028110156112b35782518060010b811461129e578283fd5b84526020938401939290920191600101611285565b50929695505050505050565b600082601f8301126112d057600080fd5b6040516080810181811067ffffffffffffffff821117156112f3576112f36118bf565b60405280836080810186101561130857600080fd5b60005b600481101561133457815161131f816118ed565b8352602092830192919091019060010161130b565b509195945050505050565b8051611231816118ed565b805167ffffffffffffffff8116811461123157600080fd5b600060a0828403121561137457600080fd5b8260a08301111561138457600080fd5b50919050565b600060a0828403121561139c57600080fd5b82601f8301126113ab57600080fd5b60405160a0810181811067ffffffffffffffff821117156113ce576113ce6118bf565b604052808360a081018610156113e357600080fd5b60005b60058110156113345781518352602092830192909101906001016113e6565b6000610200828403121561141857600080fd5b611420611782565b61142983611226565b81526114376020840161134a565b602082015261144860408401611226565b60408201526114596060840161134a565b606082015261146a60808401611226565b608082015260a083015160a082015261148560c0840161134a565b60c082015261149660e08401611226565b60e08201526101006114a981850161133f565b908201526101206114bc85858301611236565b908201526101606114cf858583016112bf565b6101408301526101e084015181830152508091505092915050565b6000602082840312156114fc57600080fd5b8135611507816118ed565b9392505050565b60006020828403121561152057600080fd5b5035919050565b60008060006060848603121561153c57600080fd5b83359250602084013561154e816118d5565b9150604084013561155e816118ed565b809150509250925092565b6000806060838503121561157c57600080fd5b823591508360608401111561159057600080fd5b50926020919091019150565b8060005b60028110156115c2578151600190810b855260209485019490920191016115a0565b50505050565b8060005b60048110156115c257815161ffff168452602093840193909101906001016115cc565b8060005b60058110156115c25781518452602093840193909101906001016115f3565b60a08101818360005b600581101561163e57815161ffff1683526020928301929091019060010161161b565b50505092915050565b83516001600160a01b031681526102c081016020850151611674602084018267ffffffffffffffff169052565b50604085015161168f60408401826001600160a01b03169052565b5060608501516116ab606084018267ffffffffffffffff169052565b5060808501516116c660808401826001600160a01b03169052565b5060a085015160a083015260c08501516116ec60c084018267ffffffffffffffff169052565b5060e085015161170760e08401826001600160a01b03169052565b506101008581015161ffff16908301526101208086015161172a8285018261159c565b5050610140850151610160611741818501836115c8565b8601516101e08401525061020082018490526112006102208301846115ef565b83815260e0810161177560208301856115c8565b61120060a083018461159c565b604051610180810167ffffffffffffffff811182821017156117a6576117a66118bf565b60405290565b60008160010b8360010b6000821282617fff038213811516156117d1576117d16118a9565b82617fff190382128116156117e8576117e86118a9565b50019392505050565b600061ffff80831681851680830382111561180e5761180e6118a9565b01949350505050565b6000821982111561182a5761182a6118a9565b500190565b60008261184c57634e487b7160e01b600052601260045260246000fd5b500490565b600081600019048311821515161561186b5761186b6118a9565b500290565b600082821015611882576118826118a9565b500390565b60008160010b617fff198114156118a0576118a06118a9565b60000392915050565b634e487b7160e01b600052601160045260246000fd5b634e487b7160e01b600052604160045260246000fd5b6001600160a01b03811681146118ea57600080fd5b50565b61ffff811681146118ea57600080fdfea26469706673582212204c16672b65f7ada3cbf8a0d226af782f701748b77b23bf981ad80327f1fe910364736f6c63430008070033",
  "devdoc": {
    "events": {
      "Arbitrated(uint256,(address,uint64,address,uint64,address,uint256,uint64,address,uint16,int16[2],uint16[4],uint256),uint256,uint256[5])": {
        "details": "Emitted when the arbitrator has resolved a dispute",
        "params": {
          "amounts": "All amounts (i.e. incl. marketplace fee, arbitrator fee, and protocol fee) in the token",
          "blockTime": "Timestamp of the block in which the transaction was minuted",
          "escrow": "The escrow data, incl. the final split between buyer and seller as decided by the arbitrator",
          "escrowId": "Id of the arbitrated escrow"
        }
      },
      "ArbitratorApproved(uint256,address,uint256)": {
        "details": "Emitted when the arbitrator proposal was approved by the other party",
        "params": {
          "arbitrator": "Arbitrator's address",
          "arbitratorFee": "Proposed fee in bips",
          "escrowId": "Id of the escrow to which the proposer belongs"
        }
      },
      "ArbitratorProposed(uint256,address,uint16,address)": {
        "details": "Emitted when an arbitrator has been proposed by one of the parties orif the other party sends a different proposal or also if the original party changes their proposal",
        "params": {
          "arbitrator": "Arbitrator's address",
          "arbitratorFee": "Proposed fee in bips",
          "escrowId": "Id of the escrow to which the proposer belongs",
          "proposer": "Address of the party that sent the proposal"
        }
      }
    },
    "kind": "dev",
    "methods": {
      "approveArbitrator(uint256,address,uint16)": {
        "details": "To ensure the user approves an arbitrator they wanted, it requires the same parameters as proposal",
        "params": {
          "escrowId": "Id of an escrow",
          "validation": "Arbitrator's Fee - will be compared with the existing proposal",
          "validationAddress": "Arbitrator's address - will be compared with the existing proposal"
        }
      },
      "arbitrate(uint256,uint16[2])": {
        "params": {
          "escrowId": "Id of an escrow",
          "newSplit": "How the payment should be split between buyer [0] and seller [1]. [100, 0] will refund the payment to the buyer, [0, 100] will release it to the seller, anything in between will"
        }
      },
      "arbitrationCalculation(uint16[5])": {
        "details": "Calculates final splits of all parties involved in the payment when the paymet is decided by an arbitrator.If seller's split is < 100% it will discount the marketplace and protocol fee, but (unlike when refunded byseller or settled mutually) will keep full Arbitrator fee and deduct it from both shares proportionally",
        "params": {
          "currentSplit": "Current split in bips. See WHO_* contants for keys"
        },
        "returns": {
          "_0": "Splits in bips using the same keys for the array"
        }
      },
      "constructor": {
        "params": {
          "unicrowClaim_": "UnicrowClaim contract address",
          "unicrow_": "Unicrow contract address"
        }
      },
      "getArbitratorData(uint256)": {
        "details": "buyerConsensus and sellerConsensus indicate if the arbitrator was only proposed by one of the parties orhas been assigned by the mutual consensus",
        "params": {
          "escrowId": "ID of the escrow"
        },
        "returns": {
          "_0": "Arbitrator information."
        }
      },
      "proposeArbitrator(uint256,address,uint16)": {
        "params": {
          "arbitrator": "Arbitrator's address",
          "arbitratorFee": "Arbitrator fee in bips (can be 0)",
          "escrowId": "Id of the escrow"
        }
      },
      "setArbitrator(uint256,address,uint16)": {
        "details": "Called by Unicrow.pay()",
        "params": {
          "arbitrator": "Arbitrator's address",
          "arbitratorFee": "Arbitrator fee in bips (can be 0)",
          "escrowId": "Id of the escrow"
        }
      }
    },
    "title": "Unicrow Arbitrator",
    "version": 1
  },
  "userdoc": {
    "kind": "user",
    "methods": {
      "approveArbitrator(uint256,address,uint16)": {
        "notice": "Approve an arbitrator proposed by another party (i.e. by seller if buyer proposed, by buyer if seller proposed)."
      },
      "arbitrate(uint256,uint16[2])": {
        "notice": "Arbitrate an payment - to be called only by an escrow's arbitrator"
      },
      "constructor": {
        "notice": "The constructor provides immutable reference to the main escrow and claimMultiple contracts"
      },
      "escrowArbitrator(uint256)": {
        "notice": "Stores information about arbitrators in relation to escrows"
      },
      "getArbitratorData(uint256)": {
        "notice": "Get information about proposed or assigned arbitrator."
      },
      "proposeArbitrator(uint256,address,uint16)": {
        "notice": "One of the parties (buyer or seller) can call this to propose an arbitrator for an escrow that has no arbitrator defined"
      },
      "setArbitrator(uint256,address,uint16)": {
        "notice": "Assigns an arbitrator to an escrow."
      },
      "unicrow()": {
        "notice": "Reference to the main Unicrow contract"
      },
      "unicrowClaim()": {
        "notice": "Reference to the contract that manages claims from the escrows"
      }
    },
    "notice": "Functionality for assigning an arbitrator to an escrow and for an arbitrator to decide a dispute",
    "version": 1
  },
  "storageLayout": {
    "storage": [
      {
        "astId": 10,
        "contract": "contracts/UnicrowArbitrator.sol:UnicrowArbitrator",
        "label": "_status",
        "offset": 0,
        "slot": "0",
        "type": "t_uint256"
      },
      {
        "astId": 2544,
        "contract": "contracts/UnicrowArbitrator.sol:UnicrowArbitrator",
        "label": "escrowArbitrator",
        "offset": 0,
        "slot": "1",
        "type": "t_mapping(t_uint256,t_struct(Arbitrator)4910_storage)"
      }
    ],
    "types": {
      "t_address": {
        "encoding": "inplace",
        "label": "address",
        "numberOfBytes": "20"
      },
      "t_bool": {
        "encoding": "inplace",
        "label": "bool",
        "numberOfBytes": "1"
      },
      "t_mapping(t_uint256,t_struct(Arbitrator)4910_storage)": {
        "encoding": "mapping",
        "key": "t_uint256",
        "label": "mapping(uint256 => struct Arbitrator)",
        "numberOfBytes": "32",
        "value": "t_struct(Arbitrator)4910_storage"
      },
      "t_struct(Arbitrator)4910_storage": {
        "encoding": "inplace",
        "label": "struct Arbitrator",
        "members": [
          {
            "astId": 4897,
            "contract": "contracts/UnicrowArbitrator.sol:UnicrowArbitrator",
            "label": "arbitrator",
            "offset": 0,
            "slot": "0",
            "type": "t_address"
          },
          {
            "astId": 4900,
            "contract": "contracts/UnicrowArbitrator.sol:UnicrowArbitrator",
            "label": "arbitratorFee",
            "offset": 20,
            "slot": "0",
            "type": "t_uint16"
          },
          {
            "astId": 4903,
            "contract": "contracts/UnicrowArbitrator.sol:UnicrowArbitrator",
            "label": "sellerConsensus",
            "offset": 22,
            "slot": "0",
            "type": "t_bool"
          },
          {
            "astId": 4906,
            "contract": "contracts/UnicrowArbitrator.sol:UnicrowArbitrator",
            "label": "buyerConsensus",
            "offset": 23,
            "slot": "0",
            "type": "t_bool"
          },
          {
            "astId": 4909,
            "contract": "contracts/UnicrowArbitrator.sol:UnicrowArbitrator",
            "label": "arbitrated",
            "offset": 24,
            "slot": "0",
            "type": "t_bool"
          }
        ],
        "numberOfBytes": "32"
      },
      "t_uint16": {
        "encoding": "inplace",
        "label": "uint16",
        "numberOfBytes": "2"
      },
      "t_uint256": {
        "encoding": "inplace",
        "label": "uint256",
        "numberOfBytes": "32"
      }
    }
  }
}